Component: Arm Compiler for Embedded 6.22 Tool: armlink [5ee90200]

==============================================================================

Section Cross References

    startup.o(.text.bss_data_init) refers to startup_g32a1465.o(.text) for __VECTOR_ROM
    startup.o(.ARM.exidx.text.bss_data_init) refers to startup.o(.text.bss_data_init) for [Anonymous Symbol]
    system_g32a1xxx.o(.ARM.exidx.text.WDT_Disable) refers to system_g32a1xxx.o(.text.WDT_Disable) for [Anonymous Symbol]
    system_g32a1xxx.o(.ARM.exidx.text.SystemInit) refers to system_g32a1xxx.o(.text.SystemInit) for [Anonymous Symbol]
    system_g32a1xxx.o(.text.SystemCoreClockUpdate) refers to system_g32a1xxx.o(.data.SystemCoreClock) for SystemCoreClock
    system_g32a1xxx.o(.ARM.exidx.text.SystemCoreClockUpdate) refers to system_g32a1xxx.o(.text.SystemCoreClockUpdate) for [Anonymous Symbol]
    system_g32a1xxx.o(.ARM.exidx.text.SystemCoreClockConfigure) refers to system_g32a1xxx.o(.text.SystemCoreClockConfigure) for [Anonymous Symbol]
    system_g32a1xxx.o(.ARM.exidx.text.SystemSoftwareReset) refers to system_g32a1xxx.o(.text.SystemSoftwareReset) for [Anonymous Symbol]
    startup_g32a1465.o(.text) refers (Special) to main.o(.text.main) for main
    startup_g32a1465.o(.text) refers to startup_g32a1465.o(FlashConfig) for FlashConfig
    startup_g32a1465.o(.text) refers to startup_g32a1465.o(RESET) for __Vectors
    startup_g32a1465.o(.text) refers to system_g32a1xxx.o(.text.SystemInit) for SystemInit
    startup_g32a1465.o(.text) refers to startup.o(.text.bss_data_init) for bss_data_init
    startup_g32a1465.o(.text) refers to entry.o(.ARM.Collect$$$$00000000) for __main
    startup_g32a1465.o(RESET) refers (Special) to main.o(.text.main) for main
    startup_g32a1465.o(RESET) refers to startup_g32a1465.o(.text) for Reset_Handler
    startup_g32a1465.o(RESET) refers to g32a1xxx_int.o(.text.NMI_Handler) for NMI_Handler
    startup_g32a1465.o(RESET) refers to g32a1xxx_int.o(.text.HardFault_Handler) for HardFault_Handler
==============================================================================

Removing Unused input sections from the image.

    Removing startup.o(.text), (0 bytes).
    Removing startup.o(.ARM.exidx.text.bss_data_init), (8 bytes).
    Removing system_g32a1xxx.o(.text), (0 bytes).
    Removing system_g32a1xxx.o(.text.WDT_Disable), (36 bytes).
    Removing system_g32a1xxx.o(.ARM.exidx.text.WDT_Disable), (8 bytes).
    Removing system_g32a1xxx.o(.ARM.exidx.text.SystemInit), (8 bytes).
    Removing system_g32a1xxx.o(.text.SystemCoreClockUpdate), (170 bytes).
    Removing system_g32a1xxx.o(.ARM.exidx.text.SystemCoreClockUpdate), (8 bytes).
    Removing system_g32a1xxx.o(.text.SystemCoreClockConfigure), (356 bytes).
    Removing system_g32a1xxx.o(.ARM.exidx.text.SystemCoreClockConfigure), (8 bytes).
    Removing system_g32a1xxx.o(.text.SystemSoftwareReset), (32 bytes).
    Removing system_g32a1xxx.o(.ARM.exidx.text.SystemSoftwareReset), (8 bytes).
    Removing system_g32a1xxx.o(.data.SystemCoreClock), (4 bytes).
    Removing main.o(.text), (0 bytes).
    Removing main.o(.text.Delay_ms), (62 bytes).
    Removing main.o(.ARM.exidx.text.Delay_ms), (8 bytes).
    Removing main.o(.text.LCD_WriteData_16Bit), (76 bytes).
    Removing main.o(.ARM.exidx.text.LCD_WriteData_16Bit), (8 bytes).
==============================================================================

Image Symbol Table

    Local Symbols

    Symbol Name                              Value     Ov Type        Size  Object(Section)

    ../clib/../cmprslib/zerorunl2.c          0x00000000   Number         0  __dczerorl2.o ABSOLUTE
    ../clib/microlib/init/entry.s            0x00000000   Number         0  entry.o ABSOLUTE
    ../clib/microlib/init/entry.s            0x00000000   Number         0  entry4.o ABSOLUTE
    ../clib/microlib/init/entry.s            0x00000000   Number         0  entry5.o ABSOLUTE
    ../clib/microlib/init/entry.s            0x00000000   Number         0  entry7a.o ABSOLUTE
    ../clib/microlib/init/entry.s            0x00000000   Number         0  entry7b.o ABSOLUTE
    ../clib/microlib/init/entry.s            0x00000000   Number         0  entry8a.o ABSOLUTE
    ../clib/microlib/init/entry.s            0x00000000   Number         0  entry8b.o ABSOLUTE
    ../clib/microlib/init/entry.s            0x00000000   Number         0  entry9a.o ABSOLUTE
    ../clib/microlib/init/entry.s            0x00000000   Number         0  entry9b.o ABSOLUTE
    ../clib/microlib/init/entry.s            0x00000000   Number         0  entry10a.o ABSOLUTE
    ../clib/microlib/init/entry.s            0x00000000   Number         0  entry10b.o ABSOLUTE
    ../clib/microlib/init/entry.s            0x00000000   Number         0  entry11a.o ABSOLUTE
    ../clib/microlib/init/entry.s            0x00000000   Number         0  entry11b.o ABSOLUTE
    ../clib/microlib/stdio/puts.c            0x00000000   Number         0  puts.o ABSOLUTE
    ../clib/microlib/stdio/puts.c            0x00000000   Number         0  puts_e.o ABSOLUTE
    ../clib/microlib/stdio/streams.c         0x00000000   Number         0  stdout.o ABSOLUTE
    ../clib/microlib/string/memcpy.c         0x00000000   Number         0  memcpya.o ABSOLUTE
    ../clib/microlib/string/memcpy.c         0x00000000   Number         0  memcpyb.o ABSOLUTE
    ../clib/microlib/string/memset.c         0x00000000   Number         0  memseta.o ABSOLUTE
    ..\..\..\..\..\..\Libraries\Device\Geehy\G32A1xxx\G32A1465\startup\armc\startup_g32a1465.S 0x00000000   Number         0  startup_g32a1465.o ABSOLUTE
    board.c                                  0x00000000   Number         0  board.o ABSOLUTE
    dc.s                                     0x00000000   Number         0  dc.o ABSOLUTE
    g32a1xxx_clock.c                         0x00000000   Number         0  g32a1xxx_clock.o ABSOLUTE
    g32a1xxx_dma.c                           0x00000000   Number         0  g32a1xxx_dma.o ABSOLUTE
    g32a1xxx_int.c                           0x00000000   Number         0  g32a1xxx_int.o ABSOLUTE
    g32a1xxx_interrupt.c                     0x00000000   Number         0  g32a1xxx_interrupt.o ABSOLUTE
    g32a1xxx_lpspi.c                         0x00000000   Number         0  g32a1xxx_lpspi.o ABSOLUTE
    g32a1xxx_lpuart.c                        0x00000000   Number         0  g32a1xxx_lpuart.o ABSOLUTE
    g32a1xxx_pins.c                          0x00000000   Number         0  g32a1xxx_pins.o ABSOLUTE
    handlers.s                               0x00000000   Number         0  handlers.o ABSOLUTE
    init.s                                   0x00000000   Number         0  init.o ABSOLUTE
    main.c                                   0x00000000   Number         0  main.o ABSOLUTE
    osif.c                                   0x00000000   Number         0  osif.o ABSOLUTE
    startup.c                                0x00000000   Number         0  startup.o ABSOLUTE
    system_g32a1xxx.c                        0x00000000   Number         0  system_g32a1xxx.o ABSOLUTE
    user_clock_config.c                      0x00000000   Number         0  user_clock_config.o ABSOLUTE
    user_dma_config.c                        0x00000000   Number         0  user_dma_config.o ABSOLUTE
    user_lpspi_config.c                      0x00000000   Number         0  user_lpspi_config.o ABSOLUTE
    user_pin_gpio_config.c                   0x00000000   Number         0  user_pin_gpio_config.o ABSOLUTE
    RESET                                    0x00000000   Section      608  startup_g32a1465.o(RESET)
    FlashConfig                              0x00000400   Section       16  startup_g32a1465.o(FlashConfig)
    .L__const.CLOCK_ConfigSystemClockCfg.maxSystemClocksFreqOfHSRUN 0x00000410   Data          84  g32a1xxx_clock.o(.rodata..L__const.CLOCK_ConfigSystemClockCfg.maxSystemClocksFreqOfHSRUN)
    .L__const.CLOCK_ConfigSystemClockCfg.maxSystemClocksFreqOfRUN 0x00000464   Data          84  g32a1xxx_clock.o(.rodata..L__const.CLOCK_ConfigSystemClockCfg.maxSystemClocksFreqOfRUN)
    .L__const.CLOCK_ConfigSystemClockCfg.maxSystemClocksFreqOfVLPR 0x000004b8   Data          84  g32a1xxx_clock.o(.rodata..L__const.CLOCK_ConfigSystemClockCfg.maxSystemClocksFreqOfVLPR)
    .L__const.CLOCK_ReadDefaultConfig.peripheralClkCfg 0x0000050c   Data         165  g32a1xxx_clock.o(.rodata..L__const.CLOCK_ReadDefaultConfig.peripheralClkCfg)
    .Lswitch.table.PCM_HW_ReadPeripheralClockSourceSel 0x000005b4   Data          76  g32a1xxx_clock.o(.rodata..Lswitch.table.PCM_HW_ReadPeripheralClockSourceSel)
    g_dmaIrqNum                              0x00000600   Data          32  g32a1xxx_dma.o(.rodata.cst32)
    [Anonymous Symbol]                       0x00000600   Section        0  g32a1xxx_dma.o(.rodata.cst32)
    g_lpuartBase                             0x00000644   Data          12  g32a1xxx_lpuart.o(.rodata.g_lpuartBase)
    [Anonymous Symbol]                       0x00000644   Section        0  g32a1xxx_lpuart.o(.rodata.g_lpuartBase)
    g_lpuartClockNames                       0x00000650   Data           3  g32a1xxx_lpuart.o(.rodata.g_lpuartClockNames)
    [Anonymous Symbol]                       0x00000650   Section        0  g32a1xxx_lpuart.o(.rodata.g_lpuartClockNames)
    g_lpuartIrqNum                           0x00000654   Data           6  g32a1xxx_lpuart.o(.rodata.g_lpuartIrqNum)
    [Anonymous Symbol]                       0x00000654   Section        0  g32a1xxx_lpuart.o(.rodata.g_lpuartIrqNum)
    .ARM.Collect$$$$00000000                 0x000006ac   Section        0  entry.o(.ARM.Collect$$$$00000000)
    .ARM.Collect$$$$00000003                 0x000006ac   Section        4  entry4.o(.ARM.Collect$$$$00000003)
    .ARM.Collect$$$$00000004                 0x000006b0   Section        4  entry5.o(.ARM.Collect$$$$00000004)
    .ARM.Collect$$$$00000008                 0x000006b4   Section        0  entry7b.o(.ARM.Collect$$$$00000008)
    .ARM.Collect$$$$0000000A                 0x000006b4   Section        0  entry8b.o(.ARM.Collect$$$$0000000A)
    .ARM.Collect$$$$0000000B                 0x000006b4   Section        8  entry9a.o(.ARM.Collect$$$$0000000B)
    __lit__00000000                          0x000006bc   Data           4  entry4.o(.ARM.Collect$$$$00002714)
    .ARM.Collect$$$$0000000D                 0x000006bc   Section        0  entry10a.o(.ARM.Collect$$$$0000000D)
    .ARM.Collect$$$$0000000F                 0x000006bc   Section        0  entry11a.o(.ARM.Collect$$$$0000000F)
    .ARM.Collect$$$$00002714                 0x000006bc   Section        4  entry4.o(.ARM.Collect$$$$00002714)
    .text                                    0x000006c0   Section      196  startup_g32a1465.o(.text)
    $v0                                      0x00000714   Number         0  startup_g32a1465.o(.text)
    .text                                    0x00000784   Section        0  memcpya.o(.text)
    .text                                    0x000007a8   Section        0  memseta.o(.text)
    .text                                    0x000007cc   Section       48  init.o(.text)
    .text                                    0x000007fc   Section        0  __dczerorl2.o(.text)
    [Anonymous Symbol]                       0x00000854   Section        0  g32a1xxx_int.o(.text.BusFault_Handler)
    CLOCK_ConfigHSICLK                       0x00000859   Thumb Code   200  g32a1xxx_clock.o(.text.CLOCK_ConfigHSICLK)
    [Anonymous Symbol]                       0x00000858   Section        0  g32a1xxx_clock.o(.text.CLOCK_ConfigHSICLK)
    CLOCK_ConfigLSICLK                       0x00000921   Thumb Code   222  g32a1xxx_clock.o(.text.CLOCK_ConfigLSICLK)
    [Anonymous Symbol]                       0x00000920   Section        0  g32a1xxx_clock.o(.text.CLOCK_ConfigLSICLK)
    CLOCK_ConfigSYSOSC                       0x00000a01   Thumb Code   382  g32a1xxx_clock.o(.text.CLOCK_ConfigSYSOSC)
    [Anonymous Symbol]                       0x00000a00   Section        0  g32a1xxx_clock.o(.text.CLOCK_ConfigSYSOSC)
    CLOCK_ConfigSYSPLL                       0x00000b81   Thumb Code   390  g32a1xxx_clock.o(.text.CLOCK_ConfigSYSPLL)
    [Anonymous Symbol]                       0x00000b80   Section        0  g32a1xxx_clock.o(.text.CLOCK_ConfigSYSPLL)
    CLOCK_ConfigSystemClockCfg               0x00000d09   Thumb Code   538  g32a1xxx_clock.o(.text.CLOCK_ConfigSystemClockCfg)
    [Anonymous Symbol]                       0x00000d08   Section        0  g32a1xxx_clock.o(.text.CLOCK_ConfigSystemClockCfg)
    CLOCK_ReadCFGtmrOptionFreq               0x00000f25   Thumb Code   126  g32a1xxx_clock.o(.text.CLOCK_ReadCFGtmrOptionFreq)
    [Anonymous Symbol]                       0x00000f24   Section        0  g32a1xxx_clock.o(.text.CLOCK_ReadCFGtmrOptionFreq)
    CLOCK_ReadLpoFreq                        0x00000fa5   Thumb Code    92  g32a1xxx_clock.o(.text.CLOCK_ReadLpoFreq)
    [Anonymous Symbol]                       0x00000fa4   Section        0  g32a1xxx_clock.o(.text.CLOCK_ReadLpoFreq)
    CLOCK_ReadPeripheralClockFreq            0x00001001   Thumb Code   426  g32a1xxx_clock.o(.text.CLOCK_ReadPeripheralClockFreq)
    [Anonymous Symbol]                       0x00001000   Section        0  g32a1xxx_clock.o(.text.CLOCK_ReadPeripheralClockFreq)
    CLOCK_ReadScgClkOutFreq                  0x000011ad   Thumb Code   214  g32a1xxx_clock.o(.text.CLOCK_ReadScgClkOutFreq)
    [Anonymous Symbol]                       0x000011ac   Section        0  g32a1xxx_clock.o(.text.CLOCK_ReadScgClkOutFreq)
    CLOCK_ReadSimClkOutFreq                  0x00001285   Thumb Code   314  g32a1xxx_clock.o(.text.CLOCK_ReadSimClkOutFreq)
    [Anonymous Symbol]                       0x00001284   Section        0  g32a1xxx_clock.o(.text.CLOCK_ReadSimClkOutFreq)
    CLOCK_ReadSimRtcClkFreq                  0x000013c1   Thumb Code   156  g32a1xxx_clock.o(.text.CLOCK_ReadSimRtcClkFreq)
    [Anonymous Symbol]                       0x000013c0   Section        0  g32a1xxx_clock.o(.text.CLOCK_ReadSimRtcClkFreq)
    CLOCK_ReadSysAsyncFreq                   0x0000145d   Thumb Code   472  g32a1xxx_clock.o(.text.CLOCK_ReadSysAsyncFreq)
    [Anonymous Symbol]                       0x0000145c   Section        0  g32a1xxx_clock.o(.text.CLOCK_ReadSysAsyncFreq)
    CLOCK_ReadSystemClockFreq                0x00001635   Thumb Code   240  g32a1xxx_clock.o(.text.CLOCK_ReadSystemClockFreq)
    [Anonymous Symbol]                       0x00001634   Section        0  g32a1xxx_clock.o(.text.CLOCK_ReadSystemClockFreq)
    [Anonymous Symbol]                       0x00001724   Section        0  g32a1xxx_clock.o(.text.CLOCK_SYS_ConfigModuleClock)
    [Anonymous Symbol]                       0x000018e0   Section        0  g32a1xxx_clock.o(.text.CLOCK_SYS_Init)
    [Anonymous Symbol]                       0x000021e8   Section        0  g32a1xxx_clock.o(.text.CLOCK_SYS_ReadFreq)
    [Anonymous Symbol]                       0x00002850   Section        0  board.o(.text.COM_Init)
    [Anonymous Symbol]                       0x000028d0   Section        0  g32a1xxx_dma.o(.text.DMA0_IRQHandler)
    [Anonymous Symbol]                       0x000028fc   Section        0  g32a1xxx_dma.o(.text.DMA10_IRQHandler)
    [Anonymous Symbol]                       0x00002928   Section        0  g32a1xxx_dma.o(.text.DMA11_IRQHandler)
    [Anonymous Symbol]                       0x00002954   Section        0  g32a1xxx_dma.o(.text.DMA12_IRQHandler)
    [Anonymous Symbol]                       0x00002980   Section        0  g32a1xxx_dma.o(.text.DMA13_IRQHandler)
    [Anonymous Symbol]                       0x000029ac   Section        0  g32a1xxx_dma.o(.text.DMA14_IRQHandler)
    [Anonymous Symbol]                       0x000029d8   Section        0  g32a1xxx_dma.o(.text.DMA15_IRQHandler)
    [Anonymous Symbol]                       0x00002a04   Section        0  g32a1xxx_dma.o(.text.DMA1_IRQHandler)
    [Anonymous Symbol]                       0x00002a30   Section        0  g32a1xxx_dma.o(.text.DMA2_IRQHandler)
    [Anonymous Symbol]                       0x00002a5c   Section        0  g32a1xxx_dma.o(.text.DMA3_IRQHandler)
    [Anonymous Symbol]                       0x00002a88   Section        0  g32a1xxx_dma.o(.text.DMA4_IRQHandler)
    [Anonymous Symbol]                       0x00002ab4   Section        0  g32a1xxx_dma.o(.text.DMA5_IRQHandler)
    [Anonymous Symbol]                       0x00002ae0   Section        0  g32a1xxx_dma.o(.text.DMA6_IRQHandler)
    [Anonymous Symbol]                       0x00002b0c   Section        0  g32a1xxx_dma.o(.text.DMA7_IRQHandler)
    [Anonymous Symbol]                       0x00002b38   Section        0  g32a1xxx_dma.o(.text.DMA8_IRQHandler)
    [Anonymous Symbol]                       0x00002b64   Section        0  g32a1xxx_dma.o(.text.DMA9_IRQHandler)
    [Anonymous Symbol]                       0x00002b90   Section        0  g32a1xxx_dma.o(.text.DMA_ConfigChannel)
    [Anonymous Symbol]                       0x00002c90   Section        0  g32a1xxx_dma.o(.text.DMA_ConfigMultiBlockTransfer)
    [Anonymous Symbol]                       0x00002d08   Section        0  g32a1xxx_dma.o(.text.DMA_ConfigSingleBlockTransfer)
    [Anonymous Symbol]                       0x00002e98   Section        0  g32a1xxx_dma.o(.text.DMA_Error_IRQHandler)
    [Anonymous Symbol]                       0x00002ef0   Section        0  g32a1xxx_dma.o(.text.DMA_Init)
    [Anonymous Symbol]                       0x00002ff8   Section        0  g32a1xxx_dma.o(.text.DMA_RegisterCallback)
    [Anonymous Symbol]                       0x00003014   Section        0  g32a1xxx_dma.o(.text.DMA_StartChannel)
    [Anonymous Symbol]                       0x00003028   Section        0  g32a1xxx_dma.o(.text.DMA_StopChannel)
    [Anonymous Symbol]                       0x0000303c   Section        0  g32a1xxx_int.o(.text.DebugMon_Handler)
    [Anonymous Symbol]                       0x00003040   Section        0  g32a1xxx_int.o(.text.HardFault_Handler)
    [Anonymous Symbol]                       0x00003044   Section        0  g32a1xxx_interrupt.o(.text.INT_SYS_DisableIRQGlobal)
    [Anonymous Symbol]                       0x00003058   Section        0  g32a1xxx_interrupt.o(.text.INT_SYS_EnableIRQ)
    [Anonymous Symbol]                       0x00003074   Section        0  g32a1xxx_interrupt.o(.text.INT_SYS_EnableIRQGlobal)
    [Anonymous Symbol]                       0x00003090   Section        0  g32a1xxx_interrupt.o(.text.INT_SYS_InstallHandler)
    [Anonymous Symbol]                       0x000030d8   Section        0  board.o(.text.LED_Init)
    [Anonymous Symbol]                       0x00003150   Section        0  g32a1xxx_lpspi.o(.text.LPSPI0_IRQHandler)
    [Anonymous Symbol]                       0x0000316c   Section        0  g32a1xxx_lpspi.o(.text.LPSPI1_IRQHandler)
    [Anonymous Symbol]                       0x00003188   Section        0  g32a1xxx_lpspi.o(.text.LPSPI2_IRQHandler)
    LPSPI_FillupTxBuffer                     0x000031a5   Thumb Code   168  g32a1xxx_lpspi.o(.text.LPSPI_FillupTxBuffer)
    [Anonymous Symbol]                       0x000031a4   Section        0  g32a1xxx_lpspi.o(.text.LPSPI_FillupTxBuffer)
    [Anonymous Symbol]                       0x0000324c   Section        0  g32a1xxx_lpspi.o(.text.LPSPI_HW_ConfigBaudRate)
    g_lpspiBaudRatePre                       0x00003334   Number         0  g32a1xxx_lpspi.o(.text.LPSPI_HW_ConfigBaudRate)
    LPSPI_MasterCompleteDMATransfer          0x00003355   Thumb Code   108  g32a1xxx_lpspi.o(.text.LPSPI_MasterCompleteDMATransfer)
    [Anonymous Symbol]                       0x00003354   Section        0  g32a1xxx_lpspi.o(.text.LPSPI_MasterCompleteDMATransfer)
    LPSPI_MasterCompleteRX                   0x000033c1   Thumb Code    84  g32a1xxx_lpspi.o(.text.LPSPI_MasterCompleteRX)
    [Anonymous Symbol]                       0x000033c0   Section        0  g32a1xxx_lpspi.o(.text.LPSPI_MasterCompleteRX)
    LPSPI_MasterCompleteTransfer             0x00003415   Thumb Code   156  g32a1xxx_lpspi.o(.text.LPSPI_MasterCompleteTransfer)
    [Anonymous Symbol]                       0x00003414   Section        0  g32a1xxx_lpspi.o(.text.LPSPI_MasterCompleteTransfer)
    [Anonymous Symbol]                       0x000034b0   Section        0  g32a1xxx_lpspi.o(.text.LPSPI_MasterIRQHandler)
    [Anonymous Symbol]                       0x00003684   Section        0  g32a1xxx_lpspi.o(.text.LPSPI_MasterInit)
    LPSPI_MasterStartTransfer                0x00003831   Thumb Code   474  g32a1xxx_lpspi.o(.text.LPSPI_MasterStartTransfer)
    [Anonymous Symbol]                       0x00003830   Section        0  g32a1xxx_lpspi.o(.text.LPSPI_MasterStartTransfer)
    [Anonymous Symbol]                       0x00003a0c   Section        0  g32a1xxx_lpspi.o(.text.LPSPI_MasterTransferBlocking)
    LPSPI_SlaveAbortTransfer                 0x00003b29   Thumb Code   176  g32a1xxx_lpspi.o(.text.LPSPI_SlaveAbortTransfer)
    [Anonymous Symbol]                       0x00003b28   Section        0  g32a1xxx_lpspi.o(.text.LPSPI_SlaveAbortTransfer)
    [Anonymous Symbol]                       0x00003bd8   Section        0  g32a1xxx_lpspi.o(.text.LPSPI_SlaveIRQHandler)
    [Anonymous Symbol]                       0x00003d44   Section        0  g32a1xxx_lpuart.o(.text.LPUART0_RxTx_IRQHandler)
    [Anonymous Symbol]                       0x00003d4c   Section        0  g32a1xxx_lpuart.o(.text.LPUART1_RxTx_IRQHandler)
    [Anonymous Symbol]                       0x00003d54   Section        0  g32a1xxx_lpuart.o(.text.LPUART2_RxTx_IRQHandler)
    [Anonymous Symbol]                       0x00003d5c   Section        0  g32a1xxx_lpuart.o(.text.LPUART_ErrorIrqHandler)
    [Anonymous Symbol]                       0x00003fa8   Section        0  g32a1xxx_lpuart.o(.text.LPUART_HW_EnableTx)
    [Anonymous Symbol]                       0x00003fb8   Section        0  g32a1xxx_lpuart.o(.text.LPUART_IRQHandler)
    [Anonymous Symbol]                       0x0000401c   Section        0  g32a1xxx_lpuart.o(.text.LPUART_Init)
    [Anonymous Symbol]                       0x00004140   Section        0  g32a1xxx_lpuart.o(.text.LPUART_RxIrqHandler)
    [Anonymous Symbol]                       0x0000423c   Section        0  g32a1xxx_lpuart.o(.text.LPUART_SetBaudrate)
    LPUART_StopRxDma                         0x0000431d   Thumb Code   124  g32a1xxx_lpuart.o(.text.LPUART_StopRxDma)
    [Anonymous Symbol]                       0x0000431c   Section        0  g32a1xxx_lpuart.o(.text.LPUART_StopRxDma)
    [Anonymous Symbol]                       0x00004398   Section        0  g32a1xxx_lpuart.o(.text.LPUART_TxCompleteIrqHandler)
    [Anonymous Symbol]                       0x00004458   Section        0  g32a1xxx_lpuart.o(.text.LPUART_TxEmptyIrqHandler)
    [Anonymous Symbol]                       0x000044f0   Section        0  main.o(.text.Lcd_Clear)
    [Anonymous Symbol]                       0x0000458c   Section        0  main.o(.text.Lcd_Init)
    [Anonymous Symbol]                       0x00005250   Section        0  main.o(.text.Lcd_Reset)
    [Anonymous Symbol]                       0x000052d8   Section        0  main.o(.text.Lcd_SetRegion)
    [Anonymous Symbol]                       0x00005468   Section        0  g32a1xxx_int.o(.text.MemManage_Handler)
    [Anonymous Symbol]                       0x0000546c   Section        0  g32a1xxx_int.o(.text.NMI_Handler)
    [Anonymous Symbol]                       0x00005470   Section        0  osif.o(.text.OSIF_SemCreate)
    [Anonymous Symbol]                       0x0000548c   Section        0  osif.o(.text.OSIF_SemPost)
    [Anonymous Symbol]                       0x000054b4   Section        0  osif.o(.text.OSIF_SemWait)
    [Anonymous Symbol]                       0x00005578   Section        0  osif.o(.text.OSIF_Tick)
    [Anonymous Symbol]                       0x00005588   Section        0  g32a1xxx_clock.o(.text.PCM_HW_ConfigPeripheralClkEn)
    [Anonymous Symbol]                       0x0000569c   Section        0  g32a1xxx_clock.o(.text.PCM_HW_ConfigPeripheralClockControl)
    [Anonymous Symbol]                       0x00005a30   Section        0  g32a1xxx_clock.o(.text.PCM_HW_ReadPeripheralClkEn)
    [Anonymous Symbol]                       0x00005b40   Section        0  g32a1xxx_clock.o(.text.PCM_HW_ReadPeripheralClockSourceSel)
    [Anonymous Symbol]                       0x00005b70   Section        0  g32a1xxx_pins.o(.text.PINS_ClrPins)
    [Anonymous Symbol]                       0x00005b74   Section        0  g32a1xxx_pins.o(.text.PINS_HW_Cfg)
    [Anonymous Symbol]                       0x00005ce4   Section        0  g32a1xxx_pins.o(.text.PINS_HW_SetMuxModeSel)
    [Anonymous Symbol]                       0x00005d90   Section        0  g32a1xxx_pins.o(.text.PINS_Init)
    [Anonymous Symbol]                       0x00005db0   Section        0  g32a1xxx_pins.o(.text.PINS_SetMuxModeSel)
    [Anonymous Symbol]                       0x00005db4   Section        0  g32a1xxx_pins.o(.text.PINS_SetPinDir)
    [Anonymous Symbol]                       0x00005dcc   Section        0  g32a1xxx_pins.o(.text.PINS_SetPinIntSel)
    [Anonymous Symbol]                       0x00005de4   Section        0  g32a1xxx_pins.o(.text.PINS_SetPins)
    [Anonymous Symbol]                       0x00005de8   Section        0  g32a1xxx_int.o(.text.PendSV_Handler)
    [Anonymous Symbol]                       0x00005dec   Section        0  g32a1xxx_int.o(.text.SVC_Handler)
    [Anonymous Symbol]                       0x00005df0   Section        0  g32a1xxx_int.o(.text.SysTick_Handler)
    [Anonymous Symbol]                       0x00005df4   Section        0  system_g32a1xxx.o(.text.SystemInit)
    [Anonymous Symbol]                       0x00005e3c   Section        0  g32a1xxx_int.o(.text.UsageFault_Handler)
    [Anonymous Symbol]                       0x00005e40   Section        0  startup.o(.text.bss_data_init)
    [Anonymous Symbol]                       0x00005e88   Section        0  board.o(.text.fputc)
    [Anonymous Symbol]                       0x00005e9c   Section        0  main.o(.text.main)
    i.__scatterload_copy                     0x00005f3e   Section       14  handlers.o(i.__scatterload_copy)
    i.__scatterload_null                     0x00005f4c   Section        2  handlers.o(i.__scatterload_null)
    i.__scatterload_zeroinit                 0x00005f4e   Section       14  handlers.o(i.__scatterload_zeroinit)
    i.puts                                   0x00005f5c   Section        0  puts.o(i.puts)
    .data                                    0x1fff0400   Section        4  stdout.o(.data)
    OSIF_UpdateSysTickCfg.isFirstInit        0x20000000   Data           1  osif.o(.bss.OSIF_UpdateSysTickCfg.isFirstInit)
    [Anonymous Symbol]                       0x20000000   Section        0  osif.o(.bss.OSIF_UpdateSysTickCfg.isFirstInit)
    g_dmaState                               0x20000074   Data           4  g32a1xxx_dma.o(.bss.g_dmaState)
    [Anonymous Symbol]                       0x20000074   Section        0  g32a1xxx_dma.o(.bss.g_dmaState)
    g_interruptDisableCount                  0x2000007c   Data           4  g32a1xxx_interrupt.o(.bss.g_interruptDisableCount)
    [Anonymous Symbol]                       0x2000007c   Section        0  g32a1xxx_interrupt.o(.bss.g_interruptDisableCount)
    g_lpuartStatus                           0x200000c0   Data          12  g32a1xxx_lpuart.o(.bss.g_lpuartStatus)
    [Anonymous Symbol]                       0x200000c0   Section        0  g32a1xxx_lpuart.o(.bss.g_lpuartStatus)
    g_osifTickCount                          0x200000cc   Data           4  osif.o(.bss.g_osifTickCount)
    [Anonymous Symbol]                       0x200000cc   Section        0  osif.o(.bss.g_osifTickCount)

    Global Symbols

    Symbol Name                              Value     Ov Type        Size  Object(Section)

    BuildAttributes$$THM_ISAv4$E$P$D$K$B$S$7EM$VFPi3$EXTD16$VFPS$VFMA$PE$A:L22UL41UL21$X:L11$S22US41US21$IEEE1$IW$~IW$USESV6$~STKCKD$USESV7$~SHL$OTIME$EBA8$MICROLIB$REQ8$PRES8$EABIv2 0x00000000   Number         0  anon$$obj.o ABSOLUTE
    Image$$RW_CODE$$Length                   0x00000000   Number         0  anon$$obj.o ABSOLUTE
    Image$$VECTOR_RAM$$Length                0x00000000   Number         0  anon$$obj.o ABSOLUTE
    Image$$VECTOR_ROM$$Base                  0x00000000   Number         0  anon$$obj.o ABSOLUTE
    __Vectors                                0x00000000   Data           4  startup_g32a1465.o(RESET)
    __cpp_initialize__aeabi_                  - Undefined Weak Reference
    __cxa_finalize                            - Undefined Weak Reference
    _clock_init                               - Undefined Weak Reference
    _microlib_exit                            - Undefined Weak Reference
    Image$$VECTOR_ROM$$Length                0x00000260   Number         0  anon$$obj.o ABSOLUTE
    Image$$VECTOR_ROM$$Limit                 0x00000260   Number         0  anon$$obj.o ABSOLUTE
    Image$$RW_DATA$$Length                   0x00000294   Number         0  anon$$obj.o ABSOLUTE
    Image$$TEXT_CONST$$Base                  0x00000410   Number         0  anon$$obj.o ABSOLUTE
    g_dmaChannelConfigArray                  0x00000620   Data          16  user_dma_config.o(.rodata.g_dmaChannelConfigArray)
    g_dmaChannelStateArray                   0x00000630   Data          16  user_dma_config.o(.rodata.g_dmaChannelStateArray)
    g_dmaInitConfig                          0x00000640   Data           2  user_dma_config.o(.rodata.g_dmaInitConfig)
    g_peripheralFeaturesList                 0x0000065a   Data          81  g32a1xxx_clock.o(.rodata.g_peripheralFeaturesList)
    Image$$TEXT_CONST$$Limit                 0x000006ac   Number         0  anon$$obj.o ABSOLUTE
    __main                                   0x000006ad   Thumb Code     0  entry.o(.ARM.Collect$$$$00000000)
    _main_stk                                0x000006ad   Thumb Code     0  entry4.o(.ARM.Collect$$$$00000003)
    _main_scatterload                        0x000006b1   Thumb Code     0  entry5.o(.ARM.Collect$$$$00000004)
    __main_after_scatterload                 0x000006b5   Thumb Code     0  entry5.o(.ARM.Collect$$$$00000004)
    _main_clock                              0x000006b5   Thumb Code     0  entry7b.o(.ARM.Collect$$$$00000008)
    _main_cpp_init                           0x000006b5   Thumb Code     0  entry8b.o(.ARM.Collect$$$$0000000A)
    _main_init                               0x000006b5   Thumb Code     0  entry9a.o(.ARM.Collect$$$$0000000B)
    __rt_final_cpp                           0x000006bd   Thumb Code     0  entry10a.o(.ARM.Collect$$$$0000000D)
    __rt_final_exit                          0x000006bd   Thumb Code     0  entry11a.o(.ARM.Collect$$$$0000000F)
    __ROM_VECTOR_END                         0x000006c0   Data           4  startup_g32a1465.o(.text)
    __ROM_VECTOR_START                       0x000006c4   Data           4  startup_g32a1465.o(.text)
    __VECTOR_ROM                             0x000006c8   Data           4  startup_g32a1465.o(.text)
    __VECTOR_RAM                             0x000006cc   Data           4  startup_g32a1465.o(.text)
    __RAM_VECTOR_TABLE_SIZE                  0x000006d0   Data           4  startup_g32a1465.o(.text)
    __RAM_CODE                               0x000006d4   Data           4  startup_g32a1465.o(.text)
    __RAM_CODE_END                           0x000006d8   Data           4  startup_g32a1465.o(.text)
    __RAM_CODE_START                         0x000006dc   Data           4  startup_g32a1465.o(.text)
    __ROM_CODE                               0x000006e0   Data           4  startup_g32a1465.o(.text)
    __CODE_END                               0x000006e4   Data           4  startup_g32a1465.o(.text)
    __BSS_END                                0x000006e8   Data           4  startup_g32a1465.o(.text)
    __BSS_START                              0x000006ec   Data           4  startup_g32a1465.o(.text)
    __DATA_RAM                               0x000006f0   Data           4  startup_g32a1465.o(.text)
    __RAM_DATA_END                           0x000006f4   Data           4  startup_g32a1465.o(.text)
    __RAM_DATA_START                         0x000006f8   Data           4  startup_g32a1465.o(.text)
    __DATA_END                               0x000006fc   Data           4  startup_g32a1465.o(.text)
    __DATA_ROM                               0x00000700   Data           4  startup_g32a1465.o(.text)
    __USER_SECTION_END                       0x00000704   Data           4  startup_g32a1465.o(.text)
    __USER_SECTION_START                     0x00000708   Data           4  startup_g32a1465.o(.text)
    __RAM_START                              0x0000070c   Data           4  startup_g32a1465.o(.text)
    __RAM_END                                0x00000710   Data           4  startup_g32a1465.o(.text)
    Reset_Handler                            0x00000715   Thumb Code    60  startup_g32a1465.o(.text)
    DefaultISR                               0x00000763   Thumb Code     2  startup_g32a1465.o(.text)
    ADC0_IRQHandler                          0x00000765   Thumb Code     0  startup_g32a1465.o(.text)
    ADC1_IRQHandler                          0x00000765   Thumb Code     0  startup_g32a1465.o(.text)
    CAN0_Error_IRQHandler                    0x00000765   Thumb Code     0  startup_g32a1465.o(.text)
    CAN0_ORed_0_15_MB_IRQHandler             0x00000765   Thumb Code     0  startup_g32a1465.o(.text)
    CAN0_ORed_16_31_MB_IRQHandler            0x00000765   Thumb Code     0  startup_g32a1465.o(.text)
    CAN0_ORed_IRQHandler                     0x00000765   Thumb Code     0  startup_g32a1465.o(.text)
    CAN0_Wake_Up_IRQHandler                  0x00000765   Thumb Code     0  startup_g32a1465.o(.text)
    CAN1_Error_IRQHandler                    0x00000765   Thumb Code     0  startup_g32a1465.o(.text)
    CAN1_ORed_0_15_MB_IRQHandler             0x00000765   Thumb Code     0  startup_g32a1465.o(.text)
    CAN1_ORed_16_31_MB_IRQHandler            0x00000765   Thumb Code     0  startup_g32a1465.o(.text)
    CAN1_ORed_IRQHandler                     0x00000765   Thumb Code     0  startup_g32a1465.o(.text)
    CAN2_Error_IRQHandler                    0x00000765   Thumb Code     0  startup_g32a1465.o(.text)
    CAN2_ORed_0_15_MB_IRQHandler             0x00000765   Thumb Code     0  startup_g32a1465.o(.text)
    CAN2_ORed_IRQHandler                     0x00000765   Thumb Code     0  startup_g32a1465.o(.text)
    CFGIO_IRQHandler                         0x00000765   Thumb Code     0  startup_g32a1465.o(.text)
    CFGTMR0_Ch0_Ch1_IRQHandler               0x00000765   Thumb Code     0  startup_g32a1465.o(.text)
    CFGTMR0_Ch2_Ch3_IRQHandler               0x00000765   Thumb Code     0  startup_g32a1465.o(.text)
    CFGTMR0_Ch4_Ch5_IRQHandler               0x00000765   Thumb Code     0  startup_g32a1465.o(.text)
    CFGTMR0_Ch6_Ch7_IRQHandler               0x00000765   Thumb Code     0  startup_g32a1465.o(.text)
    CFGTMR0_Fault_IRQHandler                 0x00000765   Thumb Code     0  startup_g32a1465.o(.text)
    CFGTMR0_Ovf_Reload_IRQHandler            0x00000765   Thumb Code     0  startup_g32a1465.o(.text)
    CFGTMR1_Ch0_Ch1_IRQHandler               0x00000765   Thumb Code     0  startup_g32a1465.o(.text)
    CFGTMR1_Ch2_Ch3_IRQHandler               0x00000765   Thumb Code     0  startup_g32a1465.o(.text)
    CFGTMR1_Ch4_Ch5_IRQHandler               0x00000765   Thumb Code     0  startup_g32a1465.o(.text)
    CFGTMR1_Ch6_Ch7_IRQHandler               0x00000765   Thumb Code     0  startup_g32a1465.o(.text)
    CFGTMR1_Fault_IRQHandler                 0x00000765   Thumb Code     0  startup_g32a1465.o(.text)
    CFGTMR1_Ovf_Reload_IRQHandler            0x00000765   Thumb Code     0  startup_g32a1465.o(.text)
    CFGTMR2_Ch0_Ch1_IRQHandler               0x00000765   Thumb Code     0  startup_g32a1465.o(.text)
    CFGTMR2_Ch2_Ch3_IRQHandler               0x00000765   Thumb Code     0  startup_g32a1465.o(.text)
    CFGTMR2_Ch4_Ch5_IRQHandler               0x00000765   Thumb Code     0  startup_g32a1465.o(.text)
    CFGTMR2_Ch6_Ch7_IRQHandler               0x00000765   Thumb Code     0  startup_g32a1465.o(.text)
    CFGTMR2_Fault_IRQHandler                 0x00000765   Thumb Code     0  startup_g32a1465.o(.text)
    CFGTMR2_Ovf_Reload_IRQHandler            0x00000765   Thumb Code     0  startup_g32a1465.o(.text)
    CFGTMR3_Ch0_Ch1_IRQHandler               0x00000765   Thumb Code     0  startup_g32a1465.o(.text)
    CFGTMR3_Ch2_Ch3_IRQHandler               0x00000765   Thumb Code     0  startup_g32a1465.o(.text)
    CFGTMR3_Ch4_Ch5_IRQHandler               0x00000765   Thumb Code     0  startup_g32a1465.o(.text)
    CFGTMR3_Ch6_Ch7_IRQHandler               0x00000765   Thumb Code     0  startup_g32a1465.o(.text)
    CFGTMR3_Fault_IRQHandler                 0x00000765   Thumb Code     0  startup_g32a1465.o(.text)
    CFGTMR3_Ovf_Reload_IRQHandler            0x00000765   Thumb Code     0  startup_g32a1465.o(.text)
    CFGTMR4_Ch0_Ch1_IRQHandler               0x00000765   Thumb Code     0  startup_g32a1465.o(.text)
    CFGTMR4_Ch2_Ch3_IRQHandler               0x00000765   Thumb Code     0  startup_g32a1465.o(.text)
    CFGTMR4_Ch4_Ch5_IRQHandler               0x00000765   Thumb Code     0  startup_g32a1465.o(.text)
    CFGTMR4_Ch6_Ch7_IRQHandler               0x00000765   Thumb Code     0  startup_g32a1465.o(.text)
    CFGTMR4_Fault_IRQHandler                 0x00000765   Thumb Code     0  startup_g32a1465.o(.text)
    CFGTMR4_Ovf_Reload_IRQHandler            0x00000765   Thumb Code     0  startup_g32a1465.o(.text)
    CFGTMR5_Ch0_Ch1_IRQHandler               0x00000765   Thumb Code     0  startup_g32a1465.o(.text)
    CFGTMR5_Ch2_Ch3_IRQHandler               0x00000765   Thumb Code     0  startup_g32a1465.o(.text)
    CFGTMR5_Ch4_Ch5_IRQHandler               0x00000765   Thumb Code     0  startup_g32a1465.o(.text)
    CFGTMR5_Ch6_Ch7_IRQHandler               0x00000765   Thumb Code     0  startup_g32a1465.o(.text)
    CFGTMR5_Fault_IRQHandler                 0x00000765   Thumb Code     0  startup_g32a1465.o(.text)
    CFGTMR5_Ovf_Reload_IRQHandler            0x00000765   Thumb Code     0  startup_g32a1465.o(.text)
    COMP_IRQHandler                          0x00000765   Thumb Code     0  startup_g32a1465.o(.text)
    EREP_double_fault_IRQHandler             0x00000765   Thumb Code     0  startup_g32a1465.o(.text)
    EREP_single_fault_IRQHandler             0x00000765   Thumb Code     0  startup_g32a1465.o(.text)
    FLASH_Fault_IRQHandler                   0x00000765   Thumb Code     0  startup_g32a1465.o(.text)
    FLASH_IRQHandler                         0x00000765   Thumb Code     0  startup_g32a1465.o(.text)
    LPI2C_Master_IRQHandler                  0x00000765   Thumb Code     0  startup_g32a1465.o(.text)
    LPI2C_Slave_IRQHandler                   0x00000765   Thumb Code     0  startup_g32a1465.o(.text)
    LPITMR_Ch0_IRQHandler                    0x00000765   Thumb Code     0  startup_g32a1465.o(.text)
    LPITMR_Ch1_IRQHandler                    0x00000765   Thumb Code     0  startup_g32a1465.o(.text)
    LPITMR_Ch2_IRQHandler                    0x00000765   Thumb Code     0  startup_g32a1465.o(.text)
    LPITMR_Ch3_IRQHandler                    0x00000765   Thumb Code     0  startup_g32a1465.o(.text)
    LPTMR_IRQHandler                         0x00000765   Thumb Code     0  startup_g32a1465.o(.text)
    LVD_LVW_IRQHandler                       0x00000765   Thumb Code     0  startup_g32a1465.o(.text)
    MC_IRQHandler                            0x00000765   Thumb Code     0  startup_g32a1465.o(.text)
    PDU0_IRQHandler                          0x00000765   Thumb Code     0  startup_g32a1465.o(.text)
    PDU1_IRQHandler                          0x00000765   Thumb Code     0  startup_g32a1465.o(.text)
    PMA_IRQHandler                           0x00000765   Thumb Code     0  startup_g32a1465.o(.text)
    PMB_IRQHandler                           0x00000765   Thumb Code     0  startup_g32a1465.o(.text)
    PMC_IRQHandler                           0x00000765   Thumb Code     0  startup_g32a1465.o(.text)
    PMD_IRQHandler                           0x00000765   Thumb Code     0  startup_g32a1465.o(.text)
    PME_IRQHandler                           0x00000765   Thumb Code     0  startup_g32a1465.o(.text)
    RMU_IRQHandler                           0x00000765   Thumb Code     0  startup_g32a1465.o(.text)
    RTC_IRQHandler                           0x00000765   Thumb Code     0  startup_g32a1465.o(.text)
    RTC_Seconds_IRQHandler                   0x00000765   Thumb Code     0  startup_g32a1465.o(.text)
    Read_Collision_IRQHandler                0x00000765   Thumb Code     0  startup_g32a1465.o(.text)
    Reserved100_IRQHandler                   0x00000765   Thumb Code     0  startup_g32a1465.o(.text)
    Reserved103_IRQHandler                   0x00000765   Thumb Code     0  startup_g32a1465.o(.text)
    Reserved106_IRQHandler                   0x00000765   Thumb Code     0  startup_g32a1465.o(.text)
    Reserved107_IRQHandler                   0x00000765   Thumb Code     0  startup_g32a1465.o(.text)
    Reserved110_IRQHandler                   0x00000765   Thumb Code     0  startup_g32a1465.o(.text)
    Reserved112_IRQHandler                   0x00000765   Thumb Code     0  startup_g32a1465.o(.text)
    Reserved113_IRQHandler                   0x00000765   Thumb Code     0  startup_g32a1465.o(.text)
    Reserved114_IRQHandler                   0x00000765   Thumb Code     0  startup_g32a1465.o(.text)
    Reserved45_IRQHandler                    0x00000765   Thumb Code     0  startup_g32a1465.o(.text)
    Reserved46_IRQHandler                    0x00000765   Thumb Code     0  startup_g32a1465.o(.text)
    Reserved48_IRQHandler                    0x00000765   Thumb Code     0  startup_g32a1465.o(.text)
    Reserved50_IRQHandler                    0x00000765   Thumb Code     0  startup_g32a1465.o(.text)
    Reserved52_IRQHandler                    0x00000765   Thumb Code     0  startup_g32a1465.o(.text)
    Reserved53_IRQHandler                    0x00000765   Thumb Code     0  startup_g32a1465.o(.text)
    Reserved54_IRQHandler                    0x00000765   Thumb Code     0  startup_g32a1465.o(.text)
    Reserved58_IRQHandler                    0x00000765   Thumb Code     0  startup_g32a1465.o(.text)
    Reserved59_IRQHandler                    0x00000765   Thumb Code     0  startup_g32a1465.o(.text)
    Reserved69_IRQHandler                    0x00000765   Thumb Code     0  startup_g32a1465.o(.text)
    Reserved70_IRQHandler                    0x00000765   Thumb Code     0  startup_g32a1465.o(.text)
    Reserved71_IRQHandler                    0x00000765   Thumb Code     0  startup_g32a1465.o(.text)
    Reserved72_IRQHandler                    0x00000765   Thumb Code     0  startup_g32a1465.o(.text)
    Reserved81_IRQHandler                    0x00000765   Thumb Code     0  startup_g32a1465.o(.text)
    Reserved82_IRQHandler                    0x00000765   Thumb Code     0  startup_g32a1465.o(.text)
    Reserved83_IRQHandler                    0x00000765   Thumb Code     0  startup_g32a1465.o(.text)
    Reserved86_IRQHandler                    0x00000765   Thumb Code     0  startup_g32a1465.o(.text)
    Reserved87_IRQHandler                    0x00000765   Thumb Code     0  startup_g32a1465.o(.text)
    Reserved88_IRQHandler                    0x00000765   Thumb Code     0  startup_g32a1465.o(.text)
    Reserved89_IRQHandler                    0x00000765   Thumb Code     0  startup_g32a1465.o(.text)
    Reserved90_IRQHandler                    0x00000765   Thumb Code     0  startup_g32a1465.o(.text)
    Reserved91_IRQHandler                    0x00000765   Thumb Code     0  startup_g32a1465.o(.text)
    Reserved92_IRQHandler                    0x00000765   Thumb Code     0  startup_g32a1465.o(.text)
    Reserved93_IRQHandler                    0x00000765   Thumb Code     0  startup_g32a1465.o(.text)
    Reserved99_IRQHandler                    0x00000765   Thumb Code     0  startup_g32a1465.o(.text)
    SCG_IRQHandler                           0x00000765   Thumb Code     0  startup_g32a1465.o(.text)
    SWI_IRQHandler                           0x00000765   Thumb Code     0  startup_g32a1465.o(.text)
    WDT_EWDT_IRQHandler                      0x00000765   Thumb Code     0  startup_g32a1465.o(.text)
    __aeabi_memcpy                           0x00000785   Thumb Code    36  memcpya.o(.text)
    __aeabi_memcpy4                          0x00000785   Thumb Code     0  memcpya.o(.text)
    __aeabi_memcpy8                          0x00000785   Thumb Code     0  memcpya.o(.text)
    __aeabi_memset                           0x000007a9   Thumb Code    14  memseta.o(.text)
    __aeabi_memset4                          0x000007a9   Thumb Code     0  memseta.o(.text)
    __aeabi_memset8                          0x000007a9   Thumb Code     0  memseta.o(.text)
    __aeabi_memclr                           0x000007b7   Thumb Code     4  memseta.o(.text)
    __aeabi_memclr4                          0x000007b7   Thumb Code     0  memseta.o(.text)
    __aeabi_memclr8                          0x000007b7   Thumb Code     0  memseta.o(.text)
    _memset$wrapper                          0x000007bb   Thumb Code    18  memseta.o(.text)
    __scatterload                            0x000007cd   Thumb Code    38  init.o(.text)
    __scatterload_rt2                        0x000007cd   Thumb Code     0  init.o(.text)
    __decompress                             0x000007fd   Thumb Code     0  __dczerorl2.o(.text)
    __decompress1                            0x000007fd   Thumb Code    86  __dczerorl2.o(.text)
    BusFault_Handler                         0x00000855   Thumb Code     2  g32a1xxx_int.o(.text.BusFault_Handler)
    CLOCK_SYS_ConfigModuleClock              0x00001725   Thumb Code   428  g32a1xxx_clock.o(.text.CLOCK_SYS_ConfigModuleClock)
    CLOCK_SYS_Init                           0x000018e1   Thumb Code  2312  g32a1xxx_clock.o(.text.CLOCK_SYS_Init)
    CLOCK_SYS_ReadFreq                       0x000021e9   Thumb Code  1640  g32a1xxx_clock.o(.text.CLOCK_SYS_ReadFreq)
    COM_Init                                 0x00002851   Thumb Code   126  board.o(.text.COM_Init)
    DMA0_IRQHandler                          0x000028d1   Thumb Code    44  g32a1xxx_dma.o(.text.DMA0_IRQHandler)
    DMA10_IRQHandler                         0x000028fd   Thumb Code    44  g32a1xxx_dma.o(.text.DMA10_IRQHandler)
    DMA11_IRQHandler                         0x00002929   Thumb Code    44  g32a1xxx_dma.o(.text.DMA11_IRQHandler)
    DMA12_IRQHandler                         0x00002955   Thumb Code    44  g32a1xxx_dma.o(.text.DMA12_IRQHandler)
    DMA13_IRQHandler                         0x00002981   Thumb Code    44  g32a1xxx_dma.o(.text.DMA13_IRQHandler)
    DMA14_IRQHandler                         0x000029ad   Thumb Code    44  g32a1xxx_dma.o(.text.DMA14_IRQHandler)
    DMA15_IRQHandler                         0x000029d9   Thumb Code    44  g32a1xxx_dma.o(.text.DMA15_IRQHandler)
    DMA1_IRQHandler                          0x00002a05   Thumb Code    44  g32a1xxx_dma.o(.text.DMA1_IRQHandler)
    DMA2_IRQHandler                          0x00002a31   Thumb Code    44  g32a1xxx_dma.o(.text.DMA2_IRQHandler)
    DMA3_IRQHandler                          0x00002a5d   Thumb Code    44  g32a1xxx_dma.o(.text.DMA3_IRQHandler)
    DMA4_IRQHandler                          0x00002a89   Thumb Code    44  g32a1xxx_dma.o(.text.DMA4_IRQHandler)
    DMA5_IRQHandler                          0x00002ab5   Thumb Code    44  g32a1xxx_dma.o(.text.DMA5_IRQHandler)
    DMA6_IRQHandler                          0x00002ae1   Thumb Code    44  g32a1xxx_dma.o(.text.DMA6_IRQHandler)
    DMA7_IRQHandler                          0x00002b0d   Thumb Code    44  g32a1xxx_dma.o(.text.DMA7_IRQHandler)
    DMA8_IRQHandler                          0x00002b39   Thumb Code    44  g32a1xxx_dma.o(.text.DMA8_IRQHandler)
    DMA9_IRQHandler                          0x00002b65   Thumb Code    44  g32a1xxx_dma.o(.text.DMA9_IRQHandler)
    DMA_ConfigChannel                        0x00002b91   Thumb Code   254  g32a1xxx_dma.o(.text.DMA_ConfigChannel)
    DMA_ConfigMultiBlockTransfer             0x00002c91   Thumb Code   118  g32a1xxx_dma.o(.text.DMA_ConfigMultiBlockTransfer)
    DMA_ConfigSingleBlockTransfer            0x00002d09   Thumb Code   398  g32a1xxx_dma.o(.text.DMA_ConfigSingleBlockTransfer)
    DMA_Error_IRQHandler                     0x00002e99   Thumb Code    86  g32a1xxx_dma.o(.text.DMA_Error_IRQHandler)
    DMA_Init                                 0x00002ef1   Thumb Code   264  g32a1xxx_dma.o(.text.DMA_Init)
    DMA_RegisterCallback                     0x00002ff9   Thumb Code    28  g32a1xxx_dma.o(.text.DMA_RegisterCallback)
    DMA_StartChannel                         0x00003015   Thumb Code    18  g32a1xxx_dma.o(.text.DMA_StartChannel)
    DMA_StopChannel                          0x00003029   Thumb Code    18  g32a1xxx_dma.o(.text.DMA_StopChannel)
    DebugMon_Handler                         0x0000303d   Thumb Code     2  g32a1xxx_int.o(.text.DebugMon_Handler)
    HardFault_Handler                        0x00003041   Thumb Code     2  g32a1xxx_int.o(.text.HardFault_Handler)
    INT_SYS_DisableIRQGlobal                 0x00003045   Thumb Code    18  g32a1xxx_interrupt.o(.text.INT_SYS_DisableIRQGlobal)
    INT_SYS_EnableIRQ                        0x00003059   Thumb Code    26  g32a1xxx_interrupt.o(.text.INT_SYS_EnableIRQ)
    INT_SYS_EnableIRQGlobal                  0x00003075   Thumb Code    26  g32a1xxx_interrupt.o(.text.INT_SYS_EnableIRQGlobal)
    INT_SYS_InstallHandler                   0x00003091   Thumb Code    72  g32a1xxx_interrupt.o(.text.INT_SYS_InstallHandler)
    LED_Init                                 0x000030d9   Thumb Code   120  board.o(.text.LED_Init)
    LPSPI0_IRQHandler                        0x00003151   Thumb Code    28  g32a1xxx_lpspi.o(.text.LPSPI0_IRQHandler)
    LPSPI1_IRQHandler                        0x0000316d   Thumb Code    28  g32a1xxx_lpspi.o(.text.LPSPI1_IRQHandler)
    LPSPI2_IRQHandler                        0x00003189   Thumb Code    28  g32a1xxx_lpspi.o(.text.LPSPI2_IRQHandler)
    LPSPI_HW_ConfigBaudRate                  0x0000324d   Thumb Code   232  g32a1xxx_lpspi.o(.text.LPSPI_HW_ConfigBaudRate)
    LPSPI_MasterIRQHandler                   0x000034b1   Thumb Code   468  g32a1xxx_lpspi.o(.text.LPSPI_MasterIRQHandler)
    LPSPI_MasterInit                         0x00003685   Thumb Code   428  g32a1xxx_lpspi.o(.text.LPSPI_MasterInit)
    LPSPI_MasterTransferBlocking             0x00003a0d   Thumb Code   282  g32a1xxx_lpspi.o(.text.LPSPI_MasterTransferBlocking)
    LPSPI_SlaveIRQHandler                    0x00003bd9   Thumb Code   364  g32a1xxx_lpspi.o(.text.LPSPI_SlaveIRQHandler)
    LPUART0_RxTx_IRQHandler                  0x00003d45   Thumb Code     6  g32a1xxx_lpuart.o(.text.LPUART0_RxTx_IRQHandler)
    LPUART1_RxTx_IRQHandler                  0x00003d4d   Thumb Code     6  g32a1xxx_lpuart.o(.text.LPUART1_RxTx_IRQHandler)
    LPUART2_RxTx_IRQHandler                  0x00003d55   Thumb Code     6  g32a1xxx_lpuart.o(.text.LPUART2_RxTx_IRQHandler)
    LPUART_ErrorIrqHandler                   0x00003d5d   Thumb Code   588  g32a1xxx_lpuart.o(.text.LPUART_ErrorIrqHandler)
    LPUART_HW_EnableTx                       0x00003fa9   Thumb Code    16  g32a1xxx_lpuart.o(.text.LPUART_HW_EnableTx)
    LPUART_IRQHandler                        0x00003fb9   Thumb Code    98  g32a1xxx_lpuart.o(.text.LPUART_IRQHandler)
    LPUART_Init                              0x0000401d   Thumb Code   290  g32a1xxx_lpuart.o(.text.LPUART_Init)
    LPUART_RxIrqHandler                      0x00004141   Thumb Code   250  g32a1xxx_lpuart.o(.text.LPUART_RxIrqHandler)
    LPUART_SetBaudrate                       0x0000423d   Thumb Code   224  g32a1xxx_lpuart.o(.text.LPUART_SetBaudrate)
    LPUART_TxCompleteIrqHandler              0x00004399   Thumb Code   192  g32a1xxx_lpuart.o(.text.LPUART_TxCompleteIrqHandler)
    LPUART_TxEmptyIrqHandler                 0x00004459   Thumb Code   150  g32a1xxx_lpuart.o(.text.LPUART_TxEmptyIrqHandler)
    Lcd_Clear                                0x000044f1   Thumb Code   154  main.o(.text.Lcd_Clear)
    Lcd_Init                                 0x0000458d   Thumb Code  3268  main.o(.text.Lcd_Init)
    Lcd_Reset                                0x00005251   Thumb Code   120  main.o(.text.Lcd_Reset)
    Lcd_SetRegion                            0x000052d9   Thumb Code   400  main.o(.text.Lcd_SetRegion)
    MemManage_Handler                        0x00005469   Thumb Code     2  g32a1xxx_int.o(.text.MemManage_Handler)
    NMI_Handler                              0x0000546d   Thumb Code     2  g32a1xxx_int.o(.text.NMI_Handler)
    OSIF_SemCreate                           0x00005471   Thumb Code    28  osif.o(.text.OSIF_SemCreate)
    OSIF_SemPost                             0x0000548d   Thumb Code    40  osif.o(.text.OSIF_SemPost)
    OSIF_SemWait                             0x000054b5   Thumb Code   194  osif.o(.text.OSIF_SemWait)
    OSIF_Tick                                0x00005579   Thumb Code    16  osif.o(.text.OSIF_Tick)
    PCM_HW_ConfigPeripheralClkEn             0x00005589   Thumb Code   274  g32a1xxx_clock.o(.text.PCM_HW_ConfigPeripheralClkEn)
    PCM_HW_ConfigPeripheralClockControl      0x0000569d   Thumb Code   914  g32a1xxx_clock.o(.text.PCM_HW_ConfigPeripheralClockControl)
    PCM_HW_ReadPeripheralClkEn               0x00005a31   Thumb Code   270  g32a1xxx_clock.o(.text.PCM_HW_ReadPeripheralClkEn)
    PCM_HW_ReadPeripheralClockSourceSel      0x00005b41   Thumb Code    46  g32a1xxx_clock.o(.text.PCM_HW_ReadPeripheralClockSourceSel)
    PINS_ClrPins                             0x00005b71   Thumb Code     4  g32a1xxx_pins.o(.text.PINS_ClrPins)
    PINS_HW_Cfg                              0x00005b75   Thumb Code   366  g32a1xxx_pins.o(.text.PINS_HW_Cfg)
    PINS_HW_SetMuxModeSel                    0x00005ce5   Thumb Code   172  g32a1xxx_pins.o(.text.PINS_HW_SetMuxModeSel)
    PINS_Init                                0x00005d91   Thumb Code    30  g32a1xxx_pins.o(.text.PINS_Init)
    PINS_SetMuxModeSel                       0x00005db1   Thumb Code     4  g32a1xxx_pins.o(.text.PINS_SetMuxModeSel)
    PINS_SetPinDir                           0x00005db5   Thumb Code    22  g32a1xxx_pins.o(.text.PINS_SetPinDir)
    PINS_SetPinIntSel                        0x00005dcd   Thumb Code    22  g32a1xxx_pins.o(.text.PINS_SetPinIntSel)
    PINS_SetPins                             0x00005de5   Thumb Code     4  g32a1xxx_pins.o(.text.PINS_SetPins)
    PendSV_Handler                           0x00005de9   Thumb Code     2  g32a1xxx_int.o(.text.PendSV_Handler)
    SVC_Handler                              0x00005ded   Thumb Code     2  g32a1xxx_int.o(.text.SVC_Handler)
    SysTick_Handler                          0x00005df1   Thumb Code     4  g32a1xxx_int.o(.text.SysTick_Handler)
    SystemInit                               0x00005df5   Thumb Code    72  system_g32a1xxx.o(.text.SystemInit)
    UsageFault_Handler                       0x00005e3d   Thumb Code     2  g32a1xxx_int.o(.text.UsageFault_Handler)
    bss_data_init                            0x00005e41   Thumb Code    72  startup.o(.text.bss_data_init)
    fputc                                    0x00005e89   Thumb Code    18  board.o(.text.fputc)
    main                                     0x00005e9d   Thumb Code   162  main.o(.text.main)
    __scatterload_copy                       0x00005f3f   Thumb Code    14  handlers.o(i.__scatterload_copy)
    __scatterload_null                       0x00005f4d   Thumb Code     2  handlers.o(i.__scatterload_null)
    __scatterload_zeroinit                   0x00005f4f   Thumb Code    14  handlers.o(i.__scatterload_zeroinit)
    puts                                     0x00005f5d   Thumb Code    30  puts.o(i.puts)
    Region$$Table$$Base                      0x00005f80   Number         0  anon$$obj.o(Region$$Table)
    Image$$TEXT$$Limit                       0x00005fa0   Number         0  anon$$obj.o ABSOLUTE
    Region$$Table$$Limit                     0x00005fa0   Number         0  anon$$obj.o(Region$$Table)
    Image$$VECTOR_RAM$$Base                  0x1fff0000   Number         0  anon$$obj.o ABSOLUTE
    Image$$RW_DATA$$Base                     0x1fff0400   Number         0  anon$$obj.o ABSOLUTE
    __stdout                                 0x1fff0400   Data           4  stdout.o(.data)
    g_clockConfig                            0x1fff0404   Data         144  user_clock_config.o(.data.g_clockConfig)
    g_dmaChannel0Config                      0x1fff0494   Data          12  user_dma_config.o(.data.g_dmaChannel0Config)
    g_dmaChannel1Config                      0x1fff04a0   Data          12  user_dma_config.o(.data.g_dmaChannel1Config)
    g_dmaChannel2Config                      0x1fff04ac   Data          12  user_dma_config.o(.data.g_dmaChannel2Config)
    g_dmaChannel3Config                      0x1fff04b8   Data          12  user_dma_config.o(.data.g_dmaChannel3Config)
    g_lpspiBasePointer                       0x1fff04c4   Data          12  g32a1xxx_lpspi.o(.data.g_lpspiBasePointer)
    g_lpspiIrqIdNumber                       0x1fff04d0   Data           6  g32a1xxx_lpspi.o(.data.g_lpspiIrqIdNumber)
    g_lpuartIsr                              0x1fff04d8   Data          12  g32a1xxx_lpuart.o(.data.g_lpuartIsr)
    g_peripheralClockConfig                  0x1fff04e4   Data         170  user_clock_config.o(.data.g_peripheralClockConfig)
    g_spiMasterCfg                           0x1fff0590   Data          32  user_lpspi_config.o(.data.g_spiMasterCfg)
    g_spiPinsConfig                          0x1fff05b0   Data         192  user_pin_gpio_config.o(.data.g_spiPinsConfig)
    ledGPIO                                  0x1fff0670   Data          12  board.o(.data.ledGPIO)
    ledPIN                                   0x1fff067c   Data          12  board.o(.data.ledPIN)
    ledPM                                    0x1fff0688   Data          12  board.o(.data.ledPM)
    Image$$RW_CODE$$Base                     0x1fff0694   Number         0  anon$$obj.o ABSOLUTE
    Image$$RW_CODE$$Limit                    0x1fff0694   Number         0  anon$$obj.o ABSOLUTE
    Image$$RW_DATA$$Limit                    0x1fff0694   Number         0  anon$$obj.o ABSOLUTE
    Image$$RW_DATA_2$$ZI$$Base               0x20000000   Number         0  anon$$obj.o ABSOLUTE
    Image$$RW_USER_SECTION$$Base             0x20000000   Number         0  anon$$obj.o ABSOLUTE
    Image$$RW_USER_SECTION$$Limit            0x20000000   Number         0  anon$$obj.o ABSOLUTE
    g_dmaChannel0State                       0x20000004   Data          12  user_dma_config.o(.bss.g_dmaChannel0State)
    g_dmaChannel1State                       0x20000010   Data          12  user_dma_config.o(.bss.g_dmaChannel1State)
    g_dmaChannel2State                       0x2000001c   Data          12  user_dma_config.o(.bss.g_dmaChannel2State)
    g_dmaChannel3State                       0x20000028   Data          12  user_dma_config.o(.bss.g_dmaChannel3State)
    g_dmaState                               0x20000034   Data          64  user_dma_config.o(.bss.g_dmaState)
    g_extal0ClkFreq                          0x20000078   Data           4  g32a1xxx_clock.o(.bss.g_extal0ClkFreq)
    g_lpspiStatusPointer                     0x20000080   Data          12  g32a1xxx_lpspi.o(.bss.g_lpspiStatusPointer)
    g_lpuart1State                           0x2000008c   Data          52  board.o(.bss.g_lpuart1State)
    g_rtcClkInFreq                           0x200000d0   Data           4  g32a1xxx_clock.o(.bss.g_rtcClkInFreq)
    g_spiState                               0x200000d4   Data          52  user_lpspi_config.o(.bss.g_spiState)
    g_tclkFreq                               0x20000108   Data          12  g32a1xxx_clock.o(.bss.g_tclkFreq)
    Image$$RW_DATA_2$$ZI$$Limit              0x20000114   Number         0  anon$$obj.o ABSOLUTE
    Image$$ARM_LIB_STACK$$Limit              0x2000ec00   Number         0  anon$$obj.o ABSOLUTE
    Image$$ARM_LIB_STACK$$ZI$$Limit          0x2000f000   Number         0  anon$$obj.o ABSOLUTE



==============================================================================

Memory Map of the image

  Image Entry point : 0x000006ad

  Load Region LR_m_text (Base: 0x00000000, Size: 0x00006234, Max: 0x00100000, ABSOLUTE, COMPRESSED[0x000060b0])

    Execution Region VECTOR_ROM (Exec base: 0x00000000, Load base: 0x00000000, Size: 0x00000260, Max: 0x00000400, ABSOLUTE)

    Exec Addr    Load Addr    Size         Type   Attr      Idx    E Section Name        Object

    0x00000000   0x00000000   0x00000260   Data   RO           33    RESET               startup_g32a1465.o


    Execution Region FLASH_CONFIG (Exec base: 0x00000400, Load base: 0x00000400, Size: 0x00000010, Max: 0x00000010, ABSOLUTE, FIXED)

    Exec Addr    Load Addr    Size         Type   Attr      Idx    E Section Name        Object

    0x00000400   0x00000400   0x00000010   Data   RO           34    FlashConfig         startup_g32a1465.o


    Execution Region TEXT_CONST (Exec base: 0x00000410, Load base: 0x00000410, Size: 0x0000029c, Max: 0xffffffff, ABSOLUTE)

    Exec Addr    Load Addr    Size         Type   Attr      Idx    E Section Name        Object

    0x00000410   0x00000410   0x00000054   Data   RO          773    .rodata..L__const.CLOCK_ConfigSystemClockCfg.maxSystemClocksFreqOfHSRUN  g32a1xxx_clock.o
    0x00000464   0x00000464   0x00000054   Data   RO          772    .rodata..L__const.CLOCK_ConfigSystemClockCfg.maxSystemClocksFreqOfRUN  g32a1xxx_clock.o
    0x000004b8   0x000004b8   0x00000054   Data   RO          771    .rodata..L__const.CLOCK_ConfigSystemClockCfg.maxSystemClocksFreqOfVLPR  g32a1xxx_clock.o
    0x0000050c   0x0000050c   0x000000a5   Data   RO          769    .rodata..L__const.CLOCK_ReadDefaultConfig.peripheralClkCfg  g32a1xxx_clock.o
    0x000005b1   0x000005b1   0x00000003   PAD
    0x000005b4   0x000005b4   0x0000004c   Data   RO          774    .rodata..Lswitch.table.PCM_HW_ReadPeripheralClockSourceSel  g32a1xxx_clock.o
    0x00000600   0x00000600   0x00000020   Data   RO          360    .rodata.cst32       g32a1xxx_dma.o
    0x00000620   0x00000620   0x00000010   Data   RO          127    .rodata.g_dmaChannelConfigArray  user_dma_config.o
    0x00000630   0x00000630   0x00000010   Data   RO          122    .rodata.g_dmaChannelStateArray  user_dma_config.o
    0x00000640   0x00000640   0x00000002   Data   RO          128    .rodata.g_dmaInitConfig  user_dma_config.o
    0x00000642   0x00000642   0x00000002   PAD
    0x00000644   0x00000644   0x0000000c   Data   RO          508    .rodata.g_lpuartBase  g32a1xxx_lpuart.o
    0x00000650   0x00000650   0x00000003   Data   RO          509    .rodata.g_lpuartClockNames  g32a1xxx_lpuart.o
    0x00000653   0x00000653   0x00000001   PAD
    0x00000654   0x00000654   0x00000006   Data   RO          511    .rodata.g_lpuartIrqNum  g32a1xxx_lpuart.o
    0x0000065a   0x0000065a   0x00000051   Data   RO          763    .rodata.g_peripheralFeaturesList  g32a1xxx_clock.o


    Execution Region TEXT (Exec base: 0x000006ac, Load base: 0x000006ac, Size: 0x000058f4, Max: 0x000ffbf0, ABSOLUTE)

    Exec Addr    Load Addr    Size         Type   Attr      Idx    E Section Name        Object

    0x000006ac   0x000006ac   0x00000000   Code   RO         1100  * .ARM.Collect$$$$00000000  mc_w.l(entry.o)
    0x000006ac   0x000006ac   0x00000004   Code   RO         1113    .ARM.Collect$$$$00000003  mc_w.l(entry4.o)
    0x000006b0   0x000006b0   0x00000004   Code   RO         1116    .ARM.Collect$$$$00000004  mc_w.l(entry5.o)
    0x000006b4   0x000006b4   0x00000000   Code   RO         1118    .ARM.Collect$$$$00000008  mc_w.l(entry7b.o)
    0x000006b4   0x000006b4   0x00000000   Code   RO         1120    .ARM.Collect$$$$0000000A  mc_w.l(entry8b.o)
    0x000006b4   0x000006b4   0x00000008   Code   RO         1121    .ARM.Collect$$$$0000000B  mc_w.l(entry9a.o)
    0x000006bc   0x000006bc   0x00000000   Code   RO         1123    .ARM.Collect$$$$0000000D  mc_w.l(entry10a.o)
    0x000006bc   0x000006bc   0x00000000   Code   RO         1125    .ARM.Collect$$$$0000000F  mc_w.l(entry11a.o)
    0x000006bc   0x000006bc   0x00000004   Code   RO         1114    .ARM.Collect$$$$00002714  mc_w.l(entry4.o)
    0x000006c0   0x000006c0   0x000000c4   Code   RO           32    .text               startup_g32a1465.o
    0x00000784   0x00000784   0x00000024   Code   RO         1107    .text               mc_w.l(memcpya.o)
    0x000007a8   0x000007a8   0x00000024   Code   RO         1109    .text               mc_w.l(memseta.o)
    0x000007cc   0x000007cc   0x00000030   Code   RO         1128    .text               mc_w.l(init.o)
    0x000007fc   0x000007fc   0x00000056   Code   RO         1138    .text               mc_w.l(__dczerorl2.o)
    0x00000852   0x00000852   0x00000002   PAD
    0x00000854   0x00000854   0x00000002   Code   RO           76    .text.BusFault_Handler  g32a1xxx_int.o
    0x00000856   0x00000856   0x00000002   PAD
    0x00000858   0x00000858   0x000000c8   Code   RO          736    .text.CLOCK_ConfigHSICLK  g32a1xxx_clock.o
    0x00000920   0x00000920   0x000000de   Code   RO          740    .text.CLOCK_ConfigLSICLK  g32a1xxx_clock.o
    0x000009fe   0x000009fe   0x00000002   PAD
    0x00000a00   0x00000a00   0x0000017e   Code   RO          738    .text.CLOCK_ConfigSYSOSC  g32a1xxx_clock.o
    0x00000b7e   0x00000b7e   0x00000002   PAD
    0x00000b80   0x00000b80   0x00000186   Code   RO          742    .text.CLOCK_ConfigSYSPLL  g32a1xxx_clock.o
    0x00000d06   0x00000d06   0x00000002   PAD
    0x00000d08   0x00000d08   0x0000021a   Code   RO          536    .text.CLOCK_ConfigSystemClockCfg  g32a1xxx_clock.o
    0x00000f22   0x00000f22   0x00000002   PAD
    0x00000f24   0x00000f24   0x0000007e   Code   RO          760    .text.CLOCK_ReadCFGtmrOptionFreq  g32a1xxx_clock.o
    0x00000fa2   0x00000fa2   0x00000002   PAD
    0x00000fa4   0x00000fa4   0x0000005c   Code   RO          754    .text.CLOCK_ReadLpoFreq  g32a1xxx_clock.o
    0x00001000   0x00001000   0x000001aa   Code   RO          758    .text.CLOCK_ReadPeripheralClockFreq  g32a1xxx_clock.o
    0x000011aa   0x000011aa   0x00000002   PAD
    0x000011ac   0x000011ac   0x000000d6   Code   RO          752    .text.CLOCK_ReadScgClkOutFreq  g32a1xxx_clock.o
    0x00001282   0x00001282   0x00000002   PAD
    0x00001284   0x00001284   0x0000013a   Code   RO          746    .text.CLOCK_ReadSimClkOutFreq  g32a1xxx_clock.o
    0x000013be   0x000013be   0x00000002   PAD
    0x000013c0   0x000013c0   0x0000009c   Code   RO          756    .text.CLOCK_ReadSimRtcClkFreq  g32a1xxx_clock.o
    0x0000145c   0x0000145c   0x000001d8   Code   RO          750    .text.CLOCK_ReadSysAsyncFreq  g32a1xxx_clock.o
    0x00001634   0x00001634   0x000000f0   Code   RO          748    .text.CLOCK_ReadSystemClockFreq  g32a1xxx_clock.o
    0x00001724   0x00001724   0x000001bc   Code   RO          538    .text.CLOCK_SYS_ConfigModuleClock  g32a1xxx_clock.o
    0x000018e0   0x000018e0   0x00000908   Code   RO          522    .text.CLOCK_SYS_Init  g32a1xxx_clock.o
    0x000021e8   0x000021e8   0x00000668   Code   RO          558    .text.CLOCK_SYS_ReadFreq  g32a1xxx_clock.o
    0x00002850   0x00002850   0x0000007e   Code   RO         1079    .text.COM_Init      board.o
    0x000028ce   0x000028ce   0x00000002   PAD
    0x000028d0   0x000028d0   0x0000002c   Code   RO          323    .text.DMA0_IRQHandler  g32a1xxx_dma.o
    0x000028fc   0x000028fc   0x0000002c   Code   RO          343    .text.DMA10_IRQHandler  g32a1xxx_dma.o
    0x00002928   0x00002928   0x0000002c   Code   RO          345    .text.DMA11_IRQHandler  g32a1xxx_dma.o
    0x00002954   0x00002954   0x0000002c   Code   RO          347    .text.DMA12_IRQHandler  g32a1xxx_dma.o
    0x00002980   0x00002980   0x0000002c   Code   RO          349    .text.DMA13_IRQHandler  g32a1xxx_dma.o
    0x000029ac   0x000029ac   0x0000002c   Code   RO          351    .text.DMA14_IRQHandler  g32a1xxx_dma.o
    0x000029d8   0x000029d8   0x0000002c   Code   RO          353    .text.DMA15_IRQHandler  g32a1xxx_dma.o
    0x00002a04   0x00002a04   0x0000002c   Code   RO          325    .text.DMA1_IRQHandler  g32a1xxx_dma.o
    0x00002a30   0x00002a30   0x0000002c   Code   RO          327    .text.DMA2_IRQHandler  g32a1xxx_dma.o
    0x00002a5c   0x00002a5c   0x0000002c   Code   RO          329    .text.DMA3_IRQHandler  g32a1xxx_dma.o
    0x00002a88   0x00002a88   0x0000002c   Code   RO          331    .text.DMA4_IRQHandler  g32a1xxx_dma.o
    0x00002ab4   0x00002ab4   0x0000002c   Code   RO          333    .text.DMA5_IRQHandler  g32a1xxx_dma.o
    0x00002ae0   0x00002ae0   0x0000002c   Code   RO          335    .text.DMA6_IRQHandler  g32a1xxx_dma.o
    0x00002b0c   0x00002b0c   0x0000002c   Code   RO          337    .text.DMA7_IRQHandler  g32a1xxx_dma.o
    0x00002b38   0x00002b38   0x0000002c   Code   RO          339    .text.DMA8_IRQHandler  g32a1xxx_dma.o
    0x00002b64   0x00002b64   0x0000002c   Code   RO          341    .text.DMA9_IRQHandler  g32a1xxx_dma.o
    0x00002b90   0x00002b90   0x000000fe   Code   RO          177    .text.DMA_ConfigChannel  g32a1xxx_dma.o
    0x00002c8e   0x00002c8e   0x00000002   PAD
    0x00002c90   0x00002c90   0x00000076   Code   RO          237    .text.DMA_ConfigMultiBlockTransfer  g32a1xxx_dma.o
    0x00002d06   0x00002d06   0x00000002   PAD
    0x00002d08   0x00002d08   0x0000018e   Code   RO          217    .text.DMA_ConfigSingleBlockTransfer  g32a1xxx_dma.o
    0x00002e96   0x00002e96   0x00000002   PAD
    0x00002e98   0x00002e98   0x00000056   Code   RO          355    .text.DMA_Error_IRQHandler  g32a1xxx_dma.o
    0x00002eee   0x00002eee   0x00000002   PAD
    0x00002ef0   0x00002ef0   0x00000108   Code   RO          187    .text.DMA_Init      g32a1xxx_dma.o
    0x00002ff8   0x00002ff8   0x0000001c   Code   RO          175    .text.DMA_RegisterCallback  g32a1xxx_dma.o
    0x00003014   0x00003014   0x00000012   Code   RO          267    .text.DMA_StartChannel  g32a1xxx_dma.o
    0x00003026   0x00003026   0x00000002   PAD
    0x00003028   0x00003028   0x00000012   Code   RO          269    .text.DMA_StopChannel  g32a1xxx_dma.o
    0x0000303a   0x0000303a   0x00000002   PAD
    0x0000303c   0x0000303c   0x00000002   Code   RO           82    .text.DebugMon_Handler  g32a1xxx_int.o
    0x0000303e   0x0000303e   0x00000002   PAD
    0x00003040   0x00003040   0x00000002   Code   RO           72    .text.HardFault_Handler  g32a1xxx_int.o
    0x00003042   0x00003042   0x00000002   PAD
    0x00003044   0x00003044   0x00000012   Code   RO          901    .text.INT_SYS_DisableIRQGlobal  g32a1xxx_interrupt.o
    0x00003056   0x00003056   0x00000002   PAD
    0x00003058   0x00003058   0x0000001a   Code   RO          895    .text.INT_SYS_EnableIRQ  g32a1xxx_interrupt.o
    0x00003072   0x00003072   0x00000002   PAD
    0x00003074   0x00003074   0x0000001a   Code   RO          899    .text.INT_SYS_EnableIRQGlobal  g32a1xxx_interrupt.o
    0x0000308e   0x0000308e   0x00000002   PAD
    0x00003090   0x00003090   0x00000048   Code   RO          893    .text.INT_SYS_InstallHandler  g32a1xxx_interrupt.o
    0x000030d8   0x000030d8   0x00000078   Code   RO         1059    .text.LED_Init      board.o
    0x00003150   0x00003150   0x0000001c   Code   RO         1018    .text.LPSPI0_IRQHandler  g32a1xxx_lpspi.o
    0x0000316c   0x0000316c   0x0000001c   Code   RO         1016    .text.LPSPI1_IRQHandler  g32a1xxx_lpspi.o
    0x00003188   0x00003188   0x0000001c   Code   RO         1014    .text.LPSPI2_IRQHandler  g32a1xxx_lpspi.o
    0x000031a4   0x000031a4   0x000000a8   Code   RO          976    .text.LPSPI_FillupTxBuffer  g32a1xxx_lpspi.o
    0x0000324c   0x0000324c   0x00000108   Code   RO         1040    .text.LPSPI_HW_ConfigBaudRate  g32a1xxx_lpspi.o
    0x00003354   0x00003354   0x0000006c   Code   RO         1046    .text.LPSPI_MasterCompleteDMATransfer  g32a1xxx_lpspi.o
    0x000033c0   0x000033c0   0x00000054   Code   RO         1044    .text.LPSPI_MasterCompleteRX  g32a1xxx_lpspi.o
    0x00003414   0x00003414   0x0000009c   Code   RO          964    .text.LPSPI_MasterCompleteTransfer  g32a1xxx_lpspi.o
    0x000034b0   0x000034b0   0x000001d4   Code   RO          928    .text.LPSPI_MasterIRQHandler  g32a1xxx_lpspi.o
    0x00003684   0x00003684   0x000001ac   Code   RO          934    .text.LPSPI_MasterInit  g32a1xxx_lpspi.o
    0x00003830   0x00003830   0x000001da   Code   RO          958    .text.LPSPI_MasterStartTransfer  g32a1xxx_lpspi.o
    0x00003a0a   0x00003a0a   0x00000002   PAD
    0x00003a0c   0x00003a0c   0x0000011a   Code   RO          954    .text.LPSPI_MasterTransferBlocking  g32a1xxx_lpspi.o
    0x00003b26   0x00003b26   0x00000002   PAD
    0x00003b28   0x00003b28   0x000000b0   Code   RO          990    .text.LPSPI_SlaveAbortTransfer  g32a1xxx_lpspi.o
    0x00003bd8   0x00003bd8   0x0000016c   Code   RO          930    .text.LPSPI_SlaveIRQHandler  g32a1xxx_lpspi.o
    0x00003d44   0x00003d44   0x00000006   Code   RO          369    .text.LPUART0_RxTx_IRQHandler  g32a1xxx_lpuart.o
    0x00003d4a   0x00003d4a   0x00000002   PAD
    0x00003d4c   0x00003d4c   0x00000006   Code   RO          371    .text.LPUART1_RxTx_IRQHandler  g32a1xxx_lpuart.o
    0x00003d52   0x00003d52   0x00000002   PAD
    0x00003d54   0x00003d54   0x00000006   Code   RO          373    .text.LPUART2_RxTx_IRQHandler  g32a1xxx_lpuart.o
    0x00003d5a   0x00003d5a   0x00000002   PAD
    0x00003d5c   0x00003d5c   0x0000024c   Code   RO          453    .text.LPUART_ErrorIrqHandler  g32a1xxx_lpuart.o
    0x00003fa8   0x00003fa8   0x00000010   Code   RO          437    .text.LPUART_HW_EnableTx  g32a1xxx_lpuart.o
    0x00003fb8   0x00003fb8   0x00000062   Code   RO          451    .text.LPUART_IRQHandler  g32a1xxx_lpuart.o
    0x0000401a   0x0000401a   0x00000002   PAD
    0x0000401c   0x0000401c   0x00000122   Code   RO          375    .text.LPUART_Init   g32a1xxx_lpuart.o
    0x0000413e   0x0000413e   0x00000002   PAD
    0x00004140   0x00004140   0x000000fa   Code   RO          457    .text.LPUART_RxIrqHandler  g32a1xxx_lpuart.o
    0x0000423a   0x0000423a   0x00000002   PAD
    0x0000423c   0x0000423c   0x000000e0   Code   RO          379    .text.LPUART_SetBaudrate  g32a1xxx_lpuart.o
    0x0000431c   0x0000431c   0x0000007c   Code   RO          413    .text.LPUART_StopRxDma  g32a1xxx_lpuart.o
    0x00004398   0x00004398   0x000000c0   Code   RO          459    .text.LPUART_TxCompleteIrqHandler  g32a1xxx_lpuart.o
    0x00004458   0x00004458   0x00000096   Code   RO          461    .text.LPUART_TxEmptyIrqHandler  g32a1xxx_lpuart.o
    0x000044ee   0x000044ee   0x00000002   PAD
    0x000044f0   0x000044f0   0x0000009a   Code   RO           57    .text.Lcd_Clear     main.o
    0x0000458a   0x0000458a   0x00000002   PAD
    0x0000458c   0x0000458c   0x00000cc4   Code   RO           53    .text.Lcd_Init      main.o
    0x00005250   0x00005250   0x00000088   Code   RO           47    .text.Lcd_Reset     main.o
    0x000052d8   0x000052d8   0x00000190   Code   RO           55    .text.Lcd_SetRegion  main.o
    0x00005468   0x00005468   0x00000002   Code   RO           74    .text.MemManage_Handler  g32a1xxx_int.o
    0x0000546a   0x0000546a   0x00000002   PAD
    0x0000546c   0x0000546c   0x00000002   Code   RO           70    .text.NMI_Handler   g32a1xxx_int.o
    0x0000546e   0x0000546e   0x00000002   PAD
    0x00005470   0x00005470   0x0000001c   Code   RO          149    .text.OSIF_SemCreate  osif.o
    0x0000548c   0x0000548c   0x00000028   Code   RO          155    .text.OSIF_SemPost  osif.o
    0x000054b4   0x000054b4   0x000000c2   Code   RO          153    .text.OSIF_SemWait  osif.o
    0x00005576   0x00005576   0x00000002   PAD
    0x00005578   0x00005578   0x00000010   Code   RO          135    .text.OSIF_Tick     osif.o
    0x00005588   0x00005588   0x00000112   Code   RO          540    .text.PCM_HW_ConfigPeripheralClkEn  g32a1xxx_clock.o
    0x0000569a   0x0000569a   0x00000002   PAD
    0x0000569c   0x0000569c   0x00000392   Code   RO          542    .text.PCM_HW_ConfigPeripheralClockControl  g32a1xxx_clock.o
    0x00005a2e   0x00005a2e   0x00000002   PAD
    0x00005a30   0x00005a30   0x0000010e   Code   RO          634    .text.PCM_HW_ReadPeripheralClkEn  g32a1xxx_clock.o
    0x00005b3e   0x00005b3e   0x00000002   PAD
    0x00005b40   0x00005b40   0x0000002e   Code   RO          636    .text.PCM_HW_ReadPeripheralClockSourceSel  g32a1xxx_clock.o
    0x00005b6e   0x00005b6e   0x00000002   PAD
    0x00005b70   0x00005b70   0x00000004   Code   RO          871    .text.PINS_ClrPins  g32a1xxx_pins.o
    0x00005b74   0x00005b74   0x0000016e   Code   RO          785    .text.PINS_HW_Cfg   g32a1xxx_pins.o
    0x00005ce2   0x00005ce2   0x00000002   PAD
    0x00005ce4   0x00005ce4   0x000000ac   Code   RO          793    .text.PINS_HW_SetMuxModeSel  g32a1xxx_pins.o
    0x00005d90   0x00005d90   0x0000001e   Code   RO          783    .text.PINS_Init     g32a1xxx_pins.o
    0x00005dae   0x00005dae   0x00000002   PAD
    0x00005db0   0x00005db0   0x00000004   Code   RO          791    .text.PINS_SetMuxModeSel  g32a1xxx_pins.o
    0x00005db4   0x00005db4   0x00000016   Code   RO          831    .text.PINS_SetPinDir  g32a1xxx_pins.o
    0x00005dca   0x00005dca   0x00000002   PAD
    0x00005dcc   0x00005dcc   0x00000016   Code   RO          795    .text.PINS_SetPinIntSel  g32a1xxx_pins.o
    0x00005de2   0x00005de2   0x00000002   PAD
    0x00005de4   0x00005de4   0x00000004   Code   RO          867    .text.PINS_SetPins  g32a1xxx_pins.o
    0x00005de8   0x00005de8   0x00000002   Code   RO           84    .text.PendSV_Handler  g32a1xxx_int.o
    0x00005dea   0x00005dea   0x00000002   PAD
    0x00005dec   0x00005dec   0x00000002   Code   RO           80    .text.SVC_Handler   g32a1xxx_int.o
    0x00005dee   0x00005dee   0x00000002   PAD
    0x00005df0   0x00005df0   0x00000004   Code   RO           86    .text.SysTick_Handler  g32a1xxx_int.o
    0x00005df4   0x00005df4   0x00000048   Code   RO           16    .text.SystemInit    system_g32a1xxx.o
    0x00005e3c   0x00005e3c   0x00000002   Code   RO           78    .text.UsageFault_Handler  g32a1xxx_int.o
    0x00005e3e   0x00005e3e   0x00000002   PAD
    0x00005e40   0x00005e40   0x00000048   Code   RO            5    .text.bss_data_init  startup.o
    0x00005e88   0x00005e88   0x00000012   Code   RO         1083    .text.fputc         board.o
    0x00005e9a   0x00005e9a   0x00000002   PAD
    0x00005e9c   0x00005e9c   0x000000a2   Code   RO           59    .text.main          main.o
    0x00005f3e   0x00005f3e   0x0000000e   Code   RO         1132    i.__scatterload_copy  mc_w.l(handlers.o)
    0x00005f4c   0x00005f4c   0x00000002   Code   RO         1133    i.__scatterload_null  mc_w.l(handlers.o)
    0x00005f4e   0x00005f4e   0x0000000e   Code   RO         1134    i.__scatterload_zeroinit  mc_w.l(handlers.o)
    0x00005f5c   0x00005f5c   0x00000024   Code   RO         1103    i.puts              mc_w.l(puts.o)
    0x00005f80   0x00005f80   0x00000020   Data   RO         1131    Region$$Table       anon$$obj.o


    Execution Region VECTOR_RAM (Exec base: 0x1fff0000, Load base: 0x00000260, Size: 0x00000400, Max: 0x00000400, ABSOLUTE)

    Exec Addr    Load Addr    Size         Type   Attr      Idx    E Section Name        Object

    0x1fff0000        -       0x00000400   Zero   RW            1    VECTOR_RAM.bss      anon$$obj.o


    Execution Region RW_DATA (Exec base: 0x1fff0400, Load base: 0x00005fa0, Size: 0x00000294, Max: 0xffffffff, ABSOLUTE, COMPRESSED[0x00000110])

    Exec Addr    Load Addr    Size         Type   Attr      Idx    E Section Name        Object

    0x1fff0400   COMPRESSED   0x00000004   Data   RW         1127    .data               mc_w.l(stdout.o)
    0x1fff0404   COMPRESSED   0x00000090   Data   RW           96    .data.g_clockConfig  user_clock_config.o
    0x1fff0494   COMPRESSED   0x0000000c   Data   RW          123    .data.g_dmaChannel0Config  user_dma_config.o
    0x1fff04a0   COMPRESSED   0x0000000c   Data   RW          124    .data.g_dmaChannel1Config  user_dma_config.o
    0x1fff04ac   COMPRESSED   0x0000000c   Data   RW          125    .data.g_dmaChannel2Config  user_dma_config.o
    0x1fff04b8   COMPRESSED   0x0000000c   Data   RW          126    .data.g_dmaChannel3Config  user_dma_config.o
    0x1fff04c4   COMPRESSED   0x0000000c   Data   RW         1048    .data.g_lpspiBasePointer  g32a1xxx_lpspi.o
    0x1fff04d0   COMPRESSED   0x00000006   Data   RW         1049    .data.g_lpspiIrqIdNumber  g32a1xxx_lpspi.o
    0x1fff04d6   COMPRESSED   0x00000002   PAD
    0x1fff04d8   COMPRESSED   0x0000000c   Data   RW          507    .data.g_lpuartIsr   g32a1xxx_lpuart.o
    0x1fff04e4   COMPRESSED   0x000000aa   Data   RW           95    .data.g_peripheralClockConfig  user_clock_config.o
    0x1fff058e   COMPRESSED   0x00000002   PAD
    0x1fff0590   COMPRESSED   0x00000020   Data   RW          110    .data.g_spiMasterCfg  user_lpspi_config.o
    0x1fff05b0   COMPRESSED   0x000000c0   Data   RW          104    .data.g_spiPinsConfig  user_pin_gpio_config.o
    0x1fff0670   COMPRESSED   0x0000000c   Data   RW         1087    .data.ledGPIO       board.o
    0x1fff067c   COMPRESSED   0x0000000c   Data   RW         1085    .data.ledPIN        board.o
    0x1fff0688   COMPRESSED   0x0000000c   Data   RW         1086    .data.ledPM         board.o


    Execution Region RW_CODE (Exec base: 0x1fff0694, Load base: 0x000060b0, Size: 0x00000000, Max: 0x0000fc00, ABSOLUTE)

    **** No section assigned to this execution region ****


    Execution Region RW_USER_SECTION (Exec base: 0x20000000, Load base: 0x000060b0, Size: 0x00000000, Max: 0xffffffff, ABSOLUTE)

    **** No section assigned to this execution region ****


    Execution Region RW_DATA_2 (Exec base: 0x20000000, Load base: 0x000060b0, Size: 0x00000114, Max: 0x0000e800, ABSOLUTE)

    Exec Addr    Load Addr    Size         Type   Attr      Idx    E Section Name        Object

    0x20000000        -       0x00000001   Zero   RW          158    .bss.OSIF_UpdateSysTickCfg.isFirstInit  osif.o
    0x20000001   0x000060b0   0x00000003   PAD
    0x20000004        -       0x0000000c   Zero   RW          118    .bss.g_dmaChannel0State  user_dma_config.o
    0x20000010        -       0x0000000c   Zero   RW          119    .bss.g_dmaChannel1State  user_dma_config.o
    0x2000001c        -       0x0000000c   Zero   RW          120    .bss.g_dmaChannel2State  user_dma_config.o
    0x20000028        -       0x0000000c   Zero   RW          121    .bss.g_dmaChannel3State  user_dma_config.o
    0x20000034        -       0x00000040   Zero   RW          129    .bss.g_dmaState     user_dma_config.o
    0x20000074        -       0x00000004   Zero   RW          359    .bss.g_dmaState     g32a1xxx_dma.o
    0x20000078        -       0x00000004   Zero   RW          768    .bss.g_extal0ClkFreq  g32a1xxx_clock.o
    0x2000007c        -       0x00000004   Zero   RW          915    .bss.g_interruptDisableCount  g32a1xxx_interrupt.o
    0x20000080        -       0x0000000c   Zero   RW         1050    .bss.g_lpspiStatusPointer  g32a1xxx_lpspi.o
    0x2000008c        -       0x00000034   Zero   RW         1092    .bss.g_lpuart1State  board.o
    0x200000c0        -       0x0000000c   Zero   RW          510    .bss.g_lpuartStatus  g32a1xxx_lpuart.o
    0x200000cc        -       0x00000004   Zero   RW          157    .bss.g_osifTickCount  osif.o
    0x200000d0        -       0x00000004   Zero   RW          767    .bss.g_rtcClkInFreq  g32a1xxx_clock.o
    0x200000d4        -       0x00000034   Zero   RW          112    .bss.g_spiState     user_lpspi_config.o
    0x20000108        -       0x0000000c   Zero   RW          766    .bss.g_tclkFreq     g32a1xxx_clock.o


    Execution Region ARM_LIB_HEAP (Exec base: 0x20000114, Load base: 0x000060b0, Size: 0x00000400, Max: 0x00000400, ABSOLUTE)

    Exec Addr    Load Addr    Size         Type   Attr      Idx    E Section Name        Object

    0x20000114        -       0x00000400   Zero   RW            2    ARM_LIB_HEAP.bss    anon$$obj.o


    Execution Region ARM_LIB_STACK (Exec base: 0x2000ec00, Load base: 0x000060b0, Size: 0x00000400, Max: 0x00000400, ABSOLUTE)

    Exec Addr    Load Addr    Size         Type   Attr      Idx    E Section Name        Object

    0x2000ec00        -       0x00000400   Zero   RW            3    ARM_LIB_STACK.bss   anon$$obj.o


==============================================================================

Image component sizes


      Code (inc. data)   RO Data    RW Data    ZI Data      Debug   Object Name

       264          0          0         36         52      16946   board.o
      9672        312        574          0         20     109555   g32a1xxx_clock.o
      1888          4         32          0          4      55248   g32a1xxx_dma.o
        20          0          0          0          0       1179   g32a1xxx_int.o
       142          0          0          0          4      12061   g32a1xxx_interrupt.o
      3056         32          0         18         12      42528   g32a1xxx_lpspi.o
      1950          0         21         12         12      47003   g32a1xxx_lpuart.o
       624         36          0          0          0      23274   g32a1xxx_pins.o
      4120         16          0          0          0      26102   main.o
       278          0          0          0          5       7657   osif.o
        72          0          0          0          0       1122   startup.o
       196        114        624          0          0       1084   startup_g32a1465.o
        72          0          0          0          0      10693   system_g32a1xxx.o
         0          0          0        314          0      10691   user_clock_config.o
         0          0         34         48        112       4277   user_dma_config.o
         0          0          0         32         52       2731   user_lpspi_config.o
         0          0          0        192          0       3755   user_pin_gpio_config.o

    ----------------------------------------------------------------------
     22446        514       1324        656       3348     375906   Object Totals
         0          0         32          0       3072          0   (incl. Generated)
        92          0          7          4          3          0   (incl. Padding)

    ----------------------------------------------------------------------

      Code (inc. data)   RO Data    RW Data    ZI Data      Debug   Library Member Name

        86          0          0          0          0          0   __dczerorl2.o
         0          0          0          0          0          0   entry.o
         0          0          0          0          0          0   entry10a.o
         0          0          0          0          0          0   entry11a.o
         8          4          0          0          0          0   entry4.o
         4          0          0          0          0          0   entry5.o
         0          0          0          0          0          0   entry7b.o
         0          0          0          0          0          0   entry8b.o
         8          4          0          0          0          0   entry9a.o
        30          0          0          0          0          0   handlers.o
        48         10          0          0          0         68   init.o
        36          0          0          0          0         68   memcpya.o
        36          0          0          0          0        108   memseta.o
        36          6          0          0          0         80   puts.o
         0          0          0          4          0          0   stdout.o

    ----------------------------------------------------------------------
       294         24          0          4          0        324   Library Totals
         2          0          0          0          0          0   (incl. Padding)

    ----------------------------------------------------------------------

      Code (inc. data)   RO Data    RW Data    ZI Data      Debug   Library Name

       292         24          0          4          0        324   mc_w.l

    ----------------------------------------------------------------------
       294         24          0          4          0        324   Library Totals

    ----------------------------------------------------------------------

==============================================================================


      Code (inc. data)   RO Data    RW Data    ZI Data      Debug   

     22740        538       1324        660       3348     376242   Grand Totals
     22740        538       1324        272       3348     376242   ELF Image Totals (compressed)
     22740        538       1324        272          0          0   ROM Totals

==============================================================================

    Total RO  Size (Code + RO Data)                24064 (  23.50kB)
    Total RW  Size (RW Data + ZI Data)              4008 (   3.91kB)
    Total ROM Size (Code + RO Data + RW Data)      24336 (  23.77kB)

==============================================================================

