Component: ARM Compiler 6.16 Tool: armlink [5dfeaa00]

==============================================================================

Section Cross References

    startup.o(.text.bss_data_init) refers to startup_g32a1465.o(.text) for __VECTOR_ROM
    startup.o(.ARM.exidx.text.bss_data_init) refers to startup.o(.text.bss_data_init) for [Anonymous Symbol]
    system_g32a1xxx.o(.ARM.exidx.text.WDT_Disable) refers to system_g32a1xxx.o(.text.WDT_Disable) for [Anonymous Symbol]
    system_g32a1xxx.o(.text.SystemInit) refers to system_g32a1xxx.o(.text.WDT_Disable) for WDT_Disable
    system_g32a1xxx.o(.ARM.exidx.text.SystemInit) refers to system_g32a1xxx.o(.text.SystemInit) for [Anonymous Symbol]
    system_g32a1xxx.o(.text.SystemCoreClockUpdate) refers to system_g32a1xxx.o(.data.SystemCoreClock) for SystemCoreClock
    system_g32a1xxx.o(.ARM.exidx.text.SystemCoreClockUpdate) refers to system_g32a1xxx.o(.text.SystemCoreClockUpdate) for [Anonymous Symbol]
    system_g32a1xxx.o(.ARM.exidx.text.SystemCoreClockConfigure) refers to system_g32a1xxx.o(.text.SystemCoreClockConfigure) for [Anonymous Symbol]
    system_g32a1xxx.o(.ARM.exidx.text.SystemSoftwareReset) refers to system_g32a1xxx.o(.text.SystemSoftwareReset) for [Anonymous Symbol]
    startup_g32a1465.o(.text) refers (Special) to main.o(.text.main) for main
    startup_g32a1465.o(.text) refers to startup_g32a1465.o(FlashConfig) for FlashConfig
    startup_g32a1465.o(.text) refers to startup_g32a1465.o(RESET) for __Vectors
    startup_g32a1465.o(.text) refers to system_g32a1xxx.o(.text.SystemInit) for SystemInit
    startup_g32a1465.o(.text) refers to startup.o(.text.bss_data_init) for bss_data_init
    startup_g32a1465.o(.text) refers to entry.o(.ARM.Collect$$$$00000000) for __main
    startup_g32a1465.o(RESET) refers (Special) to main.o(.text.main) for main
    startup_g32a1465.o(RESET) refers to startup_g32a1465.o(.text) for Reset_Handler
    startup_g32a1465.o(RESET) refers to g32a1xxx_int.o(.text.NMI_Handler) for NMI_Handler
==============================================================================

Removing Unused input sections from the image.

    Removing startup.o(.text), (0 bytes).
    Removing startup.o(.ARM.exidx.text.bss_data_init), (8 bytes).
    Removing system_g32a1xxx.o(.text), (0 bytes).
    Removing system_g32a1xxx.o(.ARM.exidx.text.WDT_Disable), (8 bytes).
    Removing system_g32a1xxx.o(.ARM.exidx.text.SystemInit), (8 bytes).
    Removing system_g32a1xxx.o(.ARM.exidx.text.SystemCoreClockUpdate), (8 bytes).
    Removing system_g32a1xxx.o(.ARM.exidx.text.SystemCoreClockConfigure), (8 bytes).
    Removing system_g32a1xxx.o(.text.SystemSoftwareReset), (32 bytes).
    Removing system_g32a1xxx.o(.ARM.exidx.text.SystemSoftwareReset), (8 bytes).
    Removing main.o(.text), (0 bytes).
    Removing main.o(.ARM.exidx.text.led_toggle), (8 bytes).
    Removing main.o(.ARM.exidx.text.main), (8 bytes).
    Removing main.o(.data.g_adcMaxValue), (4 bytes).
    Removing main.o(.data.g_adcDifference), (4 bytes).
    Removing main.o(.bss.adcValue), (4 bytes).
    Removing main.o(.ARM.use_no_argv), (4 bytes).
    Removing g32a1xxx_int.o(.text), (0 bytes).
    Removing g32a1xxx_int.o(.ARM.exidx.text.NMI_Handler), (8 bytes).
==============================================================================

Image Symbol Table

    Local Symbols

    Symbol Name                              Value     Ov Type        Size  Object(Section)

    ../clib/../cmprslib/zerorunl2.c          0x00000000   Number         0  __dczerorl2.o ABSOLUTE
    ../clib/division.s                       0x00000000   Number         0  aeabi_sdiv.o ABSOLUTE
    ../clib/microlib/division.c              0x00000000   Number         0  uldiv.o ABSOLUTE
    ../clib/microlib/division.c              0x00000000   Number         0  uidiv.o ABSOLUTE
    ../clib/microlib/init/entry.s            0x00000000   Number         0  entry.o ABSOLUTE
    ../clib/microlib/init/entry.s            0x00000000   Number         0  entry4.o ABSOLUTE
    ../clib/microlib/init/entry.s            0x00000000   Number         0  entry5.o ABSOLUTE
    ../clib/microlib/init/entry.s            0x00000000   Number         0  entry7a.o ABSOLUTE
    ../clib/microlib/init/entry.s            0x00000000   Number         0  entry7b.o ABSOLUTE
    ../clib/microlib/init/entry.s            0x00000000   Number         0  entry8a.o ABSOLUTE
    ../clib/microlib/init/entry.s            0x00000000   Number         0  entry8b.o ABSOLUTE
    ../clib/microlib/init/entry.s            0x00000000   Number         0  entry9a.o ABSOLUTE
    ../clib/microlib/init/entry.s            0x00000000   Number         0  entry9b.o ABSOLUTE
    ../clib/microlib/init/entry.s            0x00000000   Number         0  entry10a.o ABSOLUTE
    ../clib/microlib/init/entry.s            0x00000000   Number         0  entry10b.o ABSOLUTE
    ../clib/microlib/init/entry.s            0x00000000   Number         0  entry11a.o ABSOLUTE
    ../clib/microlib/init/entry.s            0x00000000   Number         0  entry11b.o ABSOLUTE
    ../clib/microlib/longlong.c              0x00000000   Number         0  llshl.o ABSOLUTE
    ../clib/microlib/longlong.c              0x00000000   Number         0  llushr.o ABSOLUTE
    ../clib/microlib/longlong.c              0x00000000   Number         0  llsshr.o ABSOLUTE
    ../clib/microlib/printf/printf.c         0x00000000   Number         0  printfb.o ABSOLUTE
    ../clib/microlib/printf/printf.c         0x00000000   Number         0  printf0.o ABSOLUTE
    ../clib/microlib/printf/printf.c         0x00000000   Number         0  printf1.o ABSOLUTE
    ../clib/microlib/printf/printf.c         0x00000000   Number         0  printf2.o ABSOLUTE
    ../clib/microlib/printf/printf.c         0x00000000   Number         0  printf3.o ABSOLUTE
    ../clib/microlib/printf/printf.c         0x00000000   Number         0  printf4.o ABSOLUTE
    ../clib/microlib/printf/printf.c         0x00000000   Number         0  printf5.o ABSOLUTE
    ../clib/microlib/printf/printf.c         0x00000000   Number         0  printf6.o ABSOLUTE
    ../clib/microlib/printf/printf.c         0x00000000   Number         0  printf7.o ABSOLUTE
    ../clib/microlib/printf/printf.c         0x00000000   Number         0  printf8.o ABSOLUTE
    ../clib/microlib/printf/printf.c         0x00000000   Number         0  printfa.o ABSOLUTE
    ../clib/microlib/printf/stubs.s          0x00000000   Number         0  printfstubs.o ABSOLUTE
    ../clib/microlib/stdio/puts.c            0x00000000   Number         0  puts.o ABSOLUTE
    ../clib/microlib/stdio/puts.c            0x00000000   Number         0  puts_e.o ABSOLUTE
    ../clib/microlib/stdio/streams.c         0x00000000   Number         0  stdout.o ABSOLUTE
    ../clib/microlib/string/memcpy.c         0x00000000   Number         0  memcpya.o ABSOLUTE
    ../clib/microlib/string/memcpy.c         0x00000000   Number         0  memcpyb.o ABSOLUTE
    ../clib/microlib/string/memset.c         0x00000000   Number         0  memseta.o ABSOLUTE
    ../clib/microlib/stubs.s                 0x00000000   Number         0  iusefp.o ABSOLUTE
    ../fplib/microlib/f2d.c                  0x00000000   Number         0  f2d.o ABSOLUTE
    ../fplib/microlib/fpadd.c                0x00000000   Number         0  dadd.o ABSOLUTE
    ../fplib/microlib/fpcmp.c                0x00000000   Number         0  dcmple.o ABSOLUTE
    ../fplib/microlib/fpdiv.c                0x00000000   Number         0  ddiv.o ABSOLUTE
    ../fplib/microlib/fpepilogue.c           0x00000000   Number         0  depilogue.o ABSOLUTE
    ../fplib/microlib/fpfix.c                0x00000000   Number         0  dfixul.o ABSOLUTE
    ../fplib/microlib/fpflt.c                0x00000000   Number         0  dfltui.o ABSOLUTE
    ../fplib/microlib/fpmul.c                0x00000000   Number         0  dmul.o ABSOLUTE
    ..\..\Libraries\Device\Geehy\G32A1xxx\G32A1465\startup\armc\startup_g32a1465.S 0x00000000   Number         0  startup_g32a1465.o ABSOLUTE
    adc.c                                    0x00000000   Number         0  adc.o ABSOLUTE
    board.c                                  0x00000000   Number         0  board.o ABSOLUTE
    cdrcmple.s                               0x00000000   Number         0  cdrcmple.o ABSOLUTE
    dc.s                                     0x00000000   Number         0  dc.o ABSOLUTE
    fonts.c                                  0x00000000   Number         0  fonts.o ABSOLUTE
    g32a1xxx_adc.c                           0x00000000   Number         0  g32a1xxx_adc.o ABSOLUTE
    g32a1xxx_can.c                           0x00000000   Number         0  g32a1xxx_can.o ABSOLUTE
    g32a1xxx_cfgio_common.c                  0x00000000   Number         0  g32a1xxx_cfgio_common.o ABSOLUTE
    g32a1xxx_cfgio_i2c.c                     0x00000000   Number         0  g32a1xxx_cfgio_i2c.o ABSOLUTE
    g32a1xxx_cfgio_spi.c                     0x00000000   Number         0  g32a1xxx_cfgio_spi.o ABSOLUTE
    g32a1xxx_cfgio_uart.c                    0x00000000   Number         0  g32a1xxx_cfgio_uart.o ABSOLUTE
    g32a1xxx_cfgtmr.c                        0x00000000   Number         0  g32a1xxx_cfgtmr.o ABSOLUTE
    g32a1xxx_clock.c                         0x00000000   Number         0  g32a1xxx_clock.o ABSOLUTE
    g32a1xxx_comp.c                          0x00000000   Number         0  g32a1xxx_comp.o ABSOLUTE
    g32a1xxx_crc.c                           0x00000000   Number         0  g32a1xxx_crc.o ABSOLUTE
    g32a1xxx_csec.c                          0x00000000   Number         0  g32a1xxx_csec.o ABSOLUTE
    g32a1xxx_dma.c                           0x00000000   Number         0  g32a1xxx_dma.o ABSOLUTE
    g32a1xxx_einj.c                          0x00000000   Number         0  g32a1xxx_einj.o ABSOLUTE
    g32a1xxx_erep.c                          0x00000000   Number         0  g32a1xxx_erep.o ABSOLUTE
    g32a1xxx_ewdt.c                          0x00000000   Number         0  g32a1xxx_ewdt.o ABSOLUTE
    g32a1xxx_flash.c                         0x00000000   Number         0  g32a1xxx_flash.o ABSOLUTE
    g32a1xxx_int.c                           0x00000000   Number         0  g32a1xxx_int.o ABSOLUTE
    g32a1xxx_interrupt.c                     0x00000000   Number         0  g32a1xxx_interrupt.o ABSOLUTE
    g32a1xxx_lpi2c.c                         0x00000000   Number         0  g32a1xxx_lpi2c.o ABSOLUTE
    g32a1xxx_lpitmr.c                        0x00000000   Number         0  g32a1xxx_lpitmr.o ABSOLUTE
    g32a1xxx_lpspi.c                         0x00000000   Number         0  g32a1xxx_lpspi.o ABSOLUTE
    g32a1xxx_lptmr.c                         0x00000000   Number         0  g32a1xxx_lptmr.o ABSOLUTE
    g32a1xxx_lpuart.c                        0x00000000   Number         0  g32a1xxx_lpuart.o ABSOLUTE
    g32a1xxx_mpu.c                           0x00000000   Number         0  g32a1xxx_mpu.o ABSOLUTE
    g32a1xxx_pdu.c                           0x00000000   Number         0  g32a1xxx_pdu.o ABSOLUTE
    g32a1xxx_pins.c                          0x00000000   Number         0  g32a1xxx_pins.o ABSOLUTE
    g32a1xxx_power.c                         0x00000000   Number         0  g32a1xxx_power.o ABSOLUTE
    g32a1xxx_rtc.c                           0x00000000   Number         0  g32a1xxx_rtc.o ABSOLUTE
    g32a1xxx_tmc.c                           0x00000000   Number         0  g32a1xxx_tmc.o ABSOLUTE
    g32a1xxx_wdt.c                           0x00000000   Number         0  g32a1xxx_wdt.o ABSOLUTE
    handlers.s                               0x00000000   Number         0  handlers.o ABSOLUTE
    init.s                                   0x00000000   Number         0  init.o ABSOLUTE
    lcd.c                                    0x00000000   Number         0  lcd.o ABSOLUTE
    main.c                                   0x00000000   Number         0  main.o ABSOLUTE
    oled.c                                   0x00000000   Number         0  oled.o ABSOLUTE
    osif.c                                   0x00000000   Number         0  osif.o ABSOLUTE
    pwm.c                                    0x00000000   Number         0  pwm.o ABSOLUTE
    startup.c                                0x00000000   Number         0  startup.o ABSOLUTE
    system_g32a1xxx.c                        0x00000000   Number         0  system_g32a1xxx.o ABSOLUTE
    systick.c                                0x00000000   Number         0  systick.o ABSOLUTE
    tim.c                                    0x00000000   Number         0  tim.o ABSOLUTE
    user_clock_config.c                      0x00000000   Number         0  user_clock_config.o ABSOLUTE
    RESET                                    0x00000000   Section      608  startup_g32a1465.o(RESET)
    FlashConfig                              0x00000400   Section       16  startup_g32a1465.o(FlashConfig)
    .L__const.CLOCK_ConfigSystemClockCfg.maxSystemClocksFreqOfHSRUN 0x00000410   Data          84  g32a1xxx_clock.o(.rodata..L__const.CLOCK_ConfigSystemClockCfg.maxSystemClocksFreqOfHSRUN)
    .L__const.CLOCK_ConfigSystemClockCfg.maxSystemClocksFreqOfRUN 0x00000464   Data          84  g32a1xxx_clock.o(.rodata..L__const.CLOCK_ConfigSystemClockCfg.maxSystemClocksFreqOfRUN)
    .L__const.CLOCK_ConfigSystemClockCfg.maxSystemClocksFreqOfVLPR 0x000004b8   Data          84  g32a1xxx_clock.o(.rodata..L__const.CLOCK_ConfigSystemClockCfg.maxSystemClocksFreqOfVLPR)
    .L__const.CLOCK_ReadDefaultConfig.peripheralClkCfg 0x0000050c   Data         165  g32a1xxx_clock.o(.rodata..L__const.CLOCK_ReadDefaultConfig.peripheralClkCfg)
    .L__const.COM_Init.uartClkCfg            0x000005b2   Data           6  board.o(.rodata..L__const.COM_Init.uartClkCfg)
    .L__const.COM_Init.uartCfg               0x000005b8   Data          16  board.o(.rodata.cst16)
    .L__const.LPITMR_ChannelInit.lpitmrIrqnId 0x000005c8   Data           8  g32a1xxx_lpitmr.o(.rodata.cst8)
    g_canBaseAddress                         0x000005d8   Data          12  g32a1xxx_can.o(.rodata.g_canBaseAddress)
    [Anonymous Symbol]                       0x000005d8   Section        0  g32a1xxx_can.o(.rodata.g_canBaseAddress)
    g_cfgtmrBaseAddress                      0x000005e4   Data          24  g32a1xxx_cfgtmr.o(.rodata.g_cfgtmrBaseAddress)
    [Anonymous Symbol]                       0x000005e4   Section        0  g32a1xxx_cfgtmr.o(.rodata.g_cfgtmrBaseAddress)
    g_cfgtmrOverflowIrqId                    0x000005fc   Data          12  g32a1xxx_cfgtmr.o(.rodata.g_cfgtmrOverflowIrqId)
    [Anonymous Symbol]                       0x000005fc   Section        0  g32a1xxx_cfgtmr.o(.rodata.g_cfgtmrOverflowIrqId)
    g_lpuartBase                             0x00000608   Data          12  g32a1xxx_lpuart.o(.rodata.g_lpuartBase)
    [Anonymous Symbol]                       0x00000608   Section        0  g32a1xxx_lpuart.o(.rodata.g_lpuartBase)
    g_lpuartClockNames                       0x00000614   Data           3  g32a1xxx_lpuart.o(.rodata.g_lpuartClockNames)
    [Anonymous Symbol]                       0x00000614   Section        0  g32a1xxx_lpuart.o(.rodata.g_lpuartClockNames)
    g_lpuartIrqNum                           0x00000618   Data           6  g32a1xxx_lpuart.o(.rodata.g_lpuartIrqNum)
    [Anonymous Symbol]                       0x00000618   Section        0  g32a1xxx_lpuart.o(.rodata.g_lpuartIrqNum)
    .L.str                                   0x0000066f   Data          67  main.o(.rodata.str1.1)
    [Anonymous Symbol]                       0x0000066f   Section        0  main.o(.rodata.str1.1)
    .ARM.Collect$$$$00000000                 0x000006b4   Section        0  entry.o(.ARM.Collect$$$$00000000)
    .ARM.Collect$$$$00000003                 0x000006b4   Section        4  entry4.o(.ARM.Collect$$$$00000003)
    .ARM.Collect$$$$00000004                 0x000006b8   Section        4  entry5.o(.ARM.Collect$$$$00000004)
    .ARM.Collect$$$$00000008                 0x000006bc   Section        0  entry7b.o(.ARM.Collect$$$$00000008)
    .ARM.Collect$$$$0000000A                 0x000006bc   Section        0  entry8b.o(.ARM.Collect$$$$0000000A)
    .ARM.Collect$$$$0000000B                 0x000006bc   Section        8  entry9a.o(.ARM.Collect$$$$0000000B)
    __lit__00000000                          0x000006c4   Data           4  entry4.o(.ARM.Collect$$$$00002714)
    .ARM.Collect$$$$0000000D                 0x000006c4   Section        0  entry10a.o(.ARM.Collect$$$$0000000D)
    .ARM.Collect$$$$0000000F                 0x000006c4   Section        0  entry11a.o(.ARM.Collect$$$$0000000F)
    .ARM.Collect$$$$00002714                 0x000006c4   Section        4  entry4.o(.ARM.Collect$$$$00002714)
    .text                                    0x000006c8   Section      196  startup_g32a1465.o(.text)
    $v0                                      0x0000071c   Number         0  startup_g32a1465.o(.text)
    .text                                    0x0000078c   Section        0  uldiv.o(.text)
    .text                                    0x000007ee   Section        0  memcpya.o(.text)
    .text                                    0x00000812   Section        0  memseta.o(.text)
    .text                                    0x00000836   Section        0  dmul.o(.text)
    .text                                    0x0000091a   Section        0  f2d.o(.text)
    .text                                    0x00000940   Section        0  uidiv.o(.text)
    .text                                    0x0000096c   Section        0  llshl.o(.text)
    .text                                    0x0000098a   Section        0  llushr.o(.text)
    .text                                    0x000009aa   Section        0  iusefp.o(.text)
    .text                                    0x000009aa   Section        0  depilogue.o(.text)
    .text                                    0x00000a64   Section        0  dadd.o(.text)
    .text                                    0x00000bb2   Section        0  ddiv.o(.text)
    .text                                    0x00000c90   Section        0  dfixul.o(.text)
    .text                                    0x00000cc0   Section       48  cdrcmple.o(.text)
    .text                                    0x00000cf0   Section       36  init.o(.text)
    .text                                    0x00000d14   Section        0  llsshr.o(.text)
    .text                                    0x00000d38   Section        0  __dczerorl2.o(.text)
    [Anonymous Symbol]                       0x00000d90   Section        0  g32a1xxx_adc.o(.text.ADC_AutoCalibration)
    [Anonymous Symbol]                       0x00000eac   Section        0  g32a1xxx_adc.o(.text.ADC_ConfigConverter)
    [Anonymous Symbol]                       0x00000f48   Section        0  g32a1xxx_adc.o(.text.ADC_ConfigConverterStruct)
    [Anonymous Symbol]                       0x00000f5c   Section        0  g32a1xxx_adc.o(.text.ADC_ConfigHwAverage)
    [Anonymous Symbol]                       0x00000f84   Section        0  g32a1xxx_adc.o(.text.ADC_ConfigHwAverageStruct)
    [Anonymous Symbol]                       0x00000f8c   Section        0  g32a1xxx_adc.o(.text.ADC_ConfigUserCalibration)
    [Anonymous Symbol]                       0x00000fb4   Section        0  g32a1xxx_adc.o(.text.ADC_ConfigUserCalibrationStruct)
    [Anonymous Symbol]                       0x00000fbc   Section        0  g32a1xxx_adc.o(.text.ADC_HW_ReadCalibrationActiveFlag)
    [Anonymous Symbol]                       0x00000fc8   Section        0  g32a1xxx_adc.o(.text.ADC_HW_ReadClockDivide)
    [Anonymous Symbol]                       0x00000fd0   Section        0  g32a1xxx_adc.o(.text.ADC_HW_ReadHwAverageEnableFlag)
    [Anonymous Symbol]                       0x00000fdc   Section        0  g32a1xxx_adc.o(.text.ADC_HW_ReadHwAverageMode)
    [Anonymous Symbol]                       0x00000fe8   Section        0  g32a1xxx_adc.o(.text.ADC_HW_ReadSampleTime)
    [Anonymous Symbol]                       0x00000ff0   Section        0  g32a1xxx_adc.o(.text.ADC_HW_ReadTriggerMode)
    [Anonymous Symbol]                       0x00000ffc   Section        0  g32a1xxx_adc.o(.text.ADC_HW_SetCalibrationActiveFlag)
    [Anonymous Symbol]                       0x00001010   Section        0  g32a1xxx_adc.o(.text.ADC_HW_SetClockDivide)
    [Anonymous Symbol]                       0x0000101c   Section        0  g32a1xxx_adc.o(.text.ADC_HW_SetContinuousConvFlag)
    [Anonymous Symbol]                       0x00001030   Section        0  g32a1xxx_adc.o(.text.ADC_HW_SetDMAEnableFlag)
    [Anonymous Symbol]                       0x00001044   Section        0  g32a1xxx_adc.o(.text.ADC_HW_SetHwAverageEnableFlag)
    [Anonymous Symbol]                       0x00001058   Section        0  g32a1xxx_adc.o(.text.ADC_HW_SetHwAverageMode)
    [Anonymous Symbol]                       0x00001068   Section        0  g32a1xxx_adc.o(.text.ADC_HW_SetInputClock)
    [Anonymous Symbol]                       0x00001074   Section        0  g32a1xxx_adc.o(.text.ADC_HW_SetPretriggerSelect)
    [Anonymous Symbol]                       0x000010a8   Section        0  g32a1xxx_adc.o(.text.ADC_HW_SetResolution)
    [Anonymous Symbol]                       0x000010b4   Section        0  g32a1xxx_adc.o(.text.ADC_HW_SetSampleTime)
    [Anonymous Symbol]                       0x000010c8   Section        0  g32a1xxx_adc.o(.text.ADC_HW_SetSupplyMonitoringEnableFlag)
    [Anonymous Symbol]                       0x000010d8   Section        0  g32a1xxx_adc.o(.text.ADC_HW_SetTriggerMode)
    [Anonymous Symbol]                       0x000010e8   Section        0  g32a1xxx_adc.o(.text.ADC_HW_SetTriggerSelect)
    [Anonymous Symbol]                       0x00001128   Section        0  g32a1xxx_adc.o(.text.ADC_HW_SetUserGainValue)
    [Anonymous Symbol]                       0x00001178   Section        0  g32a1xxx_adc.o(.text.ADC_HW_SetUserOffsetValue)
    [Anonymous Symbol]                       0x00001180   Section        0  g32a1xxx_adc.o(.text.ADC_HW_SetVoltageReference)
    [Anonymous Symbol]                       0x00001190   Section        0  g32a1xxx_adc.o(.text.ADC_Reset)
    [Anonymous Symbol]                       0x00001228   Section        0  g32a1xxx_adc.o(.text.ADC_SetSwPretrigger)
    [Anonymous Symbol]                       0x00001270   Section        0  adc.o(.text.ADC_init)
    [Anonymous Symbol]                       0x000012dc   Section        0  board.o(.text.BTN_Init)
    [Anonymous Symbol]                       0x0000135c   Section        0  board.o(.text.BTN_InstallKey1Handler)
    [Anonymous Symbol]                       0x00001368   Section        0  board.o(.text.BTN_IsrHandler)
    [Anonymous Symbol]                       0x000013bc   Section        0  g32a1xxx_int.o(.text.BusFault_Handler)
    [Anonymous Symbol]                       0x000013c0   Section        0  g32a1xxx_can.o(.text.CAN0_Error_IRQHandler)
    [Anonymous Symbol]                       0x000013cc   Section        0  g32a1xxx_can.o(.text.CAN0_ORed_0_15_MB_IRQHandler)
    [Anonymous Symbol]                       0x000013d8   Section        0  g32a1xxx_can.o(.text.CAN0_ORed_16_31_MB_IRQHandler)
    [Anonymous Symbol]                       0x000013e4   Section        0  g32a1xxx_can.o(.text.CAN0_ORed_IRQHandler)
    [Anonymous Symbol]                       0x000013f0   Section        0  g32a1xxx_can.o(.text.CAN0_Wake_Up_IRQHandler)
    [Anonymous Symbol]                       0x000013f8   Section        0  g32a1xxx_can.o(.text.CAN1_Error_IRQHandler)
    [Anonymous Symbol]                       0x00001404   Section        0  g32a1xxx_can.o(.text.CAN1_ORed_0_15_MB_IRQHandler)
    [Anonymous Symbol]                       0x00001410   Section        0  g32a1xxx_can.o(.text.CAN1_ORed_16_31_MB_IRQHandler)
    [Anonymous Symbol]                       0x0000141c   Section        0  g32a1xxx_can.o(.text.CAN1_ORed_IRQHandler)
    [Anonymous Symbol]                       0x00001428   Section        0  g32a1xxx_can.o(.text.CAN2_Error_IRQHandler)
    [Anonymous Symbol]                       0x00001434   Section        0  g32a1xxx_can.o(.text.CAN2_ORed_0_15_MB_IRQHandler)
    [Anonymous Symbol]                       0x00001440   Section        0  g32a1xxx_can.o(.text.CAN2_ORed_IRQHandler)
    CAN_FinishDataTransfer                   0x0000144d   Thumb Code    54  g32a1xxx_can.o(.text.CAN_FinishDataTransfer)
    [Anonymous Symbol]                       0x0000144c   Section        0  g32a1xxx_can.o(.text.CAN_FinishDataTransfer)
    CAN_FinishReceiveFifoData                0x00001485   Thumb Code   170  g32a1xxx_can.o(.text.CAN_FinishReceiveFifoData)
    [Anonymous Symbol]                       0x00001484   Section        0  g32a1xxx_can.o(.text.CAN_FinishReceiveFifoData)
    CAN_GetPayloadSize                       0x00001531   Thumb Code    64  g32a1xxx_can.o(.text.CAN_GetPayloadSize)
    [Anonymous Symbol]                       0x00001530   Section        0  g32a1xxx_can.o(.text.CAN_GetPayloadSize)
    [Anonymous Symbol]                       0x00001570   Section        0  g32a1xxx_can.o(.text.CAN_HW_ClearBusOffInterruptFlag)
    [Anonymous Symbol]                       0x00001584   Section        0  g32a1xxx_can.o(.text.CAN_HW_ClearErrorInterruptFlag)
    [Anonymous Symbol]                       0x000015a0   Section        0  g32a1xxx_can.o(.text.CAN_HW_ClearMbInterruptFlag)
    [Anonymous Symbol]                       0x000015b4   Section        0  g32a1xxx_can.o(.text.CAN_HW_ClearWakeupByMatchFlag)
    [Anonymous Symbol]                       0x000015c4   Section        0  g32a1xxx_can.o(.text.CAN_HW_ClearWakeupByTimeoutFlag)
    [Anonymous Symbol]                       0x000015d4   Section        0  g32a1xxx_can.o(.text.CAN_HW_GetFdPayloadSize)
    [Anonymous Symbol]                       0x000015f4   Section        0  g32a1xxx_can.o(.text.CAN_HW_GetMbInterruptStatus)
    [Anonymous Symbol]                       0x00001610   Section        0  g32a1xxx_can.o(.text.CAN_HW_GetMbRegion)
    [Anonymous Symbol]                       0x00001640   Section        0  g32a1xxx_can.o(.text.CAN_HW_GetMbValues)
    [Anonymous Symbol]                       0x000016c8   Section        0  g32a1xxx_can.o(.text.CAN_HW_GetRxFifoValues)
    [Anonymous Symbol]                       0x00001710   Section        0  g32a1xxx_can.o(.text.CAN_HW_GetWakeupByMatchFlag)
    [Anonymous Symbol]                       0x0000171c   Section        0  g32a1xxx_can.o(.text.CAN_HW_GetWakeupByTimeoutFlag)
    [Anonymous Symbol]                       0x00001728   Section        0  g32a1xxx_can.o(.text.CAN_HW_IsFdEnabled)
    [Anonymous Symbol]                       0x00001730   Section        0  g32a1xxx_can.o(.text.CAN_HW_IsPnEnabled)
    [Anonymous Symbol]                       0x00001738   Section        0  g32a1xxx_can.o(.text.CAN_HW_IsRxFifoEnabled)
    [Anonymous Symbol]                       0x00001740   Section        0  g32a1xxx_can.o(.text.CAN_HW_LockRxMb)
    [Anonymous Symbol]                       0x0000174c   Section        0  g32a1xxx_can.o(.text.CAN_HW_SetMbInterruptEnable)
    [Anonymous Symbol]                       0x00001778   Section        0  g32a1xxx_can.o(.text.CAN_HW_UnlockRxMb)
    CAN_IRQHandler                           0x0000177d   Thumb Code   256  g32a1xxx_can.o(.text.CAN_IRQHandler)
    [Anonymous Symbol]                       0x0000177c   Section        0  g32a1xxx_can.o(.text.CAN_IRQHandler)
    CAN_IRQHandlerBusOff                     0x0000187d   Thumb Code    44  g32a1xxx_can.o(.text.CAN_IRQHandlerBusOff)
    [Anonymous Symbol]                       0x0000187c   Section        0  g32a1xxx_can.o(.text.CAN_IRQHandlerBusOff)
    CAN_IRQHandlerError                      0x000018a9   Thumb Code    44  g32a1xxx_can.o(.text.CAN_IRQHandlerError)
    [Anonymous Symbol]                       0x000018a8   Section        0  g32a1xxx_can.o(.text.CAN_IRQHandlerError)
    CAN_IRQHandlerRxFifo                     0x000018d5   Thumb Code   146  g32a1xxx_can.o(.text.CAN_IRQHandlerRxFifo)
    [Anonymous Symbol]                       0x000018d4   Section        0  g32a1xxx_can.o(.text.CAN_IRQHandlerRxFifo)
    CAN_IRQHandlerRxMb                       0x00001969   Thumb Code   156  g32a1xxx_can.o(.text.CAN_IRQHandlerRxMb)
    [Anonymous Symbol]                       0x00001968   Section        0  g32a1xxx_can.o(.text.CAN_IRQHandlerRxMb)
    CAN_IRQHandlerWakeup                     0x00001a05   Thumb Code    98  g32a1xxx_can.o(.text.CAN_IRQHandlerWakeup)
    [Anonymous Symbol]                       0x00001a04   Section        0  g32a1xxx_can.o(.text.CAN_IRQHandlerWakeup)
    [Anonymous Symbol]                       0x00001a68   Section        0  g32a1xxx_cfgio_common.o(.text.CFGIO_HW_GetAllShifterErrorInterrupt)
    [Anonymous Symbol]                       0x00001a6c   Section        0  g32a1xxx_cfgio_common.o(.text.CFGIO_HW_GetAllShifterErrorStatus)
    [Anonymous Symbol]                       0x00001a70   Section        0  g32a1xxx_cfgio_common.o(.text.CFGIO_HW_GetAllShifterInterrupt)
    [Anonymous Symbol]                       0x00001a74   Section        0  g32a1xxx_cfgio_common.o(.text.CFGIO_HW_GetAllShifterStatus)
    [Anonymous Symbol]                       0x00001a78   Section        0  g32a1xxx_cfgio_common.o(.text.CFGIO_HW_GetAllTimerStatus)
    [Anonymous Symbol]                       0x00001a7c   Section        0  g32a1xxx_cfgio_common.o(.text.CFGIO_HW_GetTimerInterruptStates)
    [Anonymous Symbol]                       0x00001a80   Section        0  g32a1xxx_cfgio_common.o(.text.CFGIO_IRQHandler)
    [Anonymous Symbol]                       0x00001b08   Section        0  g32a1xxx_cfgtmr.o(.text.CFGTMR0_Ch0_Ch1_IRQHandler)
    [Anonymous Symbol]                       0x00001b14   Section        0  g32a1xxx_cfgtmr.o(.text.CFGTMR0_Ch2_Ch3_IRQHandler)
    [Anonymous Symbol]                       0x00001b20   Section        0  g32a1xxx_cfgtmr.o(.text.CFGTMR0_Ch4_Ch5_IRQHandler)
    [Anonymous Symbol]                       0x00001b2c   Section        0  g32a1xxx_cfgtmr.o(.text.CFGTMR0_Ch6_Ch7_IRQHandler)
    [Anonymous Symbol]                       0x00001b38   Section        0  g32a1xxx_cfgtmr.o(.text.CFGTMR1_Ch0_Ch1_IRQHandler)
    [Anonymous Symbol]                       0x00001b44   Section        0  g32a1xxx_cfgtmr.o(.text.CFGTMR1_Ch2_Ch3_IRQHandler)
    [Anonymous Symbol]                       0x00001b50   Section        0  g32a1xxx_cfgtmr.o(.text.CFGTMR1_Ch4_Ch5_IRQHandler)
    [Anonymous Symbol]                       0x00001b5c   Section        0  g32a1xxx_cfgtmr.o(.text.CFGTMR1_Ch6_Ch7_IRQHandler)
    [Anonymous Symbol]                       0x00001b68   Section        0  g32a1xxx_cfgtmr.o(.text.CFGTMR2_Ch0_Ch1_IRQHandler)
    [Anonymous Symbol]                       0x00001b74   Section        0  g32a1xxx_cfgtmr.o(.text.CFGTMR2_Ch2_Ch3_IRQHandler)
    [Anonymous Symbol]                       0x00001b80   Section        0  g32a1xxx_cfgtmr.o(.text.CFGTMR2_Ch4_Ch5_IRQHandler)
    [Anonymous Symbol]                       0x00001b8c   Section        0  g32a1xxx_cfgtmr.o(.text.CFGTMR2_Ch6_Ch7_IRQHandler)
    [Anonymous Symbol]                       0x00001b98   Section        0  g32a1xxx_cfgtmr.o(.text.CFGTMR3_Ch0_Ch1_IRQHandler)
    [Anonymous Symbol]                       0x00001ba4   Section        0  g32a1xxx_cfgtmr.o(.text.CFGTMR3_Ch2_Ch3_IRQHandler)
    [Anonymous Symbol]                       0x00001bb0   Section        0  g32a1xxx_cfgtmr.o(.text.CFGTMR3_Ch4_Ch5_IRQHandler)
    [Anonymous Symbol]                       0x00001bbc   Section        0  g32a1xxx_cfgtmr.o(.text.CFGTMR3_Ch6_Ch7_IRQHandler)
    [Anonymous Symbol]                       0x00001bc8   Section        0  g32a1xxx_cfgtmr.o(.text.CFGTMR4_Ch0_Ch1_IRQHandler)
    [Anonymous Symbol]                       0x00001bd4   Section        0  g32a1xxx_cfgtmr.o(.text.CFGTMR4_Ch2_Ch3_IRQHandler)
    [Anonymous Symbol]                       0x00001be0   Section        0  g32a1xxx_cfgtmr.o(.text.CFGTMR4_Ch4_Ch5_IRQHandler)
    [Anonymous Symbol]                       0x00001bec   Section        0  g32a1xxx_cfgtmr.o(.text.CFGTMR4_Ch6_Ch7_IRQHandler)
    [Anonymous Symbol]                       0x00001bf8   Section        0  g32a1xxx_cfgtmr.o(.text.CFGTMR5_Ch0_Ch1_IRQHandler)
    [Anonymous Symbol]                       0x00001c04   Section        0  g32a1xxx_cfgtmr.o(.text.CFGTMR5_Ch2_Ch3_IRQHandler)
    [Anonymous Symbol]                       0x00001c10   Section        0  g32a1xxx_cfgtmr.o(.text.CFGTMR5_Ch4_Ch5_IRQHandler)
    [Anonymous Symbol]                       0x00001c1c   Section        0  g32a1xxx_cfgtmr.o(.text.CFGTMR5_Ch6_Ch7_IRQHandler)
    CFGTMR_ConfigPwmCombinedChannel          0x00001c29   Thumb Code   336  g32a1xxx_cfgtmr.o(.text.CFGTMR_ConfigPwmCombinedChannel)
    [Anonymous Symbol]                       0x00001c28   Section        0  g32a1xxx_cfgtmr.o(.text.CFGTMR_ConfigPwmCombinedChannel)
    CFGTMR_ConfigPwmDutyCycleChannel         0x00001d79   Thumb Code   118  g32a1xxx_cfgtmr.o(.text.CFGTMR_ConfigPwmDutyCycleChannel)
    [Anonymous Symbol]                       0x00001d78   Section        0  g32a1xxx_cfgtmr.o(.text.CFGTMR_ConfigPwmDutyCycleChannel)
    CFGTMR_ConfigPwmIndependentChannel       0x00001df1   Thumb Code   326  g32a1xxx_cfgtmr.o(.text.CFGTMR_ConfigPwmIndependentChannel)
    [Anonymous Symbol]                       0x00001df0   Section        0  g32a1xxx_cfgtmr.o(.text.CFGTMR_ConfigPwmIndependentChannel)
    [Anonymous Symbol]                       0x00001f38   Section        0  g32a1xxx_cfgtmr.o(.text.CFGTMR_ConfigSync)
    [Anonymous Symbol]                       0x00002040   Section        0  g32a1xxx_cfgtmr.o(.text.CFGTMR_ConvertFreqToPeriodTicks)
    [Anonymous Symbol]                       0x0000205c   Section        0  g32a1xxx_cfgtmr.o(.text.CFGTMR_HW_ClearChnEventFlag)
    [Anonymous Symbol]                       0x0000206c   Section        0  g32a1xxx_cfgtmr.o(.text.CFGTMR_HW_ClearTimerOverflow)
    [Anonymous Symbol]                       0x00002078   Section        0  g32a1xxx_cfgtmr.o(.text.CFGTMR_HW_ConfigBdmMode)
    [Anonymous Symbol]                       0x00002090   Section        0  g32a1xxx_cfgtmr.o(.text.CFGTMR_HW_ConfigChnCountVal)
    [Anonymous Symbol]                       0x000020a4   Section        0  g32a1xxx_cfgtmr.o(.text.CFGTMR_HW_ConfigChnEdgeLevel)
    [Anonymous Symbol]                       0x000020c0   Section        0  g32a1xxx_cfgtmr.o(.text.CFGTMR_HW_ConfigChnFaultInputPolarityCmd)
    [Anonymous Symbol]                       0x0000214c   Section        0  g32a1xxx_cfgtmr.o(.text.CFGTMR_HW_ConfigChnMSnBAMode)
    [Anonymous Symbol]                       0x00002168   Section        0  g32a1xxx_cfgtmr.o(.text.CFGTMR_HW_ConfigChnOutputPolarityCmd)
    [Anonymous Symbol]                       0x0000222c   Section        0  g32a1xxx_cfgtmr.o(.text.CFGTMR_HW_ConfigChnTriggerCmd)
    [Anonymous Symbol]                       0x000022f0   Section        0  g32a1xxx_cfgtmr.o(.text.CFGTMR_HW_ConfigClockPs)
    [Anonymous Symbol]                       0x000022fc   Section        0  g32a1xxx_cfgtmr.o(.text.CFGTMR_HW_ConfigClockSource)
    [Anonymous Symbol]                       0x00002310   Section        0  g32a1xxx_cfgtmr.o(.text.CFGTMR_HW_ConfigCntinPwmSyncModeCmd)
    [Anonymous Symbol]                       0x00002328   Section        0  g32a1xxx_cfgtmr.o(.text.CFGTMR_HW_ConfigCounterHardwareSyncModeCmd)
    [Anonymous Symbol]                       0x0000233c   Section        0  g32a1xxx_cfgtmr.o(.text.CFGTMR_HW_ConfigCounterSoftwareSyncModeCmd)
    [Anonymous Symbol]                       0x00002354   Section        0  g32a1xxx_cfgtmr.o(.text.CFGTMR_HW_ConfigCpwmsMode)
    [Anonymous Symbol]                       0x00002364   Section        0  g32a1xxx_cfgtmr.o(.text.CFGTMR_HW_ConfigDeadtimeCount)
    [Anonymous Symbol]                       0x00002370   Section        0  g32a1xxx_cfgtmr.o(.text.CFGTMR_HW_ConfigDeadtimePrescale)
    [Anonymous Symbol]                       0x00002384   Section        0  g32a1xxx_cfgtmr.o(.text.CFGTMR_HW_ConfigDualChnCombineCmd)
    [Anonymous Symbol]                       0x000023f0   Section        0  g32a1xxx_cfgtmr.o(.text.CFGTMR_HW_ConfigDualChnCompCmd)
    [Anonymous Symbol]                       0x0000245c   Section        0  g32a1xxx_cfgtmr.o(.text.CFGTMR_HW_ConfigDualChnDeadtimeCmd)
    [Anonymous Symbol]                       0x000024c8   Section        0  g32a1xxx_cfgtmr.o(.text.CFGTMR_HW_ConfigDualChnFaultCmd)
    [Anonymous Symbol]                       0x00002534   Section        0  g32a1xxx_cfgtmr.o(.text.CFGTMR_HW_ConfigDualChnMofCombineCmd)
    [Anonymous Symbol]                       0x000025a0   Section        0  g32a1xxx_cfgtmr.o(.text.CFGTMR_HW_ConfigDualChnPwmSyncCmd)
    [Anonymous Symbol]                       0x0000260c   Section        0  g32a1xxx_cfgtmr.o(.text.CFGTMR_HW_ConfigDualEdgeCaptureCmd)
    [Anonymous Symbol]                       0x00002678   Section        0  g32a1xxx_cfgtmr.o(.text.CFGTMR_HW_ConfigFaultControlMode)
    [Anonymous Symbol]                       0x00002684   Section        0  g32a1xxx_cfgtmr.o(.text.CFGTMR_HW_ConfigFaultInputCmd)
    [Anonymous Symbol]                       0x000026d0   Section        0  g32a1xxx_cfgtmr.o(.text.CFGTMR_HW_ConfigFaultInputFilterCmd)
    [Anonymous Symbol]                       0x0000271c   Section        0  g32a1xxx_cfgtmr.o(.text.CFGTMR_HW_ConfigFaultInputFilterVal)
    [Anonymous Symbol]                       0x00002728   Section        0  g32a1xxx_cfgtmr.o(.text.CFGTMR_HW_ConfigFaultInt)
    [Anonymous Symbol]                       0x00002738   Section        0  g32a1xxx_cfgtmr.o(.text.CFGTMR_HW_ConfigHardwareSyncTriggerSrc)
    [Anonymous Symbol]                       0x00002790   Section        0  g32a1xxx_cfgtmr.o(.text.CFGTMR_HW_ConfigHwTriggerSyncModeCmd)
    [Anonymous Symbol]                       0x000027a0   Section        0  g32a1xxx_cfgtmr.o(.text.CFGTMR_HW_ConfigInitTriggerCmd)
    [Anonymous Symbol]                       0x000027b0   Section        0  g32a1xxx_cfgtmr.o(.text.CFGTMR_HW_ConfigInvctrlHardwareSyncModeCmd)
    [Anonymous Symbol]                       0x000027c4   Section        0  g32a1xxx_cfgtmr.o(.text.CFGTMR_HW_ConfigInvctrlPwmSyncModeCmd)
    [Anonymous Symbol]                       0x000027dc   Section        0  g32a1xxx_cfgtmr.o(.text.CFGTMR_HW_ConfigInvctrlSoftwareSyncModeCmd)
    [Anonymous Symbol]                       0x000027f0   Section        0  g32a1xxx_cfgtmr.o(.text.CFGTMR_HW_ConfigMaxLoadingCmd)
    [Anonymous Symbol]                       0x00002800   Section        0  g32a1xxx_cfgtmr.o(.text.CFGTMR_HW_ConfigMinLoadingCmd)
    [Anonymous Symbol]                       0x0000280c   Section        0  g32a1xxx_cfgtmr.o(.text.CFGTMR_HW_ConfigMod)
    [Anonymous Symbol]                       0x00002810   Section        0  g32a1xxx_cfgtmr.o(.text.CFGTMR_HW_ConfigModCntinCvHardwareSyncModeCmd)
    [Anonymous Symbol]                       0x00002824   Section        0  g32a1xxx_cfgtmr.o(.text.CFGTMR_HW_ConfigModCntinCvSoftwareSyncModeCmd)
    [Anonymous Symbol]                       0x00002838   Section        0  g32a1xxx_cfgtmr.o(.text.CFGTMR_HW_ConfigModule)
    [Anonymous Symbol]                       0x00002850   Section        0  g32a1xxx_cfgtmr.o(.text.CFGTMR_HW_ConfigOutmaskHardwareSyncModeCmd)
    [Anonymous Symbol]                       0x00002864   Section        0  g32a1xxx_cfgtmr.o(.text.CFGTMR_HW_ConfigOutmaskPwmSyncModeCmd)
    [Anonymous Symbol]                       0x00002874   Section        0  g32a1xxx_cfgtmr.o(.text.CFGTMR_HW_ConfigOutmaskSoftwareSyncModeCmd)
    [Anonymous Symbol]                       0x00002888   Section        0  g32a1xxx_cfgtmr.o(.text.CFGTMR_HW_ConfigPwmFaultBehavior)
    [Anonymous Symbol]                       0x00002898   Section        0  g32a1xxx_cfgtmr.o(.text.CFGTMR_HW_ConfigPwmSyncMode)
    [Anonymous Symbol]                       0x000028a8   Section        0  g32a1xxx_cfgtmr.o(.text.CFGTMR_HW_ConfigPwmSyncModeCmd)
    [Anonymous Symbol]                       0x000028bc   Section        0  g32a1xxx_cfgtmr.o(.text.CFGTMR_HW_ConfigSoftwareTriggerCmd)
    [Anonymous Symbol]                       0x000028cc   Section        0  g32a1xxx_cfgtmr.o(.text.CFGTMR_HW_ConfigSwoctrlHardwareSyncModeCmd)
    [Anonymous Symbol]                       0x000028e0   Section        0  g32a1xxx_cfgtmr.o(.text.CFGTMR_HW_ConfigSwoctrlPwmSyncModeCmd)
    [Anonymous Symbol]                       0x000028f8   Section        0  g32a1xxx_cfgtmr.o(.text.CFGTMR_HW_ConfigSwoctrlSoftwareSyncModeCmd)
    [Anonymous Symbol]                       0x0000290c   Section        0  g32a1xxx_cfgtmr.o(.text.CFGTMR_HW_ConfigTimerOverflowInt)
    [Anonymous Symbol]                       0x0000291c   Section        0  g32a1xxx_cfgtmr.o(.text.CFGTMR_HW_ConfigWriteProtectionCmd)
    [Anonymous Symbol]                       0x00002934   Section        0  g32a1xxx_cfgtmr.o(.text.CFGTMR_HW_Enable)
    [Anonymous Symbol]                       0x00002940   Section        0  g32a1xxx_cfgtmr.o(.text.CFGTMR_HW_EnablePwmChannelOutputs)
    [Anonymous Symbol]                       0x00002978   Section        0  g32a1xxx_cfgtmr.o(.text.CFGTMR_HW_InitChnOutputCmd)
    [Anonymous Symbol]                       0x00002988   Section        0  g32a1xxx_cfgtmr.o(.text.CFGTMR_HW_InitCounterValue)
    [Anonymous Symbol]                       0x0000298c   Section        0  g32a1xxx_cfgtmr.o(.text.CFGTMR_HW_ReadChnCountVal)
    [Anonymous Symbol]                       0x00002998   Section        0  g32a1xxx_cfgtmr.o(.text.CFGTMR_HW_ReadChnEventHasOccurred)
    [Anonymous Symbol]                       0x000029a4   Section        0  g32a1xxx_cfgtmr.o(.text.CFGTMR_HW_ReadClockPs)
    [Anonymous Symbol]                       0x000029ac   Section        0  g32a1xxx_cfgtmr.o(.text.CFGTMR_HW_ReadClockSource)
    [Anonymous Symbol]                       0x000029b4   Section        0  g32a1xxx_cfgtmr.o(.text.CFGTMR_HW_ReadCpwmsMode)
    [Anonymous Symbol]                       0x000029bc   Section        0  g32a1xxx_cfgtmr.o(.text.CFGTMR_HW_ReadDualChnCombineCmd)
    [Anonymous Symbol]                       0x000029e8   Section        0  g32a1xxx_cfgtmr.o(.text.CFGTMR_HW_ReadDualChnMofCombineCmd)
    [Anonymous Symbol]                       0x00002a28   Section        0  g32a1xxx_cfgtmr.o(.text.CFGTMR_HW_ReadDualEdgeCaptureBit)
    [Anonymous Symbol]                       0x00002a54   Section        0  g32a1xxx_cfgtmr.o(.text.CFGTMR_HW_ReadMod)
    [Anonymous Symbol]                       0x00002a5c   Section        0  g32a1xxx_cfgtmr.o(.text.CFGTMR_HW_Reset)
    CFGTMR_IRQHandler                        0x00002afd   Thumb Code    32  g32a1xxx_cfgtmr.o(.text.CFGTMR_IRQHandler)
    [Anonymous Symbol]                       0x00002afc   Section        0  g32a1xxx_cfgtmr.o(.text.CFGTMR_IRQHandler)
    [Anonymous Symbol]                       0x00002b1c   Section        0  g32a1xxx_cfgtmr.o(.text.CFGTMR_Init)
    [Anonymous Symbol]                       0x00002c0c   Section        0  g32a1xxx_cfgtmr.o(.text.CFGTMR_InitPWM)
    CFGTMR_InputCaptureHandler               0x00002d8d   Thumb Code   178  g32a1xxx_cfgtmr.o(.text.CFGTMR_InputCaptureHandler)
    [Anonymous Symbol]                       0x00002d8c   Section        0  g32a1xxx_cfgtmr.o(.text.CFGTMR_InputCaptureHandler)
    [Anonymous Symbol]                       0x00002e40   Section        0  g32a1xxx_cfgtmr.o(.text.CFGTMR_ReadFrequency)
    g_cfgtmrExtClockSel                      0x00002ea0   Number         0  g32a1xxx_cfgtmr.o(.text.CFGTMR_ReadFrequency)
    [Anonymous Symbol]                       0x00002ea8   Section        0  g32a1xxx_cfgtmr.o(.text.CFGTMR_UpdatePwmChannel)
    CLOCK_ChangeSystemClock                  0x00002fb5   Thumb Code    68  g32a1xxx_clock.o(.text.CLOCK_ChangeSystemClock)
    [Anonymous Symbol]                       0x00002fb4   Section        0  g32a1xxx_clock.o(.text.CLOCK_ChangeSystemClock)
    CLOCK_CheckPCMClock                      0x00002ff9   Thumb Code    66  g32a1xxx_clock.o(.text.CLOCK_CheckPCMClock)
    [Anonymous Symbol]                       0x00002ff8   Section        0  g32a1xxx_clock.o(.text.CLOCK_CheckPCMClock)
    CLOCK_ConfigClockGate                    0x0000303d   Thumb Code    90  g32a1xxx_clock.o(.text.CLOCK_ConfigClockGate)
    [Anonymous Symbol]                       0x0000303c   Section        0  g32a1xxx_clock.o(.text.CLOCK_ConfigClockGate)
    CLOCK_ConfigHSICLK                       0x00003099   Thumb Code   136  g32a1xxx_clock.o(.text.CLOCK_ConfigHSICLK)
    [Anonymous Symbol]                       0x00003098   Section        0  g32a1xxx_clock.o(.text.CLOCK_ConfigHSICLK)
    CLOCK_ConfigLSICLK                       0x00003121   Thumb Code   148  g32a1xxx_clock.o(.text.CLOCK_ConfigLSICLK)
    [Anonymous Symbol]                       0x00003120   Section        0  g32a1xxx_clock.o(.text.CLOCK_ConfigLSICLK)
    CLOCK_ConfigModulesFromScg               0x000031b5   Thumb Code   260  g32a1xxx_clock.o(.text.CLOCK_ConfigModulesFromScg)
    [Anonymous Symbol]                       0x000031b4   Section        0  g32a1xxx_clock.o(.text.CLOCK_ConfigModulesFromScg)
    CLOCK_ConfigPcmSetting                   0x000032b9   Thumb Code    82  g32a1xxx_clock.o(.text.CLOCK_ConfigPcmSetting)
    [Anonymous Symbol]                       0x000032b8   Section        0  g32a1xxx_clock.o(.text.CLOCK_ConfigPcmSetting)
    CLOCK_ConfigPmuSetting                   0x0000330d   Thumb Code    40  g32a1xxx_clock.o(.text.CLOCK_ConfigPmuSetting)
    [Anonymous Symbol]                       0x0000330c   Section        0  g32a1xxx_clock.o(.text.CLOCK_ConfigPmuSetting)
    CLOCK_ConfigSYSOSC                       0x00003335   Thumb Code   216  g32a1xxx_clock.o(.text.CLOCK_ConfigSYSOSC)
    [Anonymous Symbol]                       0x00003334   Section        0  g32a1xxx_clock.o(.text.CLOCK_ConfigSYSOSC)
    CLOCK_ConfigSYSPLL                       0x0000340d   Thumb Code   180  g32a1xxx_clock.o(.text.CLOCK_ConfigSYSPLL)
    [Anonymous Symbol]                       0x0000340c   Section        0  g32a1xxx_clock.o(.text.CLOCK_ConfigSYSPLL)
    CLOCK_ConfigScgSetting                   0x000034c1   Thumb Code   136  g32a1xxx_clock.o(.text.CLOCK_ConfigScgSetting)
    [Anonymous Symbol]                       0x000034c0   Section        0  g32a1xxx_clock.o(.text.CLOCK_ConfigScgSetting)
    CLOCK_ConfigSimSetting                   0x00003549   Thumb Code   218  g32a1xxx_clock.o(.text.CLOCK_ConfigSimSetting)
    [Anonymous Symbol]                       0x00003548   Section        0  g32a1xxx_clock.o(.text.CLOCK_ConfigSimSetting)
    CLOCK_ConfigSystemClockCfg               0x00003625   Thumb Code   288  g32a1xxx_clock.o(.text.CLOCK_ConfigSystemClockCfg)
    [Anonymous Symbol]                       0x00003624   Section        0  g32a1xxx_clock.o(.text.CLOCK_ConfigSystemClockCfg)
    CLOCK_ConfigTemporarySystemClock         0x00003745   Thumb Code    72  g32a1xxx_clock.o(.text.CLOCK_ConfigTemporarySystemClock)
    [Anonymous Symbol]                       0x00003744   Section        0  g32a1xxx_clock.o(.text.CLOCK_ConfigTemporarySystemClock)
    CLOCK_ReadCFGtmrOptionFreq               0x0000378d   Thumb Code    60  g32a1xxx_clock.o(.text.CLOCK_ReadCFGtmrOptionFreq)
    [Anonymous Symbol]                       0x0000378c   Section        0  g32a1xxx_clock.o(.text.CLOCK_ReadCFGtmrOptionFreq)
    CLOCK_ReadCurrentRunMode                 0x000037c9   Thumb Code    56  g32a1xxx_clock.o(.text.CLOCK_ReadCurrentRunMode)
    [Anonymous Symbol]                       0x000037c8   Section        0  g32a1xxx_clock.o(.text.CLOCK_ReadCurrentRunMode)
    CLOCK_ReadDefaultConfig                  0x00003801   Thumb Code   228  g32a1xxx_clock.o(.text.CLOCK_ReadDefaultConfig)
    [Anonymous Symbol]                       0x00003800   Section        0  g32a1xxx_clock.o(.text.CLOCK_ReadDefaultConfig)
    CLOCK_ReadDefaultModuleClkCfgSource      0x000038e5   Thumb Code    54  g32a1xxx_clock.o(.text.CLOCK_ReadDefaultModuleClkCfgSource)
    [Anonymous Symbol]                       0x000038e4   Section        0  g32a1xxx_clock.o(.text.CLOCK_ReadDefaultModuleClkCfgSource)
    CLOCK_ReadFreq                           0x0000391d   Thumb Code    34  g32a1xxx_clock.o(.text.CLOCK_ReadFreq)
    [Anonymous Symbol]                       0x0000391c   Section        0  g32a1xxx_clock.o(.text.CLOCK_ReadFreq)
    CLOCK_ReadHsiFreq                        0x00003941   Thumb Code    40  g32a1xxx_clock.o(.text.CLOCK_ReadHsiFreq)
    [Anonymous Symbol]                       0x00003940   Section        0  g32a1xxx_clock.o(.text.CLOCK_ReadHsiFreq)
    CLOCK_ReadLpoFreq                        0x00003969   Thumb Code   102  g32a1xxx_clock.o(.text.CLOCK_ReadLpoFreq)
    [Anonymous Symbol]                       0x00003968   Section        0  g32a1xxx_clock.o(.text.CLOCK_ReadLpoFreq)
    CLOCK_ReadLsiFreq                        0x000039d1   Thumb Code    44  g32a1xxx_clock.o(.text.CLOCK_ReadLsiFreq)
    [Anonymous Symbol]                       0x000039d0   Section        0  g32a1xxx_clock.o(.text.CLOCK_ReadLsiFreq)
    CLOCK_ReadOtherSimClockFreq              0x000039fd   Thumb Code   192  g32a1xxx_clock.o(.text.CLOCK_ReadOtherSimClockFreq)
    [Anonymous Symbol]                       0x000039fc   Section        0  g32a1xxx_clock.o(.text.CLOCK_ReadOtherSimClockFreq)
    CLOCK_ReadPcmClockFreq                   0x00003abd   Thumb Code   182  g32a1xxx_clock.o(.text.CLOCK_ReadPcmClockFreq)
    [Anonymous Symbol]                       0x00003abc   Section        0  g32a1xxx_clock.o(.text.CLOCK_ReadPcmClockFreq)
    CLOCK_ReadPeripheralClockFreq            0x00003b75   Thumb Code   160  g32a1xxx_clock.o(.text.CLOCK_ReadPeripheralClockFreq)
    [Anonymous Symbol]                       0x00003b74   Section        0  g32a1xxx_clock.o(.text.CLOCK_ReadPeripheralClockFreq)
    CLOCK_ReadScgClkOutFreq                  0x00003c15   Thumb Code    90  g32a1xxx_clock.o(.text.CLOCK_ReadScgClkOutFreq)
    [Anonymous Symbol]                       0x00003c14   Section        0  g32a1xxx_clock.o(.text.CLOCK_ReadScgClkOutFreq)
    CLOCK_ReadScgClockFreq                   0x00003c71   Thumb Code   178  g32a1xxx_clock.o(.text.CLOCK_ReadScgClockFreq)
    [Anonymous Symbol]                       0x00003c70   Section        0  g32a1xxx_clock.o(.text.CLOCK_ReadScgClockFreq)
    CLOCK_ReadSimClkOutFreq                  0x00003d25   Thumb Code   202  g32a1xxx_clock.o(.text.CLOCK_ReadSimClkOutFreq)
    [Anonymous Symbol]                       0x00003d24   Section        0  g32a1xxx_clock.o(.text.CLOCK_ReadSimClkOutFreq)
    CLOCK_ReadSimClockFreq                   0x00003df1   Thumb Code   174  g32a1xxx_clock.o(.text.CLOCK_ReadSimClockFreq)
    [Anonymous Symbol]                       0x00003df0   Section        0  g32a1xxx_clock.o(.text.CLOCK_ReadSimClockFreq)
    CLOCK_ReadSimRtcClkFreq                  0x00003ea1   Thumb Code    94  g32a1xxx_clock.o(.text.CLOCK_ReadSimRtcClkFreq)
    [Anonymous Symbol]                       0x00003ea0   Section        0  g32a1xxx_clock.o(.text.CLOCK_ReadSimRtcClkFreq)
    CLOCK_ReadSrcFreq                        0x00003f01   Thumb Code    48  g32a1xxx_clock.o(.text.CLOCK_ReadSrcFreq)
    [Anonymous Symbol]                       0x00003f00   Section        0  g32a1xxx_clock.o(.text.CLOCK_ReadSrcFreq)
    CLOCK_ReadSysAsyncFreq                   0x00003f31   Thumb Code   220  g32a1xxx_clock.o(.text.CLOCK_ReadSysAsyncFreq)
    [Anonymous Symbol]                       0x00003f30   Section        0  g32a1xxx_clock.o(.text.CLOCK_ReadSysAsyncFreq)
    CLOCK_ReadSysOscFreq                     0x0000400d   Thumb Code    32  g32a1xxx_clock.o(.text.CLOCK_ReadSysOscFreq)
    [Anonymous Symbol]                       0x0000400c   Section        0  g32a1xxx_clock.o(.text.CLOCK_ReadSysOscFreq)
    CLOCK_ReadSysPllFreq                     0x0000402d   Thumb Code    56  g32a1xxx_clock.o(.text.CLOCK_ReadSysPllFreq)
    [Anonymous Symbol]                       0x0000402c   Section        0  g32a1xxx_clock.o(.text.CLOCK_ReadSysPllFreq)
    CLOCK_ReadSystemClockFreq                0x00004065   Thumb Code   120  g32a1xxx_clock.o(.text.CLOCK_ReadSystemClockFreq)
    [Anonymous Symbol]                       0x00004064   Section        0  g32a1xxx_clock.o(.text.CLOCK_ReadSystemClockFreq)
    [Anonymous Symbol]                       0x000040dc   Section        0  g32a1xxx_clock.o(.text.CLOCK_SYS_ConfigModuleClock)
    [Anonymous Symbol]                       0x00004194   Section        0  g32a1xxx_clock.o(.text.CLOCK_SYS_Init)
    [Anonymous Symbol]                       0x000041cc   Section        0  g32a1xxx_clock.o(.text.CLOCK_SYS_ReadFreq)
    [Anonymous Symbol]                       0x000041d4   Section        0  board.o(.text.COM_Init)
    CSEC_ContinueEncryptDecryptCbc           0x00004261   Thumb Code    88  g32a1xxx_csec.o(.text.CSEC_ContinueEncryptDecryptCbc)
    [Anonymous Symbol]                       0x00004260   Section        0  g32a1xxx_csec.o(.text.CSEC_ContinueEncryptDecryptCbc)
    CSEC_ContinueEncryptDecryptEcb           0x000042b9   Thumb Code    66  g32a1xxx_csec.o(.text.CSEC_ContinueEncryptDecryptEcb)
    [Anonymous Symbol]                       0x000042b8   Section        0  g32a1xxx_csec.o(.text.CSEC_ContinueEncryptDecryptEcb)
    CSEC_ContinueGenerateMac                 0x000042fd   Thumb Code    72  g32a1xxx_csec.o(.text.CSEC_ContinueGenerateMac)
    [Anonymous Symbol]                       0x000042fc   Section        0  g32a1xxx_csec.o(.text.CSEC_ContinueGenerateMac)
    CSEC_ContinueVerifyMac                   0x00004345   Thumb Code    88  g32a1xxx_csec.o(.text.CSEC_ContinueVerifyMac)
    [Anonymous Symbol]                       0x00004344   Section        0  g32a1xxx_csec.o(.text.CSEC_ContinueVerifyMac)
    [Anonymous Symbol]                       0x0000439c   Section        0  g32a1xxx_csec.o(.text.CSEC_HW_GetCmdResult)
    [Anonymous Symbol]                       0x00004460   Section        0  g32a1xxx_csec.o(.text.CSEC_HW_ReadCmdByte)
    [Anonymous Symbol]                       0x00004498   Section        0  g32a1xxx_csec.o(.text.CSEC_HW_ReadCmdBytes)
    [Anonymous Symbol]                       0x00004518   Section        0  g32a1xxx_csec.o(.text.CSEC_HW_ReadCmdWord)
    [Anonymous Symbol]                       0x00004528   Section        0  g32a1xxx_csec.o(.text.CSEC_HW_SetInterruptEnable)
    [Anonymous Symbol]                       0x0000453c   Section        0  g32a1xxx_csec.o(.text.CSEC_HW_WriteCmdByte)
    [Anonymous Symbol]                       0x0000458c   Section        0  g32a1xxx_csec.o(.text.CSEC_HW_WriteCmdBytes)
    [Anonymous Symbol]                       0x0000460c   Section        0  g32a1xxx_csec.o(.text.CSEC_HW_WriteCmdHalfWord)
    [Anonymous Symbol]                       0x00004634   Section        0  g32a1xxx_csec.o(.text.CSEC_HW_WriteCmdHeader)
    [Anonymous Symbol]                       0x0000464c   Section        0  g32a1xxx_csec.o(.text.CSEC_HW_WriteCmdWords)
    CSEC_RoundTo                             0x00004675   Thumb Code    10  g32a1xxx_csec.o(.text.CSEC_RoundTo)
    [Anonymous Symbol]                       0x00004674   Section        0  g32a1xxx_csec.o(.text.CSEC_RoundTo)
    CSEC_StartEncryptDecryptCbc              0x00004681   Thumb Code   116  g32a1xxx_csec.o(.text.CSEC_StartEncryptDecryptCbc)
    [Anonymous Symbol]                       0x00004680   Section        0  g32a1xxx_csec.o(.text.CSEC_StartEncryptDecryptCbc)
    CSEC_StartEncryptDecryptEcb              0x000046f5   Thumb Code    70  g32a1xxx_csec.o(.text.CSEC_StartEncryptDecryptEcb)
    [Anonymous Symbol]                       0x000046f4   Section        0  g32a1xxx_csec.o(.text.CSEC_StartEncryptDecryptEcb)
    CSEC_StartGenerateMac                    0x0000473d   Thumb Code    72  g32a1xxx_csec.o(.text.CSEC_StartGenerateMac)
    [Anonymous Symbol]                       0x0000473c   Section        0  g32a1xxx_csec.o(.text.CSEC_StartGenerateMac)
    CSEC_StartVerifyMac                      0x00004785   Thumb Code   126  g32a1xxx_csec.o(.text.CSEC_StartVerifyMac)
    [Anonymous Symbol]                       0x00004784   Section        0  g32a1xxx_csec.o(.text.CSEC_StartVerifyMac)
    [Anonymous Symbol]                       0x00004804   Section        0  g32a1xxx_dma.o(.text.DMA0_IRQHandler)
    [Anonymous Symbol]                       0x00004810   Section        0  g32a1xxx_dma.o(.text.DMA10_IRQHandler)
    [Anonymous Symbol]                       0x0000481c   Section        0  g32a1xxx_dma.o(.text.DMA11_IRQHandler)
    [Anonymous Symbol]                       0x00004828   Section        0  g32a1xxx_dma.o(.text.DMA12_IRQHandler)
    [Anonymous Symbol]                       0x00004834   Section        0  g32a1xxx_dma.o(.text.DMA13_IRQHandler)
    [Anonymous Symbol]                       0x00004840   Section        0  g32a1xxx_dma.o(.text.DMA14_IRQHandler)
    [Anonymous Symbol]                       0x0000484c   Section        0  g32a1xxx_dma.o(.text.DMA15_IRQHandler)
    [Anonymous Symbol]                       0x00004858   Section        0  g32a1xxx_dma.o(.text.DMA1_IRQHandler)
    [Anonymous Symbol]                       0x00004864   Section        0  g32a1xxx_dma.o(.text.DMA2_IRQHandler)
    [Anonymous Symbol]                       0x00004870   Section        0  g32a1xxx_dma.o(.text.DMA3_IRQHandler)
    [Anonymous Symbol]                       0x0000487c   Section        0  g32a1xxx_dma.o(.text.DMA4_IRQHandler)
    [Anonymous Symbol]                       0x00004888   Section        0  g32a1xxx_dma.o(.text.DMA5_IRQHandler)
    [Anonymous Symbol]                       0x00004894   Section        0  g32a1xxx_dma.o(.text.DMA6_IRQHandler)
    [Anonymous Symbol]                       0x000048a0   Section        0  g32a1xxx_dma.o(.text.DMA7_IRQHandler)
    [Anonymous Symbol]                       0x000048ac   Section        0  g32a1xxx_dma.o(.text.DMA8_IRQHandler)
    [Anonymous Symbol]                       0x000048b8   Section        0  g32a1xxx_dma.o(.text.DMA9_IRQHandler)
    [Anonymous Symbol]                       0x000048c4   Section        0  g32a1xxx_dma.o(.text.DMACHM_HW_ConfigChannelCmd)
    [Anonymous Symbol]                       0x000048d4   Section        0  g32a1xxx_dma.o(.text.DMACHM_HW_ConfigChannelSource)
    [Anonymous Symbol]                       0x000048e4   Section        0  g32a1xxx_dma.o(.text.DMACHM_HW_ConfigChannelTrigger)
    [Anonymous Symbol]                       0x000048f4   Section        0  g32a1xxx_dma.o(.text.DMA_ClearIntStatus)
    [Anonymous Symbol]                       0x00004914   Section        0  g32a1xxx_dma.o(.text.DMA_ConfigChannelRequestAndTrigger)
    [Anonymous Symbol]                       0x00004954   Section        0  g32a1xxx_dma.o(.text.DMA_ConfigMultiBlockTransfer)
    [Anonymous Symbol]                       0x00004994   Section        0  g32a1xxx_dma.o(.text.DMA_ConfigSingleBlockTransfer)
    [Anonymous Symbol]                       0x00004a88   Section        0  g32a1xxx_dma.o(.text.DMA_ConfigSrcLastAddrAdjustment)
    [Anonymous Symbol]                       0x00004aa0   Section        0  g32a1xxx_dma.o(.text.DMA_ErrorIRQHandler)
    [Anonymous Symbol]                       0x00004aec   Section        0  g32a1xxx_dma.o(.text.DMA_Error_IRQHandler)
    [Anonymous Symbol]                       0x00004b18   Section        0  g32a1xxx_dma.o(.text.DMA_HW_ClearDoneStatusFlag)
    [Anonymous Symbol]                       0x00004b1c   Section        0  g32a1xxx_dma.o(.text.DMA_HW_ClearErrorIntStatusFlag)
    [Anonymous Symbol]                       0x00004b20   Section        0  g32a1xxx_dma.o(.text.DMA_HW_ClearIntStatusFlag)
    [Anonymous Symbol]                       0x00004b24   Section        0  g32a1xxx_dma.o(.text.DMA_HW_ConfigDmaRequestCmd)
    [Anonymous Symbol]                       0x00004b30   Section        0  g32a1xxx_dma.o(.text.DMA_HW_ConfigMinorLoopMappingCmd)
    [Anonymous Symbol]                       0x00004b40   Section        0  g32a1xxx_dma.o(.text.DMA_HW_ReadErrorIntStatusFlag)
    [Anonymous Symbol]                       0x00004b44   Section        0  g32a1xxx_dma.o(.text.DMA_HW_TCDClearReg)
    [Anonymous Symbol]                       0x00004b6c   Section        0  g32a1xxx_dma.o(.text.DMA_HW_TCDConfigAttribute)
    [Anonymous Symbol]                       0x00004bc4   Section        0  g32a1xxx_dma.o(.text.DMA_HW_TCDConfigDestAddr)
    [Anonymous Symbol]                       0x00004bd0   Section        0  g32a1xxx_dma.o(.text.DMA_HW_TCDConfigDestOffset)
    [Anonymous Symbol]                       0x00004bdc   Section        0  g32a1xxx_dma.o(.text.DMA_HW_TCDConfigDisableDmaRequestAfterTCDDoneCmd)
    [Anonymous Symbol]                       0x00004bf4   Section        0  g32a1xxx_dma.o(.text.DMA_HW_TCDConfigMajorCompleteIntCmd)
    [Anonymous Symbol]                       0x00004c0c   Section        0  g32a1xxx_dma.o(.text.DMA_HW_TCDConfigMajorCount)
    [Anonymous Symbol]                       0x00004c5c   Section        0  g32a1xxx_dma.o(.text.DMA_HW_TCDConfigNbytes)
    [Anonymous Symbol]                       0x00004ca0   Section        0  g32a1xxx_dma.o(.text.DMA_HW_TCDConfigSrcAddr)
    [Anonymous Symbol]                       0x00004cac   Section        0  g32a1xxx_dma.o(.text.DMA_HW_TCDConfigSrcLastAdjust)
    [Anonymous Symbol]                       0x00004cb8   Section        0  g32a1xxx_dma.o(.text.DMA_HW_TCDConfigSrcOffset)
    [Anonymous Symbol]                       0x00004cc4   Section        0  g32a1xxx_dma.o(.text.DMA_IRQHandler)
    [Anonymous Symbol]                       0x00004cec   Section        0  g32a1xxx_dma.o(.text.DMA_StartChannel)
    [Anonymous Symbol]                       0x00004d04   Section        0  g32a1xxx_dma.o(.text.DMA_StopChannel)
    [Anonymous Symbol]                       0x00004d1c   Section        0  g32a1xxx_int.o(.text.DebugMon_Handler)
    [Anonymous Symbol]                       0x00004d20   Section        0  systick.o(.text.DelayInit)
    [Anonymous Symbol]                       0x00004d60   Section        0  g32a1xxx_csec.o(.text.FLASH_IRQHandler)
    [Anonymous Symbol]                       0x00004dcc   Section        0  g32a1xxx_int.o(.text.HardFault_Handler)
    [Anonymous Symbol]                       0x00004dd0   Section        0  g32a1xxx_interrupt.o(.text.INT_SYS_DisableIRQ)
    [Anonymous Symbol]                       0x00004dec   Section        0  g32a1xxx_interrupt.o(.text.INT_SYS_DisableIRQGlobal)
    [Anonymous Symbol]                       0x00004e00   Section        0  g32a1xxx_interrupt.o(.text.INT_SYS_EnableIRQ)
    [Anonymous Symbol]                       0x00004e1c   Section        0  g32a1xxx_interrupt.o(.text.INT_SYS_EnableIRQGlobal)
    [Anonymous Symbol]                       0x00004e38   Section        0  g32a1xxx_interrupt.o(.text.INT_SYS_InstallHandler)
    [Anonymous Symbol]                       0x00004e80   Section        0  board.o(.text.LED_Init)
    [Anonymous Symbol]                       0x00004ef8   Section        0  board.o(.text.LED_Off)
    [Anonymous Symbol]                       0x00004f28   Section        0  board.o(.text.LED_On)
    LPI2C_ConfigDmaTransfer                  0x00004f59   Thumb Code    84  g32a1xxx_lpi2c.o(.text.LPI2C_ConfigDmaTransfer)
    [Anonymous Symbol]                       0x00004f58   Section        0  g32a1xxx_lpi2c.o(.text.LPI2C_ConfigDmaTransfer)
    [Anonymous Symbol]                       0x00004fac   Section        0  g32a1xxx_lpi2c.o(.text.LPI2C_HW_ClearMasterArbitrationLostEvent)
    [Anonymous Symbol]                       0x00004fb8   Section        0  g32a1xxx_lpi2c.o(.text.LPI2C_HW_ClearMasterFIFOErrorEvent)
    [Anonymous Symbol]                       0x00004fc4   Section        0  g32a1xxx_lpi2c.o(.text.LPI2C_HW_ClearMasterNACKDetectEvent)
    [Anonymous Symbol]                       0x00004fd0   Section        0  g32a1xxx_lpi2c.o(.text.LPI2C_HW_ClearSlaveBitErrorEvent)
    [Anonymous Symbol]                       0x00004fe0   Section        0  g32a1xxx_lpi2c.o(.text.LPI2C_HW_ClearSlaveRepeatedStartEvent)
    [Anonymous Symbol]                       0x00004ff0   Section        0  g32a1xxx_lpi2c.o(.text.LPI2C_HW_ClearSlaveSTOPDetectEvent)
    [Anonymous Symbol]                       0x00005000   Section        0  g32a1xxx_lpi2c.o(.text.LPI2C_HW_ConfigMasterEnable)
    [Anonymous Symbol]                       0x0000500c   Section        0  g32a1xxx_lpi2c.o(.text.LPI2C_HW_ConfigMasterInt)
    [Anonymous Symbol]                       0x00005020   Section        0  g32a1xxx_lpi2c.o(.text.LPI2C_HW_ConfigMasterNACKMode)
    [Anonymous Symbol]                       0x00005034   Section        0  g32a1xxx_lpi2c.o(.text.LPI2C_HW_ConfigMasterPinMode)
    [Anonymous Symbol]                       0x00005048   Section        0  g32a1xxx_lpi2c.o(.text.LPI2C_HW_ConfigMasterPrescaler)
    [Anonymous Symbol]                       0x00005054   Section        0  g32a1xxx_lpi2c.o(.text.LPI2C_HW_ConfigMasterRxDMA)
    [Anonymous Symbol]                       0x00005064   Section        0  g32a1xxx_lpi2c.o(.text.LPI2C_HW_ConfigMasterRxFIFOWatermark)
    [Anonymous Symbol]                       0x00005078   Section        0  g32a1xxx_lpi2c.o(.text.LPI2C_HW_ConfigMasterSCLHighPeriod)
    [Anonymous Symbol]                       0x0000508c   Section        0  g32a1xxx_lpi2c.o(.text.LPI2C_HW_ConfigMasterSCLLowPeriod)
    [Anonymous Symbol]                       0x00005098   Section        0  g32a1xxx_lpi2c.o(.text.LPI2C_HW_ConfigMasterSDAHoldTime)
    [Anonymous Symbol]                       0x000050ac   Section        0  g32a1xxx_lpi2c.o(.text.LPI2C_HW_ConfigMasterSetupHoldDelay)
    [Anonymous Symbol]                       0x000050c0   Section        0  g32a1xxx_lpi2c.o(.text.LPI2C_HW_ConfigMasterSoftwareReset)
    [Anonymous Symbol]                       0x000050d0   Section        0  g32a1xxx_lpi2c.o(.text.LPI2C_HW_ConfigMasterTxDMA)
    [Anonymous Symbol]                       0x000050dc   Section        0  g32a1xxx_lpi2c.o(.text.LPI2C_HW_ConfigSlaveEnable)
    [Anonymous Symbol]                       0x000050ec   Section        0  g32a1xxx_lpi2c.o(.text.LPI2C_HW_ConfigSlaveInt)
    [Anonymous Symbol]                       0x00005104   Section        0  g32a1xxx_lpi2c.o(.text.LPI2C_HW_ConfigSlaveRxDMA)
    [Anonymous Symbol]                       0x00005118   Section        0  g32a1xxx_lpi2c.o(.text.LPI2C_HW_ConfigSlaveSoftwareReset)
    [Anonymous Symbol]                       0x0000512c   Section        0  g32a1xxx_lpi2c.o(.text.LPI2C_HW_ConfigSlaveTxDMA)
    [Anonymous Symbol]                       0x0000513c   Section        0  g32a1xxx_lpi2c.o(.text.LPI2C_HW_Init)
    [Anonymous Symbol]                       0x00005158   Section        0  g32a1xxx_lpi2c.o(.text.LPI2C_HW_MasterTransmitCmdData)
    [Anonymous Symbol]                       0x00005160   Section        0  g32a1xxx_lpi2c.o(.text.LPI2C_HW_ReadMasterArbitrationLostEvent)
    [Anonymous Symbol]                       0x00005168   Section        0  g32a1xxx_lpi2c.o(.text.LPI2C_HW_ReadMasterFIFOErrorEvent)
    [Anonymous Symbol]                       0x00005170   Section        0  g32a1xxx_lpi2c.o(.text.LPI2C_HW_ReadMasterNACKDetectEvent)
    [Anonymous Symbol]                       0x00005178   Section        0  g32a1xxx_lpi2c.o(.text.LPI2C_HW_ReadMasterReceiveDataReadyEvent)
    [Anonymous Symbol]                       0x00005180   Section        0  g32a1xxx_lpi2c.o(.text.LPI2C_HW_ReadMasterRxData)
    [Anonymous Symbol]                       0x00005188   Section        0  g32a1xxx_lpi2c.o(.text.LPI2C_HW_ReadMasterRxFIFOCount)
    [Anonymous Symbol]                       0x00005190   Section        0  g32a1xxx_lpi2c.o(.text.LPI2C_HW_ReadMasterRxFIFOWatermark)
    [Anonymous Symbol]                       0x00005198   Section        0  g32a1xxx_lpi2c.o(.text.LPI2C_HW_ReadMasterTransmitDataRequestEvent)
    [Anonymous Symbol]                       0x000051a0   Section        0  g32a1xxx_lpi2c.o(.text.LPI2C_HW_ReadMasterTxFIFOCount)
    [Anonymous Symbol]                       0x000051a8   Section        0  g32a1xxx_lpi2c.o(.text.LPI2C_HW_ReadMasterTxFIFOSize)
    [Anonymous Symbol]                       0x000051b8   Section        0  g32a1xxx_lpi2c.o(.text.LPI2C_HW_ReadSlaveAddressValidEvent)
    [Anonymous Symbol]                       0x000051c4   Section        0  g32a1xxx_lpi2c.o(.text.LPI2C_HW_ReadSlaveBitErrorEvent)
    [Anonymous Symbol]                       0x000051d0   Section        0  g32a1xxx_lpi2c.o(.text.LPI2C_HW_ReadSlaveInt)
    [Anonymous Symbol]                       0x000051dc   Section        0  g32a1xxx_lpi2c.o(.text.LPI2C_HW_ReadSlaveReceiveDataEvent)
    [Anonymous Symbol]                       0x000051e8   Section        0  g32a1xxx_lpi2c.o(.text.LPI2C_HW_ReadSlaveReceivedAddr)
    [Anonymous Symbol]                       0x000051f4   Section        0  g32a1xxx_lpi2c.o(.text.LPI2C_HW_ReadSlaveRepeatedStartEvent)
    [Anonymous Symbol]                       0x00005200   Section        0  g32a1xxx_lpi2c.o(.text.LPI2C_HW_ReadSlaveSTOPDetectEvent)
    [Anonymous Symbol]                       0x0000520c   Section        0  g32a1xxx_lpi2c.o(.text.LPI2C_HW_ReadSlaveTransmitDataEvent)
    [Anonymous Symbol]                       0x00005218   Section        0  g32a1xxx_lpi2c.o(.text.LPI2C_HW_ResetMasterRxFIFO)
    [Anonymous Symbol]                       0x00005224   Section        0  g32a1xxx_lpi2c.o(.text.LPI2C_HW_ResetMasterTxFIFO)
    [Anonymous Symbol]                       0x00005230   Section        0  g32a1xxx_lpi2c.o(.text.LPI2C_HW_RxSlaveData)
    [Anonymous Symbol]                       0x00005238   Section        0  g32a1xxx_lpi2c.o(.text.LPI2C_HW_TxSlaveData)
    LPI2C_MasterCmdQueueIsEmpty              0x00005241   Thumb Code    14  g32a1xxx_lpi2c.o(.text.LPI2C_MasterCmdQueueIsEmpty)
    [Anonymous Symbol]                       0x00005240   Section        0  g32a1xxx_lpi2c.o(.text.LPI2C_MasterCmdQueueIsEmpty)
    LPI2C_MasterConfigOperatingMode          0x00005251   Thumb Code    40  g32a1xxx_lpi2c.o(.text.LPI2C_MasterConfigOperatingMode)
    [Anonymous Symbol]                       0x00005250   Section        0  g32a1xxx_lpi2c.o(.text.LPI2C_MasterConfigOperatingMode)
    LPI2C_MasterEndTransfer                  0x00005279   Thumb Code   112  g32a1xxx_lpi2c.o(.text.LPI2C_MasterEndTransfer)
    [Anonymous Symbol]                       0x00005278   Section        0  g32a1xxx_lpi2c.o(.text.LPI2C_MasterEndTransfer)
    LPI2C_MasterHandleReceiveDataReadyEvent  0x000052e9   Thumb Code   124  g32a1xxx_lpi2c.o(.text.LPI2C_MasterHandleReceiveDataReadyEvent)
    [Anonymous Symbol]                       0x000052e8   Section        0  g32a1xxx_lpi2c.o(.text.LPI2C_MasterHandleReceiveDataReadyEvent)
    LPI2C_MasterHandleTransmitDataRequest    0x00005365   Thumb Code   106  g32a1xxx_lpi2c.o(.text.LPI2C_MasterHandleTransmitDataRequest)
    [Anonymous Symbol]                       0x00005364   Section        0  g32a1xxx_lpi2c.o(.text.LPI2C_MasterHandleTransmitDataRequest)
    [Anonymous Symbol]                       0x000053d0   Section        0  g32a1xxx_lpi2c.o(.text.LPI2C_MasterIRQHandler)
    LPI2C_MasterQueueData                    0x000054d5   Thumb Code    94  g32a1xxx_lpi2c.o(.text.LPI2C_MasterQueueData)
    [Anonymous Symbol]                       0x000054d4   Section        0  g32a1xxx_lpi2c.o(.text.LPI2C_MasterQueueData)
    LPI2C_MasterQueueReset                   0x00005535   Thumb Code     6  g32a1xxx_lpi2c.o(.text.LPI2C_MasterQueueReset)
    [Anonymous Symbol]                       0x00005534   Section        0  g32a1xxx_lpi2c.o(.text.LPI2C_MasterQueueReset)
    LPI2C_MasterReInit                       0x0000553d   Thumb Code    80  g32a1xxx_lpi2c.o(.text.LPI2C_MasterReInit)
    [Anonymous Symbol]                       0x0000553c   Section        0  g32a1xxx_lpi2c.o(.text.LPI2C_MasterReInit)
    LPI2C_MasterSendQueuedCmd                0x0000558d   Thumb Code    96  g32a1xxx_lpi2c.o(.text.LPI2C_MasterSendQueuedCmd)
    [Anonymous Symbol]                       0x0000558c   Section        0  g32a1xxx_lpi2c.o(.text.LPI2C_MasterSendQueuedCmd)
    [Anonymous Symbol]                       0x000055ec   Section        0  g32a1xxx_lpi2c.o(.text.LPI2C_MasterSetBaudrate)
    [Anonymous Symbol]                       0x000056f4   Section        0  g32a1xxx_lpi2c.o(.text.LPI2C_MasterSetSlaveAddr)
    [Anonymous Symbol]                       0x00005710   Section        0  g32a1xxx_lpi2c.o(.text.LPI2C_Master_IRQHandler)
    LPI2C_SlaveEndTransfer                   0x0000571d   Thumb Code    74  g32a1xxx_lpi2c.o(.text.LPI2C_SlaveEndTransfer)
    [Anonymous Symbol]                       0x0000571c   Section        0  g32a1xxx_lpi2c.o(.text.LPI2C_SlaveEndTransfer)
    LPI2C_SlaveEndTransferHandler            0x00005769   Thumb Code    50  g32a1xxx_lpi2c.o(.text.LPI2C_SlaveEndTransferHandler)
    [Anonymous Symbol]                       0x00005768   Section        0  g32a1xxx_lpi2c.o(.text.LPI2C_SlaveEndTransferHandler)
    LPI2C_SlaveHandleAddressValidEvent       0x0000579d   Thumb Code   102  g32a1xxx_lpi2c.o(.text.LPI2C_SlaveHandleAddressValidEvent)
    [Anonymous Symbol]                       0x0000579c   Section        0  g32a1xxx_lpi2c.o(.text.LPI2C_SlaveHandleAddressValidEvent)
    LPI2C_SlaveHandleReceiveDataEvent        0x00005805   Thumb Code    72  g32a1xxx_lpi2c.o(.text.LPI2C_SlaveHandleReceiveDataEvent)
    [Anonymous Symbol]                       0x00005804   Section        0  g32a1xxx_lpi2c.o(.text.LPI2C_SlaveHandleReceiveDataEvent)
    LPI2C_SlaveHandleTransmitDataEvent       0x0000584d   Thumb Code    84  g32a1xxx_lpi2c.o(.text.LPI2C_SlaveHandleTransmitDataEvent)
    [Anonymous Symbol]                       0x0000584c   Section        0  g32a1xxx_lpi2c.o(.text.LPI2C_SlaveHandleTransmitDataEvent)
    [Anonymous Symbol]                       0x000058a0   Section        0  g32a1xxx_lpi2c.o(.text.LPI2C_SlaveIRQHandler)
    LPI2C_SlaveStartDmaTransfer              0x00005975   Thumb Code   122  g32a1xxx_lpi2c.o(.text.LPI2C_SlaveStartDmaTransfer)
    [Anonymous Symbol]                       0x00005974   Section        0  g32a1xxx_lpi2c.o(.text.LPI2C_SlaveStartDmaTransfer)
    [Anonymous Symbol]                       0x000059f0   Section        0  g32a1xxx_lpi2c.o(.text.LPI2C_Slave_IRQHandler)
    [Anonymous Symbol]                       0x000059fc   Section        0  g32a1xxx_lpitmr.o(.text.LPITMR_ChannelInit)
    [Anonymous Symbol]                       0x00005ac8   Section        0  g32a1xxx_lpitmr.o(.text.LPITMR_ClearInterruptFlagTimerChannels)
    [Anonymous Symbol]                       0x00005ae0   Section        0  g32a1xxx_lpitmr.o(.text.LPITMR_ConfigTimerPeriodByCount)
    [Anonymous Symbol]                       0x00005af8   Section        0  g32a1xxx_lpitmr.o(.text.LPITMR_ConfigTimerPeriodByUs)
    [Anonymous Symbol]                       0x00005b90   Section        0  g32a1xxx_lpitmr.o(.text.LPITMR_DeInit)
    [Anonymous Symbol]                       0x00005ba8   Section        0  g32a1xxx_lpitmr.o(.text.LPITMR_HW_ClearInterruptFlagTimerChannels)
    [Anonymous Symbol]                       0x00005bb0   Section        0  g32a1xxx_lpitmr.o(.text.LPITMR_HW_ConfigReloadOnTriggerCmd)
    [Anonymous Symbol]                       0x00005bc4   Section        0  g32a1xxx_lpitmr.o(.text.LPITMR_HW_ConfigStartOnTriggerCmd)
    [Anonymous Symbol]                       0x00005bd8   Section        0  g32a1xxx_lpitmr.o(.text.LPITMR_HW_ConfigStopOnInterruptCmd)
    [Anonymous Symbol]                       0x00005bec   Section        0  g32a1xxx_lpitmr.o(.text.LPITMR_HW_ConfigTimerChannelChainCmd)
    [Anonymous Symbol]                       0x00005c00   Section        0  g32a1xxx_lpitmr.o(.text.LPITMR_HW_ConfigTimerChannelModeCmd)
    [Anonymous Symbol]                       0x00005c1c   Section        0  g32a1xxx_lpitmr.o(.text.LPITMR_HW_ConfigTimerPeriodByCount)
    [Anonymous Symbol]                       0x00005c24   Section        0  g32a1xxx_lpitmr.o(.text.LPITMR_HW_ConfigTimerRunInDebugCmd)
    [Anonymous Symbol]                       0x00005c34   Section        0  g32a1xxx_lpitmr.o(.text.LPITMR_HW_ConfigTimerRunInDozeCmd)
    [Anonymous Symbol]                       0x00005c44   Section        0  g32a1xxx_lpitmr.o(.text.LPITMR_HW_ConfigTriggerSelectCmd)
    [Anonymous Symbol]                       0x00005c60   Section        0  g32a1xxx_lpitmr.o(.text.LPITMR_HW_ConfigTriggerSourceCmd)
    [Anonymous Symbol]                       0x00005c7c   Section        0  g32a1xxx_lpitmr.o(.text.LPITMR_HW_Disable)
    [Anonymous Symbol]                       0x00005c88   Section        0  g32a1xxx_lpitmr.o(.text.LPITMR_HW_DisableInterruptTimerChannels)
    [Anonymous Symbol]                       0x00005c94   Section        0  g32a1xxx_lpitmr.o(.text.LPITMR_HW_Enable)
    [Anonymous Symbol]                       0x00005cbc   Section        0  g32a1xxx_lpitmr.o(.text.LPITMR_HW_EnableInterruptTimerChannels)
    [Anonymous Symbol]                       0x00005cc4   Section        0  g32a1xxx_lpitmr.o(.text.LPITMR_HW_ReadInterruptFlagTimerChannels)
    [Anonymous Symbol]                       0x00005ccc   Section        0  g32a1xxx_lpitmr.o(.text.LPITMR_HW_ReadTimerChannelModeCmd)
    [Anonymous Symbol]                       0x00005ce0   Section        0  g32a1xxx_lpitmr.o(.text.LPITMR_HW_Reset)
    [Anonymous Symbol]                       0x00005d10   Section        0  g32a1xxx_lpitmr.o(.text.LPITMR_HW_StartTimerChannels)
    [Anonymous Symbol]                       0x00005d18   Section        0  g32a1xxx_lpitmr.o(.text.LPITMR_Init)
    [Anonymous Symbol]                       0x00005d78   Section        0  tim.o(.text.LPITMR_Initialize)
    [Anonymous Symbol]                       0x00005dc0   Section        0  tim.o(.text.LPITMR_Irq)
    [Anonymous Symbol]                       0x00005df4   Section        0  g32a1xxx_lpitmr.o(.text.LPITMR_ReadInterruptFlagTimerChannels)
    [Anonymous Symbol]                       0x00005e0c   Section        0  g32a1xxx_lpitmr.o(.text.LPITMR_StartTimerChannels)
    [Anonymous Symbol]                       0x00005e24   Section        0  g32a1xxx_lpspi.o(.text.LPSPI0_IRQHandler)
    [Anonymous Symbol]                       0x00005e30   Section        0  g32a1xxx_lpspi.o(.text.LPSPI1_IRQHandler)
    [Anonymous Symbol]                       0x00005e3c   Section        0  g32a1xxx_lpspi.o(.text.LPSPI2_IRQHandler)
    LPSPI_DisableErrorInterrupts             0x00005e49   Thumb Code    58  g32a1xxx_lpspi.o(.text.LPSPI_DisableErrorInterrupts)
    [Anonymous Symbol]                       0x00005e48   Section        0  g32a1xxx_lpspi.o(.text.LPSPI_DisableErrorInterrupts)
    LPSPI_FillupTxBuffer                     0x00005e85   Thumb Code   168  g32a1xxx_lpspi.o(.text.LPSPI_FillupTxBuffer)
    [Anonymous Symbol]                       0x00005e84   Section        0  g32a1xxx_lpspi.o(.text.LPSPI_FillupTxBuffer)
    [Anonymous Symbol]                       0x00005f2c   Section        0  g32a1xxx_lpspi.o(.text.LPSPI_HW_ClearContCBit)
    [Anonymous Symbol]                       0x00005f38   Section        0  g32a1xxx_lpspi.o(.text.LPSPI_HW_ClearStatusFlag)
    [Anonymous Symbol]                       0x00005f50   Section        0  g32a1xxx_lpspi.o(.text.LPSPI_HW_ConfigFlushFifoCmd)
    [Anonymous Symbol]                       0x00005f6c   Section        0  g32a1xxx_lpspi.o(.text.LPSPI_HW_ConfigIntMode)
    [Anonymous Symbol]                       0x00005f84   Section        0  g32a1xxx_lpspi.o(.text.LPSPI_HW_ConfigRxDmaCmd)
    [Anonymous Symbol]                       0x00005f94   Section        0  g32a1xxx_lpspi.o(.text.LPSPI_HW_ConfigTxDmaCmd)
    [Anonymous Symbol]                       0x00005fa0   Section        0  g32a1xxx_lpspi.o(.text.LPSPI_HW_GetStatusFlag)
    [Anonymous Symbol]                       0x00005fac   Section        0  g32a1xxx_lpspi.o(.text.LPSPI_HW_IsMaster)
    [Anonymous Symbol]                       0x00005fb4   Section        0  g32a1xxx_lpspi.o(.text.LPSPI_HW_ReadData)
    [Anonymous Symbol]                       0x00005fb8   Section        0  g32a1xxx_lpspi.o(.text.LPSPI_HW_ReadRxCount)
    [Anonymous Symbol]                       0x00005fc0   Section        0  g32a1xxx_lpspi.o(.text.LPSPI_HW_ReadTxCount)
    [Anonymous Symbol]                       0x00005fc8   Section        0  g32a1xxx_lpspi.o(.text.LPSPI_HW_WriteData)
    [Anonymous Symbol]                       0x00005fcc   Section        0  g32a1xxx_lpspi.o(.text.LPSPI_IRQHandler)
    LPSPI_MasterAbortTransfer                0x00005ff9   Thumb Code    40  g32a1xxx_lpspi.o(.text.LPSPI_MasterAbortTransfer)
    [Anonymous Symbol]                       0x00005ff8   Section        0  g32a1xxx_lpspi.o(.text.LPSPI_MasterAbortTransfer)
    LPSPI_MasterCompleteTransfer             0x00006021   Thumb Code   144  g32a1xxx_lpspi.o(.text.LPSPI_MasterCompleteTransfer)
    [Anonymous Symbol]                       0x00006020   Section        0  g32a1xxx_lpspi.o(.text.LPSPI_MasterCompleteTransfer)
    [Anonymous Symbol]                       0x000060b0   Section        0  g32a1xxx_lpspi.o(.text.LPSPI_MasterIRQHandler)
    LPSPI_ReadRxBuffer                       0x00006181   Thumb Code   138  g32a1xxx_lpspi.o(.text.LPSPI_ReadRxBuffer)
    [Anonymous Symbol]                       0x00006180   Section        0  g32a1xxx_lpspi.o(.text.LPSPI_ReadRxBuffer)
    LPSPI_SlaveAbortTransfer                 0x0000620d   Thumb Code   126  g32a1xxx_lpspi.o(.text.LPSPI_SlaveAbortTransfer)
    [Anonymous Symbol]                       0x0000620c   Section        0  g32a1xxx_lpspi.o(.text.LPSPI_SlaveAbortTransfer)
    [Anonymous Symbol]                       0x0000628c   Section        0  g32a1xxx_lpspi.o(.text.LPSPI_SlaveIRQHandler)
    [Anonymous Symbol]                       0x00006370   Section        0  g32a1xxx_lpuart.o(.text.LPUART0_RxTx_IRQHandler)
    [Anonymous Symbol]                       0x0000637c   Section        0  g32a1xxx_lpuart.o(.text.LPUART1_RxTx_IRQHandler)
    [Anonymous Symbol]                       0x00006388   Section        0  g32a1xxx_lpuart.o(.text.LPUART2_RxTx_IRQHandler)
    [Anonymous Symbol]                       0x00006394   Section        0  g32a1xxx_lpuart.o(.text.LPUART_ErrorIrqHandler)
    LPUART_FinishRxDataUsingInt              0x00006495   Thumb Code    92  g32a1xxx_lpuart.o(.text.LPUART_FinishRxDataUsingInt)
    [Anonymous Symbol]                       0x00006494   Section        0  g32a1xxx_lpuart.o(.text.LPUART_FinishRxDataUsingInt)
    LPUART_FinishTxDataUsingInt              0x000064f1   Thumb Code    88  g32a1xxx_lpuart.o(.text.LPUART_FinishTxDataUsingInt)
    [Anonymous Symbol]                       0x000064f0   Section        0  g32a1xxx_lpuart.o(.text.LPUART_FinishTxDataUsingInt)
    [Anonymous Symbol]                       0x00006548   Section        0  g32a1xxx_lpuart.o(.text.LPUART_HW_ClearErrFlags)
    [Anonymous Symbol]                       0x0000655c   Section        0  g32a1xxx_lpuart.o(.text.LPUART_HW_DisableErrInterrupts)
    [Anonymous Symbol]                       0x00006588   Section        0  g32a1xxx_lpuart.o(.text.LPUART_HW_DisableIntMode)
    [Anonymous Symbol]                       0x000065d0   Section        0  g32a1xxx_lpuart.o(.text.LPUART_HW_DisableRx)
    [Anonymous Symbol]                       0x000065e0   Section        0  g32a1xxx_lpuart.o(.text.LPUART_HW_DisableRxDma)
    [Anonymous Symbol]                       0x000065ec   Section        0  g32a1xxx_lpuart.o(.text.LPUART_HW_DisableTx)
    [Anonymous Symbol]                       0x000065fc   Section        0  g32a1xxx_lpuart.o(.text.LPUART_HW_DisableTxDma)
    [Anonymous Symbol]                       0x00006608   Section        0  g32a1xxx_lpuart.o(.text.LPUART_HW_EnableBothEdgeSamplingCmd)
    [Anonymous Symbol]                       0x00006614   Section        0  g32a1xxx_lpuart.o(.text.LPUART_HW_EnableIntMode)
    [Anonymous Symbol]                       0x00006660   Section        0  g32a1xxx_lpuart.o(.text.LPUART_HW_EnableTx)
    [Anonymous Symbol]                       0x00006670   Section        0  g32a1xxx_lpuart.o(.text.LPUART_HW_GetIntMode)
    [Anonymous Symbol]                       0x000066a8   Section        0  g32a1xxx_lpuart.o(.text.LPUART_HW_GetStatusFlag)
    [Anonymous Symbol]                       0x000066e0   Section        0  g32a1xxx_lpuart.o(.text.LPUART_HW_Init)
    [Anonymous Symbol]                       0x00006704   Section        0  g32a1xxx_lpuart.o(.text.LPUART_HW_RxChar)
    [Anonymous Symbol]                       0x0000670c   Section        0  g32a1xxx_lpuart.o(.text.LPUART_HW_RxChar10)
    [Anonymous Symbol]                       0x00006734   Section        0  g32a1xxx_lpuart.o(.text.LPUART_HW_RxChar9)
    [Anonymous Symbol]                       0x00006754   Section        0  g32a1xxx_lpuart.o(.text.LPUART_HW_SetBaudrateDivisor)
    [Anonymous Symbol]                       0x00006760   Section        0  g32a1xxx_lpuart.o(.text.LPUART_HW_SetDataBits)
    [Anonymous Symbol]                       0x00006788   Section        0  g32a1xxx_lpuart.o(.text.LPUART_HW_SetOversamplingRatio)
    [Anonymous Symbol]                       0x00006794   Section        0  g32a1xxx_lpuart.o(.text.LPUART_HW_SetParityMode)
    [Anonymous Symbol]                       0x000067ac   Section        0  g32a1xxx_lpuart.o(.text.LPUART_HW_SetStopBitCnt)
    [Anonymous Symbol]                       0x000067c0   Section        0  g32a1xxx_lpuart.o(.text.LPUART_HW_TxChar)
    [Anonymous Symbol]                       0x000067c4   Section        0  g32a1xxx_lpuart.o(.text.LPUART_HW_TxChar10)
    [Anonymous Symbol]                       0x000067e4   Section        0  g32a1xxx_lpuart.o(.text.LPUART_HW_TxChar9)
    [Anonymous Symbol]                       0x000067f8   Section        0  g32a1xxx_lpuart.o(.text.LPUART_IRQHandler)
    [Anonymous Symbol]                       0x00006878   Section        0  g32a1xxx_lpuart.o(.text.LPUART_Init)
    LPUART_ReadData                          0x0000694d   Thumb Code    78  g32a1xxx_lpuart.o(.text.LPUART_ReadData)
    [Anonymous Symbol]                       0x0000694c   Section        0  g32a1xxx_lpuart.o(.text.LPUART_ReadData)
    [Anonymous Symbol]                       0x0000699c   Section        0  g32a1xxx_lpuart.o(.text.LPUART_RxIrqHandler)
    [Anonymous Symbol]                       0x00006a08   Section        0  g32a1xxx_lpuart.o(.text.LPUART_SetBaudrate)
    LPUART_StopRxDma                         0x00006acd   Thumb Code   100  g32a1xxx_lpuart.o(.text.LPUART_StopRxDma)
    [Anonymous Symbol]                       0x00006acc   Section        0  g32a1xxx_lpuart.o(.text.LPUART_StopRxDma)
    LPUART_StopTxDma                         0x00006b31   Thumb Code    90  g32a1xxx_lpuart.o(.text.LPUART_StopTxDma)
    [Anonymous Symbol]                       0x00006b30   Section        0  g32a1xxx_lpuart.o(.text.LPUART_StopTxDma)
    [Anonymous Symbol]                       0x00006b8c   Section        0  g32a1xxx_lpuart.o(.text.LPUART_TxCompleteIrqHandler)
    [Anonymous Symbol]                       0x00006bc8   Section        0  g32a1xxx_lpuart.o(.text.LPUART_TxEmptyIrqHandler)
    LPUART_WriteData                         0x00006c49   Thumb Code    62  g32a1xxx_lpuart.o(.text.LPUART_WriteData)
    [Anonymous Symbol]                       0x00006c48   Section        0  g32a1xxx_lpuart.o(.text.LPUART_WriteData)
    [Anonymous Symbol]                       0x00006c88   Section        0  g32a1xxx_int.o(.text.MemManage_Handler)
    [Anonymous Symbol]                       0x00006c8c   Section        0  g32a1xxx_int.o(.text.NMI_Handler)
    [Anonymous Symbol]                       0x00006c90   Section        0  osif.o(.text.OSIF_SemCreate)
    [Anonymous Symbol]                       0x00006cac   Section        0  osif.o(.text.OSIF_SemPost)
    [Anonymous Symbol]                       0x00006cd4   Section        0  g32a1xxx_clock.o(.text.PCM_HW_ConfigPeripheralClkEn)
    [Anonymous Symbol]                       0x00006db8   Section        0  g32a1xxx_clock.o(.text.PCM_HW_ConfigPeripheralClockControl)
    [Anonymous Symbol]                       0x00006f84   Section        0  g32a1xxx_clock.o(.text.PCM_HW_ReadPeripheralClkEn)
    [Anonymous Symbol]                       0x00007068   Section        0  g32a1xxx_clock.o(.text.PCM_HW_ReadPeripheralClockSourceSel)
    [Anonymous Symbol]                       0x000070ec   Section        0  g32a1xxx_clock.o(.text.PCM_HW_ReadPeripheralDividerValue)
    [Anonymous Symbol]                       0x000070fc   Section        0  g32a1xxx_clock.o(.text.PCM_HW_ReadPeripheralFractionValue)
    [Anonymous Symbol]                       0x0000710c   Section        0  g32a1xxx_pins.o(.text.PINS_ClrPinIntFlgCmd)
    [Anonymous Symbol]                       0x00007114   Section        0  g32a1xxx_pins.o(.text.PINS_ClrPins)
    [Anonymous Symbol]                       0x0000711c   Section        0  g32a1xxx_pins.o(.text.PINS_HW_Cfg)
    [Anonymous Symbol]                       0x0000720c   Section        0  g32a1xxx_pins.o(.text.PINS_HW_ClrPinIntFlgCmd)
    [Anonymous Symbol]                       0x00007228   Section        0  g32a1xxx_pins.o(.text.PINS_HW_GPIO_ClrPins)
    [Anonymous Symbol]                       0x0000722c   Section        0  g32a1xxx_pins.o(.text.PINS_HW_GPIO_SetPinDir)
    [Anonymous Symbol]                       0x00007244   Section        0  g32a1xxx_pins.o(.text.PINS_HW_GPIO_SetPins)
    [Anonymous Symbol]                       0x00007248   Section        0  g32a1xxx_pins.o(.text.PINS_HW_GPIO_WritePin)
    [Anonymous Symbol]                       0x00007260   Section        0  g32a1xxx_pins.o(.text.PINS_HW_ReadPmIntFlg)
    [Anonymous Symbol]                       0x00007268   Section        0  g32a1xxx_pins.o(.text.PINS_HW_SetMuxModeSel)
    [Anonymous Symbol]                       0x000072a8   Section        0  g32a1xxx_pins.o(.text.PINS_HW_SetPinIntSel)
    [Anonymous Symbol]                       0x000072c0   Section        0  g32a1xxx_pins.o(.text.PINS_Init)
    [Anonymous Symbol]                       0x000072dc   Section        0  g32a1xxx_pins.o(.text.PINS_ReadAdcInterleaveVal)
    [Anonymous Symbol]                       0x00007350   Section        0  g32a1xxx_pins.o(.text.PINS_ReadPmIntFlg)
    [Anonymous Symbol]                       0x00007358   Section        0  g32a1xxx_pins.o(.text.PINS_SetMuxModeSel)
    [Anonymous Symbol]                       0x00007360   Section        0  g32a1xxx_pins.o(.text.PINS_SetPinDir)
    [Anonymous Symbol]                       0x00007368   Section        0  g32a1xxx_pins.o(.text.PINS_SetPinIntSel)
    [Anonymous Symbol]                       0x00007370   Section        0  g32a1xxx_pins.o(.text.PINS_SetPins)
    [Anonymous Symbol]                       0x00007378   Section        0  g32a1xxx_clock.o(.text.PMU_HW_ConfigLpoDisable)
    [Anonymous Symbol]                       0x00007388   Section        0  g32a1xxx_clock.o(.text.PMU_HW_ConfigLpoTrimValue)
    [Anonymous Symbol]                       0x00007398   Section        0  g32a1xxx_clock.o(.text.PMU_HW_ReadLpoDisableMode)
    [Anonymous Symbol]                       0x000073a8   Section        0  g32a1xxx_int.o(.text.PendSV_Handler)
    [Anonymous Symbol]                       0x000073ac   Section        0  g32a1xxx_rtc.o(.text.RTC_HW_AssignTimeAlarmRegister)
    [Anonymous Symbol]                       0x000073b0   Section        0  g32a1xxx_rtc.o(.text.RTC_HW_ReadTimeAlarmFlag)
    [Anonymous Symbol]                       0x000073b8   Section        0  g32a1xxx_rtc.o(.text.RTC_HW_ReadTimeSecondsRegister)
    [Anonymous Symbol]                       0x000073bc   Section        0  g32a1xxx_rtc.o(.text.RTC_IRQHandler)
    [Anonymous Symbol]                       0x00007450   Section        0  g32a1xxx_clock.o(.text.SCG_HW_ClearHsiControlStatus)
    [Anonymous Symbol]                       0x00007464   Section        0  g32a1xxx_clock.o(.text.SCG_HW_ClearHsiLockStatus)
    [Anonymous Symbol]                       0x00007474   Section        0  g32a1xxx_clock.o(.text.SCG_HW_ClearLsiControlStatus)
    [Anonymous Symbol]                       0x0000747c   Section        0  g32a1xxx_clock.o(.text.SCG_HW_ClearLsiLockStatus)
    [Anonymous Symbol]                       0x0000748c   Section        0  g32a1xxx_clock.o(.text.SCG_HW_ClearSoscControlStatus)
    [Anonymous Symbol]                       0x000074a0   Section        0  g32a1xxx_clock.o(.text.SCG_HW_ClearSoscLockStatus)
    [Anonymous Symbol]                       0x000074b0   Section        0  g32a1xxx_clock.o(.text.SCG_HW_ClearSysPllControlStatus)
    [Anonymous Symbol]                       0x000074c4   Section        0  g32a1xxx_clock.o(.text.SCG_HW_ClearSysPllLockStatus)
    [Anonymous Symbol]                       0x000074d4   Section        0  g32a1xxx_clock.o(.text.SCG_HW_ConfigClockoutSourceSel)
    [Anonymous Symbol]                       0x000074ec   Section        0  g32a1xxx_clock.o(.text.SCG_HW_ConfigHsiAsyncConfig)
    [Anonymous Symbol]                       0x00007510   Section        0  g32a1xxx_clock.o(.text.SCG_HW_ConfigHsiControl)
    [Anonymous Symbol]                       0x00007534   Section        0  g32a1xxx_clock.o(.text.SCG_HW_ConfigHsiRang)
    [Anonymous Symbol]                       0x00007544   Section        0  g32a1xxx_clock.o(.text.SCG_HW_ConfigHsrunClockControl)
    [Anonymous Symbol]                       0x00007568   Section        0  g32a1xxx_clock.o(.text.SCG_HW_ConfigLsiAsyncConfig)
    [Anonymous Symbol]                       0x0000758c   Section        0  g32a1xxx_clock.o(.text.SCG_HW_ConfigLsiControl)
    [Anonymous Symbol]                       0x000075b8   Section        0  g32a1xxx_clock.o(.text.SCG_HW_ConfigLsiRang)
    [Anonymous Symbol]                       0x000075c8   Section        0  g32a1xxx_clock.o(.text.SCG_HW_ConfigRunClockControl)
    [Anonymous Symbol]                       0x000075ec   Section        0  g32a1xxx_clock.o(.text.SCG_HW_ConfigSoscAsyncConfig)
    [Anonymous Symbol]                       0x00007610   Section        0  g32a1xxx_clock.o(.text.SCG_HW_ConfigSoscCfg)
    [Anonymous Symbol]                       0x00007638   Section        0  g32a1xxx_clock.o(.text.SCG_HW_ConfigSoscControl)
    [Anonymous Symbol]                       0x00007664   Section        0  g32a1xxx_clock.o(.text.SCG_HW_ConfigSysPllAsyncConfig)
    [Anonymous Symbol]                       0x00007688   Section        0  g32a1xxx_clock.o(.text.SCG_HW_ConfigSysPllCfg)
    [Anonymous Symbol]                       0x000076b0   Section        0  g32a1xxx_clock.o(.text.SCG_HW_ConfigSysPllControl)
    [Anonymous Symbol]                       0x000076dc   Section        0  g32a1xxx_clock.o(.text.SCG_HW_ConfigVlprClockControl)
    [Anonymous Symbol]                       0x00007700   Section        0  g32a1xxx_clock.o(.text.SCG_HW_ReadClockoutSourceSel)
    [Anonymous Symbol]                       0x00007708   Section        0  g32a1xxx_clock.o(.text.SCG_HW_ReadCurrentBusClockDividerRatio)
    [Anonymous Symbol]                       0x00007710   Section        0  g32a1xxx_clock.o(.text.SCG_HW_ReadCurrentCoreClockDividerRatio)
    [Anonymous Symbol]                       0x00007718   Section        0  g32a1xxx_clock.o(.text.SCG_HW_ReadCurrentSlowClockDividerRatio)
    [Anonymous Symbol]                       0x00007720   Section        0  g32a1xxx_clock.o(.text.SCG_HW_ReadCurrentSystemClockSource)
    [Anonymous Symbol]                       0x00007728   Section        0  g32a1xxx_clock.o(.text.SCG_HW_ReadHsiAsSystemClock)
    [Anonymous Symbol]                       0x00007734   Section        0  g32a1xxx_clock.o(.text.SCG_HW_ReadHsiEnableStatus)
    [Anonymous Symbol]                       0x00007740   Section        0  g32a1xxx_clock.o(.text.SCG_HW_ReadHsiFirstAsyncDivider)
    [Anonymous Symbol]                       0x0000774c   Section        0  g32a1xxx_clock.o(.text.SCG_HW_ReadHsiRange)
    [Anonymous Symbol]                       0x00007758   Section        0  g32a1xxx_clock.o(.text.SCG_HW_ReadHsiSecondAsyncDivider)
    [Anonymous Symbol]                       0x00007764   Section        0  g32a1xxx_clock.o(.text.SCG_HW_ReadLsiAsSystemClock)
    [Anonymous Symbol]                       0x00007770   Section        0  g32a1xxx_clock.o(.text.SCG_HW_ReadLsiEnableStatus)
    [Anonymous Symbol]                       0x0000777c   Section        0  g32a1xxx_clock.o(.text.SCG_HW_ReadLsiFirstAsyncDivider)
    [Anonymous Symbol]                       0x00007788   Section        0  g32a1xxx_clock.o(.text.SCG_HW_ReadLsiRange)
    [Anonymous Symbol]                       0x00007794   Section        0  g32a1xxx_clock.o(.text.SCG_HW_ReadLsiSecondAsyncDivider)
    [Anonymous Symbol]                       0x000077a0   Section        0  g32a1xxx_clock.o(.text.SCG_HW_ReadSoscAsSystemClock)
    [Anonymous Symbol]                       0x000077ac   Section        0  g32a1xxx_clock.o(.text.SCG_HW_ReadSoscEnableStatus)
    [Anonymous Symbol]                       0x000077b8   Section        0  g32a1xxx_clock.o(.text.SCG_HW_ReadSoscFirstAsyncDivider)
    [Anonymous Symbol]                       0x000077c4   Section        0  g32a1xxx_clock.o(.text.SCG_HW_ReadSoscSecondAsyncDivider)
    [Anonymous Symbol]                       0x000077d0   Section        0  g32a1xxx_clock.o(.text.SCG_HW_ReadSysPllAsSystemClock)
    [Anonymous Symbol]                       0x000077dc   Section        0  g32a1xxx_clock.o(.text.SCG_HW_ReadSysPllEnableStatus)
    [Anonymous Symbol]                       0x000077e8   Section        0  g32a1xxx_clock.o(.text.SCG_HW_ReadSysPllFirstAsyncDivider)
    [Anonymous Symbol]                       0x000077f4   Section        0  g32a1xxx_clock.o(.text.SCG_HW_ReadSysPllMultiplier)
    [Anonymous Symbol]                       0x00007800   Section        0  g32a1xxx_clock.o(.text.SCG_HW_ReadSysPllPredivider)
    [Anonymous Symbol]                       0x0000780c   Section        0  g32a1xxx_clock.o(.text.SCG_HW_ReadSysPllSecondAsyncDivider)
    SIM_CheckPeripheralClockGate             0x00007819   Thumb Code   116  g32a1xxx_clock.o(.text.SIM_CheckPeripheralClockGate)
    [Anonymous Symbol]                       0x00007818   Section        0  g32a1xxx_clock.o(.text.SIM_CheckPeripheralClockGate)
    [Anonymous Symbol]                       0x0000788c   Section        0  g32a1xxx_clock.o(.text.SIM_HW_ClearTraceClockConfig)
    [Anonymous Symbol]                       0x00007894   Section        0  g32a1xxx_clock.o(.text.SIM_HW_ConfigClockout)
    [Anonymous Symbol]                       0x000078b8   Section        0  g32a1xxx_clock.o(.text.SIM_HW_ConfigDmaClockGate)
    [Anonymous Symbol]                       0x000078c8   Section        0  g32a1xxx_clock.o(.text.SIM_HW_ConfigEinjClockGate)
    [Anonymous Symbol]                       0x000078d8   Section        0  g32a1xxx_clock.o(.text.SIM_HW_ConfigExtPinSourceCFGtmr)
    [Anonymous Symbol]                       0x0000792c   Section        0  g32a1xxx_clock.o(.text.SIM_HW_ConfigLpoClocks)
    [Anonymous Symbol]                       0x00007954   Section        0  g32a1xxx_clock.o(.text.SIM_HW_ConfigMpuClockGate)
    [Anonymous Symbol]                       0x00007964   Section        0  g32a1xxx_clock.o(.text.SIM_HW_ConfigMscmClockGate)
    [Anonymous Symbol]                       0x00007974   Section        0  g32a1xxx_clock.o(.text.SIM_HW_ConfigTraceClock)
    [Anonymous Symbol]                       0x000079a4   Section        0  g32a1xxx_clock.o(.text.SIM_HW_ConfigTraceClockSource)
    [Anonymous Symbol]                       0x000079b0   Section        0  g32a1xxx_clock.o(.text.SIM_HW_DisableDmaClock)
    [Anonymous Symbol]                       0x000079bc   Section        0  g32a1xxx_clock.o(.text.SIM_HW_DisableEinjClock)
    [Anonymous Symbol]                       0x000079c8   Section        0  g32a1xxx_clock.o(.text.SIM_HW_DisableErepClock)
    [Anonymous Symbol]                       0x000079d4   Section        0  g32a1xxx_clock.o(.text.SIM_HW_DisableMpuClock)
    [Anonymous Symbol]                       0x000079e0   Section        0  g32a1xxx_clock.o(.text.SIM_HW_DisableMscmClock)
    [Anonymous Symbol]                       0x000079ec   Section        0  g32a1xxx_clock.o(.text.SIM_HW_EnableDmaClock)
    [Anonymous Symbol]                       0x000079f8   Section        0  g32a1xxx_clock.o(.text.SIM_HW_EnableEinjClock)
    [Anonymous Symbol]                       0x00007a04   Section        0  g32a1xxx_clock.o(.text.SIM_HW_EnableErepClock)
    [Anonymous Symbol]                       0x00007a10   Section        0  g32a1xxx_clock.o(.text.SIM_HW_EnableMpuClock)
    [Anonymous Symbol]                       0x00007a1c   Section        0  g32a1xxx_clock.o(.text.SIM_HW_EnableMscmClock)
    [Anonymous Symbol]                       0x00007a28   Section        0  g32a1xxx_clock.o(.text.SIM_HW_ReadCFGtmr0ExternalClkPinMode)
    [Anonymous Symbol]                       0x00007a30   Section        0  g32a1xxx_clock.o(.text.SIM_HW_ReadCFGtmr1ExternalClkPinMode)
    [Anonymous Symbol]                       0x00007a38   Section        0  g32a1xxx_clock.o(.text.SIM_HW_ReadCFGtmr2ExternalClkPinMode)
    [Anonymous Symbol]                       0x00007a40   Section        0  g32a1xxx_clock.o(.text.SIM_HW_ReadCFGtmr3ExternalClkPinMode)
    [Anonymous Symbol]                       0x00007a48   Section        0  g32a1xxx_clock.o(.text.SIM_HW_ReadClockoutDividerValue)
    [Anonymous Symbol]                       0x00007a50   Section        0  g32a1xxx_clock.o(.text.SIM_HW_ReadClockoutSelectedSource)
    [Anonymous Symbol]                       0x00007a58   Section        0  g32a1xxx_clock.o(.text.SIM_HW_ReadClockoutStatus)
    [Anonymous Symbol]                       0x00007a60   Section        0  g32a1xxx_clock.o(.text.SIM_HW_ReadDmaClockGate)
    [Anonymous Symbol]                       0x00007a68   Section        0  g32a1xxx_clock.o(.text.SIM_HW_ReadEinjClockGate)
    [Anonymous Symbol]                       0x00007a70   Section        0  g32a1xxx_clock.o(.text.SIM_HW_ReadErepClockGate)
    [Anonymous Symbol]                       0x00007a78   Section        0  g32a1xxx_clock.o(.text.SIM_HW_ReadLpo1kClkStatus)
    [Anonymous Symbol]                       0x00007a80   Section        0  g32a1xxx_clock.o(.text.SIM_HW_ReadLpo32kClkStatus)
    [Anonymous Symbol]                       0x00007a88   Section        0  g32a1xxx_clock.o(.text.SIM_HW_ReadLpoClkSelectedSource)
    [Anonymous Symbol]                       0x00007a90   Section        0  g32a1xxx_clock.o(.text.SIM_HW_ReadMpuClockGate)
    [Anonymous Symbol]                       0x00007a98   Section        0  g32a1xxx_clock.o(.text.SIM_HW_ReadMscmClockGate)
    [Anonymous Symbol]                       0x00007aa0   Section        0  g32a1xxx_clock.o(.text.SIM_HW_ReadRtcClkSrc)
    [Anonymous Symbol]                       0x00007aa8   Section        0  g32a1xxx_clock.o(.text.SIM_HW_SetErepClockGate)
    [Anonymous Symbol]                       0x00007ab8   Section        0  g32a1xxx_int.o(.text.SVC_Handler)
    [Anonymous Symbol]                       0x00007abc   Section        0  g32a1xxx_clock.o(.text.SYSMC_HW_ReadCurrentRunningPowerMode)
    SysTick_Config                           0x00007ac5   Thumb Code    36  systick.o(.text.SysTick_Config)
    [Anonymous Symbol]                       0x00007ac4   Section        0  systick.o(.text.SysTick_Config)
    [Anonymous Symbol]                       0x00007ae8   Section        0  g32a1xxx_int.o(.text.SysTick_Handler)
    [Anonymous Symbol]                       0x00007aec   Section        0  system_g32a1xxx.o(.text.SystemCoreClockConfigure)
    [Anonymous Symbol]                       0x00007c50   Section        0  system_g32a1xxx.o(.text.SystemCoreClockUpdate)
    [Anonymous Symbol]                       0x00007cfc   Section        0  system_g32a1xxx.o(.text.SystemInit)
    [Anonymous Symbol]                       0x00007d28   Section        0  g32a1xxx_int.o(.text.UsageFault_Handler)
    [Anonymous Symbol]                       0x00007d2c   Section        0  system_g32a1xxx.o(.text.WDT_Disable)
    __NVIC_SetPriority                       0x00007d51   Thumb Code    14  systick.o(.text.__NVIC_SetPriority)
    [Anonymous Symbol]                       0x00007d50   Section        0  systick.o(.text.__NVIC_SetPriority)
    [Anonymous Symbol]                       0x00007d60   Section        0  startup.o(.text.bss_data_init)
    [Anonymous Symbol]                       0x00007db0   Section        0  board.o(.text.fputc)
    [Anonymous Symbol]                       0x00007dc4   Section        0  main.o(.text.led_toggle)
    [Anonymous Symbol]                       0x00007de8   Section        0  main.o(.text.main)
    i.__0printf                              0x00007ea8   Section        0  printfa.o(i.__0printf)
    i.__scatterload_copy                     0x00007ec8   Section       14  handlers.o(i.__scatterload_copy)
    i.__scatterload_null                     0x00007ed6   Section        2  handlers.o(i.__scatterload_null)
    i.__scatterload_zeroinit                 0x00007ed8   Section       14  handlers.o(i.__scatterload_zeroinit)
    _fp_digits                               0x00007ee9   Thumb Code   366  printfa.o(i._fp_digits)
    i._fp_digits                             0x00007ee8   Section        0  printfa.o(i._fp_digits)
    _printf_core                             0x0000806d   Thumb Code  1744  printfa.o(i._printf_core)
    i._printf_core                           0x0000806c   Section        0  printfa.o(i._printf_core)
    _printf_post_padding                     0x00008749   Thumb Code    36  printfa.o(i._printf_post_padding)
    i._printf_post_padding                   0x00008748   Section        0  printfa.o(i._printf_post_padding)
    _printf_pre_padding                      0x0000876d   Thumb Code    46  printfa.o(i._printf_pre_padding)
    i._printf_pre_padding                    0x0000876c   Section        0  printfa.o(i._printf_pre_padding)
    i.puts                                   0x0000879c   Section        0  puts.o(i.puts)
    .data                                    0x1fff0400   Section        4  stdout.o(.data)
    G_RTCRUNTIMECONFIG.0.0                   0x20000000   Data           4  g32a1xxx_rtc.o(.bss.G_RTCRUNTIMECONFIG.0.0)
    [Anonymous Symbol]                       0x20000000   Section        0  g32a1xxx_rtc.o(.bss.G_RTCRUNTIMECONFIG.0.0)
    G_RTCRUNTIMECONFIG.0.1                   0x20000004   Data           1  g32a1xxx_rtc.o(.bss.G_RTCRUNTIMECONFIG.0.1)
    [Anonymous Symbol]                       0x20000004   Section        0  g32a1xxx_rtc.o(.bss.G_RTCRUNTIMECONFIG.0.1)
    G_RTCRUNTIMECONFIG.0.2                   0x20000008   Data           4  g32a1xxx_rtc.o(.bss.G_RTCRUNTIMECONFIG.0.2)
    [Anonymous Symbol]                       0x20000008   Section        0  g32a1xxx_rtc.o(.bss.G_RTCRUNTIMECONFIG.0.2)
    g_canState                               0x20000018   Data          12  g32a1xxx_can.o(.bss.g_canState)
    [Anonymous Symbol]                       0x20000018   Section        0  g32a1xxx_can.o(.bss.g_canState)
    g_cfgtmrStatusPtr                        0x20000038   Data          24  g32a1xxx_cfgtmr.o(.bss.g_cfgtmrStatusPtr)
    [Anonymous Symbol]                       0x20000038   Section        0  g32a1xxx_cfgtmr.o(.bss.g_cfgtmrStatusPtr)
    g_dmaState                               0x20000054   Data           4  g32a1xxx_dma.o(.bss.g_dmaState)
    [Anonymous Symbol]                       0x20000054   Section        0  g32a1xxx_dma.o(.bss.g_dmaState)
    g_interruptDisableCount                  0x2000005c   Data           4  g32a1xxx_interrupt.o(.bss.g_interruptDisableCount)
    [Anonymous Symbol]                       0x2000005c   Section        0  g32a1xxx_interrupt.o(.bss.g_interruptDisableCount)
    g_lpi2cMasterStates                      0x20000060   Data           4  g32a1xxx_lpi2c.o(.bss.g_lpi2cMasterStates)
    [Anonymous Symbol]                       0x20000060   Section        0  g32a1xxx_lpi2c.o(.bss.g_lpi2cMasterStates)
    g_lpi2cSlaveStates.0                     0x20000064   Data           4  g32a1xxx_lpi2c.o(.bss.g_lpi2cSlaveStates.0)
    [Anonymous Symbol]                       0x20000064   Section        0  g32a1xxx_lpi2c.o(.bss.g_lpi2cSlaveStates.0)
    g_lpuartStatus                           0x200000b0   Data          12  g32a1xxx_lpuart.o(.bss.g_lpuartStatus)
    [Anonymous Symbol]                       0x200000b0   Section        0  g32a1xxx_lpuart.o(.bss.g_lpuartStatus)
    led_toggle.ledState                      0x200000d4   Data           1  main.o(.bss.led_toggle.ledState)
    [Anonymous Symbol]                       0x200000d4   Section        0  main.o(.bss.led_toggle.ledState)

    Global Symbols

    Symbol Name                              Value     Ov Type        Size  Object(Section)

    BuildAttributes$$THM_ISAv4$E$P$D$K$B$S$7EM$VFPi3$EXTD16$VFPS$VFMA$PE$A:L22UL41UL21$X:L11$S22US41US21$IEEE1$IW$~IW$USESV6$~STKCKD$USESV7$~SHL$OTIME$ROPI$EBA8$MICROLIB$REQ8$PRES8$EABIv2 0x00000000   Number         0  anon$$obj.o ABSOLUTE
    Image$$RW_CODE$$Length                   0x00000000   Number         0  anon$$obj.o ABSOLUTE
    Image$$VECTOR_RAM$$Length                0x00000000   Number         0  anon$$obj.o ABSOLUTE
    Image$$VECTOR_ROM$$Base                  0x00000000   Number         0  anon$$obj.o ABSOLUTE
    __Vectors                                0x00000000   Data           4  startup_g32a1465.o(RESET)
    _printf_a                                0x00000000   Number         0  printfstubs.o ABSOLUTE
    _printf_c                                0x00000000   Number         0  printfstubs.o ABSOLUTE
    _printf_charcount                        0x00000000   Number         0  printfstubs.o ABSOLUTE
    _printf_d                                0x00000000   Number         0  printfstubs.o ABSOLUTE
    _printf_e                                0x00000000   Number         0  printfstubs.o ABSOLUTE
    _printf_f                                0x00000000   Number         0  printfstubs.o ABSOLUTE
    _printf_flags                            0x00000000   Number         0  printfstubs.o ABSOLUTE
    _printf_fp_dec                           0x00000000   Number         0  printfstubs.o ABSOLUTE
    _printf_fp_hex                           0x00000000   Number         0  printfstubs.o ABSOLUTE
    _printf_g                                0x00000000   Number         0  printfstubs.o ABSOLUTE
    _printf_i                                0x00000000   Number         0  printfstubs.o ABSOLUTE
    _printf_int_dec                          0x00000000   Number         0  printfstubs.o ABSOLUTE
    _printf_l                                0x00000000   Number         0  printfstubs.o ABSOLUTE
    _printf_lc                               0x00000000   Number         0  printfstubs.o ABSOLUTE
    _printf_ll                               0x00000000   Number         0  printfstubs.o ABSOLUTE
    _printf_lld                              0x00000000   Number         0  printfstubs.o ABSOLUTE
    _printf_lli                              0x00000000   Number         0  printfstubs.o ABSOLUTE
    _printf_llo                              0x00000000   Number         0  printfstubs.o ABSOLUTE
    _printf_llu                              0x00000000   Number         0  printfstubs.o ABSOLUTE
    _printf_llx                              0x00000000   Number         0  printfstubs.o ABSOLUTE
    _printf_longlong_dec                     0x00000000   Number         0  printfstubs.o ABSOLUTE
    _printf_longlong_hex                     0x00000000   Number         0  printfstubs.o ABSOLUTE
    _printf_longlong_oct                     0x00000000   Number         0  printfstubs.o ABSOLUTE
    _printf_ls                               0x00000000   Number         0  printfstubs.o ABSOLUTE
    _printf_mbtowc                           0x00000000   Number         0  printfstubs.o ABSOLUTE
    _printf_n                                0x00000000   Number         0  printfstubs.o ABSOLUTE
    _printf_o                                0x00000000   Number         0  printfstubs.o ABSOLUTE
    _printf_p                                0x00000000   Number         0  printfstubs.o ABSOLUTE
    _printf_percent                          0x00000000   Number         0  printfstubs.o ABSOLUTE
    _printf_pre_padding                      0x00000000   Number         0  printfstubs.o ABSOLUTE
    _printf_return_value                     0x00000000   Number         0  printfstubs.o ABSOLUTE
    _printf_s                                0x00000000   Number         0  printfstubs.o ABSOLUTE
    _printf_sizespec                         0x00000000   Number         0  printfstubs.o ABSOLUTE
    _printf_str                              0x00000000   Number         0  printfstubs.o ABSOLUTE
    _printf_truncate_signed                  0x00000000   Number         0  printfstubs.o ABSOLUTE
    _printf_truncate_unsigned                0x00000000   Number         0  printfstubs.o ABSOLUTE
    _printf_u                                0x00000000   Number         0  printfstubs.o ABSOLUTE
    _printf_wc                               0x00000000   Number         0  printfstubs.o ABSOLUTE
    _printf_wctomb                           0x00000000   Number         0  printfstubs.o ABSOLUTE
    _printf_widthprec                        0x00000000   Number         0  printfstubs.o ABSOLUTE
    _printf_x                                0x00000000   Number         0  printfstubs.o ABSOLUTE
    __cpp_initialize__aeabi_                  - Undefined Weak Reference
    __cxa_finalize                            - Undefined Weak Reference
    _clock_init                               - Undefined Weak Reference
    _microlib_exit                            - Undefined Weak Reference
    Image$$VECTOR_ROM$$Length                0x00000260   Number         0  anon$$obj.o ABSOLUTE
    Image$$VECTOR_ROM$$Limit                 0x00000260   Number         0  anon$$obj.o ABSOLUTE
    Image$$RW_DATA$$Length                   0x0000028c   Number         0  anon$$obj.o ABSOLUTE
    Image$$TEXT_CONST$$Base                  0x00000410   Number         0  anon$$obj.o ABSOLUTE
    g_adcBase                                0x000005d0   Data           8  g32a1xxx_adc.o(.rodata.g_adcBase)
    g_peripheralFeaturesList                 0x0000061e   Data          81  g32a1xxx_clock.o(.rodata.g_peripheralFeaturesList)
    Image$$TEXT_CONST$$Limit                 0x000006b4   Number         0  anon$$obj.o ABSOLUTE
    __main                                   0x000006b5   Thumb Code     0  entry.o(.ARM.Collect$$$$00000000)
    _main_stk                                0x000006b5   Thumb Code     0  entry4.o(.ARM.Collect$$$$00000003)
    _main_scatterload                        0x000006b9   Thumb Code     0  entry5.o(.ARM.Collect$$$$00000004)
    __main_after_scatterload                 0x000006bd   Thumb Code     0  entry5.o(.ARM.Collect$$$$00000004)
    _main_clock                              0x000006bd   Thumb Code     0  entry7b.o(.ARM.Collect$$$$00000008)
    _main_cpp_init                           0x000006bd   Thumb Code     0  entry8b.o(.ARM.Collect$$$$0000000A)
    _main_init                               0x000006bd   Thumb Code     0  entry9a.o(.ARM.Collect$$$$0000000B)
    __rt_final_cpp                           0x000006c5   Thumb Code     0  entry10a.o(.ARM.Collect$$$$0000000D)
    __rt_final_exit                          0x000006c5   Thumb Code     0  entry11a.o(.ARM.Collect$$$$0000000F)
    __ROM_VECTOR_END                         0x000006c8   Data           4  startup_g32a1465.o(.text)
    __ROM_VECTOR_START                       0x000006cc   Data           4  startup_g32a1465.o(.text)
    __VECTOR_ROM                             0x000006d0   Data           4  startup_g32a1465.o(.text)
    __VECTOR_RAM                             0x000006d4   Data           4  startup_g32a1465.o(.text)
    __RAM_VECTOR_TABLE_SIZE                  0x000006d8   Data           4  startup_g32a1465.o(.text)
    __RAM_CODE                               0x000006dc   Data           4  startup_g32a1465.o(.text)
    __RAM_CODE_END                           0x000006e0   Data           4  startup_g32a1465.o(.text)
    __RAM_CODE_START                         0x000006e4   Data           4  startup_g32a1465.o(.text)
    __ROM_CODE                               0x000006e8   Data           4  startup_g32a1465.o(.text)
    __CODE_END                               0x000006ec   Data           4  startup_g32a1465.o(.text)
    __BSS_END                                0x000006f0   Data           4  startup_g32a1465.o(.text)
    __BSS_START                              0x000006f4   Data           4  startup_g32a1465.o(.text)
    __DATA_RAM                               0x000006f8   Data           4  startup_g32a1465.o(.text)
    __RAM_DATA_END                           0x000006fc   Data           4  startup_g32a1465.o(.text)
    __RAM_DATA_START                         0x00000700   Data           4  startup_g32a1465.o(.text)
    __DATA_END                               0x00000704   Data           4  startup_g32a1465.o(.text)
    __DATA_ROM                               0x00000708   Data           4  startup_g32a1465.o(.text)
    __USER_SECTION_END                       0x0000070c   Data           4  startup_g32a1465.o(.text)
    __USER_SECTION_START                     0x00000710   Data           4  startup_g32a1465.o(.text)
    __RAM_START                              0x00000714   Data           4  startup_g32a1465.o(.text)
    __RAM_END                                0x00000718   Data           4  startup_g32a1465.o(.text)
    Reset_Handler                            0x0000071d   Thumb Code    60  startup_g32a1465.o(.text)
    DefaultISR                               0x0000076b   Thumb Code     2  startup_g32a1465.o(.text)
    ADC0_IRQHandler                          0x0000076d   Thumb Code     0  startup_g32a1465.o(.text)
    ADC1_IRQHandler                          0x0000076d   Thumb Code     0  startup_g32a1465.o(.text)
    CFGTMR0_Fault_IRQHandler                 0x0000076d   Thumb Code     0  startup_g32a1465.o(.text)
    CFGTMR0_Ovf_Reload_IRQHandler            0x0000076d   Thumb Code     0  startup_g32a1465.o(.text)
    CFGTMR1_Fault_IRQHandler                 0x0000076d   Thumb Code     0  startup_g32a1465.o(.text)
    CFGTMR1_Ovf_Reload_IRQHandler            0x0000076d   Thumb Code     0  startup_g32a1465.o(.text)
    CFGTMR2_Fault_IRQHandler                 0x0000076d   Thumb Code     0  startup_g32a1465.o(.text)
    CFGTMR2_Ovf_Reload_IRQHandler            0x0000076d   Thumb Code     0  startup_g32a1465.o(.text)
    CFGTMR3_Fault_IRQHandler                 0x0000076d   Thumb Code     0  startup_g32a1465.o(.text)
    CFGTMR3_Ovf_Reload_IRQHandler            0x0000076d   Thumb Code     0  startup_g32a1465.o(.text)
    CFGTMR4_Fault_IRQHandler                 0x0000076d   Thumb Code     0  startup_g32a1465.o(.text)
    CFGTMR4_Ovf_Reload_IRQHandler            0x0000076d   Thumb Code     0  startup_g32a1465.o(.text)
    CFGTMR5_Fault_IRQHandler                 0x0000076d   Thumb Code     0  startup_g32a1465.o(.text)
    CFGTMR5_Ovf_Reload_IRQHandler            0x0000076d   Thumb Code     0  startup_g32a1465.o(.text)
    COMP_IRQHandler                          0x0000076d   Thumb Code     0  startup_g32a1465.o(.text)
    EREP_double_fault_IRQHandler             0x0000076d   Thumb Code     0  startup_g32a1465.o(.text)
    EREP_single_fault_IRQHandler             0x0000076d   Thumb Code     0  startup_g32a1465.o(.text)
    FLASH_Fault_IRQHandler                   0x0000076d   Thumb Code     0  startup_g32a1465.o(.text)
    LPITMR_Ch0_IRQHandler                    0x0000076d   Thumb Code     0  startup_g32a1465.o(.text)
    LPITMR_Ch1_IRQHandler                    0x0000076d   Thumb Code     0  startup_g32a1465.o(.text)
    LPITMR_Ch2_IRQHandler                    0x0000076d   Thumb Code     0  startup_g32a1465.o(.text)
    LPITMR_Ch3_IRQHandler                    0x0000076d   Thumb Code     0  startup_g32a1465.o(.text)
    LPTMR_IRQHandler                         0x0000076d   Thumb Code     0  startup_g32a1465.o(.text)
    LVD_LVW_IRQHandler                       0x0000076d   Thumb Code     0  startup_g32a1465.o(.text)
    MC_IRQHandler                            0x0000076d   Thumb Code     0  startup_g32a1465.o(.text)
    PDU0_IRQHandler                          0x0000076d   Thumb Code     0  startup_g32a1465.o(.text)
    PDU1_IRQHandler                          0x0000076d   Thumb Code     0  startup_g32a1465.o(.text)
    PMA_IRQHandler                           0x0000076d   Thumb Code     0  startup_g32a1465.o(.text)
    PMB_IRQHandler                           0x0000076d   Thumb Code     0  startup_g32a1465.o(.text)
    PMC_IRQHandler                           0x0000076d   Thumb Code     0  startup_g32a1465.o(.text)
    PMD_IRQHandler                           0x0000076d   Thumb Code     0  startup_g32a1465.o(.text)
    PME_IRQHandler                           0x0000076d   Thumb Code     0  startup_g32a1465.o(.text)
    RMU_IRQHandler                           0x0000076d   Thumb Code     0  startup_g32a1465.o(.text)
    RTC_Seconds_IRQHandler                   0x0000076d   Thumb Code     0  startup_g32a1465.o(.text)
    Read_Collision_IRQHandler                0x0000076d   Thumb Code     0  startup_g32a1465.o(.text)
    Reserved100_IRQHandler                   0x0000076d   Thumb Code     0  startup_g32a1465.o(.text)
    Reserved103_IRQHandler                   0x0000076d   Thumb Code     0  startup_g32a1465.o(.text)
    Reserved106_IRQHandler                   0x0000076d   Thumb Code     0  startup_g32a1465.o(.text)
    Reserved107_IRQHandler                   0x0000076d   Thumb Code     0  startup_g32a1465.o(.text)
    Reserved110_IRQHandler                   0x0000076d   Thumb Code     0  startup_g32a1465.o(.text)
    Reserved112_IRQHandler                   0x0000076d   Thumb Code     0  startup_g32a1465.o(.text)
    Reserved113_IRQHandler                   0x0000076d   Thumb Code     0  startup_g32a1465.o(.text)
    Reserved114_IRQHandler                   0x0000076d   Thumb Code     0  startup_g32a1465.o(.text)
    Reserved45_IRQHandler                    0x0000076d   Thumb Code     0  startup_g32a1465.o(.text)
    Reserved46_IRQHandler                    0x0000076d   Thumb Code     0  startup_g32a1465.o(.text)
    Reserved48_IRQHandler                    0x0000076d   Thumb Code     0  startup_g32a1465.o(.text)
    Reserved50_IRQHandler                    0x0000076d   Thumb Code     0  startup_g32a1465.o(.text)
    Reserved52_IRQHandler                    0x0000076d   Thumb Code     0  startup_g32a1465.o(.text)
    Reserved53_IRQHandler                    0x0000076d   Thumb Code     0  startup_g32a1465.o(.text)
    Reserved54_IRQHandler                    0x0000076d   Thumb Code     0  startup_g32a1465.o(.text)
    Reserved58_IRQHandler                    0x0000076d   Thumb Code     0  startup_g32a1465.o(.text)
    Reserved59_IRQHandler                    0x0000076d   Thumb Code     0  startup_g32a1465.o(.text)
    Reserved69_IRQHandler                    0x0000076d   Thumb Code     0  startup_g32a1465.o(.text)
    Reserved70_IRQHandler                    0x0000076d   Thumb Code     0  startup_g32a1465.o(.text)
    Reserved71_IRQHandler                    0x0000076d   Thumb Code     0  startup_g32a1465.o(.text)
    Reserved72_IRQHandler                    0x0000076d   Thumb Code     0  startup_g32a1465.o(.text)
    Reserved81_IRQHandler                    0x0000076d   Thumb Code     0  startup_g32a1465.o(.text)
    Reserved82_IRQHandler                    0x0000076d   Thumb Code     0  startup_g32a1465.o(.text)
    Reserved83_IRQHandler                    0x0000076d   Thumb Code     0  startup_g32a1465.o(.text)
    Reserved86_IRQHandler                    0x0000076d   Thumb Code     0  startup_g32a1465.o(.text)
    Reserved87_IRQHandler                    0x0000076d   Thumb Code     0  startup_g32a1465.o(.text)
    Reserved88_IRQHandler                    0x0000076d   Thumb Code     0  startup_g32a1465.o(.text)
    Reserved89_IRQHandler                    0x0000076d   Thumb Code     0  startup_g32a1465.o(.text)
    Reserved90_IRQHandler                    0x0000076d   Thumb Code     0  startup_g32a1465.o(.text)
    Reserved91_IRQHandler                    0x0000076d   Thumb Code     0  startup_g32a1465.o(.text)
    Reserved92_IRQHandler                    0x0000076d   Thumb Code     0  startup_g32a1465.o(.text)
    Reserved93_IRQHandler                    0x0000076d   Thumb Code     0  startup_g32a1465.o(.text)
    Reserved99_IRQHandler                    0x0000076d   Thumb Code     0  startup_g32a1465.o(.text)
    SCG_IRQHandler                           0x0000076d   Thumb Code     0  startup_g32a1465.o(.text)
    SWI_IRQHandler                           0x0000076d   Thumb Code     0  startup_g32a1465.o(.text)
    WDT_EWDT_IRQHandler                      0x0000076d   Thumb Code     0  startup_g32a1465.o(.text)
    __aeabi_uldivmod                         0x0000078d   Thumb Code    98  uldiv.o(.text)
    __aeabi_memcpy                           0x000007ef   Thumb Code    36  memcpya.o(.text)
    __aeabi_memcpy4                          0x000007ef   Thumb Code     0  memcpya.o(.text)
    __aeabi_memcpy8                          0x000007ef   Thumb Code     0  memcpya.o(.text)
    __aeabi_memset                           0x00000813   Thumb Code    14  memseta.o(.text)
    __aeabi_memset4                          0x00000813   Thumb Code     0  memseta.o(.text)
    __aeabi_memset8                          0x00000813   Thumb Code     0  memseta.o(.text)
    __aeabi_memclr                           0x00000821   Thumb Code     4  memseta.o(.text)
    __aeabi_memclr4                          0x00000821   Thumb Code     0  memseta.o(.text)
    __aeabi_memclr8                          0x00000821   Thumb Code     0  memseta.o(.text)
    _memset$wrapper                          0x00000825   Thumb Code    18  memseta.o(.text)
    __aeabi_dmul                             0x00000837   Thumb Code   228  dmul.o(.text)
    __aeabi_f2d                              0x0000091b   Thumb Code    38  f2d.o(.text)
    __aeabi_uidiv                            0x00000941   Thumb Code     0  uidiv.o(.text)
    __aeabi_uidivmod                         0x00000941   Thumb Code    44  uidiv.o(.text)
    __aeabi_llsl                             0x0000096d   Thumb Code    30  llshl.o(.text)
    _ll_shift_l                              0x0000096d   Thumb Code     0  llshl.o(.text)
    __aeabi_llsr                             0x0000098b   Thumb Code    32  llushr.o(.text)
    _ll_ushift_r                             0x0000098b   Thumb Code     0  llushr.o(.text)
    __I$use$fp                               0x000009ab   Thumb Code     0  iusefp.o(.text)
    _double_round                            0x000009ab   Thumb Code    30  depilogue.o(.text)
    _double_epilogue                         0x000009c9   Thumb Code   156  depilogue.o(.text)
    __aeabi_dadd                             0x00000a65   Thumb Code   322  dadd.o(.text)
    __aeabi_dsub                             0x00000ba7   Thumb Code     6  dadd.o(.text)
    __aeabi_drsub                            0x00000bad   Thumb Code     6  dadd.o(.text)
    __aeabi_ddiv                             0x00000bb3   Thumb Code   222  ddiv.o(.text)
    __aeabi_d2ulz                            0x00000c91   Thumb Code    48  dfixul.o(.text)
    __aeabi_cdrcmple                         0x00000cc1   Thumb Code    48  cdrcmple.o(.text)
    __scatterload                            0x00000cf1   Thumb Code    28  init.o(.text)
    __scatterload_rt2                        0x00000cf1   Thumb Code     0  init.o(.text)
    __aeabi_lasr                             0x00000d15   Thumb Code    36  llsshr.o(.text)
    _ll_sshift_r                             0x00000d15   Thumb Code     0  llsshr.o(.text)
    __decompress                             0x00000d39   Thumb Code     0  __dczerorl2.o(.text)
    __decompress1                            0x00000d39   Thumb Code    86  __dczerorl2.o(.text)
    ADC_AutoCalibration                      0x00000d91   Thumb Code   280  g32a1xxx_adc.o(.text.ADC_AutoCalibration)
    ADC_ConfigConverter                      0x00000ead   Thumb Code   152  g32a1xxx_adc.o(.text.ADC_ConfigConverter)
    ADC_ConfigConverterStruct                0x00000f49   Thumb Code    20  g32a1xxx_adc.o(.text.ADC_ConfigConverterStruct)
    ADC_ConfigHwAverage                      0x00000f5d   Thumb Code    40  g32a1xxx_adc.o(.text.ADC_ConfigHwAverage)
    ADC_ConfigHwAverageStruct                0x00000f85   Thumb Code     6  g32a1xxx_adc.o(.text.ADC_ConfigHwAverageStruct)
    ADC_ConfigUserCalibration                0x00000f8d   Thumb Code    40  g32a1xxx_adc.o(.text.ADC_ConfigUserCalibration)
    ADC_ConfigUserCalibrationStruct          0x00000fb5   Thumb Code     8  g32a1xxx_adc.o(.text.ADC_ConfigUserCalibrationStruct)
    ADC_HW_ReadCalibrationActiveFlag         0x00000fbd   Thumb Code    10  g32a1xxx_adc.o(.text.ADC_HW_ReadCalibrationActiveFlag)
    ADC_HW_ReadClockDivide                   0x00000fc9   Thumb Code     8  g32a1xxx_adc.o(.text.ADC_HW_ReadClockDivide)
    ADC_HW_ReadHwAverageEnableFlag           0x00000fd1   Thumb Code    10  g32a1xxx_adc.o(.text.ADC_HW_ReadHwAverageEnableFlag)
    ADC_HW_ReadHwAverageMode                 0x00000fdd   Thumb Code    10  g32a1xxx_adc.o(.text.ADC_HW_ReadHwAverageMode)
    ADC_HW_ReadSampleTime                    0x00000fe9   Thumb Code     6  g32a1xxx_adc.o(.text.ADC_HW_ReadSampleTime)
    ADC_HW_ReadTriggerMode                   0x00000ff1   Thumb Code    10  g32a1xxx_adc.o(.text.ADC_HW_ReadTriggerMode)
    ADC_HW_SetCalibrationActiveFlag          0x00000ffd   Thumb Code    18  g32a1xxx_adc.o(.text.ADC_HW_SetCalibrationActiveFlag)
    ADC_HW_SetClockDivide                    0x00001011   Thumb Code    10  g32a1xxx_adc.o(.text.ADC_HW_SetClockDivide)
    ADC_HW_SetContinuousConvFlag             0x0000101d   Thumb Code    18  g32a1xxx_adc.o(.text.ADC_HW_SetContinuousConvFlag)
    ADC_HW_SetDMAEnableFlag                  0x00001031   Thumb Code    18  g32a1xxx_adc.o(.text.ADC_HW_SetDMAEnableFlag)
    ADC_HW_SetHwAverageEnableFlag            0x00001045   Thumb Code    18  g32a1xxx_adc.o(.text.ADC_HW_SetHwAverageEnableFlag)
    ADC_HW_SetHwAverageMode                  0x00001059   Thumb Code    14  g32a1xxx_adc.o(.text.ADC_HW_SetHwAverageMode)
    ADC_HW_SetInputClock                     0x00001069   Thumb Code    10  g32a1xxx_adc.o(.text.ADC_HW_SetInputClock)
    ADC_HW_SetPretriggerSelect               0x00001075   Thumb Code    50  g32a1xxx_adc.o(.text.ADC_HW_SetPretriggerSelect)
    ADC_HW_SetResolution                     0x000010a9   Thumb Code    10  g32a1xxx_adc.o(.text.ADC_HW_SetResolution)
    ADC_HW_SetSampleTime                     0x000010b5   Thumb Code    18  g32a1xxx_adc.o(.text.ADC_HW_SetSampleTime)
    ADC_HW_SetSupplyMonitoringEnableFlag     0x000010c9   Thumb Code    14  g32a1xxx_adc.o(.text.ADC_HW_SetSupplyMonitoringEnableFlag)
    ADC_HW_SetTriggerMode                    0x000010d9   Thumb Code    14  g32a1xxx_adc.o(.text.ADC_HW_SetTriggerMode)
    ADC_HW_SetTriggerSelect                  0x000010e9   Thumb Code    64  g32a1xxx_adc.o(.text.ADC_HW_SetTriggerSelect)
    ADC_HW_SetUserGainValue                  0x00001129   Thumb Code    80  g32a1xxx_adc.o(.text.ADC_HW_SetUserGainValue)
    ADC_HW_SetUserOffsetValue                0x00001179   Thumb Code     8  g32a1xxx_adc.o(.text.ADC_HW_SetUserOffsetValue)
    ADC_HW_SetVoltageReference               0x00001181   Thumb Code    14  g32a1xxx_adc.o(.text.ADC_HW_SetVoltageReference)
    ADC_Reset                                0x00001191   Thumb Code   152  g32a1xxx_adc.o(.text.ADC_Reset)
    ADC_SetSwPretrigger                      0x00001229   Thumb Code    72  g32a1xxx_adc.o(.text.ADC_SetSwPretrigger)
    ADC_init                                 0x00001271   Thumb Code   106  adc.o(.text.ADC_init)
    BTN_Init                                 0x000012dd   Thumb Code   126  board.o(.text.BTN_Init)
    BTN_InstallKey1Handler                   0x0000135d   Thumb Code    12  board.o(.text.BTN_InstallKey1Handler)
    BTN_IsrHandler                           0x00001369   Thumb Code    82  board.o(.text.BTN_IsrHandler)
    BusFault_Handler                         0x000013bd   Thumb Code     2  g32a1xxx_int.o(.text.BusFault_Handler)
    CAN0_Error_IRQHandler                    0x000013c1   Thumb Code    10  g32a1xxx_can.o(.text.CAN0_Error_IRQHandler)
    CAN0_ORed_0_15_MB_IRQHandler             0x000013cd   Thumb Code    10  g32a1xxx_can.o(.text.CAN0_ORed_0_15_MB_IRQHandler)
    CAN0_ORed_16_31_MB_IRQHandler            0x000013d9   Thumb Code    10  g32a1xxx_can.o(.text.CAN0_ORed_16_31_MB_IRQHandler)
    CAN0_ORed_IRQHandler                     0x000013e5   Thumb Code    10  g32a1xxx_can.o(.text.CAN0_ORed_IRQHandler)
    CAN0_Wake_Up_IRQHandler                  0x000013f1   Thumb Code     8  g32a1xxx_can.o(.text.CAN0_Wake_Up_IRQHandler)
    CAN1_Error_IRQHandler                    0x000013f9   Thumb Code    10  g32a1xxx_can.o(.text.CAN1_Error_IRQHandler)
    CAN1_ORed_0_15_MB_IRQHandler             0x00001405   Thumb Code    10  g32a1xxx_can.o(.text.CAN1_ORed_0_15_MB_IRQHandler)
    CAN1_ORed_16_31_MB_IRQHandler            0x00001411   Thumb Code    10  g32a1xxx_can.o(.text.CAN1_ORed_16_31_MB_IRQHandler)
    CAN1_ORed_IRQHandler                     0x0000141d   Thumb Code    10  g32a1xxx_can.o(.text.CAN1_ORed_IRQHandler)
    CAN2_Error_IRQHandler                    0x00001429   Thumb Code    10  g32a1xxx_can.o(.text.CAN2_Error_IRQHandler)
    CAN2_ORed_0_15_MB_IRQHandler             0x00001435   Thumb Code    10  g32a1xxx_can.o(.text.CAN2_ORed_0_15_MB_IRQHandler)
    CAN2_ORed_IRQHandler                     0x00001441   Thumb Code    10  g32a1xxx_can.o(.text.CAN2_ORed_IRQHandler)
    CAN_HW_ClearBusOffInterruptFlag          0x00001571   Thumb Code    18  g32a1xxx_can.o(.text.CAN_HW_ClearBusOffInterruptFlag)
    CAN_HW_ClearErrorInterruptFlag           0x00001585   Thumb Code    26  g32a1xxx_can.o(.text.CAN_HW_ClearErrorInterruptFlag)
    CAN_HW_ClearMbInterruptFlag              0x000015a1   Thumb Code    20  g32a1xxx_can.o(.text.CAN_HW_ClearMbInterruptFlag)
    CAN_HW_ClearWakeupByMatchFlag            0x000015b5   Thumb Code    14  g32a1xxx_can.o(.text.CAN_HW_ClearWakeupByMatchFlag)
    CAN_HW_ClearWakeupByTimeoutFlag          0x000015c5   Thumb Code    14  g32a1xxx_can.o(.text.CAN_HW_ClearWakeupByTimeoutFlag)
    CAN_HW_GetFdPayloadSize                  0x000015d5   Thumb Code    30  g32a1xxx_can.o(.text.CAN_HW_GetFdPayloadSize)
    CAN_HW_GetMbInterruptStatus              0x000015f5   Thumb Code    26  g32a1xxx_can.o(.text.CAN_HW_GetMbInterruptStatus)
    CAN_HW_GetMbRegion                       0x00001611   Thumb Code    48  g32a1xxx_can.o(.text.CAN_HW_GetMbRegion)
    CAN_HW_GetMbValues                       0x00001641   Thumb Code   134  g32a1xxx_can.o(.text.CAN_HW_GetMbValues)
    CAN_HW_GetRxFifoValues                   0x000016c9   Thumb Code    70  g32a1xxx_can.o(.text.CAN_HW_GetRxFifoValues)
    CAN_HW_GetWakeupByMatchFlag              0x00001711   Thumb Code    10  g32a1xxx_can.o(.text.CAN_HW_GetWakeupByMatchFlag)
    CAN_HW_GetWakeupByTimeoutFlag            0x0000171d   Thumb Code    10  g32a1xxx_can.o(.text.CAN_HW_GetWakeupByTimeoutFlag)
    CAN_HW_IsFdEnabled                       0x00001729   Thumb Code     8  g32a1xxx_can.o(.text.CAN_HW_IsFdEnabled)
    CAN_HW_IsPnEnabled                       0x00001731   Thumb Code     8  g32a1xxx_can.o(.text.CAN_HW_IsPnEnabled)
    CAN_HW_IsRxFifoEnabled                   0x00001739   Thumb Code     8  g32a1xxx_can.o(.text.CAN_HW_IsRxFifoEnabled)
    CAN_HW_LockRxMb                          0x00001741   Thumb Code    10  g32a1xxx_can.o(.text.CAN_HW_LockRxMb)
    CAN_HW_SetMbInterruptEnable              0x0000174d   Thumb Code    44  g32a1xxx_can.o(.text.CAN_HW_SetMbInterruptEnable)
    CAN_HW_UnlockRxMb                        0x00001779   Thumb Code     4  g32a1xxx_can.o(.text.CAN_HW_UnlockRxMb)
    CFGIO_HW_GetAllShifterErrorInterrupt     0x00001a69   Thumb Code     4  g32a1xxx_cfgio_common.o(.text.CFGIO_HW_GetAllShifterErrorInterrupt)
    CFGIO_HW_GetAllShifterErrorStatus        0x00001a6d   Thumb Code     4  g32a1xxx_cfgio_common.o(.text.CFGIO_HW_GetAllShifterErrorStatus)
    CFGIO_HW_GetAllShifterInterrupt          0x00001a71   Thumb Code     4  g32a1xxx_cfgio_common.o(.text.CFGIO_HW_GetAllShifterInterrupt)
    CFGIO_HW_GetAllShifterStatus             0x00001a75   Thumb Code     4  g32a1xxx_cfgio_common.o(.text.CFGIO_HW_GetAllShifterStatus)
    CFGIO_HW_GetAllTimerStatus               0x00001a79   Thumb Code     4  g32a1xxx_cfgio_common.o(.text.CFGIO_HW_GetAllTimerStatus)
    CFGIO_HW_GetTimerInterruptStates         0x00001a7d   Thumb Code     4  g32a1xxx_cfgio_common.o(.text.CFGIO_HW_GetTimerInterruptStates)
    CFGIO_IRQHandler                         0x00001a81   Thumb Code   136  g32a1xxx_cfgio_common.o(.text.CFGIO_IRQHandler)
    CFGTMR0_Ch0_Ch1_IRQHandler               0x00001b09   Thumb Code    12  g32a1xxx_cfgtmr.o(.text.CFGTMR0_Ch0_Ch1_IRQHandler)
    CFGTMR0_Ch2_Ch3_IRQHandler               0x00001b15   Thumb Code    12  g32a1xxx_cfgtmr.o(.text.CFGTMR0_Ch2_Ch3_IRQHandler)
    CFGTMR0_Ch4_Ch5_IRQHandler               0x00001b21   Thumb Code    12  g32a1xxx_cfgtmr.o(.text.CFGTMR0_Ch4_Ch5_IRQHandler)
    CFGTMR0_Ch6_Ch7_IRQHandler               0x00001b2d   Thumb Code    12  g32a1xxx_cfgtmr.o(.text.CFGTMR0_Ch6_Ch7_IRQHandler)
    CFGTMR1_Ch0_Ch1_IRQHandler               0x00001b39   Thumb Code    12  g32a1xxx_cfgtmr.o(.text.CFGTMR1_Ch0_Ch1_IRQHandler)
    CFGTMR1_Ch2_Ch3_IRQHandler               0x00001b45   Thumb Code    12  g32a1xxx_cfgtmr.o(.text.CFGTMR1_Ch2_Ch3_IRQHandler)
    CFGTMR1_Ch4_Ch5_IRQHandler               0x00001b51   Thumb Code    12  g32a1xxx_cfgtmr.o(.text.CFGTMR1_Ch4_Ch5_IRQHandler)
    CFGTMR1_Ch6_Ch7_IRQHandler               0x00001b5d   Thumb Code    12  g32a1xxx_cfgtmr.o(.text.CFGTMR1_Ch6_Ch7_IRQHandler)
    CFGTMR2_Ch0_Ch1_IRQHandler               0x00001b69   Thumb Code    12  g32a1xxx_cfgtmr.o(.text.CFGTMR2_Ch0_Ch1_IRQHandler)
    CFGTMR2_Ch2_Ch3_IRQHandler               0x00001b75   Thumb Code    12  g32a1xxx_cfgtmr.o(.text.CFGTMR2_Ch2_Ch3_IRQHandler)
    CFGTMR2_Ch4_Ch5_IRQHandler               0x00001b81   Thumb Code    12  g32a1xxx_cfgtmr.o(.text.CFGTMR2_Ch4_Ch5_IRQHandler)
    CFGTMR2_Ch6_Ch7_IRQHandler               0x00001b8d   Thumb Code    12  g32a1xxx_cfgtmr.o(.text.CFGTMR2_Ch6_Ch7_IRQHandler)
    CFGTMR3_Ch0_Ch1_IRQHandler               0x00001b99   Thumb Code    12  g32a1xxx_cfgtmr.o(.text.CFGTMR3_Ch0_Ch1_IRQHandler)
    CFGTMR3_Ch2_Ch3_IRQHandler               0x00001ba5   Thumb Code    12  g32a1xxx_cfgtmr.o(.text.CFGTMR3_Ch2_Ch3_IRQHandler)
    CFGTMR3_Ch4_Ch5_IRQHandler               0x00001bb1   Thumb Code    12  g32a1xxx_cfgtmr.o(.text.CFGTMR3_Ch4_Ch5_IRQHandler)
    CFGTMR3_Ch6_Ch7_IRQHandler               0x00001bbd   Thumb Code    12  g32a1xxx_cfgtmr.o(.text.CFGTMR3_Ch6_Ch7_IRQHandler)
    CFGTMR4_Ch0_Ch1_IRQHandler               0x00001bc9   Thumb Code    12  g32a1xxx_cfgtmr.o(.text.CFGTMR4_Ch0_Ch1_IRQHandler)
    CFGTMR4_Ch2_Ch3_IRQHandler               0x00001bd5   Thumb Code    12  g32a1xxx_cfgtmr.o(.text.CFGTMR4_Ch2_Ch3_IRQHandler)
    CFGTMR4_Ch4_Ch5_IRQHandler               0x00001be1   Thumb Code    12  g32a1xxx_cfgtmr.o(.text.CFGTMR4_Ch4_Ch5_IRQHandler)
    CFGTMR4_Ch6_Ch7_IRQHandler               0x00001bed   Thumb Code    12  g32a1xxx_cfgtmr.o(.text.CFGTMR4_Ch6_Ch7_IRQHandler)
    CFGTMR5_Ch0_Ch1_IRQHandler               0x00001bf9   Thumb Code    12  g32a1xxx_cfgtmr.o(.text.CFGTMR5_Ch0_Ch1_IRQHandler)
    CFGTMR5_Ch2_Ch3_IRQHandler               0x00001c05   Thumb Code    12  g32a1xxx_cfgtmr.o(.text.CFGTMR5_Ch2_Ch3_IRQHandler)
    CFGTMR5_Ch4_Ch5_IRQHandler               0x00001c11   Thumb Code    12  g32a1xxx_cfgtmr.o(.text.CFGTMR5_Ch4_Ch5_IRQHandler)
    CFGTMR5_Ch6_Ch7_IRQHandler               0x00001c1d   Thumb Code    12  g32a1xxx_cfgtmr.o(.text.CFGTMR5_Ch6_Ch7_IRQHandler)
    CFGTMR_ConfigSync                        0x00001f39   Thumb Code   262  g32a1xxx_cfgtmr.o(.text.CFGTMR_ConfigSync)
    CFGTMR_ConvertFreqToPeriodTicks          0x00002041   Thumb Code    28  g32a1xxx_cfgtmr.o(.text.CFGTMR_ConvertFreqToPeriodTicks)
    CFGTMR_HW_ClearChnEventFlag              0x0000205d   Thumb Code    16  g32a1xxx_cfgtmr.o(.text.CFGTMR_HW_ClearChnEventFlag)
    CFGTMR_HW_ClearTimerOverflow             0x0000206d   Thumb Code    12  g32a1xxx_cfgtmr.o(.text.CFGTMR_HW_ClearTimerOverflow)
    CFGTMR_HW_ConfigBdmMode                  0x00002079   Thumb Code    22  g32a1xxx_cfgtmr.o(.text.CFGTMR_HW_ConfigBdmMode)
    CFGTMR_HW_ConfigChnCountVal              0x00002091   Thumb Code    18  g32a1xxx_cfgtmr.o(.text.CFGTMR_HW_ConfigChnCountVal)
    CFGTMR_HW_ConfigChnEdgeLevel             0x000020a5   Thumb Code    26  g32a1xxx_cfgtmr.o(.text.CFGTMR_HW_ConfigChnEdgeLevel)
    CFGTMR_HW_ConfigChnFaultInputPolarityCmd 0x000020c1   Thumb Code   140  g32a1xxx_cfgtmr.o(.text.CFGTMR_HW_ConfigChnFaultInputPolarityCmd)
    CFGTMR_HW_ConfigChnMSnBAMode             0x0000214d   Thumb Code    26  g32a1xxx_cfgtmr.o(.text.CFGTMR_HW_ConfigChnMSnBAMode)
    CFGTMR_HW_ConfigChnOutputPolarityCmd     0x00002169   Thumb Code   196  g32a1xxx_cfgtmr.o(.text.CFGTMR_HW_ConfigChnOutputPolarityCmd)
    CFGTMR_HW_ConfigChnTriggerCmd            0x0000222d   Thumb Code   196  g32a1xxx_cfgtmr.o(.text.CFGTMR_HW_ConfigChnTriggerCmd)
    CFGTMR_HW_ConfigClockPs                  0x000022f1   Thumb Code    10  g32a1xxx_cfgtmr.o(.text.CFGTMR_HW_ConfigClockPs)
    CFGTMR_HW_ConfigClockSource              0x000022fd   Thumb Code    18  g32a1xxx_cfgtmr.o(.text.CFGTMR_HW_ConfigClockSource)
    CFGTMR_HW_ConfigCntinPwmSyncModeCmd      0x00002311   Thumb Code    22  g32a1xxx_cfgtmr.o(.text.CFGTMR_HW_ConfigCntinPwmSyncModeCmd)
    CFGTMR_HW_ConfigCounterHardwareSyncModeCmd 0x00002329   Thumb Code    18  g32a1xxx_cfgtmr.o(.text.CFGTMR_HW_ConfigCounterHardwareSyncModeCmd)
    CFGTMR_HW_ConfigCounterSoftwareSyncModeCmd 0x0000233d   Thumb Code    22  g32a1xxx_cfgtmr.o(.text.CFGTMR_HW_ConfigCounterSoftwareSyncModeCmd)
    CFGTMR_HW_ConfigCpwmsMode                0x00002355   Thumb Code    14  g32a1xxx_cfgtmr.o(.text.CFGTMR_HW_ConfigCpwmsMode)
    CFGTMR_HW_ConfigDeadtimeCount            0x00002365   Thumb Code    10  g32a1xxx_cfgtmr.o(.text.CFGTMR_HW_ConfigDeadtimeCount)
    CFGTMR_HW_ConfigDeadtimePrescale         0x00002371   Thumb Code    18  g32a1xxx_cfgtmr.o(.text.CFGTMR_HW_ConfigDeadtimePrescale)
    CFGTMR_HW_ConfigDualChnCombineCmd        0x00002385   Thumb Code   108  g32a1xxx_cfgtmr.o(.text.CFGTMR_HW_ConfigDualChnCombineCmd)
    CFGTMR_HW_ConfigDualChnCompCmd           0x000023f1   Thumb Code   108  g32a1xxx_cfgtmr.o(.text.CFGTMR_HW_ConfigDualChnCompCmd)
    CFGTMR_HW_ConfigDualChnDeadtimeCmd       0x0000245d   Thumb Code   108  g32a1xxx_cfgtmr.o(.text.CFGTMR_HW_ConfigDualChnDeadtimeCmd)
    CFGTMR_HW_ConfigDualChnFaultCmd          0x000024c9   Thumb Code   108  g32a1xxx_cfgtmr.o(.text.CFGTMR_HW_ConfigDualChnFaultCmd)
    CFGTMR_HW_ConfigDualChnMofCombineCmd     0x00002535   Thumb Code   108  g32a1xxx_cfgtmr.o(.text.CFGTMR_HW_ConfigDualChnMofCombineCmd)
    CFGTMR_HW_ConfigDualChnPwmSyncCmd        0x000025a1   Thumb Code   108  g32a1xxx_cfgtmr.o(.text.CFGTMR_HW_ConfigDualChnPwmSyncCmd)
    CFGTMR_HW_ConfigDualEdgeCaptureCmd       0x0000260d   Thumb Code   108  g32a1xxx_cfgtmr.o(.text.CFGTMR_HW_ConfigDualEdgeCaptureCmd)
    CFGTMR_HW_ConfigFaultControlMode         0x00002679   Thumb Code    10  g32a1xxx_cfgtmr.o(.text.CFGTMR_HW_ConfigFaultControlMode)
    CFGTMR_HW_ConfigFaultInputCmd            0x00002685   Thumb Code    76  g32a1xxx_cfgtmr.o(.text.CFGTMR_HW_ConfigFaultInputCmd)
    CFGTMR_HW_ConfigFaultInputFilterCmd      0x000026d1   Thumb Code    44  g32a1xxx_cfgtmr.o(.text.CFGTMR_HW_ConfigFaultInputFilterCmd)
    CFGTMR_HW_ConfigFaultInputFilterVal      0x0000271d   Thumb Code    10  g32a1xxx_cfgtmr.o(.text.CFGTMR_HW_ConfigFaultInputFilterVal)
    CFGTMR_HW_ConfigFaultInt                 0x00002729   Thumb Code    14  g32a1xxx_cfgtmr.o(.text.CFGTMR_HW_ConfigFaultInt)
    CFGTMR_HW_ConfigHardwareSyncTriggerSrc   0x00002739   Thumb Code    86  g32a1xxx_cfgtmr.o(.text.CFGTMR_HW_ConfigHardwareSyncTriggerSrc)
    CFGTMR_HW_ConfigHwTriggerSyncModeCmd     0x00002791   Thumb Code    16  g32a1xxx_cfgtmr.o(.text.CFGTMR_HW_ConfigHwTriggerSyncModeCmd)
    CFGTMR_HW_ConfigInitTriggerCmd           0x000027a1   Thumb Code    14  g32a1xxx_cfgtmr.o(.text.CFGTMR_HW_ConfigInitTriggerCmd)
    CFGTMR_HW_ConfigInvctrlHardwareSyncModeCmd 0x000027b1   Thumb Code    18  g32a1xxx_cfgtmr.o(.text.CFGTMR_HW_ConfigInvctrlHardwareSyncModeCmd)
    CFGTMR_HW_ConfigInvctrlPwmSyncModeCmd    0x000027c5   Thumb Code    22  g32a1xxx_cfgtmr.o(.text.CFGTMR_HW_ConfigInvctrlPwmSyncModeCmd)
    CFGTMR_HW_ConfigInvctrlSoftwareSyncModeCmd 0x000027dd   Thumb Code    18  g32a1xxx_cfgtmr.o(.text.CFGTMR_HW_ConfigInvctrlSoftwareSyncModeCmd)
    CFGTMR_HW_ConfigMaxLoadingCmd            0x000027f1   Thumb Code    14  g32a1xxx_cfgtmr.o(.text.CFGTMR_HW_ConfigMaxLoadingCmd)
    CFGTMR_HW_ConfigMinLoadingCmd            0x00002801   Thumb Code    12  g32a1xxx_cfgtmr.o(.text.CFGTMR_HW_ConfigMinLoadingCmd)
    CFGTMR_HW_ConfigMod                      0x0000280d   Thumb Code     4  g32a1xxx_cfgtmr.o(.text.CFGTMR_HW_ConfigMod)
    CFGTMR_HW_ConfigModCntinCvHardwareSyncModeCmd 0x00002811   Thumb Code    18  g32a1xxx_cfgtmr.o(.text.CFGTMR_HW_ConfigModCntinCvHardwareSyncModeCmd)
    CFGTMR_HW_ConfigModCntinCvSoftwareSyncModeCmd 0x00002825   Thumb Code    18  g32a1xxx_cfgtmr.o(.text.CFGTMR_HW_ConfigModCntinCvSoftwareSyncModeCmd)
    CFGTMR_HW_ConfigModule                   0x00002839   Thumb Code    22  g32a1xxx_cfgtmr.o(.text.CFGTMR_HW_ConfigModule)
    CFGTMR_HW_ConfigOutmaskHardwareSyncModeCmd 0x00002851   Thumb Code    18  g32a1xxx_cfgtmr.o(.text.CFGTMR_HW_ConfigOutmaskHardwareSyncModeCmd)
    CFGTMR_HW_ConfigOutmaskPwmSyncModeCmd    0x00002865   Thumb Code    14  g32a1xxx_cfgtmr.o(.text.CFGTMR_HW_ConfigOutmaskPwmSyncModeCmd)
    CFGTMR_HW_ConfigOutmaskSoftwareSyncModeCmd 0x00002875   Thumb Code    18  g32a1xxx_cfgtmr.o(.text.CFGTMR_HW_ConfigOutmaskSoftwareSyncModeCmd)
    CFGTMR_HW_ConfigPwmFaultBehavior         0x00002889   Thumb Code    14  g32a1xxx_cfgtmr.o(.text.CFGTMR_HW_ConfigPwmFaultBehavior)
    CFGTMR_HW_ConfigPwmSyncMode              0x00002899   Thumb Code    14  g32a1xxx_cfgtmr.o(.text.CFGTMR_HW_ConfigPwmSyncMode)
    CFGTMR_HW_ConfigPwmSyncModeCmd           0x000028a9   Thumb Code    18  g32a1xxx_cfgtmr.o(.text.CFGTMR_HW_ConfigPwmSyncModeCmd)
    CFGTMR_HW_ConfigSoftwareTriggerCmd       0x000028bd   Thumb Code    14  g32a1xxx_cfgtmr.o(.text.CFGTMR_HW_ConfigSoftwareTriggerCmd)
    CFGTMR_HW_ConfigSwoctrlHardwareSyncModeCmd 0x000028cd   Thumb Code    18  g32a1xxx_cfgtmr.o(.text.CFGTMR_HW_ConfigSwoctrlHardwareSyncModeCmd)
    CFGTMR_HW_ConfigSwoctrlPwmSyncModeCmd    0x000028e1   Thumb Code    22  g32a1xxx_cfgtmr.o(.text.CFGTMR_HW_ConfigSwoctrlPwmSyncModeCmd)
    CFGTMR_HW_ConfigSwoctrlSoftwareSyncModeCmd 0x000028f9   Thumb Code    18  g32a1xxx_cfgtmr.o(.text.CFGTMR_HW_ConfigSwoctrlSoftwareSyncModeCmd)
    CFGTMR_HW_ConfigTimerOverflowInt         0x0000290d   Thumb Code    14  g32a1xxx_cfgtmr.o(.text.CFGTMR_HW_ConfigTimerOverflowInt)
    CFGTMR_HW_ConfigWriteProtectionCmd       0x0000291d   Thumb Code    24  g32a1xxx_cfgtmr.o(.text.CFGTMR_HW_ConfigWriteProtectionCmd)
    CFGTMR_HW_Enable                         0x00002935   Thumb Code    12  g32a1xxx_cfgtmr.o(.text.CFGTMR_HW_Enable)
    CFGTMR_HW_EnablePwmChannelOutputs        0x00002941   Thumb Code    24  g32a1xxx_cfgtmr.o(.text.CFGTMR_HW_EnablePwmChannelOutputs)
    CFGTMR_HW_InitChnOutputCmd               0x00002979   Thumb Code    14  g32a1xxx_cfgtmr.o(.text.CFGTMR_HW_InitChnOutputCmd)
    CFGTMR_HW_InitCounterValue               0x00002989   Thumb Code     4  g32a1xxx_cfgtmr.o(.text.CFGTMR_HW_InitCounterValue)
    CFGTMR_HW_ReadChnCountVal                0x0000298d   Thumb Code    10  g32a1xxx_cfgtmr.o(.text.CFGTMR_HW_ReadChnCountVal)
    CFGTMR_HW_ReadChnEventHasOccurred        0x00002999   Thumb Code    12  g32a1xxx_cfgtmr.o(.text.CFGTMR_HW_ReadChnEventHasOccurred)
    CFGTMR_HW_ReadClockPs                    0x000029a5   Thumb Code     8  g32a1xxx_cfgtmr.o(.text.CFGTMR_HW_ReadClockPs)
    CFGTMR_HW_ReadClockSource                0x000029ad   Thumb Code     8  g32a1xxx_cfgtmr.o(.text.CFGTMR_HW_ReadClockSource)
    CFGTMR_HW_ReadCpwmsMode                  0x000029b5   Thumb Code     8  g32a1xxx_cfgtmr.o(.text.CFGTMR_HW_ReadCpwmsMode)
    CFGTMR_HW_ReadDualChnCombineCmd          0x000029bd   Thumb Code    28  g32a1xxx_cfgtmr.o(.text.CFGTMR_HW_ReadDualChnCombineCmd)
    CFGTMR_HW_ReadDualChnMofCombineCmd       0x000029e9   Thumb Code    64  g32a1xxx_cfgtmr.o(.text.CFGTMR_HW_ReadDualChnMofCombineCmd)
    CFGTMR_HW_ReadDualEdgeCaptureBit         0x00002a29   Thumb Code    28  g32a1xxx_cfgtmr.o(.text.CFGTMR_HW_ReadDualEdgeCaptureBit)
    CFGTMR_HW_ReadMod                        0x00002a55   Thumb Code     6  g32a1xxx_cfgtmr.o(.text.CFGTMR_HW_ReadMod)
    CFGTMR_HW_Reset                          0x00002a5d   Thumb Code   160  g32a1xxx_cfgtmr.o(.text.CFGTMR_HW_Reset)
    CFGTMR_Init                              0x00002b1d   Thumb Code   240  g32a1xxx_cfgtmr.o(.text.CFGTMR_Init)
    CFGTMR_InitPWM                           0x00002c0d   Thumb Code   384  g32a1xxx_cfgtmr.o(.text.CFGTMR_InitPWM)
    CFGTMR_ReadFrequency                     0x00002e41   Thumb Code    96  g32a1xxx_cfgtmr.o(.text.CFGTMR_ReadFrequency)
    CFGTMR_UpdatePwmChannel                  0x00002ea9   Thumb Code   266  g32a1xxx_cfgtmr.o(.text.CFGTMR_UpdatePwmChannel)
    CLOCK_SYS_ConfigModuleClock              0x000040dd   Thumb Code   168  g32a1xxx_clock.o(.text.CLOCK_SYS_ConfigModuleClock)
    CLOCK_SYS_Init                           0x00004195   Thumb Code    56  g32a1xxx_clock.o(.text.CLOCK_SYS_Init)
    CLOCK_SYS_ReadFreq                       0x000041cd   Thumb Code     8  g32a1xxx_clock.o(.text.CLOCK_SYS_ReadFreq)
    COM_Init                                 0x000041d5   Thumb Code   138  board.o(.text.COM_Init)
    CSEC_HW_GetCmdResult                     0x0000439d   Thumb Code   194  g32a1xxx_csec.o(.text.CSEC_HW_GetCmdResult)
    CSEC_HW_ReadCmdByte                      0x00004461   Thumb Code    56  g32a1xxx_csec.o(.text.CSEC_HW_ReadCmdByte)
    CSEC_HW_ReadCmdBytes                     0x00004499   Thumb Code   128  g32a1xxx_csec.o(.text.CSEC_HW_ReadCmdBytes)
    CSEC_HW_ReadCmdWord                      0x00004519   Thumb Code    16  g32a1xxx_csec.o(.text.CSEC_HW_ReadCmdWord)
    CSEC_HW_SetInterruptEnable               0x00004529   Thumb Code    20  g32a1xxx_csec.o(.text.CSEC_HW_SetInterruptEnable)
    CSEC_HW_WriteCmdByte                     0x0000453d   Thumb Code    78  g32a1xxx_csec.o(.text.CSEC_HW_WriteCmdByte)
    CSEC_HW_WriteCmdBytes                    0x0000458d   Thumb Code   126  g32a1xxx_csec.o(.text.CSEC_HW_WriteCmdBytes)
    CSEC_HW_WriteCmdHalfWord                 0x0000460d   Thumb Code    38  g32a1xxx_csec.o(.text.CSEC_HW_WriteCmdHalfWord)
    CSEC_HW_WriteCmdHeader                   0x00004635   Thumb Code    24  g32a1xxx_csec.o(.text.CSEC_HW_WriteCmdHeader)
    CSEC_HW_WriteCmdWords                    0x0000464d   Thumb Code    38  g32a1xxx_csec.o(.text.CSEC_HW_WriteCmdWords)
    DMA0_IRQHandler                          0x00004805   Thumb Code    10  g32a1xxx_dma.o(.text.DMA0_IRQHandler)
    DMA10_IRQHandler                         0x00004811   Thumb Code    10  g32a1xxx_dma.o(.text.DMA10_IRQHandler)
    DMA11_IRQHandler                         0x0000481d   Thumb Code    10  g32a1xxx_dma.o(.text.DMA11_IRQHandler)
    DMA12_IRQHandler                         0x00004829   Thumb Code    10  g32a1xxx_dma.o(.text.DMA12_IRQHandler)
    DMA13_IRQHandler                         0x00004835   Thumb Code    10  g32a1xxx_dma.o(.text.DMA13_IRQHandler)
    DMA14_IRQHandler                         0x00004841   Thumb Code    10  g32a1xxx_dma.o(.text.DMA14_IRQHandler)
    DMA15_IRQHandler                         0x0000484d   Thumb Code    10  g32a1xxx_dma.o(.text.DMA15_IRQHandler)
    DMA1_IRQHandler                          0x00004859   Thumb Code    10  g32a1xxx_dma.o(.text.DMA1_IRQHandler)
    DMA2_IRQHandler                          0x00004865   Thumb Code    10  g32a1xxx_dma.o(.text.DMA2_IRQHandler)
    DMA3_IRQHandler                          0x00004871   Thumb Code    10  g32a1xxx_dma.o(.text.DMA3_IRQHandler)
    DMA4_IRQHandler                          0x0000487d   Thumb Code    10  g32a1xxx_dma.o(.text.DMA4_IRQHandler)
    DMA5_IRQHandler                          0x00004889   Thumb Code    10  g32a1xxx_dma.o(.text.DMA5_IRQHandler)
    DMA6_IRQHandler                          0x00004895   Thumb Code    10  g32a1xxx_dma.o(.text.DMA6_IRQHandler)
    DMA7_IRQHandler                          0x000048a1   Thumb Code    10  g32a1xxx_dma.o(.text.DMA7_IRQHandler)
    DMA8_IRQHandler                          0x000048ad   Thumb Code    10  g32a1xxx_dma.o(.text.DMA8_IRQHandler)
    DMA9_IRQHandler                          0x000048b9   Thumb Code    10  g32a1xxx_dma.o(.text.DMA9_IRQHandler)
    DMACHM_HW_ConfigChannelCmd               0x000048c5   Thumb Code    14  g32a1xxx_dma.o(.text.DMACHM_HW_ConfigChannelCmd)
    DMACHM_HW_ConfigChannelSource            0x000048d5   Thumb Code    16  g32a1xxx_dma.o(.text.DMACHM_HW_ConfigChannelSource)
    DMACHM_HW_ConfigChannelTrigger           0x000048e5   Thumb Code    14  g32a1xxx_dma.o(.text.DMACHM_HW_ConfigChannelTrigger)
    DMA_ClearIntStatus                       0x000048f5   Thumb Code    32  g32a1xxx_dma.o(.text.DMA_ClearIntStatus)
    DMA_ConfigChannelRequestAndTrigger       0x00004915   Thumb Code    64  g32a1xxx_dma.o(.text.DMA_ConfigChannelRequestAndTrigger)
    DMA_ConfigMultiBlockTransfer             0x00004955   Thumb Code    62  g32a1xxx_dma.o(.text.DMA_ConfigMultiBlockTransfer)
    DMA_ConfigSingleBlockTransfer            0x00004995   Thumb Code   244  g32a1xxx_dma.o(.text.DMA_ConfigSingleBlockTransfer)
    DMA_ConfigSrcLastAddrAdjustment          0x00004a89   Thumb Code    22  g32a1xxx_dma.o(.text.DMA_ConfigSrcLastAddrAdjustment)
    DMA_ErrorIRQHandler                      0x00004aa1   Thumb Code    76  g32a1xxx_dma.o(.text.DMA_ErrorIRQHandler)
    DMA_Error_IRQHandler                     0x00004aed   Thumb Code    44  g32a1xxx_dma.o(.text.DMA_Error_IRQHandler)
    DMA_HW_ClearDoneStatusFlag               0x00004b19   Thumb Code     4  g32a1xxx_dma.o(.text.DMA_HW_ClearDoneStatusFlag)
    DMA_HW_ClearErrorIntStatusFlag           0x00004b1d   Thumb Code     4  g32a1xxx_dma.o(.text.DMA_HW_ClearErrorIntStatusFlag)
    DMA_HW_ClearIntStatusFlag                0x00004b21   Thumb Code     4  g32a1xxx_dma.o(.text.DMA_HW_ClearIntStatusFlag)
    DMA_HW_ConfigDmaRequestCmd               0x00004b25   Thumb Code    10  g32a1xxx_dma.o(.text.DMA_HW_ConfigDmaRequestCmd)
    DMA_HW_ConfigMinorLoopMappingCmd         0x00004b31   Thumb Code    14  g32a1xxx_dma.o(.text.DMA_HW_ConfigMinorLoopMappingCmd)
    DMA_HW_ReadErrorIntStatusFlag            0x00004b41   Thumb Code     4  g32a1xxx_dma.o(.text.DMA_HW_ReadErrorIntStatusFlag)
    DMA_HW_TCDClearReg                       0x00004b45   Thumb Code    38  g32a1xxx_dma.o(.text.DMA_HW_TCDClearReg)
    DMA_HW_TCDConfigAttribute                0x00004b6d   Thumb Code    86  g32a1xxx_dma.o(.text.DMA_HW_TCDConfigAttribute)
    DMA_HW_TCDConfigDestAddr                 0x00004bc5   Thumb Code    12  g32a1xxx_dma.o(.text.DMA_HW_TCDConfigDestAddr)
    DMA_HW_TCDConfigDestOffset               0x00004bd1   Thumb Code    12  g32a1xxx_dma.o(.text.DMA_HW_TCDConfigDestOffset)
    DMA_HW_TCDConfigDisableDmaRequestAfterTCDDoneCmd 0x00004bdd   Thumb Code    22  g32a1xxx_dma.o(.text.DMA_HW_TCDConfigDisableDmaRequestAfterTCDDoneCmd)
    DMA_HW_TCDConfigMajorCompleteIntCmd      0x00004bf5   Thumb Code    22  g32a1xxx_dma.o(.text.DMA_HW_TCDConfigMajorCompleteIntCmd)
    DMA_HW_TCDConfigMajorCount               0x00004c0d   Thumb Code    78  g32a1xxx_dma.o(.text.DMA_HW_TCDConfigMajorCount)
    DMA_HW_TCDConfigNbytes                   0x00004c5d   Thumb Code    66  g32a1xxx_dma.o(.text.DMA_HW_TCDConfigNbytes)
    DMA_HW_TCDConfigSrcAddr                  0x00004ca1   Thumb Code    12  g32a1xxx_dma.o(.text.DMA_HW_TCDConfigSrcAddr)
    DMA_HW_TCDConfigSrcLastAdjust            0x00004cad   Thumb Code    12  g32a1xxx_dma.o(.text.DMA_HW_TCDConfigSrcLastAdjust)
    DMA_HW_TCDConfigSrcOffset                0x00004cb9   Thumb Code    12  g32a1xxx_dma.o(.text.DMA_HW_TCDConfigSrcOffset)
    DMA_IRQHandler                           0x00004cc5   Thumb Code    38  g32a1xxx_dma.o(.text.DMA_IRQHandler)
    DMA_StartChannel                         0x00004ced   Thumb Code    24  g32a1xxx_dma.o(.text.DMA_StartChannel)
    DMA_StopChannel                          0x00004d05   Thumb Code    24  g32a1xxx_dma.o(.text.DMA_StopChannel)
    DebugMon_Handler                         0x00004d1d   Thumb Code     2  g32a1xxx_int.o(.text.DebugMon_Handler)
    DelayInit                                0x00004d21   Thumb Code    62  systick.o(.text.DelayInit)
    FLASH_IRQHandler                         0x00004d61   Thumb Code   108  g32a1xxx_csec.o(.text.FLASH_IRQHandler)
    HardFault_Handler                        0x00004dcd   Thumb Code     2  g32a1xxx_int.o(.text.HardFault_Handler)
    INT_SYS_DisableIRQ                       0x00004dd1   Thumb Code    26  g32a1xxx_interrupt.o(.text.INT_SYS_DisableIRQ)
    INT_SYS_DisableIRQGlobal                 0x00004ded   Thumb Code    18  g32a1xxx_interrupt.o(.text.INT_SYS_DisableIRQGlobal)
    INT_SYS_EnableIRQ                        0x00004e01   Thumb Code    26  g32a1xxx_interrupt.o(.text.INT_SYS_EnableIRQ)
    INT_SYS_EnableIRQGlobal                  0x00004e1d   Thumb Code    28  g32a1xxx_interrupt.o(.text.INT_SYS_EnableIRQGlobal)
    INT_SYS_InstallHandler                   0x00004e39   Thumb Code    72  g32a1xxx_interrupt.o(.text.INT_SYS_InstallHandler)
    LED_Init                                 0x00004e81   Thumb Code   120  board.o(.text.LED_Init)
    LED_Off                                  0x00004ef9   Thumb Code    48  board.o(.text.LED_Off)
    LED_On                                   0x00004f29   Thumb Code    48  board.o(.text.LED_On)
    LPI2C_HW_ClearMasterArbitrationLostEvent 0x00004fad   Thumb Code    10  g32a1xxx_lpi2c.o(.text.LPI2C_HW_ClearMasterArbitrationLostEvent)
    LPI2C_HW_ClearMasterFIFOErrorEvent       0x00004fb9   Thumb Code    10  g32a1xxx_lpi2c.o(.text.LPI2C_HW_ClearMasterFIFOErrorEvent)
    LPI2C_HW_ClearMasterNACKDetectEvent      0x00004fc5   Thumb Code    10  g32a1xxx_lpi2c.o(.text.LPI2C_HW_ClearMasterNACKDetectEvent)
    LPI2C_HW_ClearSlaveBitErrorEvent         0x00004fd1   Thumb Code    14  g32a1xxx_lpi2c.o(.text.LPI2C_HW_ClearSlaveBitErrorEvent)
    LPI2C_HW_ClearSlaveRepeatedStartEvent    0x00004fe1   Thumb Code    14  g32a1xxx_lpi2c.o(.text.LPI2C_HW_ClearSlaveRepeatedStartEvent)
    LPI2C_HW_ClearSlaveSTOPDetectEvent       0x00004ff1   Thumb Code    14  g32a1xxx_lpi2c.o(.text.LPI2C_HW_ClearSlaveSTOPDetectEvent)
    LPI2C_HW_ConfigMasterEnable              0x00005001   Thumb Code    12  g32a1xxx_lpi2c.o(.text.LPI2C_HW_ConfigMasterEnable)
    LPI2C_HW_ConfigMasterInt                 0x0000500d   Thumb Code    20  g32a1xxx_lpi2c.o(.text.LPI2C_HW_ConfigMasterInt)
    LPI2C_HW_ConfigMasterNACKMode            0x00005021   Thumb Code    18  g32a1xxx_lpi2c.o(.text.LPI2C_HW_ConfigMasterNACKMode)
    LPI2C_HW_ConfigMasterPinMode             0x00005035   Thumb Code    18  g32a1xxx_lpi2c.o(.text.LPI2C_HW_ConfigMasterPinMode)
    LPI2C_HW_ConfigMasterPrescaler           0x00005049   Thumb Code    10  g32a1xxx_lpi2c.o(.text.LPI2C_HW_ConfigMasterPrescaler)
    LPI2C_HW_ConfigMasterRxDMA               0x00005055   Thumb Code    14  g32a1xxx_lpi2c.o(.text.LPI2C_HW_ConfigMasterRxDMA)
    LPI2C_HW_ConfigMasterRxFIFOWatermark     0x00005065   Thumb Code    18  g32a1xxx_lpi2c.o(.text.LPI2C_HW_ConfigMasterRxFIFOWatermark)
    LPI2C_HW_ConfigMasterSCLHighPeriod       0x00005079   Thumb Code    18  g32a1xxx_lpi2c.o(.text.LPI2C_HW_ConfigMasterSCLHighPeriod)
    LPI2C_HW_ConfigMasterSCLLowPeriod        0x0000508d   Thumb Code    10  g32a1xxx_lpi2c.o(.text.LPI2C_HW_ConfigMasterSCLLowPeriod)
    LPI2C_HW_ConfigMasterSDAHoldTime         0x00005099   Thumb Code    18  g32a1xxx_lpi2c.o(.text.LPI2C_HW_ConfigMasterSDAHoldTime)
    LPI2C_HW_ConfigMasterSetupHoldDelay      0x000050ad   Thumb Code    18  g32a1xxx_lpi2c.o(.text.LPI2C_HW_ConfigMasterSetupHoldDelay)
    LPI2C_HW_ConfigMasterSoftwareReset       0x000050c1   Thumb Code    14  g32a1xxx_lpi2c.o(.text.LPI2C_HW_ConfigMasterSoftwareReset)
    LPI2C_HW_ConfigMasterTxDMA               0x000050d1   Thumb Code    12  g32a1xxx_lpi2c.o(.text.LPI2C_HW_ConfigMasterTxDMA)
    LPI2C_HW_ConfigSlaveEnable               0x000050dd   Thumb Code    16  g32a1xxx_lpi2c.o(.text.LPI2C_HW_ConfigSlaveEnable)
    LPI2C_HW_ConfigSlaveInt                  0x000050ed   Thumb Code    22  g32a1xxx_lpi2c.o(.text.LPI2C_HW_ConfigSlaveInt)
    LPI2C_HW_ConfigSlaveRxDMA                0x00005105   Thumb Code    18  g32a1xxx_lpi2c.o(.text.LPI2C_HW_ConfigSlaveRxDMA)
    LPI2C_HW_ConfigSlaveSoftwareReset        0x00005119   Thumb Code    18  g32a1xxx_lpi2c.o(.text.LPI2C_HW_ConfigSlaveSoftwareReset)
    LPI2C_HW_ConfigSlaveTxDMA                0x0000512d   Thumb Code    16  g32a1xxx_lpi2c.o(.text.LPI2C_HW_ConfigSlaveTxDMA)
    LPI2C_HW_Init                            0x0000513d   Thumb Code    28  g32a1xxx_lpi2c.o(.text.LPI2C_HW_Init)
    LPI2C_HW_MasterTransmitCmdData           0x00005159   Thumb Code     8  g32a1xxx_lpi2c.o(.text.LPI2C_HW_MasterTransmitCmdData)
    LPI2C_HW_ReadMasterArbitrationLostEvent  0x00005161   Thumb Code     8  g32a1xxx_lpi2c.o(.text.LPI2C_HW_ReadMasterArbitrationLostEvent)
    LPI2C_HW_ReadMasterFIFOErrorEvent        0x00005169   Thumb Code     8  g32a1xxx_lpi2c.o(.text.LPI2C_HW_ReadMasterFIFOErrorEvent)
    LPI2C_HW_ReadMasterNACKDetectEvent       0x00005171   Thumb Code     8  g32a1xxx_lpi2c.o(.text.LPI2C_HW_ReadMasterNACKDetectEvent)
    LPI2C_HW_ReadMasterReceiveDataReadyEvent 0x00005179   Thumb Code     8  g32a1xxx_lpi2c.o(.text.LPI2C_HW_ReadMasterReceiveDataReadyEvent)
    LPI2C_HW_ReadMasterRxData                0x00005181   Thumb Code     6  g32a1xxx_lpi2c.o(.text.LPI2C_HW_ReadMasterRxData)
    LPI2C_HW_ReadMasterRxFIFOCount           0x00005189   Thumb Code     8  g32a1xxx_lpi2c.o(.text.LPI2C_HW_ReadMasterRxFIFOCount)
    LPI2C_HW_ReadMasterRxFIFOWatermark       0x00005191   Thumb Code     8  g32a1xxx_lpi2c.o(.text.LPI2C_HW_ReadMasterRxFIFOWatermark)
    LPI2C_HW_ReadMasterTransmitDataRequestEvent 0x00005199   Thumb Code     8  g32a1xxx_lpi2c.o(.text.LPI2C_HW_ReadMasterTransmitDataRequestEvent)
    LPI2C_HW_ReadMasterTxFIFOCount           0x000051a1   Thumb Code     8  g32a1xxx_lpi2c.o(.text.LPI2C_HW_ReadMasterTxFIFOCount)
    LPI2C_HW_ReadMasterTxFIFOSize            0x000051a9   Thumb Code    16  g32a1xxx_lpi2c.o(.text.LPI2C_HW_ReadMasterTxFIFOSize)
    LPI2C_HW_ReadSlaveAddressValidEvent      0x000051b9   Thumb Code    10  g32a1xxx_lpi2c.o(.text.LPI2C_HW_ReadSlaveAddressValidEvent)
    LPI2C_HW_ReadSlaveBitErrorEvent          0x000051c5   Thumb Code    10  g32a1xxx_lpi2c.o(.text.LPI2C_HW_ReadSlaveBitErrorEvent)
    LPI2C_HW_ReadSlaveInt                    0x000051d1   Thumb Code    12  g32a1xxx_lpi2c.o(.text.LPI2C_HW_ReadSlaveInt)
    LPI2C_HW_ReadSlaveReceiveDataEvent       0x000051dd   Thumb Code    10  g32a1xxx_lpi2c.o(.text.LPI2C_HW_ReadSlaveReceiveDataEvent)
    LPI2C_HW_ReadSlaveReceivedAddr           0x000051e9   Thumb Code    10  g32a1xxx_lpi2c.o(.text.LPI2C_HW_ReadSlaveReceivedAddr)
    LPI2C_HW_ReadSlaveRepeatedStartEvent     0x000051f5   Thumb Code    10  g32a1xxx_lpi2c.o(.text.LPI2C_HW_ReadSlaveRepeatedStartEvent)
    LPI2C_HW_ReadSlaveSTOPDetectEvent        0x00005201   Thumb Code    10  g32a1xxx_lpi2c.o(.text.LPI2C_HW_ReadSlaveSTOPDetectEvent)
    LPI2C_HW_ReadSlaveTransmitDataEvent      0x0000520d   Thumb Code    10  g32a1xxx_lpi2c.o(.text.LPI2C_HW_ReadSlaveTransmitDataEvent)
    LPI2C_HW_ResetMasterRxFIFO               0x00005219   Thumb Code    10  g32a1xxx_lpi2c.o(.text.LPI2C_HW_ResetMasterRxFIFO)
    LPI2C_HW_ResetMasterTxFIFO               0x00005225   Thumb Code    10  g32a1xxx_lpi2c.o(.text.LPI2C_HW_ResetMasterTxFIFO)
    LPI2C_HW_RxSlaveData                     0x00005231   Thumb Code     8  g32a1xxx_lpi2c.o(.text.LPI2C_HW_RxSlaveData)
    LPI2C_HW_TxSlaveData                     0x00005239   Thumb Code     6  g32a1xxx_lpi2c.o(.text.LPI2C_HW_TxSlaveData)
    LPI2C_MasterIRQHandler                   0x000053d1   Thumb Code   258  g32a1xxx_lpi2c.o(.text.LPI2C_MasterIRQHandler)
    LPI2C_MasterSetBaudrate                  0x000055ed   Thumb Code   264  g32a1xxx_lpi2c.o(.text.LPI2C_MasterSetBaudrate)
    LPI2C_MasterSetSlaveAddr                 0x000056f5   Thumb Code    26  g32a1xxx_lpi2c.o(.text.LPI2C_MasterSetSlaveAddr)
    LPI2C_Master_IRQHandler                  0x00005711   Thumb Code    10  g32a1xxx_lpi2c.o(.text.LPI2C_Master_IRQHandler)
    LPI2C_SlaveIRQHandler                    0x000058a1   Thumb Code   212  g32a1xxx_lpi2c.o(.text.LPI2C_SlaveIRQHandler)
    LPI2C_Slave_IRQHandler                   0x000059f1   Thumb Code    10  g32a1xxx_lpi2c.o(.text.LPI2C_Slave_IRQHandler)
    LPITMR_ChannelInit                       0x000059fd   Thumb Code   204  g32a1xxx_lpitmr.o(.text.LPITMR_ChannelInit)
    LPITMR_ClearInterruptFlagTimerChannels   0x00005ac9   Thumb Code    22  g32a1xxx_lpitmr.o(.text.LPITMR_ClearInterruptFlagTimerChannels)
    LPITMR_ConfigTimerPeriodByCount          0x00005ae1   Thumb Code    22  g32a1xxx_lpitmr.o(.text.LPITMR_ConfigTimerPeriodByCount)
    LPITMR_ConfigTimerPeriodByUs             0x00005af9   Thumb Code   150  g32a1xxx_lpitmr.o(.text.LPITMR_ConfigTimerPeriodByUs)
    LPITMR_DeInit                            0x00005b91   Thumb Code    22  g32a1xxx_lpitmr.o(.text.LPITMR_DeInit)
    LPITMR_HW_ClearInterruptFlagTimerChannels 0x00005ba9   Thumb Code     6  g32a1xxx_lpitmr.o(.text.LPITMR_HW_ClearInterruptFlagTimerChannels)
    LPITMR_HW_ConfigReloadOnTriggerCmd       0x00005bb1   Thumb Code    20  g32a1xxx_lpitmr.o(.text.LPITMR_HW_ConfigReloadOnTriggerCmd)
    LPITMR_HW_ConfigStartOnTriggerCmd        0x00005bc5   Thumb Code    20  g32a1xxx_lpitmr.o(.text.LPITMR_HW_ConfigStartOnTriggerCmd)
    LPITMR_HW_ConfigStopOnInterruptCmd       0x00005bd9   Thumb Code    20  g32a1xxx_lpitmr.o(.text.LPITMR_HW_ConfigStopOnInterruptCmd)
    LPITMR_HW_ConfigTimerChannelChainCmd     0x00005bed   Thumb Code    20  g32a1xxx_lpitmr.o(.text.LPITMR_HW_ConfigTimerChannelChainCmd)
    LPITMR_HW_ConfigTimerChannelModeCmd      0x00005c01   Thumb Code    26  g32a1xxx_lpitmr.o(.text.LPITMR_HW_ConfigTimerChannelModeCmd)
    LPITMR_HW_ConfigTimerPeriodByCount       0x00005c1d   Thumb Code     8  g32a1xxx_lpitmr.o(.text.LPITMR_HW_ConfigTimerPeriodByCount)
    LPITMR_HW_ConfigTimerRunInDebugCmd       0x00005c25   Thumb Code    16  g32a1xxx_lpitmr.o(.text.LPITMR_HW_ConfigTimerRunInDebugCmd)
    LPITMR_HW_ConfigTimerRunInDozeCmd        0x00005c35   Thumb Code    16  g32a1xxx_lpitmr.o(.text.LPITMR_HW_ConfigTimerRunInDozeCmd)
    LPITMR_HW_ConfigTriggerSelectCmd         0x00005c45   Thumb Code    26  g32a1xxx_lpitmr.o(.text.LPITMR_HW_ConfigTriggerSelectCmd)
    LPITMR_HW_ConfigTriggerSourceCmd         0x00005c61   Thumb Code    26  g32a1xxx_lpitmr.o(.text.LPITMR_HW_ConfigTriggerSourceCmd)
    LPITMR_HW_Disable                        0x00005c7d   Thumb Code    10  g32a1xxx_lpitmr.o(.text.LPITMR_HW_Disable)
    LPITMR_HW_DisableInterruptTimerChannels  0x00005c89   Thumb Code    10  g32a1xxx_lpitmr.o(.text.LPITMR_HW_DisableInterruptTimerChannels)
    LPITMR_HW_Enable                         0x00005c95   Thumb Code    38  g32a1xxx_lpitmr.o(.text.LPITMR_HW_Enable)
    LPITMR_HW_EnableInterruptTimerChannels   0x00005cbd   Thumb Code     8  g32a1xxx_lpitmr.o(.text.LPITMR_HW_EnableInterruptTimerChannels)
    LPITMR_HW_ReadInterruptFlagTimerChannels 0x00005cc5   Thumb Code     6  g32a1xxx_lpitmr.o(.text.LPITMR_HW_ReadInterruptFlagTimerChannels)
    LPITMR_HW_ReadTimerChannelModeCmd        0x00005ccd   Thumb Code    20  g32a1xxx_lpitmr.o(.text.LPITMR_HW_ReadTimerChannelModeCmd)
    LPITMR_HW_Reset                          0x00005ce1   Thumb Code    46  g32a1xxx_lpitmr.o(.text.LPITMR_HW_Reset)
    LPITMR_HW_StartTimerChannels             0x00005d11   Thumb Code     8  g32a1xxx_lpitmr.o(.text.LPITMR_HW_StartTimerChannels)
    LPITMR_Init                              0x00005d19   Thumb Code    96  g32a1xxx_lpitmr.o(.text.LPITMR_Init)
    LPITMR_Initialize                        0x00005d79   Thumb Code    70  tim.o(.text.LPITMR_Initialize)
    LPITMR_Irq                               0x00005dc1   Thumb Code    32  tim.o(.text.LPITMR_Irq)
    LPITMR_ReadInterruptFlagTimerChannels    0x00005df5   Thumb Code    22  g32a1xxx_lpitmr.o(.text.LPITMR_ReadInterruptFlagTimerChannels)
    LPITMR_StartTimerChannels                0x00005e0d   Thumb Code    22  g32a1xxx_lpitmr.o(.text.LPITMR_StartTimerChannels)
    LPSPI0_IRQHandler                        0x00005e25   Thumb Code    10  g32a1xxx_lpspi.o(.text.LPSPI0_IRQHandler)
    LPSPI1_IRQHandler                        0x00005e31   Thumb Code    10  g32a1xxx_lpspi.o(.text.LPSPI1_IRQHandler)
    LPSPI2_IRQHandler                        0x00005e3d   Thumb Code    10  g32a1xxx_lpspi.o(.text.LPSPI2_IRQHandler)
    LPSPI_HW_ClearContCBit                   0x00005f2d   Thumb Code    10  g32a1xxx_lpspi.o(.text.LPSPI_HW_ClearContCBit)
    LPSPI_HW_ClearStatusFlag                 0x00005f39   Thumb Code    24  g32a1xxx_lpspi.o(.text.LPSPI_HW_ClearStatusFlag)
    LPSPI_HW_ConfigFlushFifoCmd              0x00005f51   Thumb Code    26  g32a1xxx_lpspi.o(.text.LPSPI_HW_ConfigFlushFifoCmd)
    LPSPI_HW_ConfigIntMode                   0x00005f6d   Thumb Code    24  g32a1xxx_lpspi.o(.text.LPSPI_HW_ConfigIntMode)
    LPSPI_HW_ConfigRxDmaCmd                  0x00005f85   Thumb Code    14  g32a1xxx_lpspi.o(.text.LPSPI_HW_ConfigRxDmaCmd)
    LPSPI_HW_ConfigTxDmaCmd                  0x00005f95   Thumb Code    12  g32a1xxx_lpspi.o(.text.LPSPI_HW_ConfigTxDmaCmd)
    LPSPI_HW_GetStatusFlag                   0x00005fa1   Thumb Code    12  g32a1xxx_lpspi.o(.text.LPSPI_HW_GetStatusFlag)
    LPSPI_HW_IsMaster                        0x00005fad   Thumb Code     8  g32a1xxx_lpspi.o(.text.LPSPI_HW_IsMaster)
    LPSPI_HW_ReadData                        0x00005fb5   Thumb Code     4  g32a1xxx_lpspi.o(.text.LPSPI_HW_ReadData)
    LPSPI_HW_ReadRxCount                     0x00005fb9   Thumb Code     8  g32a1xxx_lpspi.o(.text.LPSPI_HW_ReadRxCount)
    LPSPI_HW_ReadTxCount                     0x00005fc1   Thumb Code     8  g32a1xxx_lpspi.o(.text.LPSPI_HW_ReadTxCount)
    LPSPI_HW_WriteData                       0x00005fc9   Thumb Code     4  g32a1xxx_lpspi.o(.text.LPSPI_HW_WriteData)
    LPSPI_IRQHandler                         0x00005fcd   Thumb Code    44  g32a1xxx_lpspi.o(.text.LPSPI_IRQHandler)
    LPSPI_MasterIRQHandler                   0x000060b1   Thumb Code   208  g32a1xxx_lpspi.o(.text.LPSPI_MasterIRQHandler)
    LPSPI_SlaveIRQHandler                    0x0000628d   Thumb Code   228  g32a1xxx_lpspi.o(.text.LPSPI_SlaveIRQHandler)
    LPUART0_RxTx_IRQHandler                  0x00006371   Thumb Code    10  g32a1xxx_lpuart.o(.text.LPUART0_RxTx_IRQHandler)
    LPUART1_RxTx_IRQHandler                  0x0000637d   Thumb Code    10  g32a1xxx_lpuart.o(.text.LPUART1_RxTx_IRQHandler)
    LPUART2_RxTx_IRQHandler                  0x00006389   Thumb Code    10  g32a1xxx_lpuart.o(.text.LPUART2_RxTx_IRQHandler)
    LPUART_ErrorIrqHandler                   0x00006395   Thumb Code   256  g32a1xxx_lpuart.o(.text.LPUART_ErrorIrqHandler)
    LPUART_HW_ClearErrFlags                  0x00006549   Thumb Code    20  g32a1xxx_lpuart.o(.text.LPUART_HW_ClearErrFlags)
    LPUART_HW_DisableErrInterrupts           0x0000655d   Thumb Code    42  g32a1xxx_lpuart.o(.text.LPUART_HW_DisableErrInterrupts)
    LPUART_HW_DisableIntMode                 0x00006589   Thumb Code    72  g32a1xxx_lpuart.o(.text.LPUART_HW_DisableIntMode)
    LPUART_HW_DisableRx                      0x000065d1   Thumb Code    16  g32a1xxx_lpuart.o(.text.LPUART_HW_DisableRx)
    LPUART_HW_DisableRxDma                   0x000065e1   Thumb Code    10  g32a1xxx_lpuart.o(.text.LPUART_HW_DisableRxDma)
    LPUART_HW_DisableTx                      0x000065ed   Thumb Code    16  g32a1xxx_lpuart.o(.text.LPUART_HW_DisableTx)
    LPUART_HW_DisableTxDma                   0x000065fd   Thumb Code    10  g32a1xxx_lpuart.o(.text.LPUART_HW_DisableTxDma)
    LPUART_HW_EnableBothEdgeSamplingCmd      0x00006609   Thumb Code    10  g32a1xxx_lpuart.o(.text.LPUART_HW_EnableBothEdgeSamplingCmd)
    LPUART_HW_EnableIntMode                  0x00006615   Thumb Code    74  g32a1xxx_lpuart.o(.text.LPUART_HW_EnableIntMode)
    LPUART_HW_EnableTx                       0x00006661   Thumb Code    16  g32a1xxx_lpuart.o(.text.LPUART_HW_EnableTx)
    LPUART_HW_GetIntMode                     0x00006671   Thumb Code    56  g32a1xxx_lpuart.o(.text.LPUART_HW_GetIntMode)
    LPUART_HW_GetStatusFlag                  0x000066a9   Thumb Code    54  g32a1xxx_lpuart.o(.text.LPUART_HW_GetStatusFlag)
    LPUART_HW_Init                           0x000066e1   Thumb Code    36  g32a1xxx_lpuart.o(.text.LPUART_HW_Init)
    LPUART_HW_RxChar                         0x00006705   Thumb Code     6  g32a1xxx_lpuart.o(.text.LPUART_HW_RxChar)
    LPUART_HW_RxChar10                       0x0000670d   Thumb Code    38  g32a1xxx_lpuart.o(.text.LPUART_HW_RxChar10)
    LPUART_HW_RxChar9                        0x00006735   Thumb Code    30  g32a1xxx_lpuart.o(.text.LPUART_HW_RxChar9)
    LPUART_HW_SetBaudrateDivisor             0x00006755   Thumb Code    10  g32a1xxx_lpuart.o(.text.LPUART_HW_SetBaudrateDivisor)
    LPUART_HW_SetDataBits                    0x00006761   Thumb Code    38  g32a1xxx_lpuart.o(.text.LPUART_HW_SetDataBits)
    LPUART_HW_SetOversamplingRatio           0x00006789   Thumb Code    10  g32a1xxx_lpuart.o(.text.LPUART_HW_SetOversamplingRatio)
    LPUART_HW_SetParityMode                  0x00006795   Thumb Code    24  g32a1xxx_lpuart.o(.text.LPUART_HW_SetParityMode)
    LPUART_HW_SetStopBitCnt                  0x000067ad   Thumb Code    18  g32a1xxx_lpuart.o(.text.LPUART_HW_SetStopBitCnt)
    LPUART_HW_TxChar                         0x000067c1   Thumb Code     4  g32a1xxx_lpuart.o(.text.LPUART_HW_TxChar)
    LPUART_HW_TxChar10                       0x000067c5   Thumb Code    32  g32a1xxx_lpuart.o(.text.LPUART_HW_TxChar10)
    LPUART_HW_TxChar9                        0x000067e5   Thumb Code    20  g32a1xxx_lpuart.o(.text.LPUART_HW_TxChar9)
    LPUART_IRQHandler                        0x000067f9   Thumb Code   126  g32a1xxx_lpuart.o(.text.LPUART_IRQHandler)
    LPUART_Init                              0x00006879   Thumb Code   212  g32a1xxx_lpuart.o(.text.LPUART_Init)
    LPUART_RxIrqHandler                      0x0000699d   Thumb Code   106  g32a1xxx_lpuart.o(.text.LPUART_RxIrqHandler)
    LPUART_SetBaudrate                       0x00006a09   Thumb Code   194  g32a1xxx_lpuart.o(.text.LPUART_SetBaudrate)
    LPUART_TxCompleteIrqHandler              0x00006b8d   Thumb Code    60  g32a1xxx_lpuart.o(.text.LPUART_TxCompleteIrqHandler)
    LPUART_TxEmptyIrqHandler                 0x00006bc9   Thumb Code   126  g32a1xxx_lpuart.o(.text.LPUART_TxEmptyIrqHandler)
    MemManage_Handler                        0x00006c89   Thumb Code     2  g32a1xxx_int.o(.text.MemManage_Handler)
    NMI_Handler                              0x00006c8d   Thumb Code     2  g32a1xxx_int.o(.text.NMI_Handler)
    OSIF_SemCreate                           0x00006c91   Thumb Code    28  osif.o(.text.OSIF_SemCreate)
    OSIF_SemPost                             0x00006cad   Thumb Code    40  osif.o(.text.OSIF_SemPost)
    PCM_HW_ConfigPeripheralClkEn             0x00006cd5   Thumb Code   228  g32a1xxx_clock.o(.text.PCM_HW_ConfigPeripheralClkEn)
    PCM_HW_ConfigPeripheralClockControl      0x00006db9   Thumb Code   460  g32a1xxx_clock.o(.text.PCM_HW_ConfigPeripheralClockControl)
    PCM_HW_ReadPeripheralClkEn               0x00006f85   Thumb Code   226  g32a1xxx_clock.o(.text.PCM_HW_ReadPeripheralClkEn)
    PCM_HW_ReadPeripheralClockSourceSel      0x00007069   Thumb Code   132  g32a1xxx_clock.o(.text.PCM_HW_ReadPeripheralClockSourceSel)
    PCM_HW_ReadPeripheralDividerValue        0x000070ed   Thumb Code    16  g32a1xxx_clock.o(.text.PCM_HW_ReadPeripheralDividerValue)
    PCM_HW_ReadPeripheralFractionValue       0x000070fd   Thumb Code    16  g32a1xxx_clock.o(.text.PCM_HW_ReadPeripheralFractionValue)
    PINS_ClrPinIntFlgCmd                     0x0000710d   Thumb Code     8  g32a1xxx_pins.o(.text.PINS_ClrPinIntFlgCmd)
    PINS_ClrPins                             0x00007115   Thumb Code     8  g32a1xxx_pins.o(.text.PINS_ClrPins)
    PINS_HW_Cfg                              0x0000711d   Thumb Code   238  g32a1xxx_pins.o(.text.PINS_HW_Cfg)
    PINS_HW_ClrPinIntFlgCmd                  0x0000720d   Thumb Code    26  g32a1xxx_pins.o(.text.PINS_HW_ClrPinIntFlgCmd)
    PINS_HW_GPIO_ClrPins                     0x00007229   Thumb Code     4  g32a1xxx_pins.o(.text.PINS_HW_GPIO_ClrPins)
    PINS_HW_GPIO_SetPinDir                   0x0000722d   Thumb Code    22  g32a1xxx_pins.o(.text.PINS_HW_GPIO_SetPinDir)
    PINS_HW_GPIO_SetPins                     0x00007245   Thumb Code     4  g32a1xxx_pins.o(.text.PINS_HW_GPIO_SetPins)
    PINS_HW_GPIO_WritePin                    0x00007249   Thumb Code    24  g32a1xxx_pins.o(.text.PINS_HW_GPIO_WritePin)
    PINS_HW_ReadPmIntFlg                     0x00007261   Thumb Code     6  g32a1xxx_pins.o(.text.PINS_HW_ReadPmIntFlg)
    PINS_HW_SetMuxModeSel                    0x00007269   Thumb Code    64  g32a1xxx_pins.o(.text.PINS_HW_SetMuxModeSel)
    PINS_HW_SetPinIntSel                     0x000072a9   Thumb Code    22  g32a1xxx_pins.o(.text.PINS_HW_SetPinIntSel)
    PINS_Init                                0x000072c1   Thumb Code    26  g32a1xxx_pins.o(.text.PINS_Init)
    PINS_ReadAdcInterleaveVal                0x000072dd   Thumb Code   116  g32a1xxx_pins.o(.text.PINS_ReadAdcInterleaveVal)
    PINS_ReadPmIntFlg                        0x00007351   Thumb Code     8  g32a1xxx_pins.o(.text.PINS_ReadPmIntFlg)
    PINS_SetMuxModeSel                       0x00007359   Thumb Code     8  g32a1xxx_pins.o(.text.PINS_SetMuxModeSel)
    PINS_SetPinDir                           0x00007361   Thumb Code     8  g32a1xxx_pins.o(.text.PINS_SetPinDir)
    PINS_SetPinIntSel                        0x00007369   Thumb Code     8  g32a1xxx_pins.o(.text.PINS_SetPinIntSel)
    PINS_SetPins                             0x00007371   Thumb Code     8  g32a1xxx_pins.o(.text.PINS_SetPins)
    PMU_HW_ConfigLpoDisable                  0x00007379   Thumb Code    16  g32a1xxx_clock.o(.text.PMU_HW_ConfigLpoDisable)
    PMU_HW_ConfigLpoTrimValue                0x00007389   Thumb Code    16  g32a1xxx_clock.o(.text.PMU_HW_ConfigLpoTrimValue)
    PMU_HW_ReadLpoDisableMode                0x00007399   Thumb Code    16  g32a1xxx_clock.o(.text.PMU_HW_ReadLpoDisableMode)
    PendSV_Handler                           0x000073a9   Thumb Code     2  g32a1xxx_int.o(.text.PendSV_Handler)
    RTC_HW_AssignTimeAlarmRegister           0x000073ad   Thumb Code     4  g32a1xxx_rtc.o(.text.RTC_HW_AssignTimeAlarmRegister)
    RTC_HW_ReadTimeAlarmFlag                 0x000073b1   Thumb Code     8  g32a1xxx_rtc.o(.text.RTC_HW_ReadTimeAlarmFlag)
    RTC_HW_ReadTimeSecondsRegister           0x000073b9   Thumb Code     4  g32a1xxx_rtc.o(.text.RTC_HW_ReadTimeSecondsRegister)
    RTC_IRQHandler                           0x000073bd   Thumb Code   148  g32a1xxx_rtc.o(.text.RTC_IRQHandler)
    SCG_HW_ClearHsiControlStatus             0x00007451   Thumb Code    20  g32a1xxx_clock.o(.text.SCG_HW_ClearHsiControlStatus)
    SCG_HW_ClearHsiLockStatus                0x00007465   Thumb Code    14  g32a1xxx_clock.o(.text.SCG_HW_ClearHsiLockStatus)
    SCG_HW_ClearLsiControlStatus             0x00007475   Thumb Code     8  g32a1xxx_clock.o(.text.SCG_HW_ClearLsiControlStatus)
    SCG_HW_ClearLsiLockStatus                0x0000747d   Thumb Code    14  g32a1xxx_clock.o(.text.SCG_HW_ClearLsiLockStatus)
    SCG_HW_ClearSoscControlStatus            0x0000748d   Thumb Code    20  g32a1xxx_clock.o(.text.SCG_HW_ClearSoscControlStatus)
    SCG_HW_ClearSoscLockStatus               0x000074a1   Thumb Code    14  g32a1xxx_clock.o(.text.SCG_HW_ClearSoscLockStatus)
    SCG_HW_ClearSysPllControlStatus          0x000074b1   Thumb Code    20  g32a1xxx_clock.o(.text.SCG_HW_ClearSysPllControlStatus)
    SCG_HW_ClearSysPllLockStatus             0x000074c5   Thumb Code    14  g32a1xxx_clock.o(.text.SCG_HW_ClearSysPllLockStatus)
    SCG_HW_ConfigClockoutSourceSel           0x000074d5   Thumb Code    22  g32a1xxx_clock.o(.text.SCG_HW_ConfigClockoutSourceSel)
    SCG_HW_ConfigHsiAsyncConfig              0x000074ed   Thumb Code    36  g32a1xxx_clock.o(.text.SCG_HW_ConfigHsiAsyncConfig)
    SCG_HW_ConfigHsiControl                  0x00007511   Thumb Code    34  g32a1xxx_clock.o(.text.SCG_HW_ConfigHsiControl)
    SCG_HW_ConfigHsiRang                     0x00007535   Thumb Code    14  g32a1xxx_clock.o(.text.SCG_HW_ConfigHsiRang)
    SCG_HW_ConfigHsrunClockControl           0x00007545   Thumb Code    34  g32a1xxx_clock.o(.text.SCG_HW_ConfigHsrunClockControl)
    SCG_HW_ConfigLsiAsyncConfig              0x00007569   Thumb Code    36  g32a1xxx_clock.o(.text.SCG_HW_ConfigLsiAsyncConfig)
    SCG_HW_ConfigLsiControl                  0x0000758d   Thumb Code    42  g32a1xxx_clock.o(.text.SCG_HW_ConfigLsiControl)
    SCG_HW_ConfigLsiRang                     0x000075b9   Thumb Code    14  g32a1xxx_clock.o(.text.SCG_HW_ConfigLsiRang)
    SCG_HW_ConfigRunClockControl             0x000075c9   Thumb Code    34  g32a1xxx_clock.o(.text.SCG_HW_ConfigRunClockControl)
    SCG_HW_ConfigSoscAsyncConfig             0x000075ed   Thumb Code    36  g32a1xxx_clock.o(.text.SCG_HW_ConfigSoscAsyncConfig)
    SCG_HW_ConfigSoscCfg                     0x00007611   Thumb Code    38  g32a1xxx_clock.o(.text.SCG_HW_ConfigSoscCfg)
    SCG_HW_ConfigSoscControl                 0x00007639   Thumb Code    42  g32a1xxx_clock.o(.text.SCG_HW_ConfigSoscControl)
    SCG_HW_ConfigSysPllAsyncConfig           0x00007665   Thumb Code    36  g32a1xxx_clock.o(.text.SCG_HW_ConfigSysPllAsyncConfig)
    SCG_HW_ConfigSysPllCfg                   0x00007689   Thumb Code    38  g32a1xxx_clock.o(.text.SCG_HW_ConfigSysPllCfg)
    SCG_HW_ConfigSysPllControl               0x000076b1   Thumb Code    42  g32a1xxx_clock.o(.text.SCG_HW_ConfigSysPllControl)
    SCG_HW_ConfigVlprClockControl            0x000076dd   Thumb Code    34  g32a1xxx_clock.o(.text.SCG_HW_ConfigVlprClockControl)
    SCG_HW_ReadClockoutSourceSel             0x00007701   Thumb Code     8  g32a1xxx_clock.o(.text.SCG_HW_ReadClockoutSourceSel)
    SCG_HW_ReadCurrentBusClockDividerRatio   0x00007709   Thumb Code     8  g32a1xxx_clock.o(.text.SCG_HW_ReadCurrentBusClockDividerRatio)
    SCG_HW_ReadCurrentCoreClockDividerRatio  0x00007711   Thumb Code     8  g32a1xxx_clock.o(.text.SCG_HW_ReadCurrentCoreClockDividerRatio)
    SCG_HW_ReadCurrentSlowClockDividerRatio  0x00007719   Thumb Code     8  g32a1xxx_clock.o(.text.SCG_HW_ReadCurrentSlowClockDividerRatio)
    SCG_HW_ReadCurrentSystemClockSource      0x00007721   Thumb Code     8  g32a1xxx_clock.o(.text.SCG_HW_ReadCurrentSystemClockSource)
    SCG_HW_ReadHsiAsSystemClock              0x00007729   Thumb Code    10  g32a1xxx_clock.o(.text.SCG_HW_ReadHsiAsSystemClock)
    SCG_HW_ReadHsiEnableStatus               0x00007735   Thumb Code    10  g32a1xxx_clock.o(.text.SCG_HW_ReadHsiEnableStatus)
    SCG_HW_ReadHsiFirstAsyncDivider          0x00007741   Thumb Code    10  g32a1xxx_clock.o(.text.SCG_HW_ReadHsiFirstAsyncDivider)
    SCG_HW_ReadHsiRange                      0x0000774d   Thumb Code    10  g32a1xxx_clock.o(.text.SCG_HW_ReadHsiRange)
    SCG_HW_ReadHsiSecondAsyncDivider         0x00007759   Thumb Code    10  g32a1xxx_clock.o(.text.SCG_HW_ReadHsiSecondAsyncDivider)
    SCG_HW_ReadLsiAsSystemClock              0x00007765   Thumb Code    10  g32a1xxx_clock.o(.text.SCG_HW_ReadLsiAsSystemClock)
    SCG_HW_ReadLsiEnableStatus               0x00007771   Thumb Code    10  g32a1xxx_clock.o(.text.SCG_HW_ReadLsiEnableStatus)
    SCG_HW_ReadLsiFirstAsyncDivider          0x0000777d   Thumb Code    10  g32a1xxx_clock.o(.text.SCG_HW_ReadLsiFirstAsyncDivider)
    SCG_HW_ReadLsiRange                      0x00007789   Thumb Code    10  g32a1xxx_clock.o(.text.SCG_HW_ReadLsiRange)
    SCG_HW_ReadLsiSecondAsyncDivider         0x00007795   Thumb Code    10  g32a1xxx_clock.o(.text.SCG_HW_ReadLsiSecondAsyncDivider)
    SCG_HW_ReadSoscAsSystemClock             0x000077a1   Thumb Code    10  g32a1xxx_clock.o(.text.SCG_HW_ReadSoscAsSystemClock)
    SCG_HW_ReadSoscEnableStatus              0x000077ad   Thumb Code    10  g32a1xxx_clock.o(.text.SCG_HW_ReadSoscEnableStatus)
    SCG_HW_ReadSoscFirstAsyncDivider         0x000077b9   Thumb Code    10  g32a1xxx_clock.o(.text.SCG_HW_ReadSoscFirstAsyncDivider)
    SCG_HW_ReadSoscSecondAsyncDivider        0x000077c5   Thumb Code    10  g32a1xxx_clock.o(.text.SCG_HW_ReadSoscSecondAsyncDivider)
    SCG_HW_ReadSysPllAsSystemClock           0x000077d1   Thumb Code    10  g32a1xxx_clock.o(.text.SCG_HW_ReadSysPllAsSystemClock)
    SCG_HW_ReadSysPllEnableStatus            0x000077dd   Thumb Code    10  g32a1xxx_clock.o(.text.SCG_HW_ReadSysPllEnableStatus)
    SCG_HW_ReadSysPllFirstAsyncDivider       0x000077e9   Thumb Code    10  g32a1xxx_clock.o(.text.SCG_HW_ReadSysPllFirstAsyncDivider)
    SCG_HW_ReadSysPllMultiplier              0x000077f5   Thumb Code    10  g32a1xxx_clock.o(.text.SCG_HW_ReadSysPllMultiplier)
    SCG_HW_ReadSysPllPredivider              0x00007801   Thumb Code    10  g32a1xxx_clock.o(.text.SCG_HW_ReadSysPllPredivider)
    SCG_HW_ReadSysPllSecondAsyncDivider      0x0000780d   Thumb Code    10  g32a1xxx_clock.o(.text.SCG_HW_ReadSysPllSecondAsyncDivider)
    SIM_HW_ClearTraceClockConfig             0x0000788d   Thumb Code     6  g32a1xxx_clock.o(.text.SIM_HW_ClearTraceClockConfig)
    SIM_HW_ConfigClockout                    0x00007895   Thumb Code    34  g32a1xxx_clock.o(.text.SIM_HW_ConfigClockout)
    SIM_HW_ConfigDmaClockGate                0x000078b9   Thumb Code    16  g32a1xxx_clock.o(.text.SIM_HW_ConfigDmaClockGate)
    SIM_HW_ConfigEinjClockGate               0x000078c9   Thumb Code    16  g32a1xxx_clock.o(.text.SIM_HW_ConfigEinjClockGate)
    SIM_HW_ConfigExtPinSourceCFGtmr          0x000078d9   Thumb Code    84  g32a1xxx_clock.o(.text.SIM_HW_ConfigExtPinSourceCFGtmr)
    SIM_HW_ConfigLpoClocks                   0x0000792d   Thumb Code    38  g32a1xxx_clock.o(.text.SIM_HW_ConfigLpoClocks)
    SIM_HW_ConfigMpuClockGate                0x00007955   Thumb Code    16  g32a1xxx_clock.o(.text.SIM_HW_ConfigMpuClockGate)
    SIM_HW_ConfigMscmClockGate               0x00007965   Thumb Code    16  g32a1xxx_clock.o(.text.SIM_HW_ConfigMscmClockGate)
    SIM_HW_ConfigTraceClock                  0x00007975   Thumb Code    46  g32a1xxx_clock.o(.text.SIM_HW_ConfigTraceClock)
    SIM_HW_ConfigTraceClockSource            0x000079a5   Thumb Code    10  g32a1xxx_clock.o(.text.SIM_HW_ConfigTraceClockSource)
    SIM_HW_DisableDmaClock                   0x000079b1   Thumb Code    10  g32a1xxx_clock.o(.text.SIM_HW_DisableDmaClock)
    SIM_HW_DisableEinjClock                  0x000079bd   Thumb Code    10  g32a1xxx_clock.o(.text.SIM_HW_DisableEinjClock)
    SIM_HW_DisableErepClock                  0x000079c9   Thumb Code    10  g32a1xxx_clock.o(.text.SIM_HW_DisableErepClock)
    SIM_HW_DisableMpuClock                   0x000079d5   Thumb Code    10  g32a1xxx_clock.o(.text.SIM_HW_DisableMpuClock)
    SIM_HW_DisableMscmClock                  0x000079e1   Thumb Code    10  g32a1xxx_clock.o(.text.SIM_HW_DisableMscmClock)
    SIM_HW_EnableDmaClock                    0x000079ed   Thumb Code    10  g32a1xxx_clock.o(.text.SIM_HW_EnableDmaClock)
    SIM_HW_EnableEinjClock                   0x000079f9   Thumb Code    10  g32a1xxx_clock.o(.text.SIM_HW_EnableEinjClock)
    SIM_HW_EnableErepClock                   0x00007a05   Thumb Code    10  g32a1xxx_clock.o(.text.SIM_HW_EnableErepClock)
    SIM_HW_EnableMpuClock                    0x00007a11   Thumb Code    10  g32a1xxx_clock.o(.text.SIM_HW_EnableMpuClock)
    SIM_HW_EnableMscmClock                   0x00007a1d   Thumb Code    10  g32a1xxx_clock.o(.text.SIM_HW_EnableMscmClock)
    SIM_HW_ReadCFGtmr0ExternalClkPinMode     0x00007a29   Thumb Code     8  g32a1xxx_clock.o(.text.SIM_HW_ReadCFGtmr0ExternalClkPinMode)
    SIM_HW_ReadCFGtmr1ExternalClkPinMode     0x00007a31   Thumb Code     8  g32a1xxx_clock.o(.text.SIM_HW_ReadCFGtmr1ExternalClkPinMode)
    SIM_HW_ReadCFGtmr2ExternalClkPinMode     0x00007a39   Thumb Code     8  g32a1xxx_clock.o(.text.SIM_HW_ReadCFGtmr2ExternalClkPinMode)
    SIM_HW_ReadCFGtmr3ExternalClkPinMode     0x00007a41   Thumb Code     6  g32a1xxx_clock.o(.text.SIM_HW_ReadCFGtmr3ExternalClkPinMode)
    SIM_HW_ReadClockoutDividerValue          0x00007a49   Thumb Code     8  g32a1xxx_clock.o(.text.SIM_HW_ReadClockoutDividerValue)
    SIM_HW_ReadClockoutSelectedSource        0x00007a51   Thumb Code     8  g32a1xxx_clock.o(.text.SIM_HW_ReadClockoutSelectedSource)
    SIM_HW_ReadClockoutStatus                0x00007a59   Thumb Code     8  g32a1xxx_clock.o(.text.SIM_HW_ReadClockoutStatus)
    SIM_HW_ReadDmaClockGate                  0x00007a61   Thumb Code     8  g32a1xxx_clock.o(.text.SIM_HW_ReadDmaClockGate)
    SIM_HW_ReadEinjClockGate                 0x00007a69   Thumb Code     8  g32a1xxx_clock.o(.text.SIM_HW_ReadEinjClockGate)
    SIM_HW_ReadErepClockGate                 0x00007a71   Thumb Code     8  g32a1xxx_clock.o(.text.SIM_HW_ReadErepClockGate)
    SIM_HW_ReadLpo1kClkStatus                0x00007a79   Thumb Code     8  g32a1xxx_clock.o(.text.SIM_HW_ReadLpo1kClkStatus)
    SIM_HW_ReadLpo32kClkStatus               0x00007a81   Thumb Code     8  g32a1xxx_clock.o(.text.SIM_HW_ReadLpo32kClkStatus)
    SIM_HW_ReadLpoClkSelectedSource          0x00007a89   Thumb Code     8  g32a1xxx_clock.o(.text.SIM_HW_ReadLpoClkSelectedSource)
    SIM_HW_ReadMpuClockGate                  0x00007a91   Thumb Code     8  g32a1xxx_clock.o(.text.SIM_HW_ReadMpuClockGate)
    SIM_HW_ReadMscmClockGate                 0x00007a99   Thumb Code     8  g32a1xxx_clock.o(.text.SIM_HW_ReadMscmClockGate)
    SIM_HW_ReadRtcClkSrc                     0x00007aa1   Thumb Code     8  g32a1xxx_clock.o(.text.SIM_HW_ReadRtcClkSrc)
    SIM_HW_SetErepClockGate                  0x00007aa9   Thumb Code    16  g32a1xxx_clock.o(.text.SIM_HW_SetErepClockGate)
    SVC_Handler                              0x00007ab9   Thumb Code     2  g32a1xxx_int.o(.text.SVC_Handler)
    SYSMC_HW_ReadCurrentRunningPowerMode     0x00007abd   Thumb Code     6  g32a1xxx_clock.o(.text.SYSMC_HW_ReadCurrentRunningPowerMode)
    SysTick_Handler                          0x00007ae9   Thumb Code     2  g32a1xxx_int.o(.text.SysTick_Handler)
    SystemCoreClockConfigure                 0x00007aed   Thumb Code   356  system_g32a1xxx.o(.text.SystemCoreClockConfigure)
    SystemCoreClockUpdate                    0x00007c51   Thumb Code   170  system_g32a1xxx.o(.text.SystemCoreClockUpdate)
    SystemInit                               0x00007cfd   Thumb Code    44  system_g32a1xxx.o(.text.SystemInit)
    UsageFault_Handler                       0x00007d29   Thumb Code     2  g32a1xxx_int.o(.text.UsageFault_Handler)
    WDT_Disable                              0x00007d2d   Thumb Code    36  system_g32a1xxx.o(.text.WDT_Disable)
    bss_data_init                            0x00007d61   Thumb Code    80  startup.o(.text.bss_data_init)
    fputc                                    0x00007db1   Thumb Code    18  board.o(.text.fputc)
    led_toggle                               0x00007dc5   Thumb Code    34  main.o(.text.led_toggle)
    main                                     0x00007de9   Thumb Code   192  main.o(.text.main)
    __0printf                                0x00007ea9   Thumb Code    22  printfa.o(i.__0printf)
    __1printf                                0x00007ea9   Thumb Code     0  printfa.o(i.__0printf)
    __2printf                                0x00007ea9   Thumb Code     0  printfa.o(i.__0printf)
    __c89printf                              0x00007ea9   Thumb Code     0  printfa.o(i.__0printf)
    printf                                   0x00007ea9   Thumb Code     0  printfa.o(i.__0printf)
    __scatterload_copy                       0x00007ec9   Thumb Code    14  handlers.o(i.__scatterload_copy)
    __scatterload_null                       0x00007ed7   Thumb Code     2  handlers.o(i.__scatterload_null)
    __scatterload_zeroinit                   0x00007ed9   Thumb Code    14  handlers.o(i.__scatterload_zeroinit)
    puts                                     0x0000879d   Thumb Code    30  puts.o(i.puts)
    Region$$Table$$Base                      0x000087c0   Number         0  anon$$obj.o(Region$$Table)
    Image$$TEXT$$Limit                       0x000087e0   Number         0  anon$$obj.o ABSOLUTE
    Region$$Table$$Limit                     0x000087e0   Number         0  anon$$obj.o(Region$$Table)
    Image$$VECTOR_RAM$$Base                  0x1fff0000   Number         0  anon$$obj.o ABSOLUTE
    Image$$RW_DATA$$Base                     0x1fff0400   Number         0  anon$$obj.o ABSOLUTE
    __stdout                                 0x1fff0400   Data           4  stdout.o(.data)
    SystemCoreClock                          0x1fff0404   Data           4  system_g32a1xxx.o(.data.SystemCoreClock)
    g_cfgtmr0InitConfig                      0x1fff0408   Data          18  pwm.o(.data.g_cfgtmr0InitConfig)
    g_cfgtmr0PWMIndependentChannelsConfig    0x1fff041a   Data          10  pwm.o(.data.g_cfgtmr0PWMIndependentChannelsConfig)
    g_cfgtmr0PWMInitConfig                   0x1fff0424   Data          24  pwm.o(.data.g_cfgtmr0PWMInitConfig)
    g_clockConfig                            0x1fff043c   Data         144  user_clock_config.o(.data.g_clockConfig)
    g_lpitmrChannelConfig                    0x1fff04cc   Data          24  tim.o(.data.g_lpitmrChannelConfig)
    g_lpspiBasePointer                       0x1fff04e4   Data          12  g32a1xxx_lpspi.o(.data.g_lpspiBasePointer)
    g_lpuartIsr                              0x1fff04f0   Data          12  g32a1xxx_lpuart.o(.data.g_lpuartIsr)
    g_peripheralClockConfig                  0x1fff04fc   Data         170  user_clock_config.o(.data.g_peripheralClockConfig)
    g_pinsConfig                             0x1fff05a8   Data         192  pwm.o(.data.g_pinsConfig)
    ledGPIO                                  0x1fff0668   Data          12  board.o(.data.ledGPIO)
    ledPIN                                   0x1fff0674   Data          12  board.o(.data.ledPIN)
    ledPM                                    0x1fff0680   Data          12  board.o(.data.ledPM)
    Image$$RW_CODE$$Base                     0x1fff068c   Number         0  anon$$obj.o ABSOLUTE
    Image$$RW_CODE$$Limit                    0x1fff068c   Number         0  anon$$obj.o ABSOLUTE
    Image$$RW_DATA$$Limit                    0x1fff068c   Number         0  anon$$obj.o ABSOLUTE
    Image$$RW_DATA_2$$ZI$$Base               0x20000000   Number         0  anon$$obj.o ABSOLUTE
    Image$$RW_USER_SECTION$$Base             0x20000000   Number         0  anon$$obj.o ABSOLUTE
    Image$$RW_USER_SECTION$$Limit            0x20000000   Number         0  anon$$obj.o ABSOLUTE
    cntUs                                    0x20000010   Data           8  systick.o(.bss.cntUs)
    g_cfgioDevState                          0x20000024   Data           4  g32a1xxx_cfgio_common.o(.bss.g_cfgioDevState)
    g_cfgtmr0PWMFaultConfig                  0x20000028   Data          16  pwm.o(.bss.g_cfgtmr0PWMFaultConfig)
    g_csecState                              0x20000050   Data           4  g32a1xxx_csec.o(.bss.g_csecState)
    g_extal0ClkFreq                          0x20000058   Data           4  g32a1xxx_clock.o(.bss.g_extal0ClkFreq)
    g_lpitmrConfig                           0x20000068   Data           2  tim.o(.bss.g_lpitmrConfig)
    g_lpitmrSourceClockFrequency             0x2000006c   Data           4  g32a1xxx_lpitmr.o(.bss.g_lpitmrSourceClockFrequency)
    g_lpspiStatusPointer                     0x20000070   Data          12  g32a1xxx_lpspi.o(.bss.g_lpspiStatusPointer)
    g_lpuart1State                           0x2000007c   Data          52  board.o(.bss.g_lpuart1State)
    g_rtcClkInFreq                           0x200000bc   Data           4  g32a1xxx_clock.o(.bss.g_rtcClkInFreq)
    g_tclkFreq                               0x200000c0   Data          12  g32a1xxx_clock.o(.bss.g_tclkFreq)
    key1Callback                             0x200000cc   Data           4  board.o(.bss.key1Callback)
    key2Callback                             0x200000d0   Data           4  board.o(.bss.key2Callback)
    Image$$RW_DATA_2$$ZI$$Limit              0x200000d8   Number         0  anon$$obj.o ABSOLUTE
    Image$$ARM_LIB_STACK$$Limit              0x2000ec00   Number         0  anon$$obj.o ABSOLUTE
    Image$$ARM_LIB_STACK$$ZI$$Limit          0x2000f000   Number         0  anon$$obj.o ABSOLUTE



==============================================================================

Memory Map of the image

  Image Entry point : 0x000006b5

  Load Region LR_m_text (Base: 0x00000000, Size: 0x00008a6c, Max: 0x00100000, ABSOLUTE, COMPRESSED[0x00008900])

    Execution Region VECTOR_ROM (Exec base: 0x00000000, Load base: 0x00000000, Size: 0x00000260, Max: 0x00000400, ABSOLUTE)

    Exec Addr    Load Addr    Size         Type   Attr      Idx    E Section Name        Object

    0x00000000   0x00000000   0x00000260   Data   RO           33    RESET               startup_g32a1465.o


    Execution Region FLASH_CONFIG (Exec base: 0x00000400, Load base: 0x00000400, Size: 0x00000010, Max: 0x00000010, ABSOLUTE, FIXED)

    Exec Addr    Load Addr    Size         Type   Attr      Idx    E Section Name        Object

    0x00000400   0x00000400   0x00000010   Data   RO           34    FlashConfig         startup_g32a1465.o


    Execution Region TEXT_CONST (Exec base: 0x00000410, Load base: 0x00000410, Size: 0x000002a4, Max: 0xffffffff, ABSOLUTE)

    Exec Addr    Load Addr    Size         Type   Attr      Idx    E Section Name        Object

    0x00000410   0x00000410   0x00000054   Data   RO          599    .rodata..L__const.CLOCK_ConfigSystemClockCfg.maxSystemClocksFreqOfHSRUN  g32a1xxx_clock.o
    0x00000464   0x00000464   0x00000054   Data   RO          598    .rodata..L__const.CLOCK_ConfigSystemClockCfg.maxSystemClocksFreqOfRUN  g32a1xxx_clock.o
    0x000004b8   0x000004b8   0x00000054   Data   RO          597    .rodata..L__const.CLOCK_ConfigSystemClockCfg.maxSystemClocksFreqOfVLPR  g32a1xxx_clock.o
    0x0000050c   0x0000050c   0x000000a5   Data   RO          595    .rodata..L__const.CLOCK_ReadDefaultConfig.peripheralClkCfg  g32a1xxx_clock.o
    0x000005b1   0x000005b1   0x00000001   PAD
    0x000005b2   0x000005b2   0x00000006   Data   RO         3920    .rodata..L__const.COM_Init.uartClkCfg  board.o
