:020000040000FA
:1000000000F000208111000041980000D112000092
:100010003D980000691E000045A800000000000097
:10002000000000000000000000000000C7110000F8
:10003000DD7B0000000000001F120000E9A70000A7
:10004000B975000009770000397700006977000072
:1000500099770000C9770000F9770000297800003F
:100060005978000089780000E975000019760000D1
:100070004976000079760000A9760000D976000064
:100080005D7B0000D1110000E17B0000D111000078
:10009000D1110000D1110000D1110000D1110000D8
:1000A00019820000098500001185000031850000DB
:1000B00051850000D1110000D1110000358C0000E5
:1000C000D11100003D8C0000D1110000458C0000D2
:1000D000D1110000D1110000D1110000D111000098
:1000E000D1110000D1110000D1110000D111000088
:1000F000D1110000D11100005D9E0000D11100005F
:10010000D1110000D1110000D1110000D111000067
:10011000D1110000D1110000D1110000D111000057
:10012000D1110000D1110000D1110000D111000047
:10013000D1110000D1110000D1110000D111000037
:10014000D1110000D1110000D1110000D111000027
:10015000D1110000E5280000D1110000D1110000EC
:10016000D1110000D1110000D1110000D111000007
:10017000D1110000D1110000B91E00006D1E000059
:10018000ED1E0000A91E0000B11E0000D1110000EC
:10019000D1110000A91F00005D1F0000D111000057
:1001A000991F0000A11F0000D1110000D111000013
:1001B00021200000DD1F0000D111000019200000E7
:1001C000D1110000D1110000D1110000D12900008F
:1001D000D9290000E1290000E9290000D11100001F
:1001E000D1110000F1290000F9290000012A0000C6
:1001F000092A0000D1110000D1110000112A0000CD
:10020000192A0000212A0000292A0000D11100002B
:10021000D1110000312A0000392A0000412A0000D3
:10022000492A0000D1110000D1110000512A00001C
:10023000592A0000612A0000692A0000D11100003B
:10024000D1110000712A0000792A0000812A0000E3
:10025000892A0000D1110000D1110000CF11000047
:10026000000000000000000000000000000000008E
:10027000000000000000000000000000000000007E
:10028000000000000000000000000000000000006E
:10029000000000000000000000000000000000005E
:1002A000000000000000000000000000000000004E
:1002B000000000000000000000000000000000003E
:1002C000000000000000000000000000000000002E
:1002D000000000000000000000000000000000001E
:1002E000000000000000000000000000000000000E
:1002F00000000000000000000000000000000000FE
:1003000000000000000000000000000000000000ED
:1003100000000000000000000000000000000000DD
:1003200000000000000000000000000000000000CD
:1003300000000000000000000000000000000000BD
:1003400000000000000000000000000000000000AD
:10035000000000000000000000000000000000009D
:10036000000000000000000000000000000000008D
:10037000000000000000000000000000000000007D
:10038000000000000000000000000000000000006D
:10039000000000000000000000000000000000005D
:1003A000000000000000000000000000000000004D
:1003B000000000000000000000000000000000003D
:1003C000000000000000000000000000000000002D
:1003D000000000000000000000000000000000001D
:1003E000000000000000000000000000000000000D
:1003F00000000000000000000000000000000000FD
:10040000FFFFFFFFFFFFFFFFFFFFFFFFFEFFFFFFFD
:1004100000000000000000000000000000FCAC062E
:10042000007E5603003FAB0100FCAC06007E560385
:10043000003FAB0100FCAC06007E5603003FAB0161
:1004400000000000000000000000000000000000AC
:10045000000000000000000000FCAC06007E560317
:10046000003FAB01000000000000000000000000A1
:1004700000B4C404006CDC02B0F3960100B4C40400
:10048000006CDC02B0F3960100B4C404006CDC0222
:10049000B0F3960100000000000000000000000022
:1004A00000000000000000000000000000B4C404D0
:1004B000005A6202B0F39601000000000000000044
:1004C0000000000000093D0000093D0040420F000F
:1004D00000093D0000093D0040420F0000093D00B9
:1004E00000093D0040420F00000000000000000035
:1004F00000000000000000000000000000000000FC
:1005000000093D0000093D0040420F000C10141886
:100510002030400000010002000100030001000241
:1005200000010004000100020001000300010002BC
:1005300000010005000100020001000300010002AB
:10054000000100040001000200010003000100029C
:10055000000100060001000200010003000100028A
:10056000000100040001000200010003000100027C
:10057000000100050001000200010003000100026B
:10058000000100040001000200010003000100025C
:100590000001000700010002000100030001000249
:1005A000000100040001000200010003000100023C
:1005B000000100050001000200010003000100022B
:1005C000000100040001000200010003000100021C
:1005D000000100060001000200010003000100020A
:1005E00000010004000100020001000300010002FC
:1005F00000010005000100020001000300010002EB
:1006000000010004000100020001000300010002DB
:1006100000010000010000000200000004000000D2
:100620000800000010000000200000004000000052
:1006300080000000EFFFFFFFDFFFFFFFBFFFFFFFB6
:100640007FFFFFFF0100000000010000000001002B
:10065000000000017FFFFFFFFF7FFFFFFFFF7FFF25
:10066000FFFFFF7FFEFFFFFFFFFEFFFFFFFFFEFF1D
:10067000FFFFFFFEFBFFFFFFFFFBFFFFFFFFFBFF97
:10068000FFFFFFFB0800000000080000000008005A
:100690000000000804000000000400000000040046
:1006A00000000004004002400050024000B0024040
:1006B000008003400090034000A00340006002401F
:1006C00000E0064000F0064000A0064000B00640F2
:1006D00000C006404C4D4E0000000000000000002D
:1006E000000000000000000000000000000000000A
:1006F00000000000000000004141414141000000B5
:100700002020202020202020202000404040404069
:100710000080004848484848480030303030303089
:1007200030303630303000005F5F636D645F6C6581
:10073000644F4E005475726E206F6E207370656347
:1007400069666963204C45442028723A20726564CA
:100750002C20673A20677265656E2C20623A206211
:100760006C756529005F5F636D645F6C65644F46FF
:1007700046005475726E206F666620616C6C204C6A
:10078000454473005F5F636D645F6C65645F666CB6
:100790006F77005374617274204C454420666C6F0F
:1007A0007720656666656374005F5F636D645F6C88
:1007B00065645F666C6F775F73746F700053746FFE
:1007C00070204C454420666C6F77206566666563D3
:1007D00074005F5F636D645F7468726561644D612E
:1007E0006E61676500746872656164204D616E6159
:1007F00067652073616D706C65006C6973745F6D03
:10080000656D006C697374206D656D6F727920750C
:100810007361676520696E666F726D6174696F6E72
:10082000005F5F636D645F68656C700052542D54A7
:100830006872656164207368656C6C2068656C70B3
:100840002E005F5F636D645F7073004C697374208A
:100850007468726561647320696E207468652073C2
:10086000797374656D2E005F5F636D645F6672659A
:10087000650053686F7720746865206D656D6F72D1
:100880007920757361676520696E207468652073CF
:10089000797374656D2E0068656C6C6F0073617997
:1008A0002068656C6C6F20776F726C64007665727F
:1008B00073696F6E0073686F772052542D5468729D
:1008C0006561642076657273696F6E20696E666F0C
:1008D000726D6174696F6E005F5F636D645F7665F2
:1008E0007273696F6E0073686F772052542D54686D
:1008F000726561642076657273696F6E20696E66D9
:100900006F726D6174696F6E006C6973745F746887
:1009100072656164006C69737420746872656164E7
:10092000005F5F636D645F6C6973745F74687265A8
:100930006164006C69737420746872656164006C32
:100940006973745F73656D006C6973742073656D92
:100950006170686F726520696E2073797374656D5C
:10096000005F5F636D645F6C6973745F73656D00D6
:100970006C6973742073656D6170686F726520694E
:100980006E2073797374656D006C6973745F6D614B
:10099000696C626F78006C697374206D61696C209A
:1009A000626F7820696E2073797374656D005F5F84
:1009B000636D645F6C6973745F6D61696C626F789D
:1009C000006C697374206D61696C20626F782069B6
:1009D0006E2073797374656D006C6973745F7469EC
:1009E0006D6572006C6973742074696D657220693D
:1009F0006E2073797374656D005F5F636D645F6C07
:100A00006973745F74696D6572006C6973742074C6
:100A1000696D657220696E2073797374656D006C01
:100A2000697374006C69737420616C6C2073796DE8
:100A3000626F6C20696E2073797374656D00476511
:100A40006568792D47333241313436352D5345476A
:100A50004745522D5254542D54656D70616C746528
:100A6000205B6F6B5D200D0A001B5B303B33316DEB
:100A70005B25735D2047656568792D4733324131C9
:100A800034363520627920636F646572656E642048
:100A9000323032342E31322E333020746573746923
:100AA0006E675B6F6B5D21200D0A1B5B306D0D0A5D
:100AB000001B5B303B33346D5B25735D2047656500
:100AC00068792D4733324131343635205345474715
:100AD00045522D5254542074657374696E675B6F70
:100AE0006B5D21200D0A1B5B306D0D0A001B5B3016
:100AF0003B33346D5B25735D2047656568792D4711
:100B0000333241313436352072742D746872656128
:100B1000642066696E73682074657374696E675BC0
:100B20006F6B5D21200D0A1B5B306D0D0A006D613E
:100B3000696E001B5B303B33326D5B25735D205269
:100B40006564204C4544204F4E210A1B5B306D0DDF
:100B50000A001B5B303B33326D5B25735D20426CBA
:100B60007565204C4544204F4E210A1B5B306D0DAE
:100B70000A001B5B303B33326D5B25735D2047728F
:100B800065656E204C4544204F4E210A1B5B306D3D
:100B90000D0A001B5B303B33326D5B25735D206CAF
:100BA000656420746872656164206861766520629E
:100BB00065656E2072656D6F766564210A1B5B301A
:100BC0006D0D0A001B5B303B33326D5B25735D207E
:100BD0006C656420746872656164207375737065F8
:100BE0006E642073756363657373210A1B5B306DDC
:100BF0000D0A001B5B303B33326D5B25735D206C4F
:100C000065642074687265616420726573756D65D2
:100C10002073756363657373210A1B5B306D0D0A66
:100C2000001B5B303B33326D5B25735D206C65646C
:100C300020746872656164207374617274696E6790
:100C40002073756363657373210A1B5B306D0D0A36
:100C5000001B5B303B33326D5B25735D20506C6550
:100C600061736520696E70757420277468726561A0
:100C7000644D616E616765203C73746172747C734E
:100C8000757370656E647C726573756D657C646583
:100C90006C6574653E270A1B5B306D0D0A001B5B9B
:100CA000303B33326D5B25735D206C656420746866
:100CB0007265616420726573756D65206661696C2B
:100CC00065642C20657272436F64653A25640A1B63
:100CD0005B306D0D0A001B5B303B33326D5B25735F
:100CE0005D206C656420746872656164206661696A
:100CF0006C656420746F2073746172742C2065724B
:100D000072436F64653A25640A1B5B306D0D0A00FF
:100D100066696E73685F636D64006170705F6C65B7
:100D200064001B5B303B33346D5B25735D2047658E
:100D30006568792D4733324131343635204C45448E
:100D40005F4F6E2020626F6172645F6C65645F74D8
:100D500075726E6F6666205B6F6B5D21200D0A1BDE
:100D60005B306D0D0A006273705F627574746F6E34
:100D70000068617264206661756C74206F6E206813
:100D8000616E646C65720D0A0D0A00686172642000
:100D90006661756C74206F6E207468726561643A68
:100DA0002025730D0A0D0A004650552061637469B1
:100DB0007665210D0A006D656D206D616E61676558
:100DC000206661756C743A0A007573616765206608
:100DD00061756C743A0A00627573206661756C7493
:100DE0003A0A005343422D3E424641523A2530389A
:100DF000580A005343422D3E4D4D41523A2530385A
:100E0000580A006661696C656420766563746F7268
:100E10002066657463680A0064656275672065769C
:100E2000656E740A007230303A2030782530387898
:100E30000A007230313A203078253038780A007252
:100E400030323A203078253038780A007230333A20
:100E5000203078253038780A007230343A203078E3
:100E6000253038780A007073723A2030782530388F
:100E7000780A00494E5650432000554E414C494790
:100E80004E45442000494E56535441544520004499
:100E900041434356494F4C20004941434356494F33
:100EA0004C200044495642595A45524F20004E4F5B
:100EB000435020004D53544B45525220004D554E47
:100EC00053544B4552522000494D505245434953CB
:100ED0004552522000494255534552522000554E2A
:100EE000444546494E53545220005343425F4346C3
:100EF00053525F424653523A3078253032582000E0
:100F00005343425F434653525F4D4653523A307803
:100F10002530325820005343425F434653525F55B9
:100F20004653523A307825303258200052542D54CE
:100F30006872656164207368656C6C20636F6D6DA9
:100F4000616E64733A0A00252D313673202D2025F9
:100F5000730A005F5F636D645F00080025630064CF
:100F6000656163746976617465640A00252D2A2EB3
:100F7000732070726920207374617475732020204F
:100F800020202073702020202020737461636B2048
:100F900073697A65206D61782075736564206C656E
:100FA0006674207469636B20206572726F720A0028
:100FB00020696E69742020200020636C6F736520A7
:100FC0002000207265616479202000252D2A2E2AB8
:100FD00073203078253038782030782530387820E4
:100FE000002D002F002073757370656E64002072F1
:100FF000756E6E696E67002573005465726D696E5B
:10100000616C0000DDF70000D5F700005DF900001D
:10101000D1F7000011AE0000D9F70000280700004A
:101020003407000085B40000650700007207000067
:1010300049B400008407000093070000E1B50000F8
:10104000A9070000BD07000031B60000D20700006C
:10105000E5070000F5F70000FA07000003080000AC
:10106000EDBA0000210800002C0800000DCC0000A3
:10107000420800004B08000005AE000067080000B1
:1010800072080000F9AD0000970800009D080000FC
:1010900091B30000AD080000B5080000F1F90000B0
:1010A000D8080000E6080000F1F900000909000076
:1010B00015090000CDBD0000210900003309000022
:1010C000CDBD00003F090000480900005DBB0000E5
:1010D00061090000700900005DBB00008909000083
:1010E000960900005DB80000AE090000C1090000CB
:1010F0005DB80000D9090000E409000039C0000013
:10110000F90900000A0A000039C000001F0A0000A7
:10111000240A0000D5B70000DFF80CD000F066FB11
:10112000004800474519000000F000206002000060
:1011300000000000000000000000FF1F600200002F
:10114000C005FF1FC005FF1FC005FF1FC004010031
:10115000C0040100A8310020000000200004FF1F8F
:10116000C005FF1F0004FF1FC004010000030100B1
:1011700000000020000000200000FF1F00EC002005
:1011800072B61448006814490968A1EB0001A1F186
:101190000101012907DD4FF0000240F8042BA1F105
:1011A00004010429F9DA00BF0C490D4A0A600D4810
:1011B00080470D48804762B60C480047FEE7FEE7CF
:1011C000FEE7FEE7FEE7FEE7FEE7FEE7FEE7FEE7F7
:1011D000FEE70000781100007C11000008ED00E03F
:1011E00000000000FDA70000A9AA000019110000DE
:1011F000EFF3108072B6704780F310887047424A50
:101200001368012B04D04FF0010313603F4A1060B4
:101210003F4A11603F484FF0805101607047EFF343
:10122000108272B63848016851B34FF00001016076
:101230003648016891B1EFF309811EF0100F08BF25
:1012400021ED108B21E9F00F4FF000041EF0100F7C
:1012500008BF012441F8044D006801602C49096869
:10126000096808C9B1E8F00F002B18BFB1EC108B6A
:1012700081F309884EF0100E002B18BF2EF0100ECF
:1012800082F310884EF0040E704721490860EFF396
:10129000148222F0040282F314881C494FF00000EB
:1012A000086019494FF0010008601B481B49D0F83D
:1012B000002041EA0201016016484FF080510160B0
:1012C00017480068006880F3088861B662B6704706
:1012D0001EF0040F0CBFEFF30880EFF3098020E944
:1012E000F00F40F804ED40F804ED1EF0040F0CBFC1
:1012F00080F3088880F3098800B50CF0B5F95DF833
:1013000004EB4EF0040E7047A0310020142F002093
:101310001C2F002004ED00E020ED00E00000FFFFA6
:1013200008ED00E02DE9F05F0546002092469B465F
:1013300088460646814640241BE0284641464746EB
:10134000224600F08BF853465A46C01A914110D3FA
:1013500011461846224600F072F82D1A67EB010874
:101360004F4622460120002100F069F817EB0009E2
:101370004E41201EA4F10104DFDC484631462A46D6
:101380004346BDE8F09F40EA01039B0703D009E014
:1013900008C9121F08C0042AFAD203E011F8013B61
:1013A00000F8013B521EF9D27047D2B201E000F8BA
:1013B000012B491EFBD270470022F6E710B51346F9
:1013C0000A4604461946FFF7F0FF204610BD10B547
:1013D000044604E00B7800F8013B03B1491C521E9F
:1013E000F8D2204610BD421C10F8011B0029FBD189
:1013F000801A704730B505460020034600E05B1CAC
:10140000934205D2EC5CC85C201A01D1002CF6D1C5
:1014100030BD30B50B46014600202022012409E0F2
:1014200021FA02F59D4205D303FA02F5491B04FA9D
:1014300002F52844151EA2F10102F1DC30BD202A7C
:1014400004DB203A00FA02F1002070479140C2F11B
:10145000200320FA03F3194390407047202A04DB4D
:10146000203A21FA02F00021704721FA02F3D0401D
:10147000C2F1200291400843194670472DE9FE4F02
:10148000804681EA0300C00F0C46009021F0004125
:1014900023F00045B8EB0200A94105D240462146A1
:1014A00090461C460B46024623F00040104347D0AE
:1014B000270DC7F30A00C3F30A510290401A0190A6
:1014C00040286BDAC3F3130040F4801B0098924667
:1014D00020B10023D2EB030A63EB0B0B01985946B2
:1014E000C0F140025046FFF7AAFF06460D4650469F
:1014F0005946019A00F08CF910EB08006141002474
:1015000087EA115284EAE7731A4340D0009A62B323
:10151000019A012A4FEA075215DC001B61EB020118
:101520004FF0004202EA0752CDE90042001C41F5AB
:10153000801132462B4600F08CF903B0BDE8F08FE5
:1015400040462146F9E7001B61EB0201001C41F512
:10155000801300185B412018A2F5001747EB030128
:1015600040EAD570B6196D4111E06D084FEA3606B4
:1015700045EAC0754FEA0752001B61EB0201001CEF
:1015800041F5801149084FEA3000001951413246B7
:101590002B4603B0BDE8F04F00F04CB90098012293
:1015A00040000023D0EB020263EBE0730098214679
:1015B0004FEAE074B8EB000061EB0401E9E783F067
:1015C00000435BE781F0004158E72DE9FE4F81EAD7
:1015D000030404F0004421F0004100944FF0000B9C
:1015E00023F0004350EA01045ED052EA03045BD0CA
:1015F000C3F30A54C1F30A552C44A4F2F334019402
:10160000A0FB0254C1F3130141F48011C3F313038F
:1016100043F4801301FB024400FB034E840A970A43
:1016200044EA815447EA8357A4FB076802958D0A70
:1016300005FB07854FEA932C04FB0C542705029DFC
:101640004FEA065847EA1637B5EB08056EEB070C6C
:10165000870E920E47EA811742EA8312A7FB020126
:10166000B6EB0B0164EB00042B0D43EA0C335E1860
:1016700044EB1C50DA465146E7FB0201C5F3130464
:101680004FEA0B3343EA14534FEA0432019C43EA16
:101690000603A4F10C040294009CCDE900B400F010
:1016A000D8F803B0BDE8F08F00200146F9E72DE936
:1016B000F04D81EA030404F0004B21F0004514468C
:1016C0004FF0000A23F0004150EA050220D054EA0E
:1016D00001021DD0C5F30A570246C5F31303C1F337
:1016E0001300C1F30A5640F4801543F48013A7EBAE
:1016F0000608101BD64608F2FD3873EB050002D32E
:1017000008F1010801E092185B41B8F1000F03DA1B
:1017100000200146BDE8F08D00204FF48011064600
:1017200084460EE0171B73EB050705D3121B63EB12
:10173000050306434CEA010C49084FEA30009218B1
:101740005B4150EA0107EDD152EA030012D082EA70
:10175000040083EA0501084305D0101BAB4106D203
:101760000122002306E000224FF0004302E06FF068
:10177000010253101AEB06004CEB085110EB0A0063
:1017800041EB0B01BDE8F04D00F054B8C1F30A5233
:10179000C1F3130140F2FF3341F480119A4202DA9F
:1017A00000200146704740F233439A42A2F233428E
:1017B00002DC5242FFF752BEFFF741BE30B5041EB5
:1017C00071F1000404DB4FF00044404264EB01017E
:1017D000141E73F1000405DB1C464FF00043524217
:1017E00063EB0403994208BF904230BD064C074D9D
:1017F00006E0E06840F0010394E8070098471034E1
:10180000AC42F6D3FFF78CFCE002010000030100BC
:10181000202A06DBCB17203A41FA02F043EAE073B4
:1018200006E041FA02F3D040C2F1200291400843A1
:101830001946704710B5141E73F1000408DA401CF5
:1018400041F1000192185B411A4301D120F00100DF
:1018500010BD2DE9F04D92469B4611B1B1FA81F2CF
:1018600002E0B0FA80F220329046FFF7E8FD04462D
:101870000F4640EA0A0041EA0B0153465A46084324
:1018800013D0114653EA010019D0C8F14002504666
:10189000FFF7E4FD05460E46504659464246FFF71F
:1018A000CEFD084305D0012004E020463946BDE8BE
:1018B000F08D0020054346EAE0762C4337430A9832
:1018C0006305E40AA0EB08000022FD0A44EA47543D
:1018D0000A3002D500200146E9E7010510196941E7
:1018E000DDE9084500196941BDE8F04DA2E770B592
:1018F0008C1810F8015B15F0070301D110F8013BBB
:101900002A1106D110F8012B03E010F8016B01F841
:10191000016B5B1EF9D12B0705D40023521E0DD499
:1019200001F8013BFAE710F8013BCB1A921C03E0E7
:1019300013F8015B01F8015B521EF9D5A142D8D31F
:10194000002070BD80B582B0FFF752FC0BF0FAFDAD
:101950000CF0CAFC0CF0C2FE0CF012FE0A20009043
:1019600040F62E304CF23D614FF0140CC0F20000F6
:10197000C0F2000100224FF40073CDF804C00CF057
:10198000B7FE0DF079F80CF0B1FE0CF097FF0CF0FB
:101990008DFE002002B080BD10B5022006F086F951
:1019A00040F66654C0F2000404A0214606F090F907
:1019B00011A02146BDE8104006F08AB91B5B303B00
:1019C00033346D5B25735D2047656568792D47333A
:1019D000324131343635204C45445F4F6E20204C27
:1019E00045445F424C5545205B6F6B5D21200D0ADD
:1019F0001B5B306D0D0A00001B5B303B33336D5BAE
:101A000025735D202D2D2D3E206B65793120707260
:101A100065737320646F75626C652020636C696305
:101A20006B21203C2D2D2D0D0A1B5B306D0D0A0006
:101A300010B5012006F03AF940F66654C0F20004F1
:101A400004A0214606F044F911A02146BDE810404B
:101A500006F03EB91B5B303B33346D5B25735D2074
:101A600047656568792D4733324131343635204C2E
:101A700045445F4F6E20204C45445F475245454EDC
:101A8000205B6F6B5D21200D0A1B5B306D0D0A0022
:101A90001B5B303B33336D5B25735D202A2A2A3E66
:101AA000206B657931206C6F6E672070726573737F
:101AB00020686F6C6421203C2A2A2A0D0A1B5B30A7
:101AC0006D0D0A0040F6665102A0C0F2000106F05A
:101AD000FFB800BF1B5B303B33336D5B25735D206C
:101AE0002D2D2D3E206B657931206C6F6E67207037
:101AF0007265737320737461727421203C2D2D2DD7
:101B00000D0A1B5B306D0D0A0000000010B50020AF
:101B100006F0CCF840F66654C0F2000404A021465A
:101B200006F0D6F811A02146BDE8104006F0D0B866
:101B30001B5B303B33346D5B25735D204765656807
:101B4000792D4733324131343635204C45445F4F8F
:101B50006E20204C45445F524544205B6F6B5D21F5
:101B6000200D0A1B5B306D0D0A0000001B5B303B33
:101B700033336D5B25735D202D2D2D3E206B6579F4
:101B80003120707265737320646F776E21203C2D55
:101B90002D2D0D0A1B5B306D0D0A000040F66651BD
:101BA00002A0C0F2000106F093B800BF1B5B303BFF
:101BB00033336D5B25735D202D2D2D3E206B6579B4
:101BC00031207072657373207265706561742120B5
:101BD0003C2D2D2D0D0A1B5B306D0D0A0000000001
:101BE00040F6665102A0C0F2000106F071B800BFD5
:101BF0001B5B303B33336D5B25735D202D2D2D3EFC
:101C0000206B6579312070726573732075702120A7
:101C10003C2D2D2D0D0A1B5B306D0D0A00000000C0
:101C200040F6665102A0C0F2000106F051B800BFB4
:101C30001B5B303B33336D5B25735D202D2D2D3EBB
:101C4000206B657931207072657373207369676EDC
:101C50006C652020636C69636B2121203C2D2D2D48
:101C60000D0A1B5B306D0D0A0000000040F6665146
:101C700002A0C0F2000106F02BB800BF1B5B303B96
:101C800033336D5B25735D202D2D2D3E206B6579E3
:101C90003220707265737320646F75626C652020EA
:101CA000636C69636B21203C2D2D2D0D0A1B5B306D
:101CB0006D0D0A0040F6665102A0C0F2000106F068
:101CC00007B800BF1B5B303B33336D5B25735D2072
:101CD0002A2A2A3E206B657932206C6F6E6720704D
:101CE0007265737320686F6C6421203C2A2A2A0D68
:101CF0000A1B5B306D0D0A0040F6665102A0C0F26F
:101D0000000105F0E5BF00BF1B5B303B33336D5B6B
:101D100025735D202D2D2D3E206B657932206C6F53
:101D20006E67207072657373207374617274212002
:101D30003C2D2D2D0D0A1B5B306D0D0A000000009F
:101D400010B508F09BFE40F6665440F62250C0F2F3
:101D50000004C0F20000214605F0BAFF02A02146AF
:101D6000BDE8104005F0B4BF1B5B303B33336D5B07
:101D700025735D202D2D2D3E206B657932207072EC
:101D800065737320646F776E21203C2D2D2D0D0A15
:101D90001B5B306D0D0A000040F6665102A0C0F2D8
:101DA000000105F095BF00BF1B5B303B33336D5B1B
:101DB00025735D202D2D2D3E206B657932207072AC
:101DC0006573732072657065617421203C2D2D2D23
:101DD0000D0A1B5B306D0D0A0000000040F66651D5
:101DE00002A0C0F2000105F073BF00BF1B5B303BD7
:101DF00033336D5B25735D202D2D2D3E206B657972
:101E00003220707265737320757021203C2D2D2D4A
:101E10000D0A1B5B306D0D0A0000000040F6665194
:101E200002A0C0F2000105F053BF00BF1B5B303BB6
:101E300033336D5B25735D202D2D2D3E206B657931
:101E400032207072657373207369676E6C65202031
:101E5000636C69636B2121203C2D2D2D0D0A1B5BCA
:101E6000306D0D0A00000000FEE7000080B540F272
:101E70003860C2F200000268D2F8083113B10020C5
:101E80000921984744F22000C4F2020001680622AA
:101E9000C0F23B02114208BF80BD0221C0F23001F6
:101EA0000160006880BD0000002000F0EBB9000078
:101EB000002000F0E7B9000080B540F23860C2F2BF
:101EC00000000268D2F8083113B1002009219847B8
:101ED00044F22000C4F2020002680421C0F20B01A7
:101EE0000A421CBF0160006880BD0000B0B540F22E
:101EF0003860C2F20000046844F20000C4F202003C
:101F00000068400428D544F60835C4F20205286864
:101F1000C0030DD5286840F480302860D4F800C193
:101F2000BCF1000F04D00020052100222346E04729
:101F30002868800358BFB0BD286840F4003028608E
:101F4000D4F800C1BCF1000F06D000200621002209
:101F50002346BDE8B0406047B0BD000080B540F208
:101F60003860C2F200004268D2F8083113B1012093
:101F70000921984745F22000C4F2020001680622B8
:101F8000C0F23B02114208BF80BD0221C0F2300105
:101F90000160006880BD0000012000F073B90000FE
:101FA000012000F06FB9000080B540F23860C2F245
:101FB00000004268D2F8083113B101200921984786
:101FC00045F22000C4F2020002680421C0F20B01B5
:101FD0000A421CBF0160006880BD000080B540F26D
:101FE0003860C2F200008268D2F8083113B10220D2
:101FF000092198474BF22000C4F202000168062232
:10200000C0F23B02114208BF80BD0221C0F2300184
:102010000160006880BD0000022000F033B90000BC
:1020200080B540F23860C2F200008268D2F8083110
:1020300013B10220092198474BF22000C4F202009C
:1020400002680421C0F20B010A421CBF0160006853
:1020500080BD000070B5054640F23860C2F2000055
:1020600050F8254094F81001C0B16079032827D0BA
:1020700094F81101266805F0A7FD3068810202D4AA
:102080007168890C7160C0F30340F16886F84800FC
:1020900008BAB168F06008BAB06011E040F2A4601C
:1020A000C0F2000050F82500816A21F02001816211
:1020B000816A21F080018162816A21F040018162A0
:1020C00000202060617903290CD06071D4F8006190
:1020D00046B194F81001012804D1284607210022B6
:1020E0002346B047A079002808BF70BD607908B1C9
:1020F00070BD00BF201DBDE8704007F0A3BB00000D
:10210000F0B503681B0501D4102307E0D0F8003CAC
:102110000826C3F3014306FA03F308334FF40076AD
:10212000B6FBF3F69B08B6B2B1FBF6F505FB16114C
:10213000594301EBC51100EB810C5CF8801FC1F322
:102140000347092F0AD2016809054FF0080121D47D
:102150008F420CF1080326D82EE000BF090C01F0D5
:102160000F03092B10D34FF0E04303EB017140F252
:102170000C530917C0F200035F5C016809054FF0BA
:102180000801E5D506E000BF0027016809054FF00A
:102190000801DDD5D0F8003CC3F3014399408F42DC
:1021A0000CF1080308D901680827090504D5D0F8FF
:1021B000000CC0F30140874082F84870DCF8000052
:1021C0001060DCF80410800258BF890C17F0FC0086
:1021D000516011D0002104245D5816192DBA756084
:1021E000251D043184422C46F6D3281F5FFA80FC5B
:1021F000BC4546D204E000BF4FF0000CBC4540D2C5
:10220000A7EB0C006FEA0C0510F0030105EB070EBD
:102210001AD08CF00300185C02EB0C042072012928
:102220000CF1010011D080F003041C5D1044047215
:1022300002290CF1020008D080F00301595C10441F
:1022400001720CF1030000E06046BEF1030F38BFDD
:10225000F0BD00BF80F00301595C16183172411CBB
:1022600081F00301595C7172811C81F00301595C9A
:10227000B172C11C81F00301595C0430B842F172A3
:10228000E8D1F0BD2DE9F04F99B0044640F2A460CA
:10229000C0F2000050F824B040F23860C2F20000F2
:1022A000D9465F4650F8243059F8280F57F8301FA8
:1022B0000840C00740F0D080D9F8000039680840D5
:1022C000800700F1CD80D9F8000039680840400748
:1022D00000F1CA80D9F8000039680840000700F111
:1022E000C780D9F8000039680840C00600F1C480F2
:1022F000D9F8000039680840800600F1C180D9F89B
:10230000000039680840400600F1BE80D9F800009E
:1023100039680840000600F1BB80D9F80000396830
:102320000840C00500F1E881D9F80000396808408C
:10233000800500F1E581D9F80000396808404005C2
:1023400000F1E281D9F8000039680840000500F189
:10235000DF81D9F8000039680840C00400F1DC8151
:10236000D9F8000039680840800400F1D981D9F813
:10237000000039684A4608403E46400400F1D481D6
:10238000106831680840000400F1D281106831689B
:102390000840C00300F1D081106831680840800314
:1023A00000F1CE81106831680840400300F1CC8113
:1023B000106831680840000300F1CA811068316874
:1023C0000840C00200F1C8811068316808408002EE
:1023D00000F1C681106831680840400200F1C481F4
:1023E000106831680840000200F1C281106831684D
:1023F0000840C00100F1C0811068316808408001C8
:1024000000F1BE81106831680840400100F1BC81D4
:10241000106831680840000100F1BA811068316825
:102420000840C00000F1B8811068316808408000A1
:1024300000F1B681106831680840400000F1B481B5
:10244000106831680840B0F1FF3F00F3488237461A
:102450004FF01F089146ABE14FF000081AE000BFB3
:102460004FF0010816E000BF4FF0020812E000BF75
:102470004FF003080EE000BF4FF004080AE000BF71
:102480004FF0050806E000BF4FF0060802E000BF6D
:102490004FF00708DBF8000080000FD404940125FA
:1024A00003EBC80414F8050F012840F08C81DBF819
:1024B00000000095000529D410202FE0B8F1070F87
:1024C00000F08480B8F1060F70D0B8F1050F40F02D
:1024D0008A805879012840F0A9801968DBF88020AB
:1024E000C2F303400928C0F0D680100C00F00F02A0
:1024F000092AC0F0CF804FF0E04202EB007040F2BA
:102500000C520017C0F20002105CC4E0DBF8000CB3
:102510000821C0F3014001FA00F008304FF40071C7
:10252000B1FBF0F18008CAB2B8FBF2F21E4602FB22
:102530001181C9B2484300EBC2100BEB8000D0F808
:10254000800053F8382058464146FFF7D9FD012056
:1025500000FA08FCCBF830C0DBF800003146800000
:10256000CDE901B904D551F83800C078000761D031
:10257000DDF80090BA460B46DBF80800002020701A
:10258000D3F800611D4636B10498012142462B461E
:102590006746B047BC4620782E4638B3049C4D466B
:1025A000DDE901B9334657460EE100BF40203860EF
:1025B000D3F800612EB12046032100229846B0478F
:1025C00043464FF006080125FEE000BF802038603A
:1025D000D3F800612EB12046042100229846B0476E
:1025E00043464FF007080125EEE000BF40F2386097
:1025F0000499029ACDF814A0C2F2000050F821000C
:10260000116800EBC80421EA0C011160A07917469B
:102610004D4610B1201D07F015F900206071049C93
:10262000B946059FDDF804B03346CDE04FF005080C
:102630000125C9E0DBF80000DDF8009000050B463D
:1026400002D4102008E000BFDBF8000C0821C0F322
:10265000014001FA00F008304FF40071B1FBF0F1D5
:102660008008CAB2B8FBF2F2BA4602FB1181C9B2C5
:10267000484300EBC2100BEB8000D0F8801021F033
:102680007061C0F88010D0F8801041F08061C0F80F
:10269000801073E7002081F84800DBF88020A24614
:1026A0000A60DBF88460920258BFB60C4E6048B1F5
:1026B0000BF1880208310024165936BA0E51043441
:1026C0008442F9D32020386000205871D3F80041AB
:1026D0002CB15046022100221E46A04733465879AD
:1026E00010B1012554466FE0504654461E46FFF790
:1026F000B1FC3346012567E04FF0080858E000BF01
:102700004FF0090854E000BF4FF00A0850E000BF46
:102710004FF00B084CE000BF4FF00C0848E000BF42
:102720004FF00D0844E000BF4FF00E083EE000BF40
:102730004FF00F083AE000BF4FF0100836E000BF3E
:102740004FF0110832E000BF4FF012082EE000BF3A
:102750004FF013082AE000BF4FF0140826E000BF36
:102760004FF0150822E000BF4FF016081EE000BF32
:102770004FF017081AE000BF4FF0180816E000BF2E
:102780004FF0190812E000BF4FF01A080EE000BF2A
:102790004FF01B080AE000BF4FF01C0806E000BF26
:1027A0004FF01D0802E000BF4FF01E08914637466B
:1027B0000494DBF80000002503EBC80414F8050FAF
:1027C00001283FF474AE049C03EBC80082461AF85B
:1027D000051F02296AD1C079059738B1DBF80000DE
:1027E0002E460005039307D410200DE0012000FAC7
:1027F00008F0394638602DE0DBF8000C0821C0F302
:10280000014001FA00F008304FF40071B1FBF0F123
:10281000800889B2B8FBF1F25D4602FB11814843A2
:1028200000EBC2100BEB8000D0F8800006AA5846DF
:102830004146FFF765FCDBF80800069800F0706081
:10284000B0F1806F04D10120059900FA08F008600A
:10285000039B354600208AF80000D3F800613EB1A2
:1028600020460021424627461C46B04723463C46A8
:102870009AF80000059FC8B940F23860C2F2000023
:1028800050F824000121D9F8002001FA08F122EAC9
:102890000101C9F8001000EBC804A07920B1201D87
:1028A0001E4606F0CFFF334600206071D9F80020A5
:1028B0003E68012101FA08F0324002420FD0DBF8F5
:1028C000002002F0005281EA527185F001021143AA
:1028D00014BF9AF800105979002908BF386019B060
:1028E000BDE8F08F2DE9F0414AF21000C4F2050076
:1028F00001690268436945688469866840F24460FA
:10290000C2F20000076802EA010878681D4004EA84
:10291000060498B1816889B102794FF0FF36437996
:1029200006FA02F2D2439A4018EA020F08BF15EAEB
:10293000020301D0884701E02240FBD1B86898B17A
:10294000816889B102794FF0FF36437906FA02F2C5
:10295000D2439A4018EA020F08BF15EA020301D0D9
:10296000884701E02240FBD1F86898B1816889B1BD
:1029700002794FF0FF36437906FA02F2D2439A40C9
:1029800018EA020F08BF15EA020301D0884701E0E8
:102990002240FBD13869C8B18168002908BFBDE871
:1029A000F08102794FF0FF37437907FA02F2D24300
:1029B0009A4018EA020F05D115EA020308BF12EA8D
:1029C000040203D0BDE8F041084700BFBDE8F08134
:1029D0000020002100F05CB80020012100F058B870
:1029E0000020022100F054B80020032100F050B86C
:1029F0000120002100F04CB80120012100F048B86E
:102A00000120022100F044B80120032100F040B869
:102A10000220002100F03CB80220012100F038B86B
:102A20000220022100F034B80220032100F030B867
:102A30000320002100F02CB80320012100F028B869
:102A40000320022100F024B80320032100F020B865
:102A50000420002100F01CB80420012100F018B867
:102A60000420022100F014B80420032100F010B863
:102A70000520002100F00CB80520012100F008B865
:102A80000520022100F004B805200321AFF30080E7
:102A9000B0B540F24862C2F2000252F8202013782A
:102AA000082B01D0012B5FD140F2B063C0F20003CC
:102AB00053F820C003294FEA410309D840F294603B
:102AC000C0F2000050F82100DCF86410014221D06F
:102AD000D9B243F001030CF10C045FFA83FE04EB5E
:102AE000C10004EBCE0340685B6884B29DB2A5428E
:102AF00002D9181A03E000BF1489181A204402EB07
:102B0000410398810CEBC100C368C36823F08003C4
:102B1000C36011E0D8B20CF10C0151F83000C04391
:102B2000C0B243EAD0105FFA80FE01EBCE004068ED
:102B300002EB4E01888171460CEBCE00C368C3687E
:102B400023F08003C36002EB8100DCF80850436C83
:102B50001581002B08BFB0BD1144097F21B1416A26
:102B60000020BDE8B0401847B0BD000080B582B07D
:102B700071B94FF48071ADF8041000218DF8061082
:102B800001218DF8021040F20111ADF800106946E4
:102B900044F20023C4F206031A6892015AD41A6858
:102BA000002822F400021A604FF000021A604DD093
:102BB000487891F802C0D3F804E040F207722EEA98
:102BC00002025A605A686CF30A2010435860087871
:102BD0009A6860F300029A60087991F805E091F82C
:102BE00006C019684FF6F872CFF67F7211400322C3
:102BF000002808BF0122BEF1000F18BF0432BCF14B
:102C0000000F18BF02F50002501841F200216422A3
:102C1000C0F27A01186000BF1868C00106D4002015
:102C20000028A2F101000AD00CE000BF986800F073
:102C30000100404208400028A2F1010002D1012A0F
:102C40000246E9D10022002808BF0322104602B044
:102C500080BD00BF0222104602B080BDB0B584B076
:102C6000024689B940F20010C0F200200190002015
:102C70008DF80C0040F20110ADF8080041F2002080
:102C8000C0F27A006946009044F20013C4F20603D1
:102C90001868800146D4186840F2600C20F40000E7
:102CA0001860002018601C68C2F2000C44F08064B8
:102CB000002A1C60CCF8040000F08C80087A91F89F
:102CC00009E05C6840F2077224EA02025A605A681E
:102CD0006EF30A2010435860CC7991F805E08A79A8
:102CE0009868302505EA041420F03C0062F3C30420
:102CF0000EF00102204440EA820098600879022820
:102D000014D0012824D0B8BB087B1A684FF6FE7592
:102D1000CFF67C752A400125C0F28005002808BF47
:102D2000012525E0022004B0B0BD00BF087B1A6871
:102D30004FF6FE75CFF67C752A400125C0F280055E
:102D400005F54035002804BF0125C0F203050FE05A
:102D5000087B1A684FF6FE75CFF67C752A40012570
:102D6000C0F2800505F58035002808BF4FF0011539
:102D7000A8181860002000E0012009684EF288724F
:102D8000B1FA81F5CCF80410C0F230024FEA551CBC
:102D90004FF0010E1C68E40100D5B9B91C68E401CC
:102DA00000D599B91C68E40100D579B91C6804F014
:102DB00080748EEA146444EA0C04012CA2F1040429
:102DC00005D1042A2246E5D101E000BF0124002CF0
:102DD00008BF032004B0B0BDB0B583B0024661B9EE
:102DE0000020ADF800008DF8070040F20110ADF8AA
:102DF0000400072069468DF8020044F20063C4F223
:102E000006031868800151D41868002A20F40000D5
:102E100018604FF0000018601C6844F080641C606B
:102E200000F09F804FF6003244F2046CCFF6FF7240
:102E3000C4F2060C9858087991F805E0DCF80040D7
:102E400040F20775AC43CCF80040DCF800406EF36C
:102E50000A202043CCF8000091F801E08D78DCF8DE
:102E600004404FF6FF00CFF6E070204005F01F044D
:102E700024040EF0070544EA05252844CCF8040094
:102E80000878022816D0012826D0C8BBC87919684E
:102E90004FF6FE75CFF67C7529400125C0F203057B
:102EA00005F5FA05002808BF012525E0022003B03A
:102EB000B0BD00BFC87919684FF6FE75CFF67C75B6
:102EC00029400125C0F2030505F50005002804BFCF
:102ED0000125C0F203050FE0C87919684FF6FE75A9
:102EE000CFF67C7529400125C0F2030505F5FC05E8
:102EF000002808BF4FF0011568181860002000E096
:102F0000012040F26001C2F20001D1F804E0BEF1FC
:102F1000000F29D04FF47A7108E000BF0024002C84
:102F2000A1F101041AD10129214617D01C68E4013E
:102F3000F4D59C58E401F1D5DCF80440DCF80450E9
:102F4000C4F302240134BEFBF4F4C5F30445103588
:102F50006C436408002CA1F10104E4D0002C08BFEC
:102F6000032003B0B0BD00BF4FF61840CFF6FF708E
:102F70001968C90148BF99581968C90148BF9958CB
:102F80001968C90148BF99581968C90148BF9958BB
:102F90001968C90148BF99581968C90148BF9958AB
:102FA0001968C90148BF99581968C90148BF99589B
:102FB0001968C90148BF99581968C90148BF99588B
:102FC0001968C90148BF99581968C90148BF99587B
:102FD0001968C90148BF99581968C90148BF99586B
:102FE0001968C90148BF99581968C90148BF99585B
:102FF0001968C90148BF99581968C90148BF99584B
:103000001968C90148BF99581968C90148BF99583A
:103010001430ADD1032003B0B0BD00002DE9F04362
:1030200091F800C091F8019091F802E0C9780EF192
:1030300001034F1E09F101040CF10105052F4FF0AA
:10304000000641D8DFE807F004122640403600BFF2
:1030500044F20012C4F2060240F260061268C2F2A4
:1030600000067668D20106EAE2762DE044F2001608
:10307000C4F20606D6F80021D20124D5D6F80821DC
:1030800041F2002602F001025242C0F27A061640D6
:103090001AE000BF44F20016C4F20606D6F8002279
:1030A000D20110D5D6F8082246F60046C0F2DC263A
:1030B0000AE000BF44F20868C4F2060858F8082C79
:1030C000D20100F18980002604FB03F75D4301284B
:1030D0004FEA161434D0032862D0022878D140F287
:1030E000B84601EB4100C0F2000656F82020120954
:1030F0005A4394426CD806EB8000426812097A4326
:10310000944265D8806800096843844260D801F021
:103110000F004FEA0911F02341EA0E41C0F20F03FC
:103120000CF00F021940114441EA006044F2001112
:10313000C4F2060141F8E80C0020BDE8F08300BFAE
:1031400040F2644601EB4100C0F2000656F8202030
:1031500012095A4394423BD806EB80004268120998
:103160007A43944234D880680009684384422FD857
:1031700001F00F004FEA0911F02341EA0E41C0F2BD
:103180000F030CF00F021940114441EA006044F2B1
:103190000011C4F2060141F8EC0C0020BDE8F083F8
:1031A00040F2104601EB4100C0F2000656F8202024
:1031B00012095A4394420BD806EB80004268120968
:1031C0007A43944204D8806800096843844223D932
:1031D0000120BDE8F08300BF44F20012C4F20602F1
:1031E00012680026D2017FF56FAF40F26002C2F292
:1031F00000025768002F3FF467AFD8F80020D8F8D6
:103200000060C2F302220132B7FBF2F2C6F30446B9
:1032100010367243560857E701F00F004FEA0911C4
:10322000F02341EA0E41C0F20F030CF00F021940E7
:10323000114441EA006044F20011C4F2060141F871
:10324000E40C0020BDE8F0833C38052809D8DFE80D
:1032500000F0091725330303002908BF7047002039
:103260000860704748F20C00C4F204000068C0F324
:10327000016003282ED10020002918BF0860704784
:1032800048F20C00C4F204000068C0F38160032817
:1032900020D10020002918BF0860704748F20C00B8
:1032A000C4F204000068C0F30170032812D10020AA
:1032B000002918BF0860704748F20C00C4F20400EF
:1032C0000068800F032805D10020002918BF08607E
:1032D000704700BF40F26002C2F2000202EB8000C1
:1032E0008068002918BF08607047000048F210008D
:1032F000C4F20400016811F00C0F04BF4FF4FA305F
:103300007047016801F00C01042904BF00207047D8
:10331000016801F00C020168082A05D188074FF402
:10332000FA4101EAE070704701F00C010C2902D16A
:103330000168890702D40020704700BF006800F0D0
:103340000100404200F47A7070470000F0B581B08F
:1033500045F2001CA0F12905C4F2060C0024252D1D
:10336000009400F2B1800CF1CC0200230027DFE8CA
:1033700005F0A313171B1F23272B2F33AC373B3F1D
:103380004347AC4BAC53575B5F6367AC6B6F737772
:103390007B7F83878B979B9FACF138028AE000BFCD
:1033A000ACF17C0286E000BF0CF1840282E000BF39
:1033B0000CF124027EE000BF0CF128027AE000BF8D
:1033C0000CF12C0276E000BF0CF1300272E000BF7D
:1033D0000CF134026EE000BFACF10C026AE000BFF9
:1033E000ACF1700266E000BFACF16C0262E000BFBD
:1033F000ACF154025EE000BFACF128025AE000BF1D
:10340000ACF13C0256E000BF44F20422C4F20602D2
:1034100002F67C624EE000BFACF120024AE000BF41
:10342000ACF11C0246E000BFACF1180242E000BF64
:10343000ACF168023EE000BF0CF1B8023AE000BF18
:103440000CF1BC0236E000BFACF1140232E000BF68
:10345000ACF164022EE000BF0CF168022AE000BF6C
:103460000CF1980226E000BFACF1240222E000BF7C
:10347000ACF150021EE000BFACF14C021AE000BFFC
:10348000ACF1480216E000BFDCF80020DCF80030A8
:10349000C2F3C00403F007039C4212D862460BE05B
:1034A0000CF1A80206E000BF0CF1AC0202E000BF84
:1034B0000CF1B002002400231268274652001C467B
:1034C00003D4002001B0F0BD0027A0F13C02122A75
:1034D00000F25482ACF1200E7346DFE812F0A9002E
:1034E00013001D00270031003B004F0245004F0034
:1034F000590063006D00770081008B0095009D00EE
:10350000A700CF00ACF11C031B6803F0E063B3F12C
:10351000807F00F09380B9E0ACF118031B6803F0E2
:10352000E063B3F1807F00F08980AFE0ACF1680325
:103530001B6803F0E063B3F1807F00F07F80A5E0BB
:103540000CF1B8031B6803F0E063B3F1807F75D022
:103550009CE000BF0CF1BC031B6803F0E063B3F117
:10356000807F6BD092E000BFACF114031B6803F0C6
:10357000E063B3F1807F61D088E000BFACF1640309
:103580001B6803F0E063B3F1807F57D07EE000BF9B
:103590000CF168031B6803F0E063B3F1807F4DD04A
:1035A00074E000BF0CF198031B6803F0E063B3F113
:1035B000807F43D06AE000BFACF124031B6803F0B6
:1035C000E063B3F1807F39D060E000BFACF150031D
:1035D0001B6803F0E063B3F1807F2FD056E000BF9B
:1035E000ACF14C031B6803F0E063B3F1807F25D09E
:1035F0004CE000BFACF148031B6803F0E063B3F19B
:10360000807F1BD042E000BF63461B6803F0E0638D
:10361000B3F1807F12D039E00CF1A8031B6803F0EE
:10362000E063B3F1807F09D030E000BF0CF1AC0360
:103630001B6803F0E063B3F1807F27D14FF6FC6095
:1036400044F20422CFF6FF70C4F2060240F2600397
:103650001058C2F200035B68C00103EAE0736FF028
:10366000FF001058002918BF000A10F00700A0F151
:10367000010118BF23FA01F085E100BF0CF1B0038E
:103680001B6803F0E063B3F1807FD7D0122A00F209
:1036900075817346DFE812F05400140018001C0016
:1036A00020002400720128002C0030003400380073
:1036B0003C004000440048004A004E00520000BF59
:1036C000ACF11C033CE000BFACF1180338E000BFD4
:1036D000ACF1680334E000BF0CF1B80330E000BF88
:1036E0000CF1BC032CE000BFACF1140328E000BFD8
:1036F000ACF1640324E000BF0CF1680320E000BFDC
:103700000CF198031CE000BFACF1240318E000BFEB
:10371000ACF1500314E000BFACF14C0310E000BF6B
:10372000ACF148030CE000BF634609E00CF1A803CC
:1037300006E000BF0CF1AC0302E000BF0CF1B003E7
:103740001B6803F0E063B3F1007F0DD144F2042065
:10375000C4F2060050F8042C002902F0807121D038
:1037600021BB00212BE000BF122A00F20781734623
:10377000DFE812F0780014003C00400044004800EC
:1037800004014C005000540058005C0060006400CC
:1037900068006C006E007200760000BFACF11C0384
:1037A00060E000BFB1B9006800210AE0416841F261
:1037B000002201F001014942C0F27A021140006882
:1037C000000A10F00700A0F1010218BF21FA02F070
:1037D000D9E000BF416841F2002201F001014942F5
:1037E000C0F27A0200681140EBE700BFACF11803A9
:1037F00038E000BFACF1680334E000BF0CF1B8035F
:1038000030E000BF0CF1BC032CE000BFACF11403AE
:1038100028E000BFACF1640324E000BF0CF16803B2
:1038200020E000BF0CF198031CE000BFACF12403C2
:1038300018E000BFACF1500314E000BFACF14C0342
:1038400010E000BFACF148030CE000BF634609E0A4
:103850000CF1A80306E000BF0CF1AC0302E000BFCE
:103860000CF1B0031B6803F0E063B3F1407F0FD1AC
:1038700044F20420C4F20600D0F8FC20002902F033
:10388000807119D000291DD1D0F80001002197E7DF
:10389000122A00F27380DFE802F0650B292D313522
:1038A00071393D4145494D5155595B5F630000BF3A
:1038B000ACF11C0E56E000BF71B9D0F80001002138
:1038C0007FE700BFD0F8041146F60041D0F80001B0
:1038D000C0F2DC2174E700BFD0F8041146F60041C5
:1038E000D0F80001C0F2DC216BE700BFACF1180E8C
:1038F00038E000BFACF1680E34E000BF0CF1B80E48
:1039000030E000BF0CF1BC0E2CE000BFACF1140E97
:1039100028E000BFACF1640E24E000BF0CF1680E9B
:1039200020E000BF0CF1980E1CE000BFACF1240EAB
:1039300018E000BFACF1500E14E000BFACF14C0E2B
:1039400010E000BFACF1480E0CE000BFE64609E015
:103950000CF1A80E06E000BF0CF1AC0E02E000BFB7
:103960000CF1B00EDEF8002002F0E062B2F1C06FA0
:1039700004D1072000F072F905E000BF6946FFF7A7
:1039800063FC00980024611CB0FBF1F0791C4843F3
:1039900001B0F0BD44F22001C4F20601086810F045
:1039A000706F11D0086800F07060B0F1807F0FD1A7
:1039B000D1F8E00040F26001C2F200014968C001A4
:1039C00001EAE070704700BF022000F03BBA00BF80
:1039D000086800F07060B0F1007F0FD1D1F8E0010D
:1039E000C00127D5D1F8E80141F2002100F0010023
:1039F0004042C0F27A010840704700BF086800F0FA
:103A00007060B0F1407F0BD1D1F8E002C00111D558
:103A1000D1F8E80246F60040C0F2DC20704700BF53
:103A2000086800F07060B0F1C06F21D1D1F8E005F6
:103A3000C00101D400207047D1F8E000C0014FF070
:103A4000000015D540F26002C2F200025268002A5E
:103A500008BF7047D1F8E805D1F8E815C0F3022097
:103A60000130B2FBF0F0C1F304411031484340088B
:103A70007047000010B548F20404C4F20404206842
:103A800000055CBF002010BD206810F0F00F13D0BF
:103A9000206800F0F000202812D144F20010C4F297
:103AA000060040F260020168C2F200025268C901D9
:103AB000406802EAE17145E0FFF76CFF49E000BFB2
:103AC000206800F0F00040280AD144F20010C4F24F
:103AD0000600D0F80011C90114D400211CE000BF79
:103AE000206800F0F00060281AD144F20010C4F2FF
:103AF0000600D0F80012C9011CD4D0F8040200213D
:103B000020E000BFD0F8081141F2002201F00101CD
:103B10004942C0F27A021140D0F8040112E000BF1D
:103B2000206800F0F00070281AD1002000F08AF917
:103B30000FE000BFD0F8081246F60041D0F80402AA
:103B4000C0F2DC21C0F30220421E002818BF21FA77
:103B500002F02168C1F302210131B0FBF1F010BD88
:103B6000206800F0F000802804D10720012100F037
:103B700075F8EEE7206800F0F000902804D10120ED
:103B800000F060F9E5E700BF206800F0F000A02831
:103B900002D14FF4FA30DCE7206800F0F000C028D2
:103BA00002D1FFF7A3FBD4E7206800F0F000E02883
:103BB00014BF002000F002F8CBE7000048F210002C
:103BC000C4F20400016811F0300F0BD0016801F05D
:103BD00030020168102A15D188074FF4FA4101EA32
:103BE000E070704744F20010C4F2060040F2600238
:103BF0000168C2F200025268C901406802EAE1713C
:103C000024E000BF01F03001202905D140F260001E
:103C1000C2F2000000687047006800F030003028F1
:103C20001CBF0020704744F20010C4F20600D0F818
:103C30000012C90102D4002106E000BFD0F808122A
:103C400046F60041C0F2DC21D0F8040210F0070073
:103C5000A0F1010218BF21FA02F070470438B9B18F
:103C6000032800F2BB800FF20601DFE800F0032911
:103C7000354500BF44F20011C4F20601D1F800013D
:103C8000C00100F17380D1F8041100209FE000BF53
:103C9000032800F2A3800FF20601DFE800F0035BC7
:103CA0003B4B00BF44F20011C4F20601D1F8000101
:103CB000C00100F1AF80D1F80411002088E000BFFE
:103CC00044F20011C4F20601D1F80002C0015BD435
:103CD000D1F8041200207AE044F20010C4F2060089
:103CE00040F260020168C2F2000252684368C901F2
:103CF00002EAE170190A6BE044F20010C4F2060017
:103D0000D0F80015C90144F20861C4F2060145D497
:103D100000205AE044F20010C4F206000168CA0113
:103D200040F26001C2F200014B68416803EAE270B0
:103D30004EE000BF44F20010C4F20600D0F80015B7
:103D4000C90144F20861C4F2060149D451F8041CC7
:103D500000203DE044F20011C4F20601D1F8000257
:103D6000C00165D4D1F80412002031E0D1F8080177
:103D700041F2002200F001004042C0F27A02D1F884
:103D80000411104023E000BFD1F8080246F60040BD
:103D9000D1F80412C0F2DC2019E000BF0068C001B5
:103DA0004FF0000011D540F26002C2F200025268EA
:103DB0005AB108680B68C0F302200130B2FBF0F082
:103DC000C3F3044210325043400851F8041C090A5E
:103DD00011F007011EBF0139C8407047002070472D
:103DE0000068C0014FF0000011D540F26002C2F23D
:103DF000000252685AB108680B68C0F30220013013
:103E0000B2FBF0F0C3F3044210325043400851F8C3
:103E1000041CDDE7D1F8080141F2002200F00100A6
:103E20004042C0F27A02D1F804111040D0E700BF3E
:103E3000D1F8080246F60040D1F80412C0F2DC20A6
:103E4000C6E7000044F21002C4F20602116801F055
:103E50007061B1F1807F0BD140F26003D2F8F010B5
:103E6000C2F200035B68C90103EAE17133E000BFFD
:103E7000116801F07061B1F1007F0FD1D2F8F0113B
:103E8000C90127D5D2F8F81141F2002301F0010150
:103E90004942C0F27A0319401DE000BF116801F0E9
:103EA0007061B1F1407F0BD1D2F8F012C90111D588
:103EB000D2F8F81246F60041C0F2DC210BE000BF58
:103EC000116801F07061B1F1C06F03D1D2F8F01543
:103ED000C90115D400211368C3F3034303F101039F
:103EE000B1FBF3F150B1012802D11068000900E0E4
:103EF000106800F00F000130B1FBF0F10846704788
:103F0000D2F8F010C9014FF00001E4D540F260038F
:103F1000C2F200035B68002BDDD0D2F8F815C1F3C4
:103F2000022101F1010CD2F8F815B3FBFCF3C1F347
:103F30000441103159434908CDE7000070B584B001
:103F40000029024646D1012144F200108DF80810E4
:103F50004FF00111C4F20600CDF80A10D0F800119C
:103F6000C90103D5D0F80811C90711D1D0F8001242
:103F7000C90109D4D0F80015C90140F26001C2F2AC
:103F8000000107D449681AE0D0F8080205201EE0B5
:103F900004201CE003684968DB0110D579B1D0F832
:103FA0000835D0F80855C3F302230133B1FBF3F30E
:103FB000C5F3044510356B43012B00F29D80036867
:103FC0000620002908BF5120D90158BF512002A95D
:103FD0008DF8090040F2D760C0F20000805CC30792
:103FE00048D110F0180F00F05B8048780438C0B258
:103FF00003289ABF94A353F820300023A2F1290587
:10400000252D4FF0000C00F2538045F28404C4F2D9
:10401000060404F5A4764FF0000EDFE815F0FD006D
:1040200027006F00750079007D0081008500890000
:104030008D0001019100950099009D00A1000101F2
:10404000A5000101AD00B100B500B900BD00C1007F
:104050000101C500C900CD00D100D500D900DD00A7
:10406000E100E500EF00F300F70000BF04F14406B3
:10407000CEE000BFA2F12103042B3AD80A7848F21F
:104080004000C4F20400DFE803F003171F272F00ED
:104090000168002A21F0100118BF103128E000BF8C
:1040A0000023A2F12905252D4FF0000C7FF6ADAFBE
:1040B0004FF0000EB4E000BF0168002A21F00801B3
:1040C00018BF083114E000BF0168002A21F0040184
:1040D00018BF04310CE000BF0168002A21F0020182
:1040E00018BF023104E000BF016821F00101114353
:1040F000016004B070BD00BF072068E74FF0000CFE
:104100004FF0000E264687E004F5807680E000BF81
:1041100004F1A0067CE000BF04F1A40678E000BF33
:1041200004F1A80674E000BF04F1AC0670E000BF23
:1041300004F1B0066CE000BF04F1700668E000BF57
:1041400004F10C0664E000BF04F1100660E000BF5B
:1041500004F128065CE000BF04F1540658E000BFFB
:1041600004F1400654E000BF44F20010C4F206001F
:1041700000F578664CE000BF04F15C0648E000BF43
:1041800004F1600644E000BF04F1640640E000BFB3
:1041900004F114063CE000BF04F59A7638E000BF55
:1041A00004F59C7634E000BF04F1680630E000BFFF
:1041B00004F118062CE000BF04F1E40628E000BF7B
:1041C00004F58A7624E000BF04F1580620E000BF21
:1041D00004F12C061CE000BF04F1300618E000BF1B
:1041E00004F1340614E000BF48888E88A0F1010E67
:1041F000A6F1010C04F17C060EE000BF04F59276F6
:1042000006E000BF04F5947602E000BF04F5967660
:104210004FF0000C4FF0000E306820F0804030600E
:10422000087800283FF465AF44F20010C4F206009D
:1042300000F5706011460122CDF800C0CDF804E011
:1042400005F018FB04B070BD020000000300000080
:1042500001000000060000002DE9F047D0B0044640
:10426000002870D14FF48071ADF82410ADF82F10F4
:10427000ADF80F1040F20111C0F20101CDF83D1070
:1042800003218DF83C1002218DF8451040F20311F6
:10429000C0F20061CDF8461040F2033141F2002037
:1042A000C0F20011C0F27A00CDF8411026A90690A4
:1042B000012024912121C0F2021040F600422391F6
:1042C0000021CDF81D000120C0F20012C0F2011142
:1042D00002AC00258DF82100CDF829208DF82D00A5
:1042E0004FF0011240F201168DF80A008DF8160009
:1042F000ADF814008DF811008DF838008DF84B00E2
:104300008DF85000CDF8511013908DF88B008DF87A
:10431000580004F1540024218DF81C508DF82850C9
:10432000CDF80B20ADF808600D95FDF745F84FF07E
:104330000130CDE92000ADF888508DF88A50ADF8F5
:1043400094608DF8965040F2600844F20035C2F255
:10435000000800204FF61059C4F20605C8F8000006
:10436000CFF6FF7955F8090000F07060B0F1407F9A
:1043700022D1607F04F11001FEF770FC50B9E078A3
:104380002146FEF7F3FB28B994F8280004F1200138
:10439000FEF722FD4EF21406C4F207063168C9B2D8
:1043A000802900F0A2803168C9B2012940F09C80C8
:1043B00004F1360AAEE000BF2868C00100F1928027
:1043C0002868800100F1AA83286840F2077120F470
:1043D0000000286000202860286840F08060286085
:1043E000686888436860686840F201110843686043
:1043F000A8684FF6F67120F00300A8602868CFF691
:104400007F71084001304B2128602868C00100F10D
:104410008B822868C00100F189822868C00100F100
:1044200087822868C00100F17D832868C00100F1FF
:104430007B832868C00100F179832868C00100F1FE
:1044400077832868C00100F175832868C00100F1F6
:1044500073832868C00100F171832868C00100F1EE
:104460006F832868C00100F16D832868C00100F1E6
:104470006B832868C00100F169832868C00100F1DE
:1044800067832868C00100F165832868C00100F1D6
:1044900063832868C00100F161832868C00100F1CE
:1044A0005F832868C00100F15D832868C00100F1C6
:1044B00061832868C00100F15F832868C00100F1B2
:1044C0005D832868C00100F15B832868C00100F1AA
:1044D0005883193911F119004FF0030095D100F0FC
:1044E000D3BC00BFA86850E331683168C9B28029E5
:1044F0000AD03168C9B2012906D03168C9B204298D
:1045000002D104F13A0A05E03168C9B2802917D115
:1045100004F13E0A002840F0B7849AF80370032F94
:1045200018D1607F002800F0798140F20110C0F2BC
:10453000001026903068C0B2802821D1032016E1F7
:104540003068C0B2012818BF3068012050B0BDE803
:10455000F08700BF8DF89B709AF80200BAF800103F
:104560008DF89A00ADF898103068C0B2802801D15B
:10457000032012E03068C0B2012809D101200CE00C
:104580003068C0B2012840F0ED800120EFE000BFAC
:104590003068C0B20428D8D1022026A9FEF73EFD1B
:1045A000002840F0718455F80900C0F30360B84258
:1045B00036D055F80900C0F30360B84230D055F842
:1045C0000900C0F30360B8422AD055F80900C0F3CF
:1045D0000360B84224D055F80900C0F30360B84224
:1045E0001ED055F80900C0F30360B84218D055F842
:1045F0000900C0F30360B84212D055F80900C0F3B7
:104600000360B8420CD055F80900C0F30360B8420B
:1046100006D055F80900C0F30360B84240F0E683C5
:10462000A07B2968890100F179822968002821F49A
:10463000000129604FF000012960296841F0806184
:10464000296000F0EC83207A617A6A6840F207738F
:104650009A436A606A6861F30A2010436860A86838
:104660004FF6F67320F00300A860207B617B2A6878
:10467000CFF67F731A400123002808BF09230029C1
:1046800018BF03F5000398184B2128602868C00163
:1046900000F110832868C00100F110832868C00170
:1046A00000F110832868C00100F110832868C00160
:1046B00000F110832868C00100F110832868C00150
:1046C00000F110832868C00100F110832868C00140
:1046D00000F110832868C00100F110832868C00130
:1046E00000F110832868C00100F110832868C00120
:1046F00000F110832868C00100F110832868C00110
:1047000000F178832868C00100F176832868C00131
:1047100000F174832868C00100F172832868C00129
:1047200000F170832868C00100F16E832868C00121
:1047300000F16C832868C00100F16A832868C00119
:1047400000F168832868C00100F166832868C00111
:1047500000F16383193911F119004FF0030095D16D
:1047600092E300BF3068C0B2042857D1022026A9C6
:10477000FEF754FC002852D155F8090000F0706093
:10478000B0F1807F00F0298155F8090000F07060D9
:10479000B0F1807F00F0218155F8090000F07060D1
:1047A000B0F1807F00F0198155F8090000F07060C9
:1047B000B0F1807F00F0118155F8090000F07060C1
:1047C000B0F1807F00F0098155F8090000F07060B9
:1047D000B0F1807F00F0018155F8090000F07060B1
:1047E000B0F1807F00F0F98055F8090000F07060AA
:1047F000B0F1807F00F0F18055F8090000F07060A2
:10480000B0F1807F00F0E98055F8090000F0706099
:10481000B0F1807F00F0E180E8E200BF012094F871
:104820002810E9B101281BD140F20110C0F202604A
:1048300026903068C0B2802802D103200CE000BF6F
:104840003068C0B2012801D1012005E03068C0B253
:10485000042840F08981022026A9FEF7DFFBB8B1C9
:10486000E178002900F01083012840F00D83012039
:10487000C0F2002026903068C0B2802802D1032008
:104880005EE000BF3068C0B2012853D1012057E07C
:1048900055F8090000F07060B0F1C06F00F09D8025
:1048A00055F8090000F07060B0F1C06F00F095801D
:1048B00055F8090000F07060B0F1C06F00F08D8015
:1048C00055F8090000F07060B0F1C06F00F085800D
:1048D00055F8090000F07060B0F1C06F00F07D8005
:1048E00055F8090000F07060B0F1C06F75D055F850
:1048F000090000F07060B0F1C06F6ED055F809008B
:1049000000F07060B0F1C06F67D055F8090000F09A
:104910007060B0F1C06F60D055F8090000F07060B1
:10492000B0F1C06F59D061E218312AE1173128E1A6
:10493000163126E13068C0B204287FF406AE0220AA
:1049400026A9FEF76BFB002840F09E8255F809006F
:1049500000F07060B0F1007F3FD055F8090000F022
:104960007060B0F1007F38D055F8090000F0706039
:10497000B0F1007F31D055F8090000F07060B0F15F
:10498000007F2AD055F8090000F07060B0F1007F78
:1049900023D055F8090000F07060B0F1007F1CD002
:1049A00055F8090000F07060B0F1007F15D055F89F
:1049B000090000F07060B0F1007F0ED055F80900DA
:1049C00000F07060B0F1007F07D055F8090000F0EA
:1049D0007060B0F1007F40F00982A07B29688901F6
:1049E00000F19C802968002821F4000129604FF023
:1049F00000012960296841F08061296000F09581FB
:104A0000207A617A6A6840F207739A436A606A683A
:104A100061F30A2010436860A8684FF6F67320F02F
:104A20000300A860207B617B2A68CFF67F731A4061
:104A30000123002808BF0923002918BF03F500033C
:104A400098184B2128602868C00100F11F81286850
:104A5000C00100F11D812868C00100F11B81286898
:104A6000C00100F119812868C00100F11781286890
:104A7000C00100F115812868C00100F11381286888
:104A8000C00100F111812868C00100F10F81286880
:104A9000C00100F10D812868C00100F10D81286876
:104AA000C00100F10D812868C00100F10D81286866
:104AB000C00100F10D812868C00100F10D81286856
:104AC000C00100F10D812868C00100F10D81286846
:104AD000C00100F10D812868C00100F10D81286836
:104AE000C00100F10D812868C00100F10D81286826
:104AF000C00100F10D812868C00100F10D81286816
:104B0000C00100F10D812868C00100F10A81193946
:104B100011F119004FF0030095D1B5E1022050B01A
:104B2000BDE8F08715312CE014312AE0133128E07C
:104B3000123126E0113124E0103122E00F3120E063
:104B40000E311EE00D311CE00C311AE00B3118E083
:104B50000A3116E0093114E0083112E0073110E0A3
:104B600006310EE005310CE00120E17800297FF4E8
:104B70007BAE89E1043104E0033102E0023100E060
:104B80000131A868002900F05F8140F203114EF264
:104B90001400C0F20031C4F2070026910168C9B2C6
:104BA000802907D1032026A9FEF738FA002840F013
:104BB0006B8117E00168C9B2012907D1012026A93C
:104BC000FEF72CFA002840F05F810BE00068C0B2CD
:104BD00004287FF4BAAC022026A9FEF71FFA0028A9
:104BE00040F0528155F8090000F07060B0F1407F4C
:104BF0003FF4BFAB55F8090000F07060B0F1407FA2
:104C00003FF4B7AB55F8090000F07060B0F1407F99
:104C10003FF4AFAB55F8090000F07060B0F1407F91
:104C20003FF4A7AB55F8090000F07060B0F1407F89
:104C30003FF49FAB55F8090000F07060B0F1407F81
:104C40003FF497AB55F8090000F07060B0F1407F79
:104C50003FF48FAB55F8090000F07060B0F1407F71
:104C60003FF487AB55F8090000F07060B0F1407F69
:104C70003FF47FAB55F8090000F07060B0F1407F61
:104C80003FF477AB55F80900DEE000BF183148E08B
:104C9000173146E0163144E0153142E0143140E06E
:104CA00013313EE012313CE011313AE0103138E08E
:104CB0000F3136E01831B0E00E3132E01731ACE0A0
:104CC0000D312EE01631A8E00C312AE01531A4E0B8
:104CD0000B3126E01431A0E00A3122E013319CE0D0
:104CE00009311EE0123198E008311AE0113194E0E8
:104CF000073116E0103190E0063112E00F318CE000
:104D000005310EE00E3188E004310AE00D3184E017
:104D1000033106E00C3180E0023102E00B317CE02F
:104D20000131A868002900F08F809AF803709AF882
:104D30000200BAF800108DF89B708DF89A00ADF85B
:104D400098103068C0B2802802D103200CE000BF68
:104D50003068C0B2012801D1012005E03068C0B23E
:104D600004287FF4F2AB022026A9FEF757F90028A9
:104D700040F08A8055F80900C0F30360B8424ED075
:104D800055F80900C0F30360B84248D055F809004F
:104D9000C0F30360B84242D055F80900C0F3036085
:104DA000B8423CD055F80900C0F30360B84236D091
:104DB00055F80900C0F30360B84230D055F8090037
:104DC000C0F30360B8422AD055F80900C0F303606D
:104DD000B84224D055F80900C0F30360B8421ED091
:104DE00055F80900C0F30360B84218D055F809001F
:104DF0002AE000BF0A3110E009310EE008310CE072
:104E000007310AE0063108E0053106E0043104E02C
:104E1000033102E0023100E00131A868A1B194F849
:104E20004300A8B104F136010120FEF7F7F880B97C
:104E300004F13E010320FEF7F1F850B904F13A0104
:104E40000220FEF7EBF804E0032050B0BDE8F08745
:104E5000002094F8301000291CBFE16AC8F8001047
:104E600094F8351079B14FF62052CFF6FF7294F8CE
:104E70003410AB5801F00F0123F07063AB50AB5806
:104E800043EA0161A95018B150B0BDE8F08700BFF6
:104E900094F84400002848F26800C4F204001BD0D3
:104EA00094F8451094F8462094F8473050F8647C04
:104EB000002962F3071740F8647C50F8642C63F310
:104EC0000A2240F8642C50F8642C22F4006218BFC7
:104ED00002F5006240F8642C94F87810A1B394F8BD
:104EE000791050F8282C22F00102114340F8281CB8
:104EF00094F87A1050F8282C002922F0020218BFEA
:104F0000023240F8282C94F87B1050F8282C002905
:104F100022F0040218BF043240F8282C94F87C10C8
:104F200050F8282C002922F0080218BF083240F857
:104F3000282C94F87D1050F8282C002922F010021B
:104F400018BF103240F8282C94F84810D1B194F8CA
:104F50004A2094F8491094F84B3094F84C7050F86B
:104F6000586C02F0030226F03F06002B18BF47F0F2
:104F7000020747EA820201F00301324342EA0111CB
:104F800040F8581C94F87E1089B30021016094F811
:104F9000801050F8642C61F30C3240F8642C0168E6
:104FA00021F080510160016821F00E01016001686B
:104FB00021F001010160016821F08051016094F845
:104FC0007F10A1B194F8811094F88220036823F037
:104FD00080530360036861F343030360016821F0B9
:104FE000010111430160016841F08051016094F8B2
:104FF000501019B304F154078ECF08F1080C8CE857
:105000000E0050F85C1C67F3196140F85C1C616E7F
:1050100050F85C2C61F39B6240F85C2CA16E50F858
:105020005C2C61F31D7240F85C2CE16E50F85C2C36
:1050300022F0404242EA817140F85C1C94F88C00F6
:10504000B8B14DF20201C4F2070194F88E008A78DB
:1050500000F01F0002F0E0021044887094F88D0008
:105060000A78B0FA80F0400902F07F0242EAC010EC
:105070000870D4F88800002800F0C880D4F88400B4
:10508000002800F0C38045F28008C4F2060800261C
:1050900008F5A67905F5506AD4F8883006EB860045
:1050A000195CA1F12907252F00F29D804A46DFE80F
:1050B00007F09313171B1F23272B2F339A373B3FE0
:1050C00043479A4B9A4D5155595D619A65696D7187
:1050D00075797D8185898D9108F148027CE000BF5A
:1050E00008F1040278E000BF08F5827274E000BFA6
:1050F00008F1A40270E000BF08F1A8026CE000BF54
:1051000008F1AC0268E000BF08F1B00264E000BF43
:1051100008F1B40260E000BF08F174025CE000BF77
:1051200008F1100258E000BF08F1140254E000BF7B
:1051300008F12C0250E000BF08F158024CE000BF1B
:1051400008F1440248E000BF424645E008F1600231
:1051500042E000BF08F164023EE000BF08F16802CF
:105160003AE000BF08F1180236E000BF08F59C7273
:1051700032E000BF08F59E722EE000BF08F16C021D
:105180002AE000BF08F11C0226E000BF08F1E80297
:1051900022E000BF08F58C721EE000BF08F15C023F
:1051A0001AE000BF08F1300216E000BF08F1340237
:1051B00012E000BF08F138020EE000BF08F18002E3
:1051C0000AE000BF08F5947206E000BF08F5967289
:1051D00002E000BF08F59872116821F0804111606B
:1051E000D4F88830195C184442788378C7780079FD
:1051F00001970090504604F03DFBD4F8840001363E
:1052000086424FF00000FFF447AF3DE6002050B06B
:10521000BDE8F08770B5054611280C461ED8112D43
:1052200000F28080DFE815F0120084008C0094000A
:105230009C00B400C800DA00EA00F400FC00080199
:1052400014012201300140015001620100200025BB
:10525000FEF7F8FD002C40F0BB8255E3252D25D844
:10526000A5F11501002010294FF0040600F2088274
:10527000DFE811F012004E01580162010602060239
:1052800076017A019401B401CA01DE01F501EE0153
:10529000F001F201F40100BF48F21000C4F2040072
:1052A00050F8040CC0F301604DE100BF4F2D84BFE6
:1052B000042070BDA5F12902252A00F2AB8245F237
:1052C0008001C4F2060101F5A670DFE812F00303C5
:1052D0002700850287028B028F02930297029B02AE
:1052E0009F02A302A702AB02AF02B302B702A3025E
:1052F000BB02A302BD02C102C502C902CD02D10296
:10530000A302D502D902DD02E102E502E902ED02C3
:10531000F102F502F902FD02010300BF01F14800AC
:10532000D8E200BF00200425002C40F05182EBE2BF
:105330000120FEF787FD0025002C40F04982E3E2C2
:105340000220FEF77FFD0025002C40F04182DBE2C9
:105350000025FEF78FFB002C40F03A82D4E200BF1C
:1053600044F20010C4F20600D0F80011C9013ED585
:10537000D0F8080141F2002100F001004042C0F2E3
:105380007A0108400025002C40F02282BCE200BFD8
:1053900044F20011C4F20601D1F80002C00126D582
:1053A00046F60040D1F80812C0F2DC200025002C9F
:1053B00040F00E82A8E200BF44F20010C4F20600E2
:1053C00040F260010068C2F200014968C00101EAD0
:1053D000E0700025002C40F0FB8195E244F20010C3
:1053E000C4F20600D0F80015C90100F1578100256C
:1053F0000020002C40F0EC8186E200BF40F260000B
:10540000C2F2000000680025002C40F0E1817BE240
:105410000025FEF7BFFA002C40F0DA8174E200BFED
:1054200044F20010C4F20600D0F80011C90100F1E6
:10543000578100215EE100BF44F20010C4F2060073
:10544000D0F80011C90100F15981002160E100BFCD
:1054500044F20010C4F20600D0F80012C90100F1B5
:105460005B81D0F80402002183E100BF44F2001008
:10547000C4F20600D0F80012C90100F15781D0F83B
:105480000402002199E100BF44F20010C4F20600BA
:1054900040F260020168C2F200025268C90140682D
:1054A00002EAE17165E100BF44F20010C4F20600B7
:1054B00040F260020168C2F200025268C90140680D
:1054C00002EAE17179E100BF44F20011C4F2060181
:1054D000D1F80005C00144F20860C4F2060000F1F2
:1054E0002F8150F8040C002143E100BF44F2001169
:1054F000C4F20601D1F80005C00144F20860C4F20C
:10550000060000F1418150F8040C002155E100BF74
:1055100048F21000C4F2040050F8040CC0F381609B
:1055200011E000BF48F21000C4F2040050F8040C6F
:10553000C0F3017007E000BF48F21000C4F204009D
:1055400050F8040C800F032802D10026002097E0B9
:1055500040F26001C2F2000101EB800080688EE041
:105560000026FEF787FA8BE048F21000C4F2040030
:10557000016811F0300F00F0DF81016801F03002A6
:105580000168102A27D001F03001202940F0148250
:1055900040F26000C2F20000006870E04DF20200CC
:1055A000C4F2070090F900000028CED448F21000A1
:1055B000C4F20400016811F00C0F00F0E1810168F1
:1055C00001F00C010429C0D0016801F00C0201684F
:1055D000082A40F00182880724E000BF4DF2020053
:1055E000C4F2070090F900000028AED448F2100081
:1055F000C4F2040001688907A7D5006800F0010023
:10560000404200F47A703AE04DF20200C4F2070022
:1056100090F90000002898D448F21000C4F2040069
:10562000006880074FF4FA4101EAE07027E000BF0C
:105630004DF20200C4F2070090F900000026B0F11C
:10564000FF3F4FF00000C8BF4FF4FA3018E000BF32
:10565000052604E0062602E0072600E0082648F2B8
:105660001000C4F20400006B4FF48071B04021EAD6
:1056700000060EB1002003E00120FEF7E3FB002648
:10568000002C354618BF2060042E18BF4FF48075DB
:10569000002818BF3546284670BD00BF00680025A9
:1056A000C00140F1838140F26000C2F20000416815
:1056B0000020002900F0898044F20860C4F206004E
:1056C00002680068C2F302220132B1FBF2F1C0F3BA
:1056D00004401030484340080025002C78D113E1E5
:1056E000D0F8081141F2002201F001014942C0F254
:1056F0007A021140D0F804013BE000BFD0F8081155
:1057000041F2002201F001014942C0F27A02114047
:10571000D0F8040151E000BFD0F8081246F600416D
:10572000D0F80402C0F2DC2123E000BFD0F8081258
:1057300046F60041D0F80402C0F2DC213DE000BF93
:105740000968C9014FF0000111D540F26002C2F2B0
:10575000000252685AB101680368C1F302210131A5
:10576000B2FBF1F1C3F3044210325143490850F83F
:10577000040C10F00700A0F1010218BF21FA02F09A
:1057800000252CBBC0E000BF0968C9014FF0000133
:1057900011D540F26002C2F2000252685AB10168AB
:1057A0000368C1F302210131B2FBF1F1C3F30442FA
:1057B00010325143490850F8040CC0F30220421E35
:1057C000002818BF21FA02F00025002C00F09C8070
:1057D0002060284670BD00BF081D7BE001F5827087
:1057E00078E000BF01F1A40074E000BF01F1A8005F
:1057F00070E000BF01F1AC006CE000BF01F1B0004F
:1058000068E000BF01F1B40064E000BF01F1740082
:1058100060E000BF272D65D271E000BF01F11000EC
:1058200058E000BF01F1140054E000BF01F12C006A
:1058300050E000BF01F158004CE000BF01F144000E
:1058400048E000BF084645E001F1600042E000BFCB
:1058500001F164003EE000BF01F168003AE000BFE2
:1058600001F1180036E000BF01F59C7032E000BF86
:1058700001F59E702EE000BF01F16C002AE000BF30
:1058800001F11C0026E000BF01F1E80022E000BFAA
:1058900001F58C701EE000BF01F15C001AE000BF52
:1058A00001F1300016E000BF01F1340012E000BF4A
:1058B00001F138000EE000BF01F180000AE000BFF6
:1058C00001F5947006E000BF01F5967002E000BF9C
:1058D00001F598700068400004D400204FF48075F2
:1058E0000FE000BFA5F133001C280FD8012101FAF9
:1058F00000F048F24111C1F20001084206D0002038
:105900000425002C18BF2060284670BD40F2D760E7
:10591000C0F20000465D700606D4B00622D43A2DCF
:10592000EDD102201FE000BF0020FEF78BFAF0B996
:105930004FF480750020E4E744F20010C4F2060042
:1059400040F260020168C2F200025268C901406878
:1059500002EAE17110F00700A0F1010218BF21FA7C
:1059600002F08CE60120FEF76DFA0028B5D016F0A3
:10597000180F03D0F00607D4002009E00025C0E787
:105980004FF4FA307BE600BF28460121FDF7DEFC2C
:10599000A5F1420111F1060F03D328460021FDF7BE
:1059A000D5FCB0FA80F149090D02AAE70020002CCD
:1059B0007FF40EAFA8E700BF006800F03000302889
:1059C0007FF4C3AD44F20010C4F20600D0F8001218
:1059D000C90107D400210BE001F00C010C297FF470
:1059E000B4AD07E6D0F8081246F60041C0F2DC215B
:1059F000D0F80402AEE700002DE9F04F41F20009B3
:105A0000C1F20049D9F80400000C7F2800F3588047
:105A1000411E3F2900F25D8040F20360DFE801F0A3
:105A20002082596459595968595959595959596CC9
:105A300059595959595959595959595959595970BF
:105A400059595959595959595959595959595959C6
:105A5000595959595959595959595959595959749B
:105A600040F26060C2F200000068002100F1140EF4
:105A7000418001799EE800510EEB0C0200295FFA8B
:105A800088F159D0042975D300250326002400BFCE
:105A900005F1100020F0030059F8000045F001075F
:105AA000030E5355030CD355030A45F00205043485
:105AB0005355E5B2905545F003068E42E8D35AE0BF
:105AC000B0F5007F08DB23D0B0F5806F24D0B0F5AF
:105AD000006F012026E000BF802821D0B0F5807F34
:105AE000F7D140F20F601DE040F206601AE000BFFF
:105AF00040F2056016E000BF4FF4C16012E000BF45
:105B000040F204600EE000BF40F209600AE000BF0E
:105B100040F2116006E000BF40F20C6002E000BFFE
:105B200040F2076040F26061C2F2000109684880FB
:105B300000200870BDE8F08F042939D30025032622
:105B4000002400BF05F1200727F0030759F807706C
:105B500045F001003B0E53553B0C04341354380AF6
:105B600045F00203E5B2D054975545F003068E4246
:105B7000E8D31EE00024E5B28D4280F03F81A8EB1F
:105B80000400EB4310F0030401EB030800F0A680CF
:105B900005F1100000F0FC0059F8006015F0030753
:105BA00024D0012F24D0022F08BFC6F3072621E0FE
:105BB0000024E5B28D4280F01A81A8EB0400EE4388
:105BC00010F0030401EB060800F00E8105F120003F
:105BD00000F0FC0059F8006015F0030726D0012FF3
:105BE00020D0022F08BFC6F3072620E0360E01E0C2
:105BF000C6F307465655012C05F1010602D135467C
:105C00006CE000BF05F1110000F0FC0059F80070D5
:105C100016F0030022D0012822D0022808BFC7F3C3
:105C200007271FE0C6F3074601E000BF360E5655B2
:105C3000012C05F1010601D13546D5E005F1210021
:105C400000F0FC0059F8007016F0030026D001287F
:105C500020D0022808BFC7F3072720E03F0E01E04D
:105C6000C7F30747022C05F10204975502D12546D8
:105C700034E000BF05F1120000F0FC0059F80060AC
:105C800014F0030024D0012824D0022808BFC6F352
:105C9000072621E0C7F3074701E000BF3F0E022CB3
:105CA00005F10204975501D125469DE005F122003A
:105CB00000F0FC0059F8006014F0030000F08E8042
:105CC000012800F08D80022808BFC6F3072689E06E
:105CD000360E01E0C6F3074603351655B8F1030F3B
:105CE000C0F08C80681C00F00308681E00F00306FA
:105CF00005F11300870805EB0C00704405F0030B59
:105D0000491B431C05F1120005F1110210358BF0FF
:105D1000020A80089208AD0811E000BF022E08BFF9
:105D2000C4F307249C70043907F1010703F104034D
:105D300000F1010002F1010205F101055ED005F05C
:105D40003F0459F82440BBF1020F07D0BBF1010F0B
:105D500008D0BBF1000F08BF240E05E0C4F30724F0
:105D600002E000BFC4F3074403F8014C02F03F0413
:105D700059F82440B8F1000F08D0B8F1010F07D04E
:105D8000B8F1020F08BFC4F3072403E0240E01E0BA
:105D9000C4F307441C7000F03F0459F82440BAF1E2
:105DA000000F09D0BAF1010F08D0BAF1020F08BFF5
:105DB000C4F3072404E000BF240E01E0C4F3074449
:105DC0005C7007F03F0459F824402EB1012EA5D194
:105DD000C4F30744A6E700BF240EA3E7360E01E094
:105DE000C6F3074603351655B8F1030F1AD240F231
:105DF0006060C2F2000000680121017140F2606041
:105E0000C2F200000068017D826903691144994271
:105E1000816103D2BDE8F04F00F02EBB002101707C
:105E2000BDE8F08F681C00F00308681E00F0030650
:105E300005F12300870805EB0C007044431C05F1B5
:105E4000220005F0030B491B820805F121002035D3
:105E50008BF0020A8008AD0811E000BF022E08BFD7
:105E6000C4F307249C70043907F1010703F104030C
:105E700002F1010200F1010005F10105B7D005F0C2
:105E80003F0459F82440BBF1020F07D0BBF1010FCA
:105E900008D0BBF1000F08BF240E05E0C4F30724AF
:105EA00002E000BFC4F3074403F8014C00F03F04D4
:105EB00059F82440B8F1000F08D0B8F1010F07D00D
:105EC000B8F1020F08BFC4F3072403E0240E01E079
:105ED000C4F307441C7002F03F0459F82440BAF19F
:105EE000000F09D0BAF1010F08D0BAF1020F08BFB4
:105EF000C4F3072404E000BF240E01E0C4F3074408
:105F00005C7007F03F0459F824402EB1012EA5D152
:105F1000C4F30744A6E700BF240EA3E72DE9F04F22
:105F200041F20009C1F20049D9F80400000C7F28B1
:105F300000F37080411E3F2900F2758040F203603B
:105F4000DFE801F0209A717C71717180717171715B
:105F5000717171847171717171717171717171711E
:105F6000717171887171717171717171717171710A
:105F70007171717171717171717171717171717111
:105F80007171718C40F26060C2F200000068002400
:105F900000F1140E9EE8005144805FFA88F1042954
:105FA0000EEB0C0019D300250326002405F1100781
:105FB00027F0030759F8077045F001023B0E4355DF
:105FC0003B0C043483543A0A45F00203E5B2C25450
:105FD000875545F003068E42E8D3E5B28D4280F046
:105FE0009680A8EB0402EE4312F0030401EB0608CE
:105FF00000F08A8005F1100202F0FC0259F80260FC
:1060000015F0030746D0012F40D0022F08BFC6F37A
:10601000072640E0B0F5007F08DB23D0B0F5806FA5
:1060200024D0B0F5006F012026E000BF802821D0E9
:10603000B0F5807FF7D140F20F601DE040F20660BE
:106040001AE000BF40F2056016E000BF4FF4C160E7
:1060500012E000BF40F204600EE000BF40F20960B1
:106060000AE000BF40F2116006E000BF40F20C60A1
:1060700002E000BF40F2076040F26061C2F200013E
:106080000968488000200870BDE8F08FC6F3074615
:1060900001E000BF360E4655012C05F1010601D185
:1060A000354631E005F1110202F0FC0259F80270A8
:1060B00016F003020AD0012A04D0022A08BFC7F34F
:1060C000072704E0C7F3074701E000BF3F0E022C9B
:1060D00005F10204875501D1254615E005F11202AC
:1060E00002F0FC0259F8026014F0030206D0012A03
:1060F00006D0022A08BFC6F3072603E0360E01E0E9
:10610000C6F3074603350655B8F1030F14D240F223
:106110006060C2F200000068017D82690369114479
:106120009942816104D2BDE8F04F00F005BD00BF87
:1061300000210170BDE8F08F681C00F00308681EA4
:1061400000F0030605F11300870805EB0C0070440E
:10615000431C05F1120005F0030B491B820805F1F1
:10616000110010358BF0020A8008AD0811E000BF65
:10617000022E08BFC4F307249C70043907F10107FD
:1061800003F1040302F1010200F1010005F1010530
:10619000BDD005F03F0459F82440BBF1020F07D0F1
:1061A000BBF1010F08D0BBF1000F08BF240E05E0C2
:1061B000C4F3072402E000BFC4F3074403F8014C12
:1061C00000F03F0459F82440B8F1000F08D0B8F1AE
:1061D000010F07D0B8F1020F08BFC4F3072403E092
:1061E000240E01E0C4F307441C7002F03F0459F888
:1061F0002440BAF1000F09D0BAF1010F08D0BAF16A
:10620000020F08BFC4F3072404E000BF240E01E01E
:10621000C4F307445C7007F03F0459F824402EB1E2
:10622000012EA5D1C4F30744A6E700BF240EA3E7BF
:1062300041F20400C1F200400168090C7F2900F31B
:106240004F804A1E3F2A00F2548040F20361DFE88B
:1062500002F02179505B5050505F505050505050D8
:10626000506350505050505050505050505050501B
:106270005067505050505050505050505050505007
:10628000505050505050505050505050505050500E
:10629000506B00BF40F26061C2F200010968002348
:1062A0000A794B80002A04BF01220A7191F814C0B8
:1062B0008B690A69634493428B6138BF00F0F0BD7B
:1062C00000220A70C969C26912BA0A60026A12BA67
:1062D0004A60426A12BA8A60806A00BAC86070472F
:1062E000B1F5007F08DB23D0B1F5806F24D0B1F584
:1062F000006F012126E000BF802921D0B1F5807F09
:10630000F7D140F20F611DE040F206611AE000BFD4
:1063100040F2056116E000BF4FF4C16112E000BF1A
:1063200040F204610EE000BF40F209610AE000BFE4
:1063300040F2116106E000BF40F20C6102E000BFD4
:1063400040F2076140F26060C2F2000000684180E4
:10635000002101707047000041F20401C1F20041C8
:106360000868000C7F2800F34B80421E3F2A00F291
:10637000508040F20360DFE802F021754C574C4C2E
:106380004C5B4C4C4C4C4C4C4C5F4C4C4C4C4C4C2B
:106390004C4C4C4C4C4C4C4C4C634C4C4C4C4C4C26
:1063A0004C4C4C4C4C4C4C4C4C4C4C4C4C4C4C4C2D
:1063B0004C4C4C4C4C4C4C4C4C6700BF40F2606019
:1063C000C2F200000068002302794380002A04BF63
:1063D00001220271027D83691A4490F82C30826197
:1063E00083F00102002B027008BF00F0FFBE0969B4
:1063F000006B0022B1F5803F38BF01220270704768
:10640000B0F5007F08DB23D0B0F5806F24D0B0F565
:10641000006F012026E000BF802821D0B0F5807FEA
:10642000F7D140F20F601DE040F206601AE000BFB5
:1064300040F2056016E000BF4FF4C16012E000BFFB
:1064400040F204600EE000BF40F209600AE000BFC5
:1064500040F2116006E000BF40F20C6002E000BFB5
:1064600040F2076040F26061C2F2000109684880B2
:1064700000200870704700002DE9F04F86B040F210
:10648000606CC2F2000CDCF8001041F2000E0869EA
:106490008A690B79801AC1F2004E4FEA10102BB3B3
:1064A000072828BF0720C9684FEA0018002801EB19
:1064B00002045BD041F20C02211F00200327C1F22D
:1064C000004200BF11F8043FE75D4E788D78360436
:1064D00046EA036343EA052304303B4440F00307E4
:1064E000FFB2474542F8043FECD340E089680628F4
:1064F0000A6812BACEF810204A6812BACEF81420F0
:106500008A6812BACEF81820C96828BF062009BACE
:10651000CEF81C10DCF800104FEA0018CA68896930
:10652000002802EB01044DD041F21C02211F002083
:106530000327C1F2004200BF11F8043FE75D4E7827
:106540008D78360446EA036343EA052304303B446E
:1065500040F00307FFB2474542F8043FECD3C5B211
:106560005FFA88F9A94540F2CD8232E00020C5B239
:106570005FFA88F1A942049140F2C482A8EB0000BE
:1065800010F00301A0F1010000F0D98005F1100224
:10659000C2F38502675D5EF8226015F003033DD00B
:1065A000012B61D0022B19BF26F0FF031F4426F4F4
:1065B0007F4343EA0727012905F101034EF82270C2
:1065C00036D15BE00020C5B25FFA88F9A94540F2F8
:1065D0009982A8EB000010F00301A0F1010000F087
:1065E000C08105F12002C2F38502675D5EF82230AA
:1065F00015F0030654D0012E46D0022E19BF23F009
:10660000FF033B4423F47F4343EA0723012905F1B9
:1066100001064EF8223041D04CE000BF26F07F4307
:1066200043EA0767012905F101034EF8227025D0DE
:1066300005F11102C2F38502E75C5EF8226013F0F7
:1066400003034FD0012B6FD0022B19BF26F0FF039D
:106650001F4426F47F4343EA0727022905F102037A
:106660004EF8227048D169E026F47F0343EA0747D9
:10667000012905F101034EF82270D9D11D46C0B29F
:106680000328C0F03F825EE023F47F0343EA074320
:10669000012905F101064EF822300BD1354660E1A3
:1066A00023F07F4343EA0763012905F101064EF811
:1066B0002230F3D005F12102C2F38502A75D5EF816
:1066C000223016F0030600F00B81012E00F002814B
:1066D000022E19BF23F0FF033B4423F47F4343EA18
:1066E000072301E126F07F4343EA0767022905F10A
:1066F00002034EF8227021D005F11201C1F3850189
:10670000E25C5EF8217013F0030300F00B81012BB3
:1067100000F00E81022B19BF27F0FF031A4427F463
:106720007F4343EA022207E126F47F0343EA074757
:10673000022905F102034EF82270DDD11D46C0B2D8
:106740000328C0F0DF81681C05F00302CDF800804B
:1067500000F0030882F002000390681E00F00309B5
:1067600005F113004FEA900A05F1120005F111013D
:1067700005F11003AF1C800889089D08059402925A
:1067800019E000BFB9F1020F19BF23F0FF031C4449
:1067900023F47F4343EA04244EF82640BB1C049EA6
:1067A000DBB204370AF1010A013001319E4205F1E2
:1067B000010500F08780059B05F03F0603EB070C01
:1067C00073461CF802EC53F82640022A0CD0012A2A
:1067D00010D0002A19BF24F0FF0303EB0E0424F0AD
:1067E0007F4343EA0E6409E024F47F4343EA0E2426
:1067F00004E000BF24F47F0343EA0E4441F2000E9C
:10680000C1F2004E4EF8264001F03F061CF8014C44
:106810005EF82630B8F1000F0ED0C346B8F1010F74
:1068200010D0BBF1020F19BF23F0FF031C4423F467
:106830007F4343EA042409E023F07F4343EA0464EE
:1068400004E000BF23F47F0343EA0444059B039A5A
:106850004EF8264000F03F06DC5D5EF826305AB167
:10686000012A0FD0022A19BF23F0FF031C4423F48E
:106870007F4343EA042409E023F07F4343EA0464AE
:1068800004E000BF23F47F0343EA0444029A4EF875
:1068900026400AF03F069CF801405EF82630B9F128
:1068A000000F09D0B9F1010F7FF46CAF23F47F031F
:1068B00043EA044470E700BF23F07F4343EA0464E3
:1068C0006AE700BF40F2606CDDF80080C2F2000CA5
:1068D00018E100BF23F47F0343EA074304E000BF4D
:1068E00023F07F4343EA0763022905F102074EF8CC
:1068F000223001D13D4634E005F12201C1F385018A
:10690000E25D5EF8213017F003071DD0012F21D082
:10691000022F19BF23F0FF031A4423F47F4343EAF5
:1069200002221BE027F07F4343EA026204E000BF3B
:1069300027F47F0343EA024203354EF82120C0B218
:106940000328C0F0DF80FEE623F07F4343EA0262C3
:1069500004E000BF23F47F0343EA024203354EF80C
:106960002120C0B20328C0F0CD80681C00F00300D5
:1069700005F00302059082F002000490681E00F00A
:106980000300029005F12300CDF800804FEA900843
:1069900005F122004FEA900A05F1210005F12003DC
:1069A000DDF814C0AF1C80089D080392CDF8049058
:1069B00019E000BF022919BF24F0FF04234424F486
:1069C0007F4444EA03234EF82630BB1CDBB2043775
:1069D00008F101080AF1010A0130994505F10105A4
:1069E0005C4600F0898004EB0709734605F03F0E12
:1069F000A34619F8024C53F82E30022A0CD0012A73
:106A000010D0002A19BF23F0FF03234423F07F4353
:106A100043EA04630AE000BF23F47F4343EA04230C
:106A200004E000BF23F47F0343EA044341F200047F
:106A3000C1F2004444F82E30A64600F03F0419F895
:106A4000013C5EF82460BCF1000F0DD0BCF1010FD9
:106A500010D0BCF1020F19BF26F0FF06334426F414
:106A60007F4646EA032309E026F07F4646EA0363B1
:106A700004E000BF26F47F0646EA0343049A029925
:106A80004EF824300AF03F041BF807305EF824600B
:106A900062B1012A10D0022A19BF26F0FF06334442
:106AA00026F47F4646EA03230AE000BF26F07F462D
:106AB00046EA036304E000BF26F47F0646EA034388
:106AC000039A4EF8243008F03F0699F801305EF83A
:106AD000264049B1DDF8049001297FF46BAF24F41E
:106AE0007F0444EA03436EE724F07F44DDF804901A
:106AF00044EA036367E700BF40F2606CDDF80080A2
:106B0000C2F2000CDCF800000069DEF80C10C1EAEB
:106B10002010CEF80C00DCF8000002794178C0F8B3
:106B200014804079120242EA01610844CEF8000064
:106B300006B0BDE8F08F00002DE9F04F85B040F2BF
:106B40006060C2F20000006807278269D0E9030193
:106B5000891A0B09072B38BF0F093B0100EB020E06
:106B60000097EFB141F20C02AEF1040000210327BF
:106B7000C1F2004210F8046F1EF80770457884785F
:106B80002D0445EA066646EA042604313E4441F0F7
:106B90000307FFB29F4242F8046FEBD301E000BF4E
:106BA00000215FFA81FCD8B241F2000A6045C1F2CF
:106BB000004A0193039069D90198401A10F003022A
:106BC000A0F101015FD00CF11000C0F385071EF8A1
:106BD0000C605AF827501CF0030021D001280FD078
:106BE000022819BF25F0FF00064425F47F4040EA43
:106BF0000626012A0CF101004AF827600AD019E0A4
:106C000025F47F0040EA0646012A0CF101004AF80B
:106C100027600FD18446C8B2032837D385E000BF70
:106C200025F07F4040EA0666012A0CF101004AF88F
:106C30002760EFD00CF11107C7F385071EF800603D
:106C40005AF8275010F003003CD0012810D0022839
:106C500019BF25F0FF00064425F47F4040EA0626D0
:106C6000022A0CF102004AF827600BD034E000BF82
:106C700025F47F0040EA0646022A0CF102004AF899
:106C8000276029D18446C8B203284ED2DAF80C0016
:106C90004FF6FF71884300990843CAF80C0040F290
:106CA0006060C2F200000068019902794161417898
:106CB0004079120242EA01610844CAF8000005B0B6
:106CC000BDE8F08F25F07F4040EA0666022A0CF10D
:106CD00002004AF82760D5D00CF11202C2F38502F7
:106CE0001EF800705AF8226010F003000CD0012842
:106CF00010D0022819BF26F0FF00074426F47F4079
:106D000040EA07270AE000BF26F07F4040EA076715
:106D100004E000BF26F47F0040EA07470CF1030CB3
:106D20004AF82270C8B20328B0D30CF1010000F079
:106D300003030CF00300029080F00209ACF10100A3
:106D400000F0030B0CF1130082080CF11200840810
:106D50000CF1110086080CF110000CF102014FEA51
:106D6000900CCDF810E017E0BBF1020F19BF20F036
:106D7000FF00054420F47F4040EA05254AF82750EB
:106D8000881C039FC0B204310132013401368742AE
:106D90000CF1010C3FF47AAF50468E440CF03F08E2
:106DA0001EF8027C5AF82850029802280CD00128BC
:106DB00010D0002819BF25F0FF00C51925F07F402D
:106DC00040EA07650AE000BF25F47F4040EA072556
:106DD00004E000BF25F47F0040EA074550464AF82A
:106DE000285006F03F071EF8015C5AF827005BB1F7
:106DF000012B0FD0022B19BF20F0FF00054420F417
:106E00007F4040EA052509E020F07F4040EA056523
:106E100004E000BF20F47F0040EA05454AF827500F
:106E2000049804F03F07455C5AF82700B9F1000FB9
:106E30000ED0B9F1010F11D0B9F1020F19BF20F036
:106E4000FF00054420F47F4040EA05250AE000BF2A
:106E500020F07F4040EA056504E000BF20F47F0099
:106E600040EA05454AF8275002F03F079EF80150D6
:106E70005AF82700BBF1000F0AD0DDF810E0BBF193
:106E8000010F7FF471AF20F47F0040EA054575E7FC
:106E900020F07F40DDF810E040EA05656EE7000075
:106EA0002DE9F04F84B040F26060C2F2000000684B
:106EB00041F2000E8269D0E90301C1F2004E891A45
:106EC000CBB2702B88BF70215FFA81FABAF1040F40
:106ED00000EB020824D300200327002240F0010326
:106EE00018F8033018F800601B0443EA066340F00A
:106EF000020618F8066018F807701030043243EAEA
:106F0000062320F00306D0B23B4440F00307574568
:106F10004EF80630E2D3D5B2AA456FD904E000BFDF
:106F20000022D5B2AA4569D9881A10F00302A0F14F
:106F3000010160D005F11003C3F3850418F80500C2
:106F40005EF8243015F0030722D0012F10D0022F55
:106F500019BF23F0FF03184423F47F4343EA0020C2
:106F6000012A05F101074EF824000BD01AE000BFFA
:106F700023F47F0343EA0040012A05F101074EF89C
:106F800024000FD13D46C8B2032837D380E000BFAC
:106F900023F07F4343EA0060012A05F101074EF820
:106FA0002400EFD005F11103C3F3850418F807009E
:106FB0005EF8243017F0030738D0012F10D0022FCD
:106FC00019BF23F0FF03184423F47F4343EA002052
:106FD000022A05F102074EF824000BD030E000BF72
:106FE00023F47F0343EA0040022A05F102074EF82A
:106FF000240025D13D46C8B2032849D240F2606141
:10700000C2F200010868006ACEF80C000868027934
:107010004178C0F814A04079120242EA01610844A4
:10702000CEF8000004B0BDE8F08F00BF23F07F432E
:1070300043EA0060022A05F102074EF82400D9D085
:1070400005F11202C2F3850218F807005EF822303B
:1070500017F003070CD0012F10D0022F19BF23F017
:10706000FF03184423F47F4343EA00200AE000BFF3
:1070700023F07F4343EA006004E000BF23F47F0372
:1070800043EA004003354EF82200C8B20328B5D3C6
:10709000681C00F0030005F00302039082F0020078
:1070A0000190681E00F00300009005F113004FEA04
:1070B000900B05F11200810805F11100840805F11B
:1070C0001000AE1C8508029218E000BF022F19BF05
:1070D00023F0FF031A4423F47F4343EA02224EF8CD
:1070E0002020B01CC0B2029A04360BF1010B013112
:1070F0000134824505F101053FF480AF08EB060934
:1071000005F03F0C19F8020C5EF82C30022A0BD067
:10711000012A0FD0002A19BF23F0FF02104423F0E8
:107120007F4242EA006009E023F47F4242EA002005
:1071300004E000BF23F47F0242EA00404EF82C0036
:1071400004F03F0019F8013C5EF82020039F5FB176
:10715000012F0FD0022F19BF22F0FF02134422F497
:107160007F4242EA032309E022F07F4242EA0363BE
:1071700004E000BF22F47F0242EA0343019F4EF87D
:10718000203001F03F0018F806305EF820205FB193
:10719000012F0FD0022F19BF22F0FF02134422F457
:1071A0007F4242EA032309E022F07F4242EA03637E
:1071B00004E000BF22F47F0242EA0343009F4EF83E
:1071C00020300BF03F0099F801205EF820303FB1ED
:1071D000012F7FF47BAF23F47F0343EA02427EE773
:1071E00023F07F4343EA026279E700002DE9F04F84
:1071F00084B040F26060C2F20000006841F2000911
:107200008369D0E90301C1F20049C91ACAB2702AE0
:1072100088BF70215FFA81FC0F22BCF1040F00EBE4
:10722000030A23D300260325002700BF46F00100F0
:107230001AF800001AF80630000440EA036046F02D
:1072400002031AF803301AF80550043740EA032005
:1072500006F11003FEB2284446F0030523F00303B1
:10726000654549F80300E1D301E000BF0027FEB205
:10727000B44552FA81F0009068D9C81B10F003029F
:10728000A0F101015FD006F11000C0F385071AF8E4
:10729000065059F8270016F0030321D0012B0FD018
:1072A000022B19BF20F0FF00284420F47F4040EA61
:1072B0000520012A06F1010349F827000AD019E048
:1072C00020F47F0040EA0540012A06F1010349F855
:1072D00027000FD11E46C8B2032837D3A6E000BF4F
:1072E00020F07F4040EA0560012A06F1010349F8D9
:1072F0002700EFD006F11100C0F385071AF80350FC
:1073000059F8270013F003035ED0012B10D0022B95
:1073100019BF20F0FF00284420F47F4040EA0520F8
:10732000022A06F1020349F827000BD056E000BFFD
:1073300020F47F0040EA0540022A06F1020349F8E2
:1073400027004BD11E46C8B203286FD240F26063BB
:10735000C2F200031868006AC9F80C001868806A55
:10736000D9F80810C1EA00400099C9F8080001F0F6
:10737000F001612918D218680CF11F01406A01F070
:10738000F001026812BA49F801204268494412BA71
:107390004A60826812BA8A60C06800BAC860186819
:1073A000012180F82C1000E0186802794178C0F8BB
:1073B00014C04079120242EA01610844C9F8000091
:1073C00004B0BDE8F08F00BF20F07F4040EA0560C8
:1073D000022A06F1020349F82700B3D006F1120091
:1073E000C0F385021AF8037059F8220013F0030362
:1073F0000CD0012B10D0022B19BF20F0FF00384415
:1074000020F47F4040EA07200AE000BF20F07F40E0
:1074100040EA076004E000BF20F47F0040EA074034
:10742000033649F82200C8B203288FD3701C00F03D
:10743000030E701E00F0030B06F11300820806F124
:107440001200810806F1110006F00303850806F119
:10745000100083F00208B71C86080393CDE901BC35
:1074600018E000BFBBF1020F19BF23F0FF0318445F
:1074700023F47F4343EA002049F82400B81CC0B23B
:10748000039B0437013201310135844506F10106C1
:107490003FF45CAF4846C346F0460AEB070C06F0E3
:1074A0003F0E1CF8024C59F82E00022B0CD0012B79
:1074B00010D0002B19BF20F0FF00204420F07F40A7
:1074C00040EA04600AE000BF20F47F4040EA042064
:1074D00004E000BF20F47F0040EA04404B4649F836
:1074E0002E0005F03F041CF8010C59F82430C64664
:1074F000B8F1000F10D0BEF1010FD84614D0DDF85E
:1075000004B0BEF1020F19BF23F0FF03184423F4A7
:107510007F4343EA00200DE023F07F43D846DDF8A7
:1075200004B043EA006005E023F47F03DDF804B013
:1075300043EA004049F8240001F03F041AF807002C
:1075400059F82430B8F1000F0ED0B8F1010F11D066
:10755000B8F1020F19BF23F0FF03184423F47F434F
:1075600043EA00200AE000BF23F07F4343EA0060C3
:1075700004E000BF23F47F0343EA004049F82400FD
:1075800002F03F049CF8010059F82430BBF1000FD1
:107590000AD0DDF808C0BBF1010F7FF463AF23F41C
:1075A0007F0343EA004067E723F07F43DDF808C02C
:1075B00043EA006060E7000040F26460C2F200004D
:1075C00000680022016848F21C00C4F20000002993
:1075D000C270027008BF70478A681AB1486849785B
:1075E000104700BF7047000040F26460C2F2000024
:1075F00000680A22816A48F21C00C4F200000029D7
:10760000C270027008BF70478A681AB1486849782A
:10761000104700BF7047000040F26460C2F20000F3
:1076200000680B22C16A48F21C00C4F20000002965
:10763000C270027008BF70478A681AB148684978FA
:10764000104700BF7047000040F26460C2F20000C3
:1076500000680C22016B48F21C00C4F200000029F3
:10766000C270027008BF70478A681AB148684978CA
:10767000104700BF7047000040F26460C2F2000093
:1076800000680D22416B48F21C00C4F20000002982
:10769000C270027008BF70478A681AB1486849789A
:1076A000104700BF7047000040F26460C2F2000063
:1076B00000680E22816B48F21C00C4F20000002911
:1076C000C270027008BF70478A681AB1486849786A
:1076D000104700BF7047000040F26460C2F2000033
:1076E00000680F22C16B48F21C00C4F200000029A0
:1076F000C270027008BF70478A681AB1486849783A
:10770000104700BF7047000040F26460C2F2000002
:1077100000680122416848F21C00C4F20000002900
:10772000C270027008BF70478A681AB14868497809
:10773000104700BF7047000040F26460C2F20000D2
:1077400000680222816848F21C00C4F2000000298F
:10775000C270027008BF70478A681AB148684978D9
:10776000104700BF7047000040F26460C2F20000A2
:1077700000680322C16848F21C00C4F2000000291E
:10778000C270027008BF70478A681AB148684978A9
:10779000104700BF7047000040F26460C2F2000072
:1077A00000680422016948F21C00C4F200000029AC
:1077B000C270027008BF70478A681AB14868497879
:1077C000104700BF7047000040F26460C2F2000042
:1077D00000680522416948F21C00C4F2000000293B
:1077E000C270027008BF70478A681AB14868497849
:1077F000104700BF7047000040F26460C2F2000012
:1078000000680622816948F21C00C4F200000029C9
:10781000C270027008BF70478A681AB14868497818
:10782000104700BF7047000040F26460C2F20000E1
:1078300000680722C16948F21C00C4F20000002958
:10784000C270027008BF70478A681AB148684978E8
:10785000104700BF7047000040F26460C2F20000B1
:1078600000680822016A48F21C00C4F200000029E6
:10787000C270027008BF70478A681AB148684978B8
:10788000104700BF7047000040F26460C2F2000081
:1078900000680922416A48F21C00C4F20000002975
:1078A000C270027008BF70478A681AB14868497888
:1078B000104700BF7047000041F2000CC4F2020CF8
:1078C000034610F80C0001F03F0100F07F0003F8C0
:1078D0000C0013F80C0000F0C000084403F80C0082
:1078E00013F80C0000F0BF0062F3861003F80C00E0
:1078F00013F80C0040F08001002003F80C107047D2
:1079000010B582B0DDE904CE0446CDE900CE00F02A
:107910003BF808B102B010BD48F2000304F00F02BA
:10792000C4F2000343EA421241F21E0E32F90E4045
:10793000DDF818C032F80E1047F6FF73002C48F23D
:10794000000448BF40F2FF13CFF6FF7444BF4FF668
:107950000064CFF6FF7403EA0C032140194322F8B8
:107960000E1041F2160C32F80C102140194322F887
:107970000C1041F21C01535A079C23F0080364F3D6
:10798000C303535202B010BD2DE9F04F81B0DDE9C1
:107990000ABE012707FA0BF74FF0FF3656FA87F6B3
:1079A00016EA0E0C40F0C78048F20005C4F200054C
:1079B00000F00F04009045EA441441F208004FF033
:1079C000000A44F800A04FF4805044F800A041F2AF
:1079D000040041F2060641F20C0524F800A024F848
:1079E00006A044F805A041F2100541F2140044F845
:1079F00005A024F800A041F2160041F2180924F86D
:107A000000A044F809A041F21C0941F21E0824F824
:107A100009A024F808A048F2000AC4F2000ADAF823
:107A2000000049EA040940F08000CAF800004FF461
:107A3000805063512250A05B0BF007026FF3DF20F0
:107A4000A053A05B032920F4E06040EA0220A05389
:107A5000A05B44EA080520F0F800A053A05B6BF39C
:107A60000200A05341F2080044EA000641F2160069
:107A700044EA000B17D841F2040044EA000241F244
:107A800014031C43DFE801F002060A0C00201080FA
:107A900079B207E078B21080002103E079B200E00B
:107AA000002111802180DAF80000000602D4009C39
:107AB00019E000BF306800285CBF30685FEA400012
:107AC00006D54FF60041CFF6FF7140F2FF3203E0DA
:107AD0004FF040416FF04042009C306802EA0E02D5
:107AE000084040EA020EC6F800E0B5F90000298817
:107AF00048F20002CFF6FF72002844BF4FF6006242
:107B0000CFF6FF7202EA010001302880BBF80000C6
:107B1000002110400130ABF80000B9F8000040F03F
:107B20000200A9F8000040F26460C2F200000068A0
:107B300050F824004170BCF1000F18BF4FF0010C49
:107B4000604601B0BDE8F08F00F00F0049F20C0272
:107B50004001C4F200021150704700002DE9F041CD
:107B600048F21A04C4F20004D4F8125040F26467D8
:107B70000026C2F200074FF0010806E00136102E81
:107B80004FEA550508BFBDE8F081E807F6D0386830
:107B900050F8261026700029F0D06671A670267164
:107BA00081F801808A68002AE8D0486849789047BF
:107BB000E4E7000048F21B0200F00F01C4F20002EB
:107BC000002011707047000048F21A0200F00F0107
:107BD000C4F20002002011707047000070470000DE
:107BE000B0B50124C4F2020414F9010CB0F1FF3F56
:107BF00000DDB0BD40F26065C2F200052868017882
:107C00000029F6D040780138052813D8DFE800F0C5
:107C1000040804080C1000BFFEF780F90AE000BF5A
:107C2000FDF7EAFE06E000BFFEF702FB02E000BF40
:107C3000FEF792FB28680078002818BFB0BD2078B6
:107C400000F07F00207029684A6B002AD1D0487864
:107C5000896BBDE8B040104740F2686072B6C2F26E
:107C600000000168013101607047000040F2686067
:107C7000C2F200000168012904DB0139016018BF6C
:107C8000704762B670470000022888BF704740F214
:107C90000441C1F6FF7101EB8002926951F82000A6
:107CA00001218140104602F0CBB80000022888BFB5
:107CB000704740F20441C1F6FF7101EB8002926906
:107CC00051F8200001218140104601F0F1BF000071
:107CD00083B080B581B00DF10C0C8CE80E0040F241
:107CE0007C52C1F6FF72126803A90091904701B05F
:107CF000BDE8804003B0704710B100BFFEE700BF91
:107D00002DE9F04146F2180440F26C68C4F2060412
:107D1000C2F20008D8F8005054F8040CC00740F034
:107D2000DF8054F8040C800739D595F82D00002821
:107D300000F0208195F82E0018B105F1170001F030
:107D400081FD03202883002001212A69C5E907005D
:107D5000C5E90900A973688054F8081C41F00201C4
:107D600044F8081CD4F8F81041F00201C4F8F810E7
:107D700044F8080CC4F8F8002978002000F090F9C5
:107D8000D8F8000018B1A97EAA8A8176828254F8B8
:107D9000080C40F0010044F8080CC8F8005054F8F2
:107DA000040CC0042ED554F8040C012620F4805095
:107DB00044F8040C2E83206841F603418843206078
:107DC000687868B9A87DFFF7FFFE286A61686FF0E0
:107DD0000202002808BF6FF0010202EA01006060A1
:107DE0000020C5E90700C5E90900AE7395F82E002B
:107DF00018B105F1170001F025FD2A6B12B1696B6E
:107E00000420904754F8040C000530D554F8040CB5
:107E100041F6034120F4006044F8040C20688843D4
:107E20002060687868B9A87DFFF7CEFE286A61688F
:107E30006FF00202002808BF6FF0010202EA0100A1
:107E400060600020C5E90700C5E909000120A873AA
:107E500095F82E0018B105F1170001F0F3FC40F27F
:107E6000033028832A6B12B1696B0420904754F8C1
:107E7000040C400558BFBDE8F08195F82E0018B1FC
:107E800005F1170001F0DEFC4FF4407028832068F4
:107E900041F6034188432060687868B9A87DFFF700
:107EA00093FE286A61686FF00202002808BF6FF035
:107EB000010202EA010060600020C5E90700C5E98F
:107EC00009000120A8732A6B12B1696B0420904746
:107ED00054F8040C20F4806044F8040CBDE8F081F0
:107EE000A878E97881421FD1686A002858D0A96A29
:107EF000002900F0A180626C54F8141C012301F0E9
:107F00000F0103FA01F100BF02F007028A42BFF439
:107F100008AF0078A064626CD5E909030130013B29
:107F2000C5E90903F0D1FCE6626C54F8141C012386
:107F300001F00F0103FA01F102F007028A42BFF4D7
:107F4000F0AEAA1C52FA80F08378C07943EA002090
:107F5000A064666CA878EB780130C7B2BB42A87009
:107F600003D006F007068E42ECD3BB4204BF0020CC
:107F70006880D6E6606C10F4E02F17D0286A00BF46
:107F800030B3A06DE9690870D5E90701421C481EAD
:107F9000C5E90720616C11F4E02FF1D107E000BFC3
:107FA000206820F001002060BBE600BF286A78B19D
:107FB000216CC1F3014188423FF6F1AE4FF44032EB
:107FC000216C02EB0040000C60F311412164E6E6F5
:107FD00095F82C60206841F603418843206068785A
:107FE00068B9A87DFFF7F0FD286A61686FF00202AA
:107FF000002808BF6FF0010202EA01006060002E55
:108000001CBF4FF40070A06400260120C5E907667C
:10801000C5E90966A87395F82E0018B105F1170097
:1080200001F010FC2E832A6B002A3FF4B8AE696B76
:1080300004209047B3E600BF95F82C70206841F605
:10804000034188432060687868B9A87DFFF7BCFDCC
:10805000286A61686FF00202002808BF6FF0010211
:1080600002EA01006060002F1CBF4FF40070A064A2
:1080700000270120C5E90777C5E90977A87395F8B6
:108080002E0018B105F1170001F0DCFB2F832A6BDD
:10809000002A3FF446AE696B0420904741E6000099
:1080A00010B100BFFEE700BF2DE9F04182B040F201
:1080B0006C68C2F200080C46D8F80000002101915B
:1080C000807BF8B101A946201546FDF7A3F80028EA
:1080D00040F09E80019A002A00F09A8046F2480102
:1080E000C4F2060151F8380C20F0010041F8380CB8
:1080F0004FF0800055B1531EB3EBC51F0AD24FF0AD
:10810000000C2DE0022002B0BDE8F0814FF0070C1A
:1081100080222BE0EE01B3FBF6F6022E02D24FF0E6
:10812000010C1DE0042E03D24FF0020C18E000BF3A
:10813000082E03D24FF0030C12E000BF102E03D222
:108140004FF0040C0CE000BF202E03D24FF0050CC2
:1081500006E000BF4FF0070C402E38BF4FF0060C72
:1081600005FA0CF602EB5602B2FBF6F2802A38BF93
:108170001046861EA6EB560501284FF0000288BF68
:108180007208032D4FF0030698BF3546002A08BF3A
:10819000012251F8243C174623F007036344022AC6
:1081A00098BF022741F8243C0B68012823F03F00C8
:1081B00088BF05F03F063044086008684FF07C53E4
:1081C00062F30D2008600868012A67F31540086013
:1081D00008684FF0807720F07C5088BF03EAC257D0
:1081E00038440860D8F80000047051F8240C20F0DE
:1081F000E06041F8240C51F8240C20F4007041F8A0
:10820000240C51F8382C002042F0010241F8382C9F
:1082100002B0BDE8F08100000020FFF76DBD000056
:10822000B0B508B1FEE700BF46F2141540F2706029
:10823000C4F20605C2F200000468286840051BD499
:1082400028682968C90529D410F400702BD1286842
:10825000400740F1BE80E86BE269C00740F0A280B1
:1082600022B1E07810B1216A03209047607800289D
:1082700040F0AD80A7E000BF0120A084286840F452
:1082800080602860686820F00100686060780028DD
:108290004AD0E078002870D14BE000BF617A4A1CD8
:1082A0000029627270D0286840F400702860286845
:1082B00040F480702860686820F001006860A08C3D
:1082C000022804BF0020A084607810B9207AFFF74C
:1082D0007BFCE07818BB686840F6077188436860EB
:1082E000607850B92069A9686FF00202002808BFC1
:1082F0006FF0010202EA0100A86055F8040C20F0BA
:10830000010045F8040C00206072C4E90300C4E9D0
:108310000500A071207910B1E01D01F093FAE26927
:10832000002A08BFB0BD2AE0207AFFF74DFCE078B4
:1083300018BB686840F6077188436860607850B978
:108340002069A9686FF00202002808BF6FF00102DF
:1083500002EA0100A86055F8040C20F0010045F87D
:10836000040C00206072C4E90300C4E90500A07198
:10837000207910B1E01D01F065FAE269BAB3216A13
:108380000420BDE8B0401047A17800293FF48BAF2E
:10839000296841F48071296010F400703FF457AFF0
:1083A00081E700BF22B1E07810B1216A0220904736
:1083B0006078012804D1686840F001006860607846
:1083C0000021617118B9E07808B100F04BF8022083
:1083D000A0842868C0071CBF68685FEAC07007D126
:1083E0002868800744BF68685FEA807012D4B0BD17
:1083F000607900281CBF40F20130A084E068A8B179
:1084000060690078E8646069E16801306061481E75
:10841000E060E5E72069B8B1E86DA1690870A0697E
:1084200021690130A061481E2061B0BDE2692AB116
:10843000216A01209047E0680028E1D101206071A5
:10844000FF20E864CCE700BFE2692AB1216A00207E
:10845000904720690028DFD140F20230A084E86D07
:10846000B0BD00002DE9F04385B040F27060C2F26B
:108470000000076846F21C18FE68C4F20608BEB188
:108480003C7A7D6920462D2100224FF00009FFF73C
:1084900013FA012008F15403CDE900902046012190
:1084A0002A460296CDF80C90FFF72AFA16E000BF94
:1084B0003C7AD7F818903E6920462C2100220025EE
:1084C000FFF7FAF9012008F15402CDE900502046E7
:1084D00000214B4603950296FFF712FAF8684142D5
:1084E0002046FFF731FB2046FFF764FBF868D8F819
:1084F00000100122002808BF022241EA0200C8F849
:10850000000005B0BDE8F0830020FFF789BE000041
:1085100040F22840C1F6FF708068406AC00703D16E
:10852000002000F06BBA00BF002000F0C9B80000C6
:1085300040F22840C1F6FF70C068406AC00703D10E
:10854000012000F05BBA00BF012000F0B9B80000C4
:1085500040F22840C1F6FF700069406AC00703D1AD
:10856000022000F04BBA00BF022000F0A9B80000C2
:10857000B0B540F2746140F22842C2F20001C1F687
:10858000FF7251F8201002EB8000D0F808C0487C40
:10859000DCF85C2002F00702821A16E01C68042551
:1085A0002B440B62CB8A13FA8EF3B3FBF0F505FB79
:1085B0001030C882CCF86440488BA0EB0E00488392
:1085C000488B002808BFB0BD013A100626D091F8AC
:1085D0002D0010B1488B012818D0C88DCB8AC31A42
:1085E000042BDABFCB8AA0EB030E4FF0040E0B6A0C
:1085F00033B1012806D00228D0D11C880225CFE74C
:108600000024D7E71C780125CAE700BFDCF860002A
:1086100020F48010CCF8600000204883B0BD00003A
:10862000B0B5032802D300BFFEE700BF40F2746379
:1086300040F22841C2F20003C1F6FF7153F8204016
:1086400001EB80020025916884F82450A07B182358
:10865000002808BF1C23C85820F00100C850C85883
:1086600020F00200C8509068826922F48052826132
:10867000826922F400628261426942F4805242615E
:10868000426942F400624261886920F48060886136
:10869000486940F48060486194F82C0028B104F1E6
:1086A0000D0001F0CFF884F82C50A368002B08BF10
:1086B000B0BD626820460021BDE8B0401847000008
:1086C0002DE9F04F81B0032802D300BFFEE700BFC1
:1086D000824640F22840C1F6FF7000EB8A00D0F8D5
:1086E000089040F27460C2F20000CB4650F82A6055
:1086F0005BF8140F000527D5306A28B35046FFF702
:108700008FFFDBF8000040F48070CBF80000DBF84E
:10871000000040F40070CBF80000DBF8000040F4EB
:108720008070CBF80000DBF8000040F40070CBF85C
:108730000000DBF8000040F40060CBF800000120EE
:10874000307301B0BDE8F08FDBF80000C00427D51E
:10875000F06928B35046FFF763FFDBF8000040F4F0
:108760008070CBF80000DBF8000040F40070CBF81C
:108770000000DBF8000040F48070CBF80000DBF86C
:10878000000040F40070CBF80000DBF8000040F47B
:108790008050CBF800000220307301B0BDE8F08FAC
:1087A000DBF80000800740F1A880308B002800F043
:1087B0008780D9F85C00C0F30240002800F09D805B
:1087C000F58D13E0F78D3D46B18A4144B1FBF7F2D8
:1087D00002FB1711B182318BC91A3183318B002909
:1087E0001CBF01385FEA006100F08780D9F874206F
:1087F000B18AAFB2791A042902DD042304E000BF74
:10880000B18A6B1A190457D04FF0FF31F46911FA8D
:1088100083F103291FFA83F802D2002729E000BF61
:1088200028F0030500274FF0100C00BF2270F469F8
:10883000ACF1080104F1010E22FA01F1C6F81CE0C6
:108840006170F16904374C1CF46122FA0CF44C702D
:10885000F169BD4201F10104F4610CF1080422FA4E
:1088600004F44C70F1690CF1200C01F10104F46185
:10887000DCD113F00305A5D0F90022FA01F1217033
:10888000F169012D01F10104F4619BD0082101EB94
:10889000C70122FA01F12170F169022D01F10104F1
:1088A000F4618FD0102101EBC70122FA01F1217090
:1088B000F1690131F16185E700234FF0000883E79A
:1088C0005046FFF7ADFEDBF8000040F48070CBF8B7
:1088D0000000DBF8000040F40070CBF80000DBF88B
:1088E000000040F48070CBF80000DBF8000040F49A
:1088F0000070CBF8000002203073DBF80000C007E6
:1089000004D0708B10B15046FFF732FE708B88B9DF
:10891000D9F8180040F48060C9F81800D9F8180098
:1089200020F00100C9F81800308B18B9DBF80000FE
:10893000400503D401B0BDE8F08F00BF504601B040
:10894000BDE8F04FFFF76CBEF0B581B040F22841B2
:10895000C1F6FF7101EB800240F27461C2F20001C6
:1089600051F820709168BB7B1C25012B6FF001032F
:1089700008BF182508BF6FF002034C596FF00206BC
:1089800003EA04034B514B5908BF6FF00106334013
:1089900003284B5102D300BFFEE700BF90680025BB
:1089A000826922F480528261826922F400628261CB
:1089B000426942F480524261426942F4006242617B
:1089C00087F82450486940F480704861486940F451
:1089D00000704861486940F480704861486940F41B
:1089E0000070486197F82C0028B107F10D0000F0E5
:1089F00029FF87F82C5001B0F0BD0000032801D3F7
:108A0000FEE700BF2DE9F04F81B0054640F2284057
:108A1000C1F6FF7000EB8504D4F808B040F274672B
:108A2000C2F2000757F82590DBF8140000050BD5BB
:108A3000D9F8200040B12846FFF786FF012089F8C9
:108A40000C0001B0BDE8F08FDBF81400C0040BD5BA
:108A5000D9F81C0040B12846FFF776FF022089F8BC
:108A60000C0001B0BDE8F08FDBF81400C00705D0A2
:108A7000B9F81A0010B12846FFF77AFDDBF81400A8
:108A8000800740F18F80B9F81800002800F08A8034
:108A9000D4F808A057F82510DAF85C00C0F30242B9
:108AA000002A00F07F80CC8D13E000BFC88D044603
:108AB0008B8A4344B3FBF0F707FB10308882088BA6
:108AC000401B0883088B00281CBF013A5FEA026044
:108AD00068D0DAF874708B8AA0B2C31A042B01DD57
:108AE000042503E08B8AE51A2B0457D04FF0FF339F
:108AF000C86913FA85F3032B1FFA85F802D2002404
:108B000029E000BF28F0030600244FF0100C00BF3E
:108B10000770C869ACF1080300F1010E27FA03F3EE
:108B2000C1F81CE04370C8690434431CCB6127FAC8
:108B30000CF34370C869A64200F10103CB610CF14C
:108B4000080327FA03F34370C8690CF1200C00F105
:108B50000100C861DCD115F00306A7D0E30027FAB5
:108B600003F30370C869012E00F10100C8619DD0B4
:108B7000082303EBC40327FA03F30370C869022E2A
:108B800000F10100C86191D0102303EBC40327FA60
:108B900003F30370C8690130C86187E700254FF00F
:108BA000000885E7B9F81A0040B1B9F8180078B1A3
:108BB000B9F81800B0B101B0BDE8F08FDBF81800CB
:108BC00020F00100CBF81800B9F818000028EFD108
:108BD000DBF8180020F00200CBF81800B9F81800F4
:108BE0000028E8D1B9F81A000028E4D1DBF8180011
:108BF00020F40060CBF81800DBF8180020F4805057
:108C0000CBF81800D9F8083023B1D9F80420484629
:108C10000021984799F82C0030B109F10D0000F0BF
:108C200011FE002089F82C00002089F8240001B0F2
:108C3000BDE8F08F002000F065BB0000012000F0CF
:108C400061BB0000022000F05DBB0000032801D3DF
:108C5000FEE700BF2DE9F04381B0054640F2C86051
:108C6000C0F2000050F8256040F28069C2F20009AD
:108C700059F82540706943F6FF784003C3F6E07861
:108C80000ED47069000355D47069800300F19C8094
:108C90007069C00300F1E58001B0BDE8F08300BF5A
:108CA00040F20350608094F83000B169002821F44C
:108CB0008021B16100F02581B069400309D5B06918
:108CC000400344BFB0695FEA403002D5B069400359
:108CD000F2D4B06920F00060B061B06920F080701B
:108CE000B061B06920F08060B061B06920F00070C0
:108CF000B061F069B06920F40010B061E07A20B191
:108D0000201D00F09FFD0020E0720020607261884D
:108D1000022908BF6080236A1BB1626A20460321D2
:108D20009847706900EA080040F47020706170692B
:108D30000003A9D594F8300059F82570B1690028CE
:108D400021F48021B16100F01481B069400309D59C
:108D5000B069400344BFB0695FEA403002D5B069F2
:108D60004003F2D4B06920F00060B061B06920F037
:108D70008070B061B06920F08060B061B06920F0AF
:108D80000070B061F069B06920F40010B061F87A49
:108D900020B1381D00F056FD0020F87200207872D6
:108DA0007988022908BF7880236A1BB1626A20464D
:108DB00003219847706900EA080040F47020706150
:108DC000706980037FF564AF40F20550608094F8CD
:108DD000300059F82570B169002821F48021B16173
:108DE00000F0FF80B069400309D5B069400344BF7B
:108DF000B0695FEA403002D5B0694003F2D4B0698F
:108E000020F00060B061B06920F08070B061B0699E
:108E100020F08060B061B06920F00070B061F0694E
:108E2000B06920F40010B061F87A20B1381D00F06C
:108E300009FD0020F872002078727988022908BFA5
:108E40007880236A1BB1626A2046032198477069C3
:108E500000EA080040F4702070617069C0037FF57B
:108E60001BAF40F20450608094F8300059F8255050
:108E7000B169002821F48021B16100F0EA80B06975
:108E8000400309D5B069400344BFB0695FEA403090
:108E900002D5B0694003F2D4B06920F00060B0613F
:108EA000B06920F08070B061B06920F08060B0617E
:108EB000B06920F00070B061F069B06920F4001072
:108EC000B061E87A20B1281D00F0BCFC0020E872F7
:108ED000002068726988022908BF6880236A1BB174
:108EE000626A204603219847706900EA080040F44E
:108EF0007020706101B0BDE8F08300BFB06940032D
:108F000009D5B069400306D5B069400344BFB069D4
:108F10005FEA4030F2D4B06920F00060B061B0691F
:108F200020F08070B061B06920F08060B061B069FD
:108F300020F00070B061306920F400103061F069F9
:108F40002078FEF741FEE07A20B1201D00F07AFC87
:108F50000020E0726088022804BF002060800020AA
:108F60006072236A002B7FF4D8AEDAE6B069400362
:108F700009D5B069400306D5B069400344BFB06964
:108F80005FEA4030F2D4B06920F00060B061B069AF
:108F900020F08070B061B06920F08060B061B0698D
:108FA00020F00070B061306920F400103061F06989
:108FB0003878FEF709FEF87A20B1381D00F042FC3F
:108FC0000020F8727888022804BF002078800020F2
:108FD0007872236A002B7FF4E9AEEBE6B0694003B8
:108FE00009D5B069400306D5B069400344BFB069F4
:108FF0005FEA4030F2D4B06920F00060B061B0693F
:1090000020F08070B061B06920F08060B061B0691C
:1090100020F00070B061306920F400103061F06918
:109020003878FEF7D1FDF87A20B1381D00F00AFC3F
:109030000020F8727888022804BF00207880002081
:109040007872236A002B7FF4FEAE00E7B06940031C
:1090500009D5B069400306D5B069400344BFB06983
:109060005FEA4030F2D4B06920F00060B061B069CE
:1090700020F08070B061B06920F08060B061B069AC
:1090800020F00070B061306920F400103061F069A8
:109090002878FEF799FDE87A20B1281D00F0D2FB70
:1090A0000020E8726888022804BF00206880002041
:1090B0006872236A002B7FF413AF15E780B58446EE
:1090C000A1F50030A0F10E03112B4FF0010015D8CF
:1090D000DFE803F00A2C36404A545E1A1A1A1A7C4A
:1090E0007C7C7C7C687200BF43F6FF7EC3F6E07E2A
:1090F0000CF1140201204FF4804373E0A1F58023AA
:109100000E3B022B28BF00201022C0F20702914222
:1091100062D01122C0F20702914205D10CF128025F
:109120004FF400335CE000BF012080BD43F6FF7EBA
:10913000C3F6E07E0CF1140201204FF4004351E02D
:1091400043F6FF7EC3F6E07E0CF1140201204FF4DB
:10915000803347E043F6FF7EC3F6E07E0CF1140255
:1091600001204FF400333DE043F6FF7EC3F6E07E7E
:109170000CF1140201204FF4802333E043F6FF7E0C
:10918000C3F6E07E0CF1140201204FF4002329E025
:1091900043F6FF7EC3F6E07E0CF1140201204FF48B
:1091A00080131FE043F6FF7EC3F6E07E0CF114024D
:1091B00001204FF0804315E043F6FF7EC3F6E07ECA
:1091C0000CF1140201204FF000430BE000201022AC
:1091D000C0F2070291429CD10CF128024FF4803377
:1091E0006FF4403E116801EA0E011943116080BD21
:1091F000816941F48021816104E000BF81694903F4
:1092000048BF70478169490306D4816949035CBF3F
:1092100081695FEA4131F1D570470000816941F40D
:109220000021816104E000BF8169090348BF7047E4
:109230008169090306D4816909035CBF81695FEA1A
:109240000131F1D5704700006FF0010202EB1143CC
:10925000052B4FF0000C11D8DFE803F004100610C6
:10926000080A00BF143004E01C3002E0243000E0A3
:109270002830006889B2C84000F0010C6046704791
:109280000421C0F6007101614CF20001CCF21F0113
:10929000416100214FF4703281610162416282625A
:1092A000C1627047C069087070470000114402290C
:1092B00004D1016941F0005101617047826922F0D7
:1092C000100242EA01118161016921F0005101613E
:1092D00070470000826901F0FE0322F002021A4387
:1092E0008261826961F3000282617047026901F064
:1092F000010122F4005242EA41310161704700004D
:1093000001777047B0B5032802D300BFFEE700BF66
:10931000044640F2C860C0F2000050F824502046D5
:10932000FFF794FCA869800244BF68695FEA802067
:1093300012D4A869400244BF68695FEA40200FD494
:10934000A869000246BF68695FEA0020B0BD2046F8
:10935000BDE8B04000F01EBA204600F005F8E8E78E
:10936000204600F0A1F9EBE7F0B581B0032801D366
:10937000FEE700BF40F28067C2F2000757F82040C6
:10938000054640F2C860C0F2000094F8311050F871
:109390002560A06931B1012912D1B169F269C90F03
:1093A000027018E0F169017094F83100C0B92069C9
:1093B000A16901382061481CA0612069F0B917E05B
:1093C000B1694FF4007202EA5151B269F36941EA9E
:1093D000D251090A0370417094F831000028E6D098
:1093E0002069A16902380231A1612061206928B990
:1093F000236A1BB1626A204600219847206908B1A0
:1094000001B0F0BD57F82550B06920F48020B0615C
:10941000B069400309D5B069400344BFB0695FEA51
:10942000403002D5B0694003F2D4B06920F000604A
:10943000B061B06920F08070B061B06920F08060E8
:10944000B061B06920F00070B061F069B06920F4DB
:109450000010B061E87A20B1281D00F0F3F9002077
:10946000E872002068726988022908BF6880236A50
:10947000002BC5D0626A2046022101B0BDE8F04051
:1094800018470000032801D3FEE700BF2DE9F04F85
:1094900089B0894640F28061C2F2000151F8201083
:1094A00041B14A7A0AB9897A21B1022009B0BDE8EE
:1094B000F08F00BF40F2C861C0F2000151F82010E7
:1094C000009140F2D461C0F20001085C08A9FBF7EA
:1094D000A1FE08994FEA8900B1FBF0F04FF6FC724B
:1094E000C0F2030202EA8002B1FBF2F20B25B2EBFA
:1094F000090C98BFA9EB020C09FB05F20792C9EB16
:10950000C902069209EB890205925200049209EB06
:10951000C90203924FEAC902029209EB49025200C2
:10952000019204224FF00008059BAF1F03EB0806D1
:10953000B1FBF6F39EB27E43B1FBF6F6B6EB090A39
:1095400098BFA9EB060AE24598BF3A4628BFE24613
:10955000019FA5F105064744B1FBF7FC98BF1846EB
:109560001FFA8CF77743B1FBF7F7B7EB090B98BFFE
:10957000A9EB070BD34598BF324628BFD346069BBD
:10958000A5F1040703EB080EB1FBFEFA98BF604695
:109590001FFA8AF67E43B1FBF6F6B6EB090498BFD4
:1095A000A9EB0604029B5C4503EB0806B1FBF6FC45
:1095B00098BF3A46A5F103061FFA8CF706FB07F79A
:1095C000B1FBF7F728BF5C4698BF5046B7EB0903DD
:1095D00098BFA9EB0703039FA3424744B1FBF7FAE7
:1095E00098BF3246A5F102061FFA8AF706FB07F775
:1095F000B1FBF7F728BF234698BF6046B7EB0904D5
:1096000098BFA9EB0704049F9C424744B1FBF7FCB9
:1096100098BF3246A5F101071FFA8CF607FB06F644
:10962000B1FBF6F628BF1C4698BF5046B6EB0903BF
:1096300098BFA9EB0603A34298BF3A46079E28BFEE
:1096400023464644B1FBF6F698BF6046B4B26C437D
:10965000B1FBF4F4F046B4EB090C98BFA9EB040C91
:109660009C4528BF9C469CBF30462A46202D05F1CC
:1096700007057FF459AF009F072A03D8396941F4E1
:10968000003139614FF0F853396903EB0262120E71
:1096900062F31C613961396960F30C0139610020A2
:1096A00009B0BDE8F08F0000B0B5032802D300BFB9
:1096B000FEE700BF40F28061C2F2000151F8204095
:1096C0006169002918BFB0BD40F2C86294F830103B
:1096D000C0F2000252F8205031B1E08802282DD1AA
:1096E0000020E0802EE000BF286920F400002861FF
:1096F0006078FEF769FAA86920F48000A861A8697B
:1097000020F40020A861A869000309D5A869000316
:1097100044BFA8695FEA003002D5A8690003F2D40B
:10972000207B18B104F1080000F08CF8E0880228D2
:1097300004BF0020E0800020A07220E0A86920F48F
:109740000000A861A86920F48000A861A86920F43D
:109750000020A861A869000309D5A869000344BFD7
:10976000A8695FEA003002D5A8690003F2D400209E
:10977000A072207B18B104F1080000F063F8A36A1E
:1097800033B1E26A20460221BDE8B040184700BF6D
:10979000B0BD0000032801D3FEE700BFB0B540F222
:1097A0008061C2F2000151F82040616919B340F2B2
:1097B000C861C0F2000151F8205094F83110E069FE
:1097C000D1B1012901784078AA6912BF22F0404244
:1097D00000F0010022F0804242EA8070A8612977FF
:1097E00094F8310070B16069E16902380231E161D9
:1097F0006061606978B1B0BD0078287794F8310075
:109800000028F0D16069E16901386061481CE061BD
:1098100060690028EFD1A36A1BB1E26A20460121EA
:1098200098476069002818BFB0BDA86920F40000FF
:10983000A861A86940F48000A861B0BDFEE70000FF
:109840007047000010B568B10446FEF705FA2078AD
:10985000FF2809D02078013020700024FEF706FA96
:10986000204610BD012010BD0124FEF7FFF920465F
:1098700010BD000010B5A1F1290CBCF1250F88BF67
:1098800010BD0FF20601DFE81CF0270031003B009D
:1098900045004F00590063006D0077008100C00152
:1098A0008B0095009F00A900B300C001BD00C0015E
:1098B000C700D500E300F100FF000D01C0011B014E
:1098C000290137014501C101530161016F017D018A
:1098D0009701A501B30100BFD0F8CC1121F0804160
:1098E00062F39E71C0F8CC1110BD00BFD0F8C81053
:1098F00021F0804162F39E71C0F8C81010BD00BF16
:10990000D0F8841021F0804162F39E71C0F8841079
:1099100010BD00BFD0F8841121F0804162F39E7128
:10992000C0F8841110BD00BFD0F8241121F080418F
:1099300062F39E71C0F8241110BD00BFD0F8281149
:1099400021F0804162F39E71C0F8281110BD00BF64
:10995000D0F82C1121F0804162F39E71C0F82C11D7
:1099600010BD00BFD0F8301121F0804162F39E712C
:10997000C0F8301110BD00BFD0F8341121F0804183
:1099800062F39E71C0F8341110BD00BFD0F8F4101E
:1099900021F0804162F39E71C0F8F41010BD00BF49
:1099A000D0F8901021F0804162F39E71C0F89010C1
:1099B00010BD00BFD0F8941021F0804162F39E7179
:1099C000C0F8941010BD00BFD0F8AC1021F0804159
:1099D00062F39E71C0F8AC1010BD00BFD0F8D81073
:1099E00021F0804162F39E71C0F8D81010BD00BF15
:1099F000D0F8C41021F0804162F39E71C0F8C41009
:109A000010BD00BFD0F8801021F0804162F39E713C
:109A1000C0F8801010BD00BFD0F8E01021F08E4CCF
:109A20004FF0E06101EA036162F39E716144C0F8A6
:109A3000E01010BDD0F8E41021F08E4C4FF0E06142
:109A400001EA036162F39E716144C0F8E41010BD45
:109A5000D0F8E81021F08E4C4FF0E06101EA03618C
:109A600062F39E716144C0F8E81010BDD0F8981000
:109A700021F08E4C4FF0E06101EA036162F39E71C8
:109A80006144C0F8981010BDD0F8B81121F08E4C88
:109A90004FF0E06101EA036162F39E716144C0F836
:109AA000B81110BDD0F8BC1121F08E4C4FF0E06120
:109AB00001EA036162F39E716144C0F8BC1110BDFC
:109AC000D0F8EC1021F08E4C4FF0E06101EA036118
:109AD00062F39E716144C0F8EC1010BDD0F89C1088
:109AE00021F08E4C4FF0E06101EA036162F39E7158
:109AF0006144C0F89C1010BDD0F8681121F08E4C64
:109B00004FF0E06101EA036162F39E716144C0F8C5
:109B1000681110BDD0F8981121F08E4C4FF0E06123
:109B200001EA036162F39E716144C0F8981110BDAF
:109B3000D0F8B01021F08E4C4FF0E06101EA0361E3
:109B400062F39E716144C0F8B01010BDD0F8B4103B
:109B500021F08E4C4FF0E06101EA036162F39E71E7
:109B60006144C0F8B41010BDD0F8B81021F08E4C8C
:109B70004FF0E06101EA036162F39E716144C0F855
:109B8000B81010BDD0F800114FF6F074CBF6FF04FA
:109B9000DDE902CE21404FF0E06404EA036362F3A2
:109BA0009E730CF007040EF00102234443EAC20244
:109BB0001144C0F8001110BDD0F8A8114FF0E064B6
:109BC00004EA036321F08E4162F39E731944C0F8E6
:109BD000A81110BDD0F8AC114FF0E06404EA0363A3
:109BE00021F08E4162F39E731944C0F8AC1110BD90
:109BF000D0F8B0114FF0E06404EA036321F08E4125
:109C000062F39E731944C0F8B01110BDD0F8DC1097
:109C100021F08E4C4FF0E06101EA036162F39E7126
:109C20006144C0F8DC1010BDB0B52F200021FAF758
:109C300085F94BF20004C4F2040420460C210122F1
:109C400000F084F820460D21012200F07FF8204624
:109C50000C21092200F0E8F820460D21092200F02D
:109C6000E3F84FF28005C4F20F0528460C210022CC
:109C700000F0CEF828460D21002200F0C9F8204659
:109C80000C2100F007F820460D21BDE8B04000F09F
:109C900001B8000050F8212022F0807240F8212005
:109CA00050F8212042F0807240F8212070470000D7
:109CB0008160704710B530200021FAF73FF94CF26F
:109CC0000004C4F2040420460021012200F03EF802
:109CD00020460F21012200F039F8204610210122F0
:109CE00000F034F820460021002200F09DF82046C4
:109CF0000F21002200F098F820461021002200F0E9
:109D000093F84FF2C004C4F20F042046012100F082
:109D100097F820464FF4004100F092F820464FF4A7
:109D2000803100F08DF820460021012200F070F80B
:109D300020460F21012200F06BF82046102101225D
:109D4000BDE8104000F064B800697047B0B550F845
:109D50002130082A2DD148F2040CC4F2040C4BF235
:109D60000002DCF800E0C4F2040290421AD04AF289
:109D70000002C4F2040290421AD110294FF00002EE
:109D800017D80EF00F04DFE801F00923141414149F
:109D900014141414141414272B2F330044F001024C
:109DA00028E000BF012909D061B90EF00B0221E0C3
:109DB000002262F30A2340F82130B0BD0EF0070202
:109DC00018E000BF002262F30A2340F82130B0BD42
:109DD00044F002020EE000BF44F004020AE000BFBB
:109DE00044F0080206E000BF0EF00E0202E000BFE1
:109DF0000EF00D02DCF8005025F00F052A44CCF8D7
:109E00000020002262F30A2340F82130B0BD000098
:109E1000D0F814C001238B402CEA030302FA01F1AD
:109E2000194341617047000050F8213002F00F02E1
:109E300023F4702343EA024240F8212070470000D7
:109E400041607047D0F800C001238B402CEA030327
:109E500002FA01F1194302680160704710B100BFB6
:109E6000FEE700BF4DF2080C40F27401C4F2030C8F
:109E7000C2F20001D1E90103DCF80C20520707D43B
:109E8000002B08BF7047996819B3181D0068084770
:109E9000F8B142690AB9027EA2B15CF8082C0368E5
:109EA0001A44013ACCF80020027E01230B700AB15B
:109EB000002101E0416901394161016A49B11C3069
:109EC000006808470022CCF800200A70016A0029C7
:109ED000F5D1704740F20810C2F200000321016181
:109EE000416140F6FA7140F2B012C0F20001C2F2D4
:109EF00000028161C2614FF48062026200228262CC
:109F00004262C262016640F2F401C2F20001013114
:109F100041661021816645F25241C0F25401026748
:109F2000C2664267C0F8071044F24751C0F25201BE
:109F3000BFF35F8FC0F8031044F25351C4F247716E
:109F400001602021BFF35F8F8171BFF35F8F704786
:109F500010B540F2081EC2F2000E9EF800308C468A
:109F6000002B48D10321CEF81010CEF8141040F683
:109F7000FA7140F2B013C0F20001C2F20003CEF851
:109F80001810CEF81C304FF48063CEF82030002338
:109F9000CEF82830CEF82430CEF82C30CEF8601031
:109FA00040F2F401C2F200010131CEF86410102138
:109FB000CEF8681045F25241C0F25401CEF870302C
:109FC000CEF86C30CEF87430CEF8071044F247511A
:109FD000C0F25201BFF35F8FCEF8031044F2535129
:109FE000C4F24771CEF800102021BFF35F8F8EF8C6
:109FF0000610BFF35F8FEFF311844FF0200181F360
:10A000001188614600F004F884F3118810BD000047
:10A010002DE9F04F81B040F2081300EB4000C2F28E
:10A02000000303EBC007F86A14460228894613D0E0
:10A03000012849D058B93D4655F8246F6868B042A8
:10A0400040F28080F1430844A04280F082800026E4
:10A05000304601B0BDE8F08F57F8245F0026381D68
:10A06000A7F1040BBA46A7F10808009022E000BF50
:10A07000DBF80000EA4311440144471BB94238BFF2
:10A080000F46D8F80000A74228BF27462844494673
:10A090003A46F7F778F9DBF800007919E41B0D1A56
:10A0A0003E44B94418BF0D46002CBFF35F8FCAF879
:10A0B00000505FD000980168A942D9D9EA43DBF883
:10A0C00000001144D9E700BFBA465AF8245FDAF815
:10A0D0000410A94204D9EA43386A114404E000BFDD
:10A0E000386AEA4311440144A14238BF0C46461B7A
:10A0F00057F81C0FB44228440ED249462246F7F7BF
:10A1000042F96019BFF35F8FCAF800002646304657
:10A1100001B0BDE8F08F00BF49463246F7F733F98A
:10A12000A4EB0608386809EB06014246F7F72BF95D
:10A13000BFF35F8FCAF800802646304601B0BDE805
:10A14000F08F00BF396AF24310440844A042FFF484
:10A150007EAF57F81C0F79683044A1EB060AA24580
:10A160000CD949462246F7F70EF93019BFF35F8F35
:10A1700028602646304601B0BDE8F08F4946524679
:10A18000F7F701F9A4EB0A08386809EB0A0142461F
:10A19000F7F7F9F8BFF35F8FC5F800802646304621
:10A1A00001B0BDE8F08F00002DE9F04F9BB01546DF
:10A1B00006AA16924022002605901A900DF1580822
:10A1C00042F2107900208A461792CDE918660AE01B
:10A1D0003B46CDF804B000F037FB19985146B0F17A
:10A1E000FF3F40F3FD821AF8013B252B1CD0002BCA
:10A1F00000F0E682DDE91720411C914207D8169A4B
:10A2000013541998179A01301990084618919042E2
:10A21000E3D116991A98FFF79BFE1899884240F0EF
:10A22000C9821896D9E700BF01F1040A4FF0000B6C
:10A230001AF8031CA1F123030D2B00F25F80022208
:10A24000DFE803F0085C5C5C5C5C5C5C0A5C0C5CFA
:10A250005C0D00BF082202E0042200E001221AF88F
:10A26000021C4BEA020BA1F123030D2B00F24E80DE
:10A270000222DFE803F0074B4B4B4B4B4B4B094B98
:10A280000B4B4B0C082202E0042200E001221AF8DA
:10A29000011C4BEA020BA1F123030D2B42D8022231
:10A2A000DFE803F008404040404040400A400C4096
:10A2B000400D00BF082202E0042200E001229AF8CB
:10A2C00000104BEA020BA1F123030D2B20D8022230
:10A2D000DFE803F0101E1E1E1E1E1E1E121E0E1E86
:10A2E0001E0800BF4BEA020B0AF1040AA0E700BFF8
:10A2F0000122F7E70822F5E70422F3E7AAF1030AAF
:10A30000A1F13A0212F10A0F07D312E0AAF1020AF0
:10A31000A1F13A0212F10A0F0BD200222E2947D0E6
:10A3200096E000BFAAF1010AA1F13A0212F10A0F68
:10A33000F3D30AF1020A002202EB820201EB42028D
:10A340001AF8011C303AA1F13A0313F10A0F2BD38A
:10A3500002EB820201EB42029AF80010303AA1F1BE
:10A360003A0313F10A0F21D302EB820201EB4202FE
:10A370009AF80110303AA1F13A0313F10A0F63D3AE
:10A3800002EB820201EB42029AF80210303AA1F18C
:10A390003A0313F10A0F0AF1040ACDD2AAF1020A14
:10A3A0002E2905D054E000BFAAF1010A2E294FD171
:10A3B000534613F8011FA1F13A0717F10A0F03D210
:10A3C00000279A4646E000BF0AF1020A002700BFB4
:10A3D0009AF8003007EB870701EB4701A3F13A0732
:10A3E00017F10A0FA1F1300734D39AF8011007EBE7
:10A3F000870703EB4703A1F13A0717F10A0FA3F10F
:10A400003007C0F0F7809AF8023007EB870701EBBE
:10A410004701A3F13A0717F10A0FA1F13007C0F085
:10A42000ED8007EB870103EB41039AF80310A3F1DA
:10A430003007A1F13A0313F10B0F0AF1040AC7D850
:10A44000AAF1010A06E000BF0AF1010A2E29AFD0E5
:10A45000002700BF9AF8001001F0FB03682B15D10C
:10A460009AF8011001F0FB03682B17D19AF802103B
:10A4700001F0FB03682B3DD19AF803100AF1040A9E
:10A4800001F0FB03682BE5D00AE000BF0AF1010AE6
:10A49000A1F15803202B07D932E000BF0AF1020ACC
:10A4A000A1F15803202B2BD8DFE803F01C1A1A1A4D
:10A4B0001A1A1A1A1A1A1A36441A1A1A1A1A1A1AB6
:10A4C0001A1A1A1A6E1A1A7A1A121A1A1C0000BFCD
:10A4D0002868011D29600168009240460A2277E63B
:10A4E0007BE600BF2868011D296001680092404694
:10A4F00010226DE60AF1030AA1F15803202BD3D9EB
:10A5000025297FF46AAEDDE91720411C91423FF610
:10A510007EAE169A252373E6DDE917202B68411CD1
:10A520001F1D91422F603FF672AE1A68169B1A5497
:10A5300067E600BF29680B1D2B600C68002C2146C4
:10A54000C4F1000348BF19460A2904935AD34FF0B7
:10A55000020800BF64295FD3B1F57A7F56D349451D
:10A5600058D341F25973CDF2B713A1FB033648F229
:10A570009F63C0F2010399424FEA563108F1040883
:10A58000E8D8A8F1010847E028681022011D2960D9
:10A590000168082000904046082301961BE600BF92
:10A5A00029680A1D2A600C6806E000BFB0F1FF3F71
:10A5B00004F101047FF711AE2778002F3FF40DAEB0
:10A5C000DDE917214B1C934207D816984754199878
:10A5D000179A01301946189319909142E6D11699AD
:10A5E0001A98FFF7B5FC1899884240F0E380199853
:10A5F0001896DBE70AF1010A2CE700BF0AF1020A0C
:10A6000028E700BF4FF0010806E000BF08F101088D
:10A6100002E000BF08F10208B84598BFB8466AB129
:10A620000021002C48BF01210BF0040341EA9301F3
:10A63000A2EB01091BF0020605D127E04FF000094B
:10A640001BF0020622D00FBB002800F1AB80B4F152
:10A65000FF3F49DD5FEA4B7169D5DDE917214B1CEE
:10A66000934208D816982B2242541998179A013011
:10A67000194618931990914251D116991A98FFF7DB
:10A6800067FC1899884247D094E000BF5FEACB711D
:10A69000DAD1B9F1000FD7D0039603E00028B14614
:10A6A00000F18080A9F101064E4538BFC84539D276
:10A6B000DDE917214B1C934208D8169820224254FA
:10A6C0001998179A01301946189319909142E5D1BB
:10A6D00016991A98FFF73CFC189988426AD1199884
:10A6E00000211891DAE700BFDDE917214B1C9342E6
:10A6F00008D816982D2242541998179A01301946F5
:10A700001893199091420FD116991A98FFF720FCCF
:10A710001899049C88424DD100201890199800285F
:10A7200005D53FE0039E8FE7049C00283AD47EB90C
:10A730000DF15808404621460A223B46CDF80090CC
:10A74000CDF804B000F080F8002642F2107944E51C
:10A750000BF001013943EBD1B9F1000FE8D0A9F1B9
:10A7600001064E4538BFC845E2D2DDE917214B1C32
:10A77000934208D81698302242541998179A0130FB
:10A78000194618931990914209D116991A98FFF712
:10A79000DFFB189988420DD11998002118910028E3
:10A7A000B146DCD500260DF1580842F21079FFF7CA
:10A7B00014BD00BF4FF0FF301BB0BDE8F08F00BFED
:10A7C00040B1189A52B1059806A9FFF7C1FBDDE91F
:10A7D000181004E000201BB0BDE8F08F00210844F1
:10A7E0001BB0BDE8F08F000080B503F083F904F0E2
:10A7F000F9F9BDE8804003F08BB900004EF68850AF
:10A80000CEF20000016841F440110160016841F49A
:10A8100040010160D0F8AC1121F08041C0F8AC11CA
:10A8200042F204004CF22051C4F20500CDF628118A
:10A830000160016842F6201140F8041C4FF6FF71D8
:10A8400041607047FEE700002DE9F04F81B08B4674
:10A85000DDE90A911F4615469345044602D24FF0A2
:10A8600001081FE04FF00408584600BFB0FBF5F0A8
:10A87000A84211D3B0FBF5F0A84211D3B0FBF5F01C
:10A88000A8420FD3B0FBF5F008F10408A842EDD2BE
:10A89000A8F1030806E000BFA8F1020802E000BF2B
:10A8A000A8F10108B84598BFB846B9F1000F01F00A
:10A8B0000100009034D098BB2026880748BF30267E
:10A8C0004FF0000A2020002F18BF064608E000BF06
:10A8D000C4F808A0E068A9F10109B0F1FF3F1FDD4D
:10A8E000B9F1000F1CD0C8451AD2D4E90120411C8F
:10A8F000914207D822681654E06862680130E0602F
:10A900000846A1609042E5D121682069FFF720FB4D
:10A91000A1688842DCD04FF0FF30E060A9F1010966
:10A92000E068002859D4012602E000BF013F6E43D1
:10A93000022F01D3013F03E0BBFBF6F1A9421BD379
:10A94000012F05FB06F601D9013F03E0BBFBF6F141
:10A95000A94211D3012F05FB06F601D9013F03E0FF
:10A96000BBFBF6F1A94207D3012F05FB06F6DDD8A4
:10A97000BBFBF6F1A942DAD2A2682EA76168BBFB45
:10A98000F6FA531C8B4209D817F80A00216888543C
:10A99000E068616801301A46A360E0608A4209D12C
:10A9A00021682069FFF7D4FAA26890420CD1E068D0
:10A9B0000022A26000280AD4B6FBF5F10AFB16BB00
:10A9C000AE420E46DAD202E04FF0FF30E06000996E
:10A9D000002918BFB9F1000F02D101B0BDE8F08F16
:10A9E0002025A9F101064E4538BFC845F5D261685A
:10A9F000531C8B4207D820688554E0686168013099
:10AA00001A46A360E0608A4209D121682069FFF7F5
:10AA10009FFAA168884207D1E0680022A260B0F1E5
:10AA2000FF3FB146DDDCD8E74FF0FF30E06001B01A
:10AA3000BDE8F08F30313233343536373839414262
:10AA400043444546002804BF00207047C1B209B105
:10AA500001200CE010F47F4102D0090A092006E031
:10AA600010F47F0107BF010E1920090C112040F2DC
:10AA70001352C0F20002515C0844704710B54FF207
:10AA8000C004C4F20F04204600210122FFF7DAF9C6
:10AA9000204610210122FFF7D5F920460F2101227F
:10AAA000BDE81040FFF7CEB92DE9F04141F2341076
:10AAB00041F2381CC0F20000C0F2000C0068DCF863
:10AAC0000020824211D041F23C11C0F200010C681A
:10AAD000A10809D04B1E032B01F0030E0CD200215C
:10AAE000BEF1000F2BD13EE010464EF60851CEF2DB
:10AAF00000010860BDE8F0816FF0030505EA9404E9
:10AB000000F1080102F10803C4F100080024002646
:10AB100087599D1997518F1957F8047C043C45F8C3
:10AB2000047C8D5987199D51FD689719A04506F140
:10AB30001006FD60ECD16142BEF1000F13D050F859
:10AB40002130BEF1010F42F821300CD04B1C50F8DF
:10AB50002340BEF1020F42F8234004D0023150F8E6
:10AB6000210042F82100DCF800004EF60851CEF238
:10AB700000010860BDE8F08100EB8100C260704711
:10AB8000F0B581B00E462C211C4615460746F6F757
:10AB900013FC8020B8702046BE60B047F9783C7145
:10ABA00001F03F0141EAC01005F0010140EA8110C7
:10ABB000F87001B0F0BD000040F28C61C2F20001FB
:10ABC0000A68AAB1134600BF834204BF4FF0FF30AA
:10ABD00070479B6A63B183420ED09B6A43B1834244
:10ABE0000AD09B6A23B1834206D09B6A002BEBD12B
:10ABF00082620860002070474FF0FF30704700000D
:10AC0000F0B581B040F28C60C2F200000468002C04
:10AC100000F0F08000250526012704E0E070A46A1A
:10AC2000002C00F0E780A16820798847E27851077E
:10AC300002D0218801312180B0EBD21F02D102F075
:10AC4000C7010EE007EBD20101F0070302F0C701D4
:10AC500041EAC301032BE17004D302F0470141EA4A
:10AC6000C011E17001F00700052805D8DFE800F009
:10AC7000081E3458046600BF01F0F800CEE700BF9C
:10AC8000A378C8B2C1F38012B2EBD01F03F00F005B
:10AC900066D1E268A0701AB120469047A078E178AA
:10ACA00000F0F00001302580A07043E0C8B2C1F38D
:10ACB0008012B2EBD01F57D12088C928AFD3A0781B
:10ACC000226A66F31F10A07012B120469047E17807
:10ACD00001F0F8000530A1E7C8B2C1F38012B2EB71
:10ACE000D01F4FD1A078E16800F00F00A07011B123
:10ACF00020468847A07800F00F010F2906D0411C9C
:10AD000001F00F0100F0F0000844A070616909B182
:10AD100020468847E078258000F0F80003307DE782
:10AD2000C8B2C1F38012B2EBD01F3DD120883D28BC
:10AD3000FFF475AF01F0F80001306FE7A378C8B2F7
:10AD4000C1F38012B2EBD01F03F00F003ED1616A55
:10AD500060300029A0703FF462AF204688475EE76C
:10AD60008030A0705BE700BFA078226967F31F10F6
:10AD7000A07012B120469047E17801F0F8002580DC
:10AD800002304BE720883D28FFF449AFA07800F05F
:10AD90000F00022828D001287FF46EAFA26930305E
:10ADA000A070CAB968E700BFA078216967F31F10D7
:10ADB000A07009B12046884720883B2810D8E07849
:10ADC000258000F0F800023028E700BF226910302B
:10ADD000002AA0703FF450AF20469047E1784BE73F
:10ADE000E07800F0F80019E7E2694030002AA0702E
:10ADF000F2D141E701B0F0BD80B500F077FE002050
:10AE000080BD000080B500F0E1FF002080BD0000A3
:10AE100070B582B040F2DC0641F21C0041F218111C
:10AE2000C2F20006C0F20000C0F20001C6E9000153
:10AE30000120782102F066FA706128B30A201521FA
:10AE4000CDE900104AF6C16113A0C0F20001002252
:10AE50004FF48063002403F04BFC7269054610A197
:10AE600010460022002303F08DF9706990F821103C
:10AE700041F0020180F821101DB1284603F0FCFDCD
:10AE80000024204602B070BD07A002F04FFE4FF034
:10AE9000FF34204602B070BD747368656C6C0000AE
:10AEA00073687278000000006E6F206D656D6F72C0
:10AEB0007920666F72207368656C6C0A0000000070
:10AEC00040F2DC0AC2F2000ADAF8140040F2B05490
:10AED00090F82110C2F2000441F0010280F8212014
:10AEE000880703D40020207026E000BFDAF8101095
:10AEF00041B140F2B050C2F200008022F6F767FA8A
:10AF00001AE000BF01F0C0FE30B10020207147F20E
:10AF10006D30C2F2680009E046F67300C0F220000E
:10AF2000C4F8030046F66610C7F26E302060204673
:10AF3000F6F759FA3E212152204602F0F7FD40F67D
:10AF40005A764FF0010B4FF00008C0F200060227BE
:10AF500002E000BF80F820B002F02AFB8146DAF858
:10AF60001400B9F11B0FF5D090F82010022909D078
:10AF7000012940F07580B9F15B0F40F06F8080F8D7
:10AF80002070E9E7A9F14101022980F82080E3D38C
:10AF9000B9F1440F00F29280DFE819F04600970003
:10AFA000970097009700970097009700A000E20095
:10AFB0007000970097007000970097009700970027
:10AFC00097009700970097009700970097009700C9
:10AFD00097009700970097009700970097009700B9
:10AFE00097009700970097009700970097009700A9
:10AFF0009700970097009700970097009700970099
:10B000009700970097009700970097009700970088
:10B010009700970097009700970097009700970078
:10B0200097004800860100BF96E700BFB0F8741093
:10B03000B0F872209142BFF48FAF084490F822100C
:10B0400040F65C70C0F2000002F070FDDAF8140007
:10B05000B0F874100131A0F874107DE780F82080FA
:10B06000B9F10D0F2AD8DFE809F007303030303061
:10B070003030397B093030096EE700BF01F004FE43
:10B08000012812D1DAF8140090F82110C90707D06E
:10B0900040F67160C0F2000002F048FDDAF81400DA
:10B0A000B0F87210223001F0A5FBDAF8140090F825
:10B0B000210080077AD484F800801FE1B9F17F0F66
:10B0C0000CD0B9F1FF0F3FF447AFB0F87220502A0F
:10B0D00076D30022A0F87220A6E000BFB0F874106A
:10B0E00000293FF439AFB0F872200139531E9AB2EB
:10B0F000A0F872308BB29A42A0F8741040F2B68079
:10B1000010FA81F101F122002331D21A02F0EEFD92
:10B11000DAF81400B0F87210084480F82280DAF8E7
:10B120001400B0F87410084400F1220189A002F064
:10B13000FDFCDAF81410B1F87400B1F8721088420E
:10B140003FF60AAF451E00BF304602F0EFFCDAF8CA
:10B1500014000135B0F872008542F5D3FCE600BF5B
:10B16000B0F8741051B10025304602F0DFFCDAF877
:10B1700014000135B0F874108D42F5D300F12205AA
:10B1800040F67160C0F2000002F0D0FC01F07CFDDE
:10B19000012802D1284601F06BFADAF8140090F881
:10B1A000210080076ED484F80080C1E0DAF8101026
:10B1B00000296FD020468022F6F709F99EE000BFF3
:10B1C000B0F874309A422FD9C11801F1230022310E
:10B1D000D21A02F08BFDDAF81400B0F874100844AB
:10B1E00080F82290DAF8140090F82110C90709D0ED
:10B1F000B0F87410084400F122015AA002F096FC45
:10B20000DAF81400B0F87450B0F872108D421DD204
:10B21000304602F08BFCDAF814000135B0F87210F9
:10B220008D42F5D312E000BF104480F82290DAF886
:10B23000140090F82110C90708D040F65C70C0F2E5
:10B240000000494602F072FCDAF81400B0F87210FF
:10B25000B0F874200131A0F8721089B2013250297F
:10B26000A0F8742028BFC0F8728075E638A002F0FC
:10B270005DFCDAF81400B0F87210084480F82280FF
:10B280006AE600BFDAF81010F1B120468022F6F726
:10B290009EF84DE001F0F8FC00B347F26D3084F801
:10B2A0000480C2F2680023E0B0F8740000283FF484
:10B2B00053AE304602F03AFCDAF81400B0F87410DD
:10B2C0000139A0F8741047E601F0DEFC00B347F244
:10B2D0006D3084F80480C2F2680023E046F6730003
:10B2E000C0F22000C4F8030046F66610C7F26E30C4
:10B2F00020602046F6F777F83E212152204602F0E2
:10B3000015FCDAF8140054212230F6F755F823E63C
:10B3100046F67300C0F22000C4F8030046F666103B
:10B32000C7F26E3020602046F6F75DF83E212152CC
:10B330000AA021462A4602F0F9FBDAF8145005F17A
:10B340002200F6F750F8A5F87200A5F8740003E69D
:10B3500008200800082573202008000025732573A5
:10B3600000000000257300004BF21401C4F2060136
:10B370000A68120209D40A6812025CBF0A685FEA0E
:10B38000022202D40A681202F2D5886070470000D7
:10B3900080B502A002F0CAFB002080BD48656C6C3D
:10B3A0006F2052542D546872656164210A000000B8
:10B3B000FFF726BC80B582B04BF2B1314FF0060CDE
:10B3C0000CA0C0F2000100220523CDF800C003F05C
:10B3D0001BFD40F20871C2F200010028086018BF8E
:10B3E00003F076FD06A016A102B0BDE88040FCF790
:10B3F0006FBC00BF6B65795F74696D65720000009A
:10B400001B5B303B33346D5B25735D20476565689E
:10B41000792D4733324131343635206B65795F748D
:10B4200068726561645F74696D65725F696E697485
:10B430005B6F6B5D21200D0A1B5B306D0D0A0000F8
:10B440006170705F6B65790080B5FFF717FB40F6A0
:10B45000105103A0C0F20001FCF73AFC002080BDAF
:10B460001B5B303B33326D5B25735D20416C6C2080
:10B470004C454473204F4646210A1B5B306D0D0A34
:10B480000000000010B5022804DA4FF0FF3430A0AD
:10B4900055E000BF48680C4637A102F081FF98B123
:10B4A000606836A102F07CFFF0B1606834A102F060
:10B4B00077FF48B3606833A102F072FFA0B34FF08A
:10B4C000FF3431A03BE000BF00200024FCF7EEFB7E
:10B4D0000220FCF7D9FB0120FCF7D6FB40F6333005
:10B4E000C0F200002BE000BF0120FCF7DFFB0220D0
:10B4F000FCF7CAFB00200024FCF7C6FB40F67230C4
:10B50000C0F200001BE000BF0220FCF7CFFB0020D0
:10B510000024FCF7B9FB0120FCF7B6FB40F65230E3
:10B52000C0F200000BE000BF0220FCF7BFFB0020D0
:10B530000024FCF7BBFB0120FCF7B8FB20A040F681
:10B540001051C0F20001FCF7C3FB204610BD00BF44
:10B550001B5B303B33326D5B25735D205573616738
:10B56000653A206C65644F4E203C727C677C623E7D
:10B570000A1B5B306D0D0A007200000067000000BE
:10B5800062000000616C6C001B5B303B33326D5B12
:10B5900025735D20496E76616C6964206F707469F3
:10B5A0006F6E212055736167653A206C65644F4E5C
:10B5B000203C727C677C623E0A1B5B306D0D0A008A
:10B5C0001B5B303B33326D5B25735D20416C6C201F
:10B5D0004C454473204F4E210A1B5B306D0D0A0011
:10B5E00010B582B040F23464C2F20004206818B191
:10B5F0004FF0FF3002B010BD4BF26D614FF0020C06
:10B6000008A0C0F2000100224FF4FA73CDF800C088
:10B6100003F0FAFB00282060EAD003F059FC002078
:10B6200002B010BD6C65645F666C6F77000000004F
:10B63000B0B540F23465C2F20005286890B103F05D
:10B64000B1FC286803F0FAFB002400202C60FCF712
:10B650001BFB0120FCF718FB0220FCF715FB204622
:10B66000B0BD00BF4FF0FF30B0BD0000F0B581B0FD
:10B6700040F20C76C2F200063068022814D80CA101
:10B6800051F820400DA151F820500FA151F8207021
:10B69000FCF70CFB2046FCF7F7FA2846FCF7F4FA17
:10B6A000376001B0F0BD00BF0027376001B0F0BDCA
:10B6B0000100000000000000000000000200000087
:10B6C0000200000001000000010000000200000074
:10B6D000000000004FF2C00440F200090125C4F24E
:10B6E0000F04C2F200094FF0000801271DE000BF5F
:10B6F00025EA070220460021FEB2FEF7A3FB25EA59
:10B70000570220460F21FEF79DFB25EA97022046AF
:10B710001021FEF797FB082E4FF001064FF4FA7048
:10B7200038BF7E0003F03AF9374699F80000012847
:10B73000DED1D9F8040003F0CDF902F093FC89F8CA
:10B740000080D5E780B582B00A20009040F61A50FC
:10B750004BF2D5614FF0140CC0F20000C0F20001B2
:10B7600000224FF48073CDF804C002F0C1FF40F214
:10B770000001C2F20001486050B140F61A5106A023
:10B78000C0F20001FCF7A4FA002002B080BD00BFA7
:10B790004FF0FF3002B080BD1B5B303B33346D5B3C
:10B7A00025735D2047656568792D47333241313413
:10B7B0003635206C65645F7468726561645F696EBC
:10B7C00069745B6F6B5D21200D0A1B5B306D0D0A88
:10B7D000000000002DE9F04381B016A002F0A6F9A8
:10B7E00040F2DC0040F2E009C2F20000C2F20009BF
:10B7F0000768D9F80050AF4218D213A40FF24C08D2
:10B8000003E000BF0C37AF4210D23E6821463046FD
:10B810000222F5F7EFFD0028F4D07A684046314661
:10B8200002F084F9D9F80050ECE700BF002001B025
:10B83000BDE8F0832D2D46756E6374696F6E204CE4
:10B840006973743A0A0000005F5F0000252D3136ED
:10B8500073202D2D2025730A000000002DE9F04FE4
:10B860008DB0052002F09AFB00F1040881A08AA2A5
:10B87000082102F05BF940F6E174C0F200042046B2
:10B8800002F054F9204602F051F9204602F04EF938
:10B89000204602F04BF9204602F048F9204602F01B
:10B8A00045F9204602F042F9204602F03FF97CA01B
:10B8B00002F03CF940F6F77740F6E37400260DF10C
:10B8C000140BC0F20007C0F20004CDF80C8005E0B4
:10B8D000049EDDF80C80002E00F0C8803546002E56
:10B8E00008BF4546F5F784FC36B115F8041C01F095
:10B8F0007F01052940F0B8802968414500F0B480F7
:10B900000A68059142451DD01168069241451DD037
:10B910000A68079142451DD01168089241451DD023
:10B920000A68099142451DD011680A9241451DD00F
:10B930000A680B9142451DD04FF008081146049249
:10B940000C921BE04FF0010816E000BF4FF0020818
:10B9500012E000BF4FF003080EE000BF4FF00408F4
:10B960000AE000BF4FF0050806E000BF4FF00608F0
:10B9700002E000BF4FF007080021049155A5F5F73C
:10B980003BFC4FF0000909E040F67160C0F2000096
:10B9900002F0CCF809F10109C14599D05BF829A062
:10B9A000F5F726FC1AF8041C01F07F06F5F724FCD5
:10B9B000052EEFD1AAF10C035AF8082F0026BAF889
:10B9C0000E10BAF80C00524510D05246126852457B
:10B9D00021D0126852451BD0126852451AD0126805
:10B9E00004365245F2D1013E15E000BF524600BF79
:10B9F000126852452FD01268524529D0126852451C
:10BA000028D0126804365245F2D1013E23E000BF2F
:10BA1000013600E00236CDE9001028A008210822F6
:10BA2000029602F083F8DAF800605645ACD000BF09
:10BA3000A6F11401384602F079F830685045A3D0D9
:10BA4000204602F073F836685645F1D19CE700BFF6
:10BA5000013600E00236CDE9001028460821082210
:10BA6000029602F063F895E7F5F7C6FB00200DB0EB
:10BA7000BDE8F08F252D2A2E7320656E7472792013
:10BA800073697A652073757370656E64207468726B
:10BA90006561640A000000006D61696C626F780086
:10BAA000202D2D2D2D20202D2D2D2D202D2D2D2DFA
:10BAB0002D2D2D2D2D2D2D2D2D2D0A00252D2A2E10
:10BAC0002A732025303464202025303464202564F6
:10BAD0003A000000252D2A2E2A73202530346420B8
:10BAE00020253034642025640A00000010B540F29F
:10BAF0008404C2F20004216806A002F017F821694C
:10BB000009A002F013F861690CA0BDE8104002F032
:10BB10000DB800BF746F74616C206D656D6F7279C4
:10BB20003A2025640A00000075736564206D656D18
:10BB30006F7279203A2025640A0000006D617869EF
:10BB40006D756D20616C6C6F6361746564206D65EB
:10BB50006D6F72793A2025640A0000002DE9F04FDC
:10BB60008DB0022002F01AFA00F104087FA086A22C
:10BB7000082101F0DBFF40F6E174C0F2000420462A
:10BB800001F0D4FF204601F0D1FF204601F0CEFFA6
:10BB9000204601F0CBFF204601F0C8FF204601F00F
:10BBA000C5FF204601F0C2FF204601F0BFFF79A08B
:10BBB00001F0BCFF40F6F77740F6E37400260DF184
:10BBC000140BC0F20007C0F20004CDF80C8005E0B1
:10BBD000049EDDF80C80002E00F0C4803546002E57
:10BBE00008BF4546F5F704FB36B115F8041C01F013
:10BBF0007F01022940F0B4802968414500F0B080FF
:10BC00000A68059142451DD01168069241451DD034
:10BC10000A68079142451DD01168089241451DD020
:10BC20000A68099142451DD011680A9241451DD00C
:10BC30000A680B9142451DD04FF008081146049246
:10BC40000C921BE04FF0010816E000BF4FF0020815
:10BC500012E000BF4FF003080EE000BF4FF00408F1
:10BC60000AE000BF4FF0050806E000BF4FF00608ED
:10BC700002E000BF4FF00708002104914FA5F5F73F
:10BC8000BBFA4FF0000909E040F67160C0F2000015
:10BC900001F04CFF09F10109C14599D05BF829A0D9
:10BCA000F5F7A6FA1AF8041C01F07F06F5F7A4FAD6
:10BCB000022EEFD1AAF10C035AF8081F0026BAF899
:10BCC0000800514510D051460968514521D00968F6
:10BCD00051451BD0096851451AD0096804365145B1
:10BCE000F2D1013E15E000BF514600BF0968514541
:10BCF0002DD00968514527D00968514526D00968DB
:10BD000004365145F2D1013E21E000BF013600E08A
:10BD10000236009025A008210822019601F006FFB6
:10BD2000DAF800605645AFD0A6F11401384601F0AC
:10BD3000FDFE30685045A7D0204601F0F7FE36687A
:10BD40005645F1D1A0E700BF013600E00236009071
:10BD5000284608210822019601F0E8FE9AE700BF74
:10BD6000F5F74AFA00200DB0BDE8F08F252D2A2EF8
:10BD700073207620202073757370656E642074685C
:10BD8000726561640A00000073656D6170686F72AE
:10BD900065000000202D2D2D202D2D2D2D2D2D2D3C
:10BDA0002D2D2D2D2D2D2D0A00000000252D2A2EA4
:10BDB0002A7320253033642025643A00252D2A2E4D
:10BDC0002A7320253033642025640A002DE9F04FC2
:10BDD0008DB0012002F0E2F8051D40F66C70C0F253
:10BDE000000071A2082101F0A1FE40F6E174C0F24A
:10BDF0000004204601F09AFE204601F097FE2046FE
:10BE000001F094FE204601F091FE204601F08EFEE6
:10BE1000204601F08BFE204601F088FE204601F00E
:10BE200085FE63A001F082FE00240DF1140A039543
:10BE300005E000BF049C039D002C00F0B180264665
:10BE4000002C08BF2E46F5F7D3F934B116F8041CC0
:10BE500001F07F01012940F0A1803168A94200F082
:10BE60009D800A680591AA421ED011680692A942D7
:10BE70001ED00A680791AA421ED011680892A942F2
:10BE80001ED00A680991AA421ED011680A92A942DE
:10BE90001ED00A680B91AA421ED04FF00808114626
:10BEA00004920C921CE000BF4FF0010816E000BFA6
:10BEB0004FF0020812E000BF4FF003080EE000BF91
:10BEC0004FF004080AE000BF4FF0050806E000BF8D
:10BED0004FF0060802E000BF4FF007080021049170
:10BEE000F5F78AF94FF0000906E000BFF5F784F98D
:10BEF00009F10109C1459DD05AF829B0F5F778F943
:10BF00001BF8041C01F07F010129EFD1ABF10C06F5
:10BF1000F5F772F99BF8294035A00821082233462D
:10BF2000009401F003FE9BF8280000F00F000428A5
:10BF300004D832A151F8200001F0F8FDDBF81C0014
:10BF4000014600BF0A78232A0FD14A78232A09D153
:10BF50008A78232A08D1CA780431232AF2D00139F9
:10BF600003E000BF013100E00231DBE90824DBF827
:10BF700010601718401A104464214843DBF834500D
:10BF8000B0FBF2F3B91B22A00095019401F0CEFDA5
:10BF900009F10109C145AFD14CE700BFF5F72CF914
:10BFA00000200DB0BDE8F08F746872656164000018
:10BFB000202D2D2D20202D2D2D2D2D2D2D202D2DE5
:10BFC0002D2D2D2D2D2D2D2D202D2D2D2D2D2D2DAE
:10BFD0002D2D2D20202D2D2D2D2D2D20202D2D2DC5
:10BFE0002D2D2D2D2D2D2D202D2D2D0A0000000065
:10BFF000252D2A2E2A73202533642000B00F00003F
:10C00000C20F0000E50F0000EE0F0000B90F0000A6
:10C010002030782530387820307825303878202046
:10C020002020253032642525202020307825303806
:10C030007820253033640A002DE9F04F8FB00A20B4
:10C0400001F0ACFF00F1040A0FF2A8400FF2CC425D
:10C05000082101F06BFD40F6E174C0F200042046B7
:10C0600001F064FD204601F061FD204601F05EFD17
:10C07000204601F05BFD204601F058FD204601F00E
:10C0800055FD204601F052FD204601F04FFD0FF214
:10C09000944001F04BFD4FF0000923E0A4F10C07A0
:10C0A000F5F7AAF8D4E906050821009040F6CB7010
:10C0B000C0F2000008223B46019501F037FD14F85C
:10C0C000030CC00707BF40F65F70C0F2000040F6E7
:10C0D0006170C0F2000001F029FD00BFB9F1000F4E
:10C0E00000F0FE814C46B9F1000F08BF5446F5F749
:10C0F0007FF8B9F1000F06D014F8041C01F07F019D
:10C100000A2940F0EB812168514500F0E781D1F820
:10C1100000B00791D34523D0DBF80010CDF820B054
:10C12000514521D00A680991524500F0F780116805
:10C130000A92514500F0F8800A680B91524500F0D0
:10C140002D8111680C92514500F06681D1F8009064
:10C150000D91D14500F06C81CDF8389002E000BF20
:10C160004FF00009002102E04FF0000901210026F4
:10C1700006910025002105910021049100210391E1
:10C18000F5F73AF8DDF81C80F5F732F818F8041CDA
:10C1900001F07F010A2921D1A8F10C07F5F72CF84D
:10C1A000D8E906040821009040F6CB70C0F20000E8
:10C1B00008223B46019401F0B9FC18F8030CC007B3
:10C1C00007BF40F65F70C0F2000040F66170C0F239
:10C1D000000001F0ABFCD34505D17FE7F5F70CF883
:10C1E000D3453FF47BAF089CF5F702F814F8041C24
:10C1F00001F07F010A2927D1B0462E46A4F10C0791
:10C20000F4F7FAFFD4E906050821009040F6CB7058
:10C21000C0F2000008223B46019501F087FC14F8AB
:10C22000030CC00707BF40F65F70C0F2000040F685
:10C230006170C0F2000001F079FC35464646069870
:10C2400000287FF44BAF05E0F4F7D6FF06980028EE
:10C250007FF444AF099CF4F7CBFF14F8041C01F001
:10C260007F010A2926D1B0462E46A4F10C07F4F727
:10C27000C3FFD4E906050821009040F6CB70C0F258
:10C28000000008223B46019501F050FC14F8030C15
:10C29000C00707BF40F65F70C0F2000040F6617053
:10C2A000C0F2000001F042FC35464646002E7FF405
:10C2B00015AF04E0F4F7A0FF002E7FF40FAF0A9C47
:10C2C000F4F796FF14F8041C01F07F010A2933D11A
:10C2D0002E46A4F10C07F4F78FFFD4E906050821D8
:10C2E000009040F6CB70C0F2000008223B4601955A
:10C2F00001F01CFC14F8030CC00707BF40F65F7088
:10C30000C0F2000040F66170C0F2000001F00EFCC7
:10C310003546002D7FF4E2AE13E000BF0021012678
:10C320004FF0000924E700BF002101254FF000096C
:10C33000069100261EE700BFF4F75EFF002D7FF494
:10C34000CDAE0B9CF4F754FF14F8041C01F07F01F0
:10C350000A292DD1A4F10C07F4F74EFFD4E9060504
:10C360000821009040F6CB70C0F2000008223B4646
:10C37000019501F0DBFB14F8030CC00707BF40F682
:10C380005F70C0F2000040F66170C0F2000001F082
:10C39000CDFB059800287FF4A1AE0FE001210591A7
:10C3A00000214FF00009069100260025E4E600BFB9
:10C3B000F4F722FF059800287FF490AE0C9CF4F768
:10C3C00017FF14F8041C01F07F010A293ED1A4F1E3
:10C3D0000C07F4F711FFD4E906050821009040F698
:10C3E000CB70C0F2000008223B46019501F09EFB95
:10C3F00014F8030CC00707BF40F65F70C0F20000DE
:10C4000040F66170C0F2000001F090FB0498002833
:10C410007FF464AE20E000BF012104910021069169
:10C4200000214FF00009002600250591A6E600BF77
:10C4300001210391002106910021059100214FF077
:10C4400000090026002504919AE600BFF4F7D4FE07
:10C45000049800287FF442AE0D9CF4F7C9FE14F84E
:10C46000041C01F07F010A2924D1A4F10C07F4F780
:10C47000C3FED4E906050821009040F6CB70C0F257
:10C48000000008223B46019501F050FB14F8030C14
:10C49000C00707BF40F65F70C0F2000040F6617051
:10C4A000C0F2000001F042FB039800287FF416AEB2
:10C4B00006E000BFF4F7A0FE039800287FF40EAE5C
:10C4C0000E9CF4F795FE14F8041C01F07F010A2974
:10C4D0003FF4E4ADF4F790FE00E600BFF4F78CFE05
:10C4E00002F07AFB014618A001F020FB00200FB0FB
:10C4F000BDE8F08F252D2A2E732020706572696F9C
:10C5000064696320202074696D656F757420202034
:10C5100020202020666C61670A00000074696D6548
:10C5200072000000202D2D2D2D2D2D2D2D2D2D2097
:10C530002D2D2D2D2D2D2D2D2D2D202D2D2D2D2D38
:10C540002D2D2D2D2D2D0A0063757272656E7420B0
:10C550007469636B3A3078253038780A000000003F
:10C5600010B540F63E20C0F2000003F039F940F665
:10C570002E3440F6ED20C0F20004C0F20000214647
:10C58000FBF7A6FB40F6B120C0F200002146FBF706
:10C590009FFB40F66920C0F200002146FBF798FBA4
:10C5A000FDF788FB08A02146FBF792FBFDF73CFB5B
:10C5B00013A02146FBF78CFB00F068FBFFF7C2F8E5
:10C5C000FEF7F8FE002010BD1B5B303B33346D5B83
:10C5D00025735D2047656568792D473332413134D5
:10C5E000363520626F6172645F6C65645F696E6985
:10C5F000745B6F6B5D21200D0A1B5B306D0D0A00B3
:10C600001B5B303B33346D5B25735D20476565688C
:10C61000792D473332413134363520626F6172648F
:10C620005F627574746F6E5F696E69745B6F6B5D6A
:10C6300021200D0A1B5B306D0D0A0000B0B541F2E0
:10C64000180441F21000C0F20004C0F20000A04241
:10C6500009D241F21005C0F2000500BF55F8040BE5
:10C660008047A542FAD3BDE8B040FFF779BF00008C
:10C670002DE9F04F81B083460078A8B140F2DC008C
:10C68000C2F20000056840F2E000C2F20000D0F8FB
:10C690000080454580F0A88040F653794FF0000AAD
:10C6A000C0F2000900264CE040F62C70C0F20000F9
:10C6B00001F03CFA40F2DC0040F2E009C2F2000076
:10C6C000C2F200090768D9F80050AF421CD240F608
:10C6D000537440F64778C0F20004C0F2000802E04C
:10C6E0000C37AF4210D23E68214630460622F4F79E
:10C6F00081FE0028F4D17A68B11D404601F016FA97
:10C70000D9F80050ECE700BF40F67160C0F20000BD
:10C7100001B0BDE8F04F01F009BA00BF481C801B12
:10C720005045B8BF824632A0394601F0FFF940F2C9
:10C73000E000C2F20000D0F8008000BF0C35454593
:10C7400048D22F68494638460622F4F753FE00289F
:10C75000F4D158460637F4F746FE024658463946A5
:10C76000F4F748FE0028E9D1BAF1000F04D031787F
:10C77000304651B9D3E700BF3846F4F734FE82465D
:10C780003E46317830460029C9D000203A5CDAB103
:10C79000914219D131184B78002BBFD03A185478F8
:10C7A000002CBBD0A342B9D18B787BB194786CB10B
:10C7B000A3420BD1CB785BB1D2784AB1934207D177
:10C7C000097904300029E1D13044A8E7881CA6E7A4
:10C7D000C81CA4E746B158463146524601B0BDE8F0
:10C7E000F04F01F02BBE00BF01B0BDE8F08F00BFDD
:10C7F00025730A002DE9F04F8BB049B3CF1E8E1E72
:10C800004D1E002303E000BF0433994220D0C25CD8
:10C81000202A01D0092A1FD19D4219D0C41862785C
:10C82000202A01D0092A1DD19E4211D0A278202AA7
:10C8300001D0092A1CD19F420AD0E278202AE3D0F5
:10C84000092AE1D0C81AA0F1030804F1030A14E090
:10C8500000200BB0BDE8F08FA1EB030800EB030A4A
:10C860000BE000BFD84300EB010804F1010A04E02B
:10C87000C81AA0F1020804F1020AC8F10000A8F1E8
:10C8800001010025D2B2092A2DD0202A2BD0A8459B
:10C8900020D00AEB05025378092B1FD0202B1DD086
:10C8A000A94217D09378092B1CD0202B1AD04319FA
:10C8B0009F1C0FD0D778092F00F03681202F00F071
:10C8C0003381033306D012790435D2B2092ADCD180
:10C8D00009E000BF45464DB92AE100BF01352DB939
:10C8E00026E100BF0235002D00F0228140F2DC007D
:10C8F000C2F20000046840F2E000C2F200000668E4
:10C90000B44280F0158140F6537905F1060BC0F270
:10C91000000903E00C34B44280F00A8127684946DC
:10C9200038460622F4F766FD0028F3D1B81D5146BB
:10C930002A46F4F75FFD0028ECD117F80B00002819
:10C94000E8D1A0680028009000F0F2804FF0000CC1
:10C950004FF0000900265246CDE909CCCDE907CCBD
:10C96000CDE905CCCDE903CC4146CDF8089046454C
:10C9700088BF3146751A05F10109002096460196D7
:10C98000175C202F01D0092F42D115EB000B2BD0C3
:10C990001418677802F800C0202F01D0092F39D170
:10C9A00019EB000C24D0A7784FF0000C202F84F84E
:10C9B00001C001D0092F31D11BF1020320D0E7784B
:10C9C00084F802C0202F01D0092F2BD11BF10303C3
:10C9D0001AD084F803C00EF1040E04360430175C3C
:10C9E000202FD0D1D1E700BF02EB000E1FE000BF27
:10C9F000DDF8089004F1010E4FF0000C19E000BFC3
:10CA000004F1020E13E000BF0EF1030E0FE000BFB1
:10CA100031460CE00EF1010E711C08E00EF1020E21
:10CA2000B11C04E0019904F1030E0844C11CDDF8B7
:10CA30000890B9F1080F80F0AD80414580F0BE80CC
:10CA4000222F21D10EF1010203A840F829209EF8DF
:10CA50000170481C04E000BF12F8017F014601305C
:10CA600040454FF0000338BF0123222F42D04045FC
:10CA700040D25C2FF0D1134613F8017F222F04BF60
:10CA80001A46881CE8E700BF03A840F829E04046A2
:10CA9000414588BF08460A1A09F10109571C0020C0
:10CAA0001EF80060092E21D0202E1FD0161800F08D
:10CAB00088800EEB00056C78092C23D0202C21D027
:10CAC0003B1800F07E80AC78092C1FD0202C1DD0A4
:10CAD000B31C76D0EC78092C1CD0202C1AD0F31C77
:10CAE0006FD004301EF80060092EDDD10EEB00027D
:10CAF0000E1812E0002B09F1010962D002F801CBF7
:10CB00008E1C0CE008446A1C461C06E00844AA1C63
:10CB1000861C02E00844EA1CC61C464551D2464524
:10CB2000FFF422AF4DE000BF0335002D7FF4DEAEF1
:10CB300000201AF8001041F02001202917D00AEB3C
:10CB400000014A7842F02002202A13D08A7842F06D
:10CB50002002202A10D0CA7842F02002202A0DD0CC
:10CB600004301AF8001041F020012029E7D1504488
:10CB700005E000BF481C02E0881C00E0C81C002142
:10CB800001701CA0514600F0D1FF4FF0FF300BB0F8
:10CB9000BDE8F08F0EA000F0C9FF03A8041F14A683
:10CBA0004D4654F8041F304600F0C0FF013DF8D157
:10CBB00040F67160C0F2000000F0B8FFB9F1000F5C
:10CBC000B6D0009A03A9484690470BB0BDE8F08F55
:10CBD000546F6F206D616E79206172677320212020
:10CBE0005765206F6E6C79205573653A0A00000016
:10CBF0002573200025733A20636F6D6D616E64208C
:10CC00006E6F7420666F756E642E0A002DE9F04316
:10CC100081B040F62C70C0F2000000F087FF40F2B7
:10CC2000DC0040F2E009C2F20000C2F2000907682D
:10CC3000D9F80050AF421DD240F6537440F6477801
:10CC4000C0F20004C0F2000803E000BF0C37AF429E
:10CC500010D23E68214630460622F4F7CBFB00286E
:10CC6000F4D17A68B11D404600F060FFD9F8005059
:10CC7000ECE700BF40F67160C0F2000000F056FF24
:10CC8000002001B0BDE8F0830120704770B540F28C
:10CC900008044DF2D926C2F20004C0F20006204674
:10CCA000314600220123FDF76BFF04F12C052846D5
:10CCB000314600220223FDF763FF41F60D32C0F238
:10CCC000000220460021FDF757FF41F6E132C0F295
:10CCD000000220460121FDF74FFF41F69D32C0F2D0
:10CCE000000220460221FDF747FF41F62142C0F233
:10CCF000000220460321FDF73FFF41F69912C0F2E2
:10CD0000000220460421FDF737FF41F6C522C0F29C
:10CD1000000220460521FDF72FFF41F63122C0F227
:10CD2000000220460621FDF727FF41F64152C0F2DE
:10CD3000000228460021FDF71FFF41F6DD52C0F238
:10CD4000000228460121FDF717FF41F69952C0F273
:10CD5000000228460221FDF70FFF41F61D62C0F2D6
:10CD6000000228460321FDF707FF41F66D42C0F29D
:10CD7000000228460421FDF7FFFE41F6F942C0F209
:10CD8000000228460521FDF7F7FE41F6B542C0F244
:10CD9000000228460621FDF7EFFE2046FDF70CFFB6
:10CDA0002846BDE87040FDF707BF000083B080B59E
:10CDB00081B0844603A80EC003A800906A460020F4
:10CDC0006146FDF7F1F901B0BDE8804003B070475E
:10CDD0002DE9F04F8AB0059115990FF2D4464F0610
:10CDE0000FF2E04858BFB046CE06DDE9134948BF10
:10CDF00021F00101CE074FF0300A08BF4FF0200AA2
:10CE00008E070DD400270197002701250097002ADF
:10CE100000F09A80CDE90251CDF810A013E000BFD8
:10CE2000B2F1FF3F06DD4E0700F186800E07E9D51F
:10CE3000202782E001270197002702972D27CDE9BF
:10CE4000031A524200974CF6CD494FF0000BCCF636
:10CE5000CC490DF1180A00BFA2FB09561409F508C8
:10CE600002F00F0705EB850C25460A2B04BFF508D9
:10CE7000A2EB4C0718F80770002D0AF80B7049D088
:10CE8000A5FB097C04F00F07140ACE464FEADC0626
:10CE9000A14606EB86060A2B04BF4FEADC09A5EB88
:10CEA000460718F807500AEB0B0CB9F1000F59466A
:10CEB0008CF8015032D0A9FB0E5604F00F05140B6C
:10CEC0005146F708A24607EB87070A2B04BF4FEA33
:10CED000D60AA9EB470518F80550BAF1000F8CF8EF
:10CEE00002501FD0AAFB0E5604F00F04120CF508D6
:10CEF00005EB85050A2B04BFF208AAEB450418F8D8
:10CF00000440F1460BF1040B002A8A468CF80340DA
:10CF1000A2D109E00BF1010B06E000BF0BF1020BFF
:10CF200002E000BF0BF1030BDDF810A0DDE90251B8
:10CF3000DDE913490DE000BF2B27009700250127ED
:10CF40000197002A7FF466AF30228DF818204FF049
:10CF5000010BDDF814E0CB454B46C8BF5B4611F032
:10CF6000110FA4EB03025FD006462DB976453CBFF6
:10CF700000983070013A0136C80631D4551EC0F20F
:10CF80008D8012F0030700F09580764538BF86F853
:10CF900000A0012F06F1010040F09680023A0646FB
:10CFA000032DC0F08B80101D764506F1010238BFBD
:10CFB00086F800A0724538BF82F800A0B21C724506
:10CFC00038BF82F800A0F21C7245A0F1040038BFFF
:10CFD00082F800A0032806F10406E5DC4FF0FF32DA
:10CFE0003046CB455EDAA3EB0B076FEA0B0617F072
:10CFF000030703EB060C57D070453CBF3024047088
:10D000005D1E012F00F1010409D07445A3F1020552
:10D010003CBF30262670022F00F102046CD120465E
:10D02000BCF1030F73D28BE00027002AC8BF012791
:10D03000019E3740D71B7A1E96DB17F0030C51D0A8
:10D0400070453CBF20240470BCF1010F00F10106C3
:10D0500040F00481023F3046032A46D33A1D202681
:10D06000704500F1010738BF0670774538BF3E7044
:10D07000871C774538BF3E70C71C7745A2F1040274
:10D0800038BF3E70032A00F10400E9DC4FF0FF32A4
:10D090000646002D3FF46AAF6EE700BF30462A46D1
:10D0A000CB45A0DB04464BE01D46BCF1030F2ED25E
:10D0B00046E000BF2A46032DBFF475AF4FF0FF32A4
:10D0C000CB45FFF690AFEDE7704538BF80F800A084
:10D0D000022F06F1020040F0D180033A0646032DEC
:10D0E000ECD360E71746032AB8D24FF0FF32002D89
:10D0F0003FF43CAF40E700BF03307445A3F10305A4
:10D100003CBF302323700446BCF1030F18D33023F7
:10D11000044600BF744504F1010038BF2370704518
:10D1200038BF0370A01C704538BF0370E01C704509
:10D13000A5F1040538BF0370AB4504F10404E9DB35
:10D14000B9F1000F35D006A8023807E0ABF1040BA7
:10D150000BF10403042B04F104042AD9744503D20F
:10D1600000EB0B035B782370BBF1020F04F10103AA
:10D170001EDB73453CBF10F80B701F70BBF1030F33
:10D1800004F1020314D3734504D200EB0B0717F824
:10D19000017C1F70BBF1040F04F1030308D3734536
:10D1A000D4D200EB0B0717F8027C1F70CEE700BF4C
:10D1B0001C46012A12DB12F00307A2F1010311D071
:10D1C00074453CBF20202070012F04F101000DD1D7
:10D1D0001A460446032B3ED322E000BF20460AB085
:10D1E000BDE8F08F032B36D31AE000BF7045A2F1E3
:10D1F00002063CBF20250570022F04F1020005D174
:10D2000032460446032B26D30AE000BF03347045A0
:10D21000A2F103023CBF202707702046032B1AD33C
:10D22000013A2023204600BF704500F1010738BFB6
:10D230000370774538BF3B70871C774538BF3B701C
:10D24000C71C7745A2F1040238BF3B7012F1020FF0
:10D2500000F10400E8D30AB0BDE8F08F76453CBF8A
:10D2600020243470BCF1020F00F1020612D1033FFA
:10D270003046032AFFF439AFF0E600BF03367045AD
:10D2800038BF80F800A0043A3046032DBFF48BAEBF
:10D2900014E700BF764503D22C462025357025467D
:10D2A0000330043F0646032ABFF4D8AE1DE700BF93
:10D2B000303132333435363738396162636465660C
:10D2C00000000000303132333435363738394142CE
:10D2D000434445460000000010B5012804D0022850
:10D2E0000ED10D2401E000BF0C244FF28000C4F2E7
:10D2F0000F00FCF729FDE04000F0010010BD00BF69
:10D30000002010BDB0B501FB00F4204600F028FC61
:10D31000054620B128460021224600F05DFD284642
:10D32000B0BD0000B0B541F2100441F20800C0F2F7
:10D330000004C0F20000A04228BFB0BD41F20805C1
:10D34000C0F2000555F8040B8047A542FAD3B0BDE2
:10D3500080B5F3F74DFF40F2BC01C2F200014A88EC
:10D3600001324A80BDE88040F3F746BFB0B5F3F71D
:10D370003FFF40F2BC05C2F2000569880446481E22
:10D3800001B20029688005DD2046BDE8B040F3F712
:10D3900033BF00BF002068802046F3F72DFF686888
:10D3A000002808BFB0BDF3F723FF698804460029B1
:10D3B000EAD1A868FDF746FB421E42F6A070C2F211
:10D3C000000050F832106868A1F114038342DBD0EA
:10D3D0002A7042F618726B60C2F2000212781C309A
:10D3E00001F1080132B1F3F70AFF2046BDE8B04071
:10D3F000F3F702BFF3F703FF2046BDE8B040F3F7B1
:10D40000FBBE00002DE9F041002857D040F2840710
:10D41000C2F2000704467868A0424FD8B868A0421C
:10D4200098BFBDE8F08107F1180840464FF0FF3182
:10D43000A4F10C0600F0E0FE34F80A0C18B13088B4
:10D44000B0F5F55F0AD025A000F070FB34F80A2C87
:10D4500034F80C3C28A0314600F068FB4FF4F5503E
:10D4600044F80C0CD7F80CC066453CBFFE60B446CF
:10D4700054F8082C78683D691318F11A2944396169
:10D480000FD0598869B9B9688B420AD09C4504BF4E
:10D49000FE60B4465A6844F8082C5968331A0144AF
:10D4A0008B6054F8043CC518B54201D0698839B185
:10D4B0004046BDE8F04100F075BE00BFBDE8F08118
:10D4C000B44508BFFD606A6054F8081C08448360D6
:10D4D0004046BDE8F04100F065BE00BF746F2066B5
:10D4E00072656520612062616420646174612062FC
:10D4F0006C6F636B3A0A00006D656D3A20307825D9
:10D500003038782C207573656420666C61673A202A
:10D5100025642C206D6167696320636F64653A2020
:10D520003078253034780A0040F21470C2F20000DE
:10D530007047000040F21470C2F2000000F5205065
:10D540007047000010B540F24040C1F6FF70F6F79A
:10D5500083FE40F23C40C1F6FF70006844F6D351B0
:10D56000C1F26201A0FB01014FF0FF3000EB91110D
:10D570000020B0EB116F0DD14EF21002CEF200027E
:10D5800051604EF62351CEF20001FF230B709060E4
:10D5900007201060FFF7C6FEFFF7C6FF0446FFF73F
:10D5A000C9FF01462046BDE8104000F08BBF0000D7
:10D5B00070B582B013254BF20004C0F20205C4F22C
:10D5C00006044FF0FF30AE1C019020463146FBF7B9
:10D5D0003BFE58B101A92046FBF764FE20463146C8
:10D5E000FBF76CFD0198C0B202B070BD2046294621
:10D5F000FBF72AFE18B120462946FBF75FFD0A20FB
:10D6000001F0CCF9FF20C0B202B070BD70B54BF292
:10D61000000517260446C4F20605C0F20206FFF70D
:10D6200097FE20780A2801D050B919E028463146E3
:10D63000FBF70AFE0028F9D028460D21FBF760FE13
:10D6400028463146FBF700FE0028F9D014F8011BEC
:10D650002846FBF755FE20780A28E5D1E6E700BF0B
:10D66000BDE87040FFF782BE10B540F21071C2F203
:10D6700000010968044629B104F128008847002800
:10D6800008BF10BD616C40F66660C0F2000000F09B
:10D690004DFAA16A40F62560C0F2000000F046FA9B
:10D6A000E16A40F63260C0F2000000F03FFA216B00
:10D6B00040F63F60C0F2000000F038FA616B40F6BF
:10D6C0004C60C0F2000000F031FAA16840F65960E9
:10D6D000C0F2000000F02AFAE168CBA000F026FAC0
:10D6E0002169CDA000F022FA6169CFA000F01EFAF6
:10D6F000A169D1A000F01AFAE169D3A000F016FAEE
:10D70000216AD5A000F012FA616AD7A000F00EFAE3
:10D71000A16BD9A000F00AFAE16BDBA000F006FAD9
:10D72000216CDDA000F002FA207840070AD440F610
:10D730007150C0F2000000F0F9F92078C0060FD552
:10D7400014E000BF01F056F9014640F68B50C0F2DC
:10D75000000000F0EBF9FEF739FB2078C00605D495
:10D7600040F6A850C0F2000000F0E0F94EF629544F
:10D77000CEF20004D4F80300800705D540F603601C
:10D78000C0F2000000F0D2F9D4F80300400040F1EC
:10D79000F980207830B340F6D750C0F2000000F096
:10D7A000C5F9217840F6EA60C0F2000000F0BEF949
:10D7B0002078C00746D1207880074CD420784007D5
:10D7C00052D42078000758D42078C0065ED494F94B
:10D7D0000000B0F1FF3F61DD40F67160C0F2000073
:10D7E00000F0A4F914F8010C002800F0968040F62F
:10D7F000B650C0F2000000F099F914F8011C40F690
:10D800000070C0F2000000F091F914F8010CC0079C
:10D8100052D114F8010C800758D414F8010C0007F9
:10D820005ED414F8010CC00664D414F9010CB0F1F4
:10D83000FF3F6ADD40F67160C0F2000000F076F94B
:10D840006BE000BF40F6D560C0F2000000F06EF95A
:10D8500020788007B2D540F6CA60C0F2000000F020
:10D8600065F920784007ACD540F6C860C0F20000EA
:10D8700000F05CF920780007A6D540F6BE60C0F243
:10D88000000000F053F92078C006A0D586A000F073
:10D890004DF994F90000B0F1FF3F9DDCD4F80F1072
:10D8A00040F6E350C0F2000000F040F914F8010C1B
:10D8B00000289CD131E000BF40F69960C0F2000022
:10D8C00000F034F914F8010C8007A6D540F68F60FB
:10D8D000C0F2000000F02AF914F8010C0007A0D5EE
:10D8E00040F6BD60C0F2000000F020F914F8010C11
:10D8F000C0069AD540F6B460C0F2000000F016F9F8
:10D9000014F9010CB0F1FF3F94DCD4F80B1040F691
:10D91000F350C0F2000000F009F9B4F8010088B338
:10D9200040F6C950C0F2000000F000F9B4F8011050
:10D9300040F61670C0F2000000F0F8F8B4F80100EC
:10D94000C0072DD1B4F80100800733D4B4F801002A
:10D95000400739D4B4F8010000073FD4B4F80100FF
:10D96000C00545D4B4F80100800505D540F6A36094
:10D97000C0F2000000F0DAF840F67160C0F200007A
:10D9800000F0D4F8D4F80300B0F1FF3F06DC40F615
:10D990001860C0F2000000F0C9F800BFFEE700BF49
:10D9A00040F6DE60C0F2000000F0C0F8B4F80100FC
:10D9B0008007CBD540F68560C0F2000000F0B6F8D5
:10D9C000B4F801004007C5D540F67360C0F200000E
:10D9D00000F0ACF8B4F801000007BFD540F6AE6027
:10D9E000C0F2000000F0A2F8B4F80100C005B9D5FB
:10D9F00040F67A60C0F2000000F098F8B4F8010038
:10DA00008005B3D4B8E700BF7230353A20307825AE
:10DA10003038780A000000007230363A203078251D
:10DA20003038780A000000007230373A203078250C
:10DA30003038780A000000007230383A20307825FB
:10DA40003038780A000000007230393A20307825EA
:10DA50003038780A000000007231303A20307825E2
:10DA60003038780A000000007231313A20307825D1
:10DA70003038780A000000007231323A20307825C0
:10DA80003038780A00000000206C723A2030782587
:10DA90003038780A000000002070633A2030782582
:10DAA0003038780A0000000053544B455252200091
:10DAB00080B5043222F007024FF0000C4BF6EF6EF7
:10DAC00042F844CDCDF6AD6EC2E901EEC2E903EEF7
:10DAD000C2E905EEC2E907EE4FF0807ED063104642
:10DAE000C2E9091CC2E90BCCC2E90DC3C2F840E08F
:10DAF00080BD000080B5F3F77BFB42F61871C2F2DF
:10DB000000010A7801320A70BDE88040F3F774BB67
:10DB100080B5F3F76DFB42F61871C2F200010A7886
:10DB2000013A0A70BDE88040F3F766BB83B010B5D8
:10DB300081B042F62074844603A8C2F200040EC0ED
:10DB400003AB20467F216246009301F047FA20464E
:10DB5000FFF75CFD01B0BDE8104003B07047000066
:10DB60002DE9F04381B000286BD040F28409C2F265
:10DB700000090330D9F8001020F003078F4260D865
:10DB800009F1180840464FF0FF310C2F98BF0C27C1
:10DB900000F032FBD9F80CE0D9E900C1AEEB01038B
:10DBA000ACEB0704A34249D2CE187288706822B940
:10DBB00003F10C02851ABD4248D2A0423ED20E1893
:10DBC0007288736822B900F10C029D1ABD4216D208
:10DBD000A34233D2CE187288706822B903F10C02C6
:10DBE000851ABD4232D2A04228D20E1872887368BC
:10DBF000002AD7D100F10C029D1ABD42D2D30446AF
:10DC0000184607F118039D4225D33A4407F10C0347
:10DC10008D184FF4F5578F50C5E90104726068689C
:10DC200001240CF10C07B84274801CBF08448260C8
:10DC3000D9E904021844824214E000BF404600F0D3
:10DC4000B1FA002001B0BDE8F08300BF1C4607F127
:10DC500018039D42D9D201227280D9E90423001B06
:10DC600010448342C9F8100038BFC9F814004FF4BB
:10DC7000F5507645308030D1BEF8020068B3D9F84F
:10DC80000820964529D0DEF8040001EB000EBEF80E
:10DC90000200002818BF96451DD0DEF8040001EBF5
:10DCA000000EBEF80200002818BF964513D0DEF81B
:10DCB000040001EB000EBEF80200002818BF9645D4
:10DCC00009D0DEF8040001EB000EBEF802000028C7
:10DCD00018BF9645D7D1C9F80CE0404600F062FA6B
:10DCE00006F10C0001B0BDE8F0830000B0B5814240
:10DCF00014D28B18834211D9002A47D000EB020EB0
:10DD000012F00301A2F1010C4FD013F8014D0129CB
:10DD10000EF8014D3CD1624647E000BFB2B312F0AD
:10DD20000304A2F1010C09D08E461EF8015B0346E4
:10DD3000012C03F8015B05D1624613E08E460346D1
:10DD400010E000BF4B78022C437005D1023A01F17C
:10DD5000020E831C06E000BF01F1030E8978033A2E
:10DD6000C31C8170BCF1030F38BFB0BDAEF104011C
:10DD7000043B00BF11F8045F043A03F8045F4D78D8
:10DD80005D708D789D70CD78DD70F3D1B0BD00BF32
:10DD900013F8014D02290EF8014D01D1023A04E0B9
:10DDA00013F8011D033A0EF8011DBCF1030FEDD36A
:10DDB000AEF10401023B00BF5C78043ACC701C78E1
:10DDC0008C7013F8014C4C7013F8024CA3F104034F
:10DDD00001F80449F0D1D9E770B5042A06461BD3EF
:10DDE00016F0030018D1C8B24FF00133102A00FB1F
:10DDF00003F313D3A2F1100C012000EB1C1010F060
:10DE000003000DD00128C6E90033B360F36009D1E7
:10DE100006F11000624616E0304650E030462EE033
:10DE2000304610E00228C6E90433B361F36103D140
:10DE300006F12000203A06E006F13000303AC6E94B
:10DE40000833C6E90A33BCF1300F16D300F14004A1
:10DE5000403AC0E90033C0E90233C0E90433C0E905
:10DE60000633C0E90833C0E90A33C0E90C33C0E91E
:10DE70000E330F2A2046E9D82046042A1FD3044631
:10DE8000151F042D40F8043B18D3A2F10805042DFA
:10DE900063600DD3A2F10C05042DA3600CD304F133
:10DEA0001000103AE360032A0446E9D807E000BFF7
:10DEB00004F1080002E000BF04F10C002A4622B180
:10DEC000CBB211461A46F3F770FA304670BD000027
:10DED0002DE9F041884640F28051C1F6FF710A7881
:10DEE000054682420F460FD00F4617F8100FA84282
:10DEF0000AD00F4617F8200FA84205D011F8300FAE
:10DF0000A84218BF00210F46F868FFF729FE064611
:10DF1000C0B1FA68304600210024FFF75DFF3046AB
:10DF2000414608223572747200F088FAF3F760F9FE
:10DF300057F8041F324642F80C1F4A603A60576097
:10DF4000F3F75AF93046BDE8F081000010B50446F9
:10DF500000202072F3F74CF92246216952F80C3F59
:10DF60005960216922610B601260F3F745F9204680
:10DF7000BDE81040FFF746BA10B5044600202072F5
:10DF8000F3F736F954F80C1F62684A606268116052
:10DF9000C4E90044BDE81040F3F72EB940F28052C6
:10DFA000C1F6FF721178814211460FD0114611F867
:10DFB000103F83420AD0114611F8203F834205D01A
:10DFC00012F8301F814218BF0022114608467047E0
:10DFD000F0B581B00E4640F28051C1F6FF71154692
:10DFE0000A780446B2420F460FD00F4617F8100FBA
:10DFF000B0420AD00F4617F8200FB04205D011F8F2
:10E00000300FB04218BF00210F46FFF7A1F90437C7
:10E01000384600BF0068B84208D00068B84205D052
:10E020000068B84202D00068B842F3D1FFF79EF909
:10E0300046F08000207220462946082200F0FEF9B2
:10E04000F3F7D6F8396844F80C1F4C603C60676001
:10E0500001B0BDE8F040F3F7CFB80000007AC00986
:10E0600070470000B0B5F3F7C3F840F2BC05C2F248
:10E0700000056988044629B12046BDE8B040F3F7A1
:10E08000BBB800BFA868FCF7DDFC42F6A071013800
:10E09000C2F2000151F830106A68A1F114039342F2
:10E0A000EAD0287042F618706B60C2F20000037864
:10E0B00002F11C0001F1080133B1F3F7A0F820468A
:10E0C000BDE8B040F3F798B8F3F799F82046BDE8FB
:10E0D000B040F3F791B8000010B50446F3F788F8A4
:10E0E00094F8341094F8352001F0F001013184F8EF
:10E0F000341042F6A071C2F2000101EBC2014A687D
:10E1000040F2BC0C04F11403C2F2000C1360A261D3
:10E110004B60A26BDCF80830616143EA0201CCF885
:10E120000810BDE81040F3F767B80000B0B5054629
:10E13000F3F75EF8294651F8142F4B6853604B688B
:10E1400049601A6091F8212042F6A0730960C2F27A
:10E15000000353F8324003EBC202944204D0BDE8FE
:10E16000B040F3F749B800BF40F2BC02C2F200026F
:10E17000A96B936823EA01019160BDE8B040F3F711
:10E180003BB8000070B515460A4602211C460646FB
:10E19000FFF71EFF06F11400C6E905000020B58355
:10E1A000747270BDB0B50546F3F722F82A4652F8EE
:10E1B000141F044691420BD0A1F1140000F0F6FBAD
:10E1C0002046F3F719F8FFF74DFF0020B0BD00BF60
:10E1D000A88B4FF6FF71884206D12046F3F70CF862
:10E1E0006FF00200B0BD00BF0130A8832046F3F7F6
:10E1F00003F80020B0BD00002DE9F04381B00E46C9
:10E2000007460091F2F7F4FFB98B804641B1481EF2
:10E21000B8834046F2F7F0FF002001B0BDE8F0837C
:10E22000D6B300F0E7FB0546002028637C7A284639
:10E2300007F1140900F04EFCB4B3012C3CD1484660
:10E240000068484530D095F8351090F8212091426B
:10E250001AD30068484527D095F8351090F821204A
:10E26000914211D3006848451ED095F8351090F8BA
:10E270002120914208D30068484515D095F8351003
:10E2800090F821209142DBD2416805F114020A6026
:10E29000A961426068610FE04046F2F7ADFF6FF0A0
:10E2A000010001B0BDE8F083B86905F11401016017
:10E2B000A861B961C5F81490012E09DB05F1440687
:10E2C0006A463046002100F06BFD304600F000FE4B
:10E2D0004046F2F791FFFFF7C5FE286B002808BF04
:10E2E000002001B0BDE8F08380B582B00AA0FFF73E
:10E2F0001DFC0CA0FFF71AFC0FF24C0C15A003211B
:10E3000001220523CDF800C0FFF710FC19A002B0D0
:10E31000BDE88040FFF70ABC0A205C207C202F0A61
:10E32000000000002D205254202D202020202054B9
:10E330006872656164204F7065726174696E6720F0
:10E3400053797374656D0A004A616E203139203249
:10E3500030323500202F207C205C202020202025FA
:10E36000642E25642E2564206275696C64202573F3
:10E370000A0000002032303036202D20323032307A
:10E3800020436F70797269676874206279207274B3
:10E390002D746872656164207465616D0A00000007
:10E3A000B0B502780AB34FF0000E8C4611F80E306B
:10E3B0009A421FD100EB0E035A78FAB101EB0E041A
:10E3C0006578AA4220D19A7812B3A578AA4225D1BD
:10E3D000DA784AB3E578AA422CD11A790CF1040C08
:10E3E000002A0EF1040EE1D1714400220878101ABF
:10E3F000B0BD00BF71440878101AB0BD0CF1010126
:10E4000000220878101AB0BD611C0878101AB0BD3F
:10E41000A11C00220878101AB0BD00BF0CF1020147
:10E420000878101AB0BD00BF0CF103010022087873
:10E43000101AB0BDE11C0878101AB0BD2DE9F041EA
:10E440008046DAB3C2F1000C00234446CF5C08F8E2
:10E450000370DFB10CEB0306771C2FD2CF1878784E
:10E4600008EB03056870A8B1B01C27D0B878A87075
:10E47000B0B1F01C22D0F878E870D8B1043304347D
:10E480001CEB0300A2F10402E0D117E0601C511E56
:10E490000AD113E0A01C013A511E05D10EE000BFC5
:10E4A000E01C023A511E09D0F2F786FF4046BDE853
:10E4B000F08100BF033A281D511EF5D14046BDE84A
:10E4C000F081000021F003038C46192B014631D363
:10E4D000C81C20F00300A3F1180282422AD310B511
:10E4E000191A40F28404A1F11802C2F20004C4E92E
:10E4F00000204FF4F5520C394FF0000CC0E9002118
:10E50000C0F808C041F6A060C0F201001A4642F807
:10E510000C0D43F8081C2068A2600C3043F8040C72
:10E5200004F1180005A101220023FFF72BFE60680B
:10E53000E06010BD03A06246FFF7F8BA686561703D
:10E54000000000006D656D20696E69742C20657295
:10E55000726F7220626567696E20616464726573B0
:10E560007320307825782C20616E6420656E6420DD
:10E570006164647265737320307825780A00000046
:10E5800010B542F6A072C2F2000202F11800C2E910
:10E59000060002F1200002F1080302F11001C2E9B5
:10E5A000080002F14000C2E90233C2E9041102F19D
:10E5B000280102F1300302F13804C2E9100002F12F
:10E5C0006000C2E90A11C2E90C33C2E90E4402F14B
:10E5D000480102F1500302F15804C2E9180002F1A7
:10E5E0008000C2E91211C2E91433C2E9164402F1F3
:10E5F000680102F1700302F17804C2E9200002F11F
:10E60000A000C2E91A11C2E91C33C2E91E4402F19A
:10E61000880102F1900302F19804C2E9280002F196
:10E62000C00040F2BC0EC2E92211C2E92433C2E9A3
:10E63000264402F1A80102F1B00302F1B804C2E9D4
:10E64000300002F1E000C2F2000EC2E92A11C2E974
:10E650002C33C2E92E4402F1C80102F1D00302F1C9
:10E66000D804C2E938001F204FF0000CC2E9321173
:10E67000C2E93433C2E9364402F1E80102F1F003A1
:10E6800002F1F8048EF800000EF10C00AEF802C0A2
:10E69000C2E90022C2E93A11C2E93C33C2E93E4470
:10E6A000CEE901CCCEE9030010BD000010B540F268
:10E6B000BC04C2F20004A068FCF7C4F942F6A071E1
:10E6C000C2F2000101EBC00050F8080CA0F11401E7
:10E6D00008306160BDE81040F2F7D7BD40F2D000CD
:10E6E000C2F20000011DC0E901117047704700002F
:10E6F0002DE9F04383B00F46014601201D46164622
:10E70000FFF7E6FB00283DD004462846FFF728FA2D
:10E7100000283DD004F11401DDE90A98C4E905118F
:10E7200023212A46C4E90876C4E90A05FFF754FB09
:10E7300004F120030FCB1A444EF60103043AC0F251
:10E740000003FFF7B5F94EF61932E061002704F136
:10E750004400C0F200022146234684F8369084F833
:10E760003590C4E90E78C4F84080276384F834708B
:10E77000C4E91C770097019700F090FB204603B096
:10E78000BDE8F0830024204603B0BDE8F08300BF5D
:10E790002046FFF7DBFB0024204603B0BDE8F083F2
:10E7A000B0B5044690F8340010F00F0007D00428EC
:10E7B00002D10020B0BD00BF2046FFF7B7FCF2F742
:10E7C00017FD216F054609B1204688472846F2F714
:10E7D00013FD04F1440000F049FBF2F709FD40F29B
:10E7E000C801C2F200010A68042344F8142F84F817
:10E7F000203054600C606160F2F7FEFC0020B0BD78
:10E8000070B540F2C000C2F200000568F2F7F0FCFB
:10E810000446F2F7EDFC296F064609B12846884701
:10E820003046F2F7E9FC2846FFF780FC042085F823
:10E83000340005F1440000F019FB2846FFF70EFCF8
:10E84000012809D12846FFF797FBFFF70BFC20466C
:10E85000BDE87040F2F7D0BC40F2C800C2F2000040
:10E86000016845F8141F4D6005606860FFF7FAFB0A
:10E870002046BDE87040F2F7BFBC000040F2C80679
:10E88000C2F2000603E000BF2046F2F7B5FCF2F743
:10E89000AFFC31680446B142F6D0D1E90020A1F1C5
:10E8A000140550604B6848691A60C1E90011FEF711
:10E8B000A9FD2846FFF74AFBE6E7000010B584B043
:10E8C00043F2A0024FF48071C2F2000240F2906461
:10E8D0001F20CDE90021C2F200044EF67D024FF068
:10E8E000200C029007A1C0F2000220460023CDF8C0
:10E8F0000CC000F00BF8204604B0BDE8104000F05A
:10E90000BBB800BF7469646C650000002DE9F04776
:10E9100082B00DF1280A16460A46DDF834909AE8CE
:10E92000800501211D460446FFF752FB04F1140047
:10E93000C4E90500384623214246C4E90865C4E914
:10E940000A78FFF749FA04F120030FCB1A444EF678
:10E950000103043AC0F20003FFF7AAF84EF6193299
:10E96000E061002704F14400C0F200022146234682
:10E9700084F836A084F835A0C4E90E79C4F8409034
:10E98000276384F83470C4E91C770097019700F07E
:10E9900085FA002002B0BDE8F087000080B500F0E5
:10E9A00001F900F02DF8002080BD0000B0B504464C
:10E9B00090F8340000F00F0002281CBF4FF0FF3029
:10E9C000B0BDF2F715FC2246A16952F8143F054686
:10E9D0005960A16904F144000B60A261126000F06B
:10E9E000E1FA2846F2F708FC2046FFF775FB002005
:10E9F000B0BD000040F2C000C2F2000000687047E5
:10EA0000F0B581B00090F2F7F3FB40F2C001C2F222
:10EA100000010C68054694F8341001F00F0101293B
:10EA200013D1F2F7E5FB06462046FFF77FFB94F88B
:10EA3000340000F0F000023084F8340004F14400A7
:10EA400000F0B0FA3046F2F7D7FB04F144066A460C
:10EA500030460021002700F0A3F9304600F038FAD4
:10EA60002846F2F7C9FBFFF7FDFA206B023008BF1A
:10EA70002763002001B0F0BDB0B5044690F8360021
:10EA8000012184F8350001FA00F0A063022084F827
:10EA90003400F2F7ADFB2246A16952F8143F054657
:10EAA0005960A16904F144000B60A261126000F09A
:10EAB00079FA2846F2F7A0FB2046FFF70DFB40F25B
:10EAC000C000C2F200000068002818BFFFF7CAFAB1
:10EAD0000020B0BDB0B5044690F8340000F00F003F
:10EAE00001281CBF4FF0FF30B0BDF2F781FB054697
:10EAF0002046FFF71BFB94F8340000F0F0000230D2
:10EB000084F8340004F1440000F04CFA2846F2F78F
:10EB100073FB0020B0BD000080B50246816952F849
:10EB2000143F6FF0010C59608169C0F830C00B6070
:10EB300082611260FFF7D0FABDE88040FFF792BA19
:10EB400010B5F2F755FB40F2C001C2F200010968AE
:10EB500091F8342002F00F02012A1FD10A4652F820
:10EB600014CF53689C4519D0CCF8043091F835E0A7
:10EB700042F6A073C2F2000303EBCE03D1F818E013
:10EB80008A615C68CEF800C022608C615A604B617B
:10EB9000F2F732FBFFF766FA002010BDF2F72CFB0C
:10EBA000002010BD002844BF4FF0FF30704744F6EE
:10EBB000D351C1F26201A0FB01239A094FF47A7389
:10EBC00002FB1300584300F2E730A0FB010102FBF7
:10EBD00003F000EB9110704743F2A410C2F2000062
:10EBE0000068704780B543F2A410C2F200000168CB
:10EBF00001310160FFF7FEFE016C0139016403D0B1
:10EC0000BDE8804000F008B8C16B0164FFF798FFD1
:10EC1000BDE88040AFF300802DE9F04F85B003AF31
:10EC2000CDE90377FFF7D8FF0546F2F7E1FA40F2A6
:10EC3000D004C2F20004214651F8048F01908845A7
:10EC400000F0A8804FF6FE79C7F6FF79201D6FF01F
:10EC5000004B02901CE000BF0E6808462168C6F811
:10EC600004800131216018F80B1CC8F80060C0F85E
:10EC70000080C8F8040041F0010008F80B0C504671
:10EC8000F2F7BAFA204650F8048F804500F08280EF
:10EC9000D8F81400281A48457CD8D8E900104860F4
:10ECA000D8F8042018F80B0C11608107C8F8008010
:10ECB0005CBF00F0FE0008F80B0C0398C0F804805D
:10ECC000C8F80000D8E90210CDF80C80C8F804702C
:10ECD0008847FFF781FF03990546B942D2D0D8E9AA
:10ECE00000014160D8F80410C8F80480086018F8E2
:10ECF0000B0CC8F8008000F003010329C2D100F01A
:10ED0000FE0008F80B0CF2F773FAD8E900128246FD
:10ED10004A6018F80B0CD8F8042000F0FE001160CF
:10ED2000C8F80080C8F8048008F80B0CFFF754FFFF
:10ED3000D8F81010029B0A18A168C8F814208B425A
:10ED40008AD018684669B61A01D05E451CD388423D
:10ED50003FF482AF03685E69B61A01D05E4517D3EF
:10ED60008B423FF479AF18684669B61A01D05E4508
:10ED70000AD388423FF470AF03685E69B61ADED0EA
:10ED80004E451E46DBD869E70646184666E700BFD3
:10ED90001E4663E70198F2F72FFA05B0BDE8F08F41
:10EDA00070B514460E460546F2F722FA042E07D82F
:10EDB000DFE806F0040A1018200000BF216869622D
:10EDC000F2F71AFA002070BD696A2160F2F714FAAE
:10EDD000002070BD697A01F0FD016972F2F70CFA4A
:10EDE000002070BD697A41F002016972F2F704FAFD
:10EDF000002070BD697AC9070CBF00210121216084
:10EE0000F2F7FAF9002070BD70B50E4601460A20EF
:10EE10001C461546FFF75CF8002808BF70BD049932
:10EE200000F1140201F0FE0141720021C0E9052247
:10EE3000C0E90765C0E9094170BD000010B504468E
:10EE4000F2F7D6F92246A16952F8143F5960A16938
:10EE5000A2610B60617A126001F0FE016172F2F74B
:10EE6000CBF92046FFF772F8002010BD10B504461C
:10EE7000F2F7BEF92246A16952F8143F5960A16920
:10EE8000A2610B60617A126001F0FE016172F2F71B
:10EE9000B3F92046FFF770F8002010BD2DE9F041CE
:10EEA00015460A46DDE906870A211C460646FFF795
:10EEB0008FF807F0FE007072002006F11401C6E919
:10EEC0000511C6E90754C6E90980BDE8F0810000D4
:10EED0002DE9F0410446F2F78BF9264656F8141F47
:10EEE0008046726816F80B0C4A60726800F0FE00EB
:10EEF00011603660766006F80B0CFFF76DFE40F28D
:10EF0000D00E3169C2F2000EDEF808304FF6FE7CFA
:10EF10000A180EF104076FF00045C7F6FF7C726116
:10EF20009F421FD039684869801A01D0A8421DD37A
:10EF3000994217D00F687869801A01D0A84219D376
:10EF40009F420FD039684869801A01D0A84213D374
:10EF5000994207D00F687869801AE1D06045384639
:10EF6000DED80BE01868194608E000BF08463946AD
:10EF700004E000BF384601E008463946466060615B
:10EF8000607ADEF8002040F00100013260724046F5
:10EF9000CEF800200E60A161F2F72EF90020BDE846
:10EFA000F081000010B50446407AC00704BF4FF05E
:10EFB000FF3010BDF2F71CF954F8141F62684A6064
:10EFC00062686460116014F80B1C246001F0FE019B
:10EFD00004F80B1CF2F710F9002010BD2DE9F04FDA
:10EFE00085B09B46144600EB010A4FF020090391BF
:10EFF000002948BF4FF0FF3A049002E0411C013461
:10F0000008462178252907D0002900F0CB835045F8
:10F0100038BF0170F2E700BF0234002114F8012C60
:10F02000A2F12007102F00F26D801023DFE807F017
:10F030000A6A6A0C6A6A6A6A6A6A6A0E6A126A6AA2
:10F04000100000BF082305E0202303E0042301E0B3
:10F05000012300BF22781943A2F12007102F00F2EC
:10F060008D801023DFE807F00A8A8A0C8A8A8A8A50
:10F070008A8A8A0E8A128A8A100000BF082305E055
:10F08000202303E0042301E0012300BF6278194339
:10F09000A2F12007102F00F297801023DFE807F07D
:10F0A0000A94940C949494949494940E941294943A
:10F0B000100000BF082305E0202303E0042301E043
:10F0C000012300BFA2781943A2F12007102F00F2FC
:10F0D00083801023DFE807F010808012808080801A
:10F0E0008080800E800A8080140000BF19430434A1
:10F0F00094E700BF0423F9E70823F7E72023F5E7A7
:10F100000123F3E7A31E013CA2F13007092F3AD8EF
:10F110000234002606EB860302EB430314F8012CAD
:10F12000A3F13006A2F13007092F5DD806EB860364
:10F1300002EB43032278A3F13006A2F13007092F36
:10F1400054D806EB860302EB43036278A3F1300642
:10F15000A2F13007092F00F28D8006EB860302EB47
:10F160004303A278A3F13006A2F130030A2B04F185
:10F170000404CFD3023C2E2A3AD018E0631EA2F139
:10F180003007092FC4D92A2A0CD15BF8046B9C1CC8
:10F19000B6F1FF3FDCBF764241F0100122782E2A03
:10F1A00026D004E022784FF0FF362E2A20D04FF0F0
:10F1B000FF3E42F004036C2B6CD094460022ACF16D
:10F1C0002505532D6DD9D5E023460134A2F1300732
:10F1D000092FD8D89CE700BF631C0234A2F1300786
:10F1E000092F95D9CFE700BF013C00BF2E2ADED101
:10F1F000234613F8012FA2F13007092F2ED8A31CA4
:10F20000002700BF07EB870702EB47071A78303F5C
:10F21000A2F13005092D35D807EB870702EB470728
:10F220005A78303FA2F13005092D27D807EB870720
:10F2300002EB47079A78303FA2F13005092D1FD81D
:10F2400007EB870702EB4707DA78303FA2F130057A
:10F250000A2D03F10403D5D3013B13E02A2A05D17B
:10F2600014F8022F5BF8047B23460BE04FF0FF37C6
:10F2700008E000BF01342E2ABAD098E7013301E03C
:10F28000023300BF27EAE77E1C4642F004036C2BE2
:10F290007FF493AF14F801CFACF12505532D00F2A4
:10F2A00069800A23DFE815F05400660066006600F6
:10F2B000660066006600660066006600660066001E
:10F2C000660066006600660066006600660066000E
:10F2D00066006600660066006600660066006600FE
:10F2E00066006600660066006600660066006600EE
:10F2F00066006600660066006600660066006600DE
:10F3000066006600660066006600660066007800BB
:10F3100066006600660066006600660066006600BD
:10F32000660066008C005A00660066006600660093
:10F330005A0066006600660066006600A800AC0021
:10F3400066006600BE0066007B00660066007A000C
:10F3500050453CBF2521017050E600BF41F002013D
:10F360000A23682A1DD1BBF800208F0748BF12B2BC
:10F370001AE000BF504503D22521017094F800C067
:10F38000BCF1000F00F101017AD0514538BF81F87E
:10F3900000C0811C33E600BF41F040011023682A01
:10F3A000E1D06C2ADBF800200BF1040BCFB2514600
:10F3B000CDE9006E0297FDF70BFD01461FE600BF89
:10F3C000C9065BD4022EA6F10103C0F2818013F0BE
:10F3D0000307A6F1020200F0DB80504538BF80F839
:10F3E0000090012F00F1010140F0DE801346032A56
:10F3F00080F004811EE100BF0823682AD1D1B2E762
:10F40000721CB2FA82F24FEA521241EA020108BFBC
:10F4100008265BF8042BCFB2CDE9006E51461023CD
:10F42000C8E700BF5BF8048B0FF29C32B8F1000F05
:10F4300008BF904636B3C6F1000C002218F802301F
:10F440000BB30CEB02035D1C15D008EB02077D78B3
:10F45000002D00F0B5809D1C0DD0BD78002D00F072
:10F46000B180033307D0FB78002B00F0BD8004325D
:10F470001CEB0203E2D1324605E000BF0146DAE0B0
:10F48000013CBCE5002272459446C8BFF446BEF17B
:10F49000000FD8BF9446C9061FD46645A6F10102E5
:10F4A0001ADDA6EB0C0111F0030775D0504538BFEB
:10F4B00080F80090012F00F1010140F08580B21E1C
:10F4C0006FEA0C003044032880F0FD8016E100BF95
:10F4D00001461E46AFE000BF1646BCF1010FC0F268
:10F4E0001481ACF10101032904D21CF0030234D1D0
:10F4F0000CE100BF2CF00302002102E004318A423B
:10F5000024D0471857453CBF18F801303B707B1C8E
:10F5100053450BD208EB01056D781D70BB1C53459C
:10F5200007D3FB1C5345E9D20AE000BFBB1C53457F
:10F53000F7D208EB0105AD781D70FB1C5345DDD2F9
:10F5400008EB0107FF781F70D8E700BF884401442B
:10F5500008461CF0030200F0D98050453CBF98F8E3
:10F5600000100170012A00F1010100F0CF80514527
:10F570003CBF98F801300B70022A00F1020100F044
:10F58000C58051453CBF98F802200A70C11CBDE0FF
:10F590000146032A32D24DE001466FEA0C003044A6
:10F5A000032880F09080A9E0514538BF81F8009091
:10F5B000022F00F1020119D1F31E032A1ED239E0F5
:10F5C000013260E702325EE7514538BF81F80090B2
:10F5D000022F00F102016BD1F21E6FEA0C003044E1
:10F5E000032870D28AE000BF03324CE7514538BF90
:10F5F00081F80090C11C331F032A1BD3181D00BFC4
:10F60000514501F1010238BF81F80090524538BFE1
:10F6100082F800908A1C524538BF82F80090CA1CBC
:10F620005245A0F1040038BF82F80090042801F18F
:10F630000401E5DC002651453CBFDBF80000087002
:10F64000022E0BF1040B2FDB043100BFC81E504506
:10F6500038BF80F80090032EA1F10200FFF4ADAE98
:10F66000504538BF80F80090301F10F1040FA1F111
:10F67000010277D85245A0F1010038BF82F800900E
:10F6800010F1040F3FF6BBAC5145A0F1010238BFA9
:10F6900081F80090043112F1030F00F10106D5D377
:10F6A0000339FFF7ACBC00BF0131FFF7A8BC00BFB6
:10F6B000514538BF81F80090C11C321F6FEA0C0021
:10F6C000304403281AD3501C514501F1010238BFC0
:10F6D00081F80090524538BF82F800908A1C52454C
:10F6E00038BF82F80090CA1C5245A0F1040038BF10
:10F6F00082F80090844501F10401E5DBACF10106DC
:10F700000846BCF1010FBFF6ECAE014666457FF737
:10F7100076ACA6EB0C0010F0030009D0514538BFC1
:10F7200081F80090012801F1010205D1701E13E05B
:10F7300030460A4610E000BF524538BF82F80090BC
:10F74000022801F1020201D1B01E05E0524538BF86
:10F7500082F80090F01ECA1C6FEA0C0131440329A4
:10F76000114603D21146FFF74ABC00BF514501F1D3
:10F77000010238BF81F80090524538BF82F80090EE
:10F780008A1C524538BF82F80090CA1C5245A0F12D
:10F79000040038BF82F80090844501F10401E5DBE4
:10F7A000FFF72DBC0399049B002948BFD94331B111
:10F7B00001460022504528BFAAF101010A70C01A73
:10F7C00005B0BDE8F08F00BF284E554C4C29000015
:10F7D00000207047002070470020704700207047CD
:10F7E00010B50446FAF776FB2046BDE81040FDF759
:10F7F000DDBA0000B0B540F20405C2F20005286889
:10F80000007AC8B148680C4631A1FEF7C9FDC8B1FD
:10F81000606831A1FEF7C4FDF0B1606830A1FEF769
:10F82000BFFD38B3606830A1FEF7BAFD90B340F673
:10F830005140C0F2000042E040F69330C0F20000B8
:10F840003DE000BF2868FFF717F9E8B1024640F62F
:10F85000D640C0F2000023E040F20000C2F20000F7
:10F860000178002904BF0121017040F6C430C0F2C4
:10F87000000024E02868FFF799F8C8B1024640F676
:10F880009E40C0F200000BE040F62140C0F20000B4
:10F8900015E000BF2868FEF783FF78B1024614A088
:10F8A00040F61051C0F20001F8F712FA0020B0BD86
:10F8B00040F6F330C0F2000001E000BF1BA040F6AC
:10F8C0001051C0F20001F8F703FA0020B0BD00BFEC
:10F8D000737461727400000073757370656E6400F8
:10F8E000726573756D65000064656C657465000014
:10F8F0001B5B303B33326D5B25735D206C65642090
:10F90000746872656164206661696C20746F20643C
:10F91000656C6574652C20657272436F64653A2569
:10F92000640A1B5B306D0D0A000000001B5B303B5E
:10F9300033326D5B25735D206C656420746872657D
:10F9400061642064656C6574696F6E2073756363B0
:10F95000657373210A1B5B306D0D0A00B0B582B070
:10F960000120ADF8040040F20140C0F20100009017
:10F970002F200021F4F7E2FA69464D20F4F7DEFA71
:10F980004BF20004C4F20604A4F500352846072112
:10F990000222FAF7DBF9284606210222FAF7D6F905
:10F9A000284607210022FAF73FFA284606210022BE
:10F9B000FAF73AFA2046F9F763FC01204FF4E131F7
:10F9C000F9F760FD204600210022F9F76FFC204680
:10F9D0000021F9F78BFC20460021F9F77BFC20463B
:10F9E000F9F71CFC2046F9F703FC002002B0B0BD7B
:10F9F00080B5FEF779FC002080BD0000014B024A73
:10FA000000F0D6B869B300000004FF1F02E008C888
:10FA1000121F08C1002AFAD170477047002001E088
:10FA200001C1121F002AFBD1704700002DE9FF5FC2
:10FA300082B00021DDE90430020DDDF840B003435F
:10FA400018D044F61050A2F2FF3242431514119818
:10FA500001281FD0A5EB0B00401C5FEA000A4FF005
:10FA600000064E4FDFF83891B046504615D5CAF122
:10FA7000000413E0119801244AA3012801D16FEA80
:10FA80000B010298119AC0E90031C0E9024206B0A8
:10FA9000BDE8F09FCBF10000DFE704460021404ABB
:10FAA000491842EB0450CDE9001012E0E00707D0FE
:10FAB00032463B4640464946F1F787FD8046894637
:10FAC00032463B4610461946F1F77FFD06460F4683
:10FAD0006410002CEAD1DDE90401DDE90023BAF16C
:10FAE000000F06DAF1F771FD42464B46F1F76DFD66
:10FAF00005E0F1F7DCFD42464B46F1F7D8FD044640
:10FB00000E460022284BF1F759FE03D84FF0FF3084
:10FB1000014607E00022254B20463146F1F7AEFCB6
:10FB2000F1F734FE102409E0002C0ADB0A2200233E
:10FB3000F1F7F8FB039B30321A55641E50EA0102BC
:10FB4000F2D1641C039AC4F111031444119A012ADE
:10FB500003D0012208430DD10AE0084304D000205D
:10FB60004FF0110B119072E7A3EB0B056D1E0DE02A
:10FB70005B4504DD4FF0000205F1010504E003DA06
:10FB80004FF00002A5F10105002AECD0029811996E
:10FB9000C0E90231C0E9004579E7000000001440E7
:10FBA0000000F03F300000000000F0430000E03FA4
:10FBB0002DE9FF4F95B09B468946064600250FE28A
:10FBC000252877D100242746F84A0121059400E032
:10FBD000044316F8013F203B01FA03F01042F7D12D
:10FBE00030782A2811D06FF02F033078A0F130023E
:10FBF000092A16D8059A44F0020402EB820203EBAC
:10FC000042021044761C0590EFE759F8042B059248
:10FC1000002A03DA504244F40054059044F00204F0
:10FC2000761C30782E2816D116F8010F44F0040403
:10FC30002A280DD06FF02F023078A0F13003092B65
:10FC400009D807EB870302EB4303C718761CF3E7D9
:10FC500059F8047B761C30786C280FD006DC4C28D1
:10FC600017D068280DD06A2814D104E0742810D069
:10FC70007A280FD10DE044F400140AE044F4801413
:10FC800001E044F440147278824202D104F58014F9
:10FC9000761C761C307866280BD013DC582877D079
:10FCA00009DC002875D04528F6D04628F4D047282E
:10FCB0001AD19DE118E0632835D0642879D06528F1
:10FCC00012D195E1702873D008DC6728F1D069283B
:10FCD0006FD06E280DD06F2806D1B5E073282CD0D8
:10FCE000752875D0782874D05A46179990476D1C9E
:10FCF00075E1C4F30250022809D003280DD0D9F8C9
:10FD0000001004280DD00D6009F1040967E1D9F84D
:10FD10000010EA17C1E90052F6E7D9F800100D808B
:10FD2000F2E70D70F0E719F8041B8DF800100020C1
:10FD30008DF80100EA46012003E059F804AB4FF0CA
:10FD4000FF3061074FF0000102D40DE008F101011E
:10FD50008846B9420FDA8045F8DB1AF80810002906
:10FD6000F4D108E008F1010188468142FADB1AF873
:10FD700008100029F6D105985B46A0EB080721463C
:10FD80003846179A00F094FA284400EB080507E07B
:10FD90004DE029E10DE01AF8010B5A4617999047FA
:10FDA000B8F10108F7D25B4621463846179A13E1AD
:10FDB00042E00A220092C4F302524FF0000A022AE3
:10FDC00008D059F804CB032A4FEAEC710AD00DE0B1
:10FDD00029E02AE009F1070121F00702F2E802C157
:10FDE000914609E00FFA8CFC4FEAEC71042A03D12A
:10FDF0004FFA8CFC4FEAEC71002907DA0A46002121
:10FE0000DCF1000C61EB02012D2202E0220504D599
:10FE10002B228DF80420012203E0E20701D02022EA
:10FE2000F7E7904659E00A2102E010220DE0102188
:10FE30004FF0000A00910BE010224FF0000A44F04E
:10FE400004040827009203E008224FF0000A009201
:10FE5000C4F30252022A05D059F804CB0021032A28
:10FE600008D009E009F1070121F00702F2E802C118
:10FE7000914605E01FFA8CFC042A01D10CF0FF0C1E
:10FE80004FF00008220728D5702806D0009B83F089
:10FE9000100353EA0A0305D00EE040228DF8042037
:10FEA000012208E05CEA010206D030228DF804202D
:10FEB0008DF8050002229046009B83F0080353EA68
:10FEC0000A030AD15CEA010201D1620705D530229A
:10FED0008DF804204FF001087F1E582804D034A06C
:10FEE00003900EA802900DE036A0F9E75346604655
:10FEF000009AF1F717FA84460398825C0298401E34
:10FF0000029002705CEA0100F0D1029806A9081A7A
:10FF100000F1200A600702D524F4803400E00127B4
:10FF2000574502DDA7EB0A0000E0002000EB0A01C4
:10FF3000009005984144401A0590E00306D45B46C2
:10FF40002146179A059800F0B3F90544002706E00A
:10FF500001A85A46C05D179990476D1C7F1C474504
:10FF6000F6DBE0030CD55B462146179A059800F0B6
:10FF70009FF9054404E030205A46179990476D1CBC
:10FF80000099481E00900029F5DC08E002980299CB
:10FF90005A460078491C0291179990476D1CBAF196
:10FFA0000001AAF1010AF1DC65E100000928010065
:10FFB00030313233343536373839616263646566DF
:10FFC00000000000303132333435363738394142A1
:10FFD000434445460000000000F058F90544761CF3
:10FFE000307800287FF4ECAD19B02846BDE8F08FDA
:10FFF000620700D4062709F1070222F0070CFCE88B
:020000040001F9
:100000000223E14603F000485FEA080C02D00FF239
:10001000702C0DE05FEA045C02D50FF2682C07E05B
:100020005FEAC47C02D00FF2602C01E0AFF2700CEA
:100030004FF0FF3823F00043CDF850C065280CD0B6
:1000400006DC452809D046281DD047283DD13DE093
:10005000662818D067287ED138E00021112F01DBF7
:10006000112000E0781CCDE9000106A90EA8FFF7D9
:10007000DDFCDDE90F010E9A03910021009207F1EA
:10008000010A04914DE04FF000400097CDE90110C6
:1000900006A90EA8FFF7CAFCDDE90F0203920E9B2A
:1000A00011990022DDF80CA00093049211B9791C7B
:1000B00000EB010AB7EB0A0004D4C0F1FF3007F1EE
:1000C000010A0490AAEB0700019044E0012F00DA36
:1000D00001270021112F01DD112000E03846CDE974
:1000E000000106A90EA8FFF7A1FCDDE90F010E9A99
:1000F0000391002104910092BA4621070CD4039980
:10010000514500DA8A46BAF1010F05DD009AAAF1DD
:100110000101515C302908D0B84202DA10F1040F15
:1001200006DA0121CDE9011015E0AAF10101E9E7A4
:10013000002805DC049901440491AAEB000102E0C7
:10014000411C514500DD8A460499401A401C01902B
:100150004FF000400290200704D40198504501DB85
:10016000CDF8048000208DF84F0002980DF14F0764
:10017000B0F1004F25D02B200E9002984FF00208CE
:1001800000280CDA404202902D200E9007E00A2150
:100190000298F1F73EF93031029007F8011DB8F1ED
:1001A0000001A8F10108F2DC02980028EFD1791EC5
:1001B0000E980870307800F0200040F0450007F8F5
:1001C000020D12A8C01B00F107081498007800B1B6
:1001D000012000EB0A01019801EBE0710598414410
:1001E000401A401E0590E00306D45B462146179A4C
:1001F000059800F05DF805441498007818B15A4647
:10020000179990476D1CE00324D55B462146179A49
:10021000059800F04DF805441CE00498002807DB21
:10022000DDE90301884203DD0098405C179901E095
:10023000179930205A469047049805F10105401C53
:1002400004900198401E019004D12E205A4617991F
:1002500090476D1CBAF10001AAF1010ADDDC05E04E
:1002600017F8010B5A46179990476D1CB8F1000119
:10027000A8F10108F4DC5B462146179A0598ABE625
:100280002D0000002B000000200000002DE9F041AF
:10029000044600251E461746880404D405E0394666
:1002A0002020B0476D1C641EF9D52846BDE8F081BA
:1002B0002DE9F041044600251E469046C80301D5AD
:1002C000302700E02027880404D505E04146384661
:1002D000B0476D1C641EF9D52846BDE8F0810000CA
:1002E000000301000004FF1FC0010000EE18000021
:1002F000F003010000000020A83100001CFA0000FB
:1003000081320F42106CC00440047CC0F00F041214
:100310001A121B3A1C201302401AD0041AE0043DA2
:100320006CDC0201012139041902112B127A092A0D
:100330000310290F21120C5B02030B71391D1303EB
:100340000315010203011A063B393C3943392804DD
:100350002180841E497839331132222DD004FF1FA9
:100360000E2A29122A2A052A2B052A2C052A2D05B0
:100370002A2E052A2F052A30052A31052A32052A78
:1003800034052A35052A36052A37052A38052A3A3A
:1003900005243C01022A3D052A3E052A3F052A4044
:1003A000052A41052A43052A44052A45052A46050A
:1003B0002A47052A48052A49052A4A052A4B052ABB
:1003C0004C052A4D052A4E05214BFDF9F02D8405DB
:1003D000FF1F04327829191A940C2904322032059F
:1003E0001AA40C29043230320A1AB40C2904322C13
:0400000500001119CD
:00000001FF
