:020000040000FA
:1000000000F00020150700006D5400004130000092
:1000100069540000550800003D5E0000000000002B
:10002000000000000000000000000000ED5D000086
:100030003D30000000000000E95D0000F15D0000BF
:10004000D1280000052A0000312A00005D2A0000A6
:10005000892A0000B52A0000E12A00000D2B0000CB
:10006000392B0000652B0000FD2800002929000025
:100070005529000081290000AD290000D929000080
:10008000992E000065070000650700006507000065
:1000900065070000650700006507000065070000B0
:1000A0006507000065070000513100006D31000058
:1000B000893100006507000065070000453D00002C
:1000C000650700004D3D000065070000553D00003C
:1000D0006507000065070000650700006507000070
:1000E0006507000065070000650700006507000060
:1000F0006507000065070000650700006507000050
:10010000650700006507000065070000650700003F
:10011000650700006507000065070000650700002F
:10012000650700006507000065070000650700001F
:10013000650700006507000065070000650700000F
:1001400065070000650700006507000065070000FF
:1001500065070000650700006507000065070000EF
:1001600065070000650700006507000065070000DF
:1001700065070000650700006507000065070000CF
:1001800065070000650700006507000065070000BF
:1001900065070000650700006507000065070000AF
:1001A000650700006507000065070000650700009F
:1001B000650700006507000065070000650700008F
:1001C000650700006507000065070000650700007F
:1001D000650700006507000065070000650700006F
:1001E000650700006507000065070000650700005F
:1001F000650700006507000065070000650700004F
:10020000650700006507000065070000650700003E
:10021000650700006507000065070000650700002E
:10022000650700006507000065070000650700001E
:10023000650700006507000065070000650700000E
:1002400065070000650700006507000065070000FE
:1002500065070000650700006507000063070000F0
:10026000000000000000000000000000000000008E
:10027000000000000000000000000000000000007E
:10028000000000000000000000000000000000006E
:10029000000000000000000000000000000000005E
:1002A000000000000000000000000000000000004E
:1002B000000000000000000000000000000000003E
:1002C000000000000000000000000000000000002E
:1002D000000000000000000000000000000000001E
:1002E000000000000000000000000000000000000E
:1002F00000000000000000000000000000000000FE
:1003000000000000000000000000000000000000ED
:1003100000000000000000000000000000000000DD
:1003200000000000000000000000000000000000CD
:1003300000000000000000000000000000000000BD
:1003400000000000000000000000000000000000AD
:10035000000000000000000000000000000000009D
:10036000000000000000000000000000000000008D
:10037000000000000000000000000000000000007D
:10038000000000000000000000000000000000006D
:10039000000000000000000000000000000000005D
:1003A000000000000000000000000000000000004D
:1003B000000000000000000000000000000000003D
:1003C000000000000000000000000000000000002D
:1003D000000000000000000000000000000000001D
:1003E000000000000000000000000000000000000D
:1003F00000000000000000000000000000000000FD
:10040000FFFFFFFFFFFFFFFFFFFFFFFFFEFFFFFFFD
:1004100000000000000000000000000000FCAC062E
:10042000007E5603003FAB0100FCAC06007E560385
:10043000003FAB0100FCAC06007E5603003FAB0161
:1004400000000000000000000000000000000000AC
:10045000000000000000000000FCAC06007E560317
:10046000003FAB01000000000000000000000000A1
:1004700000B4C404006CDC02B0F3960100B4C40400
:10048000006CDC02B0F3960100B4C404006CDC0222
:10049000B0F3960100000000000000000000000022
:1004A00000000000000000000000000000B4C404D0
:1004B000005A6202B0F39601000000000000000044
:1004C0000000000000093D0000093D0040420F000F
:1004D00000093D0000093D0040420F0000093D00B9
:1004E00000093D0040420F00000000000000000035
:1004F00000000000000000000000000000000000FC
:1005000000093D0000093D0040420F0029010000A4
:10051000002A010000002B010000002C0100000057
:100520002D010000002E010000002F01000000300E
:100530000100000031010000003201000000340120
:100540000000003501000000360100000037010006
:10055000000038010000003A010000003C010200E8
:10056000003D010200003E010200003F01020000C8
:10057000430102000044010200004601020000475E
:1005800001020000480102000049010200004A0186
:100590000200004B010200004C010200004D01026C
:1005A00000004E0102000040010200004101020073
:1005B00000000000E0000000E4000000E80000008F
:1005C00098000000B8010000BC010000E00000003D
:1005D000EC0000009C000000680100009801000091
:1005E000DC000000B0000000B4000000B800000013
:1005F00000010000A8010000AC010000B0010000F3
:1006000000000100020003000400050006000700CE
:10061000080009000A000B000C000D000E000F007E
:100620009404FF1FA004FF1FAC04FF1FB804FF1FAA
:1006300004000020100000201C00002028000020E2
:100640000000000000A0064000B0064000C00640C8
:100650004C4D4E001F002100230000000000000050
:10066000000000000000000000000000000000008A
:100670000000000000000000000000414141414135
:1006800000000020202020202020202020004040AA
:1006900040404000800048484848484800303030DA
:1006A000303030303036303030000000DFF80CD0E1
:1006B00000F08CF8004800479D5E000000F000202C
:1006C0006002000000000000000000000000FF1FAA
:1006D000600200009406FF1F9406FF1F9406FF1F90
:1006E0003462000034620000140100200000002089
:1006F0000004FF1F9406FF1F0004FF1F3462000068
:10070000A05F000000000020000000200000FF1F8C
:1007100000EC002072B61448006814490968A1EB87
:100720000001A1F10101012907DD4FF0000240F8AD
:10073000042BA1F104010429F9DA00BF0C490D4A88
:100740000A600D4880470D48804762B60C48004754
:10075000FEE7FEE7FEE7FEE7FEE7FEE7FEE7FEE771
:10076000FEE7FEE7FEE700000C07000010070000B0
:1007700008ED00E000000000F55D0000415E0000B3
:10078000AD06000040EA01039B0703D009E008C959
:10079000121F08C0042AFAD203E011F8013B00F846
:1007A000013B521EF9D27047D2B201E000F8012B92
:1007B000491EFBD270470022F6E710B513460A46E1
:1007C00004461946FFF7F0FF204610BD1CB5094846
:1007D0000090094801900546009C06E0E06840F062
:1007E000010394E8070098471034AC42F6D3FFF7B2
:1007F00061FF0000805F0000A05F000070B58C18F2
:1008000010F8015B15F0070301D110F8013B2A1124
:1008100006D110F8012B03E010F8016B01F8016B11
:100820005B1EF9D12B0705D40023521E0DD401F80D
:10083000013BFAE710F8013BCB1A921C03E013F8D6
:10084000015B01F8015B521EF9D5A142D8D300200B
:1008500070BD0000FEE7000010B582B0844649B9C3
:100860000120ADF805008DF802004FF48070694654
:10087000ADF8000044F20033C4F2060318685FEAE2
:10088000801E0ED4186820F4000018600020186044
:100890001A6842F080621A60BEF1000F05D502B0FE
:1008A00010BD0220BEF1000FF9D4BCF1000FF6D04C
:1008B0004A7891F802C0D3F804E040F207742EEAB7
:1008C00004045C605C686CF30A2222435A609A68F4
:1008D00022F003029A604A7991F806C01C684FF62C
:1008E000F671CFF67F7121400124002A08BF092448
:1008F000BCF1000F18BF04F5000421441960642105
:100900001A68D20148BF9C68002AA1F1010202D4F2
:1009100001291146F4D1002A08BF032002B010BDFE
:1009200010B582B0844679B94FF48070ADF80500F7
:1009300000208DF8070001208DF8030040F201101F
:100940000DF10101ADF8010044F20023C4F20603E9
:100950001868820109D4186820F40000186000208B
:100960001860002A04D502B010BD0220002AFAD473
:10097000BCF1000FF7D04A7891F802C0D3F804E038
:1009800040F207742EEA04045C605C686CF30A228F
:1009900022435A600A789C6862F300049C600A79DA
:1009A00091F805E091F806C019684FF6F874CFF693
:1009B0007F7421400324002A08BF0124BEF1000FE8
:1009C00018BF0434BCF1000F18BF04F50004214423
:1009D00064224FF0010C19601968C90146BF99687B
:1009E0002CEA010101210029A2F1010102D0012A12
:1009F0000A46F1D1002908BF032002B010BD000053
:100A0000B0B584B0844689B940F20010C0F200202D
:100A1000019000208DF80C0040F20110ADF80800A4
:100A200041F20020C0F27A006946009044F2001EB4
:100A3000C4F2060EDEF80000820117D4DEF80000D2
:100A400020F40000CEF800000020CEF80000DEF810
:100A5000003043F08063CEF8003040F27803C2F2F9
:100A600000031860002A04D504B0B0BD0220002A9B
:100A7000FAD4BCF1000FF7D00A7A91F809C0DEF879
:100A8000043040F20774A343CEF80430DEF804309B
:100A90006CF30A221A43CEF80420CC7991F805C0F1
:100AA0008B79DEF80820302505EA041422F03C0298
:100AB00063F3C3040CF00103224442EA8302CEF83C
:100AC00008200A79022A23D0012A0FD0B2BB0A7B60
:100AD000DEF800304FF6FE75CFF67C752B40012511
:100AE000C0F28005002A08BF012523E00A7BDEF85A
:100AF00000304FF6FE75CFF67C752B400125C0F215
:100B0000800505F58035002A08BF4FF0011511E07A
:100B10000A7BDEF800304FF6FE75CFF67C752B4071
:100B20000125C0F2800505F54035002A04BF0125E6
:100B3000C0F20305EA18CEF8002000E001200A68A0
:100B400040F27801C2F200010A6041F67801B2FA7F
:100B500082F2CFF6CF715209012300BFDEF80050B8
:100B6000013105F0807583EA15651543012D01D12A
:100B70000029F3D1002908BF032004B0B0BD000054
:100B800070B583B0844661B94FF4E020CDF803001E
:100B900000208DF80A0040F201100DF10301ADF8BC
:100BA000070044F20063C4F20603186882010DD402
:100BB000186820F400001860002018601C6844F0D9
:100BC00080641C60002A04D503B070BD0220002A96
:100BD000FAD4BCF1000FF7D04FF6003C44F2046E9B
:100BE000CFF6FF7CC4F2060E53F80C200A794C793C
:100BF000DEF8005040F20776B543CEF80050DEF83C
:100C0000005064F30A222A43CEF800208C784A78F8
:100C1000DEF804504FF6FF0604F01F04CFF6E0762E
:100C2000240402F00702354044EA02222A44CEF8A6
:100C300004200A78022A23D0012A10D0A2BBC97945
:100C40001A684FF6FE74CFF67C7422400124C0F27D
:100C5000030404F5FA04002908BF012421E0C9793E
:100C60001A684FF6FE74CFF67C7422400124C0F25D
:100C7000030404F5FC04002908BF4FF0011410E040
:100C8000C9791A684FF6FE74CFF67C7422400124AD
:100C9000C0F2030404F50004002904BF0124C0F2DB
:100CA0000304A118196000E0012040F27801C2F2AB
:100CB000000109684FF47A721C68E40102D4002430
:100CC00015E000BF53F80C40E4014FF000040ED5CE
:100CD00069B1DEF80440DEF80450C4F302240134A4
:100CE000B1FBF4F4C5F3044510356C436408002CE3
:100CF000A2F1010402D1012A2246DDD1002C08BF55
:100D0000032003B070BD00002DE9F04391F800C04E
:100D100091F8019091F802E0C9780EF101034F1E9D
:100D200009F101040CF10105052F4FF0000659D817
:100D3000DFE807F003201158582A44F20012C4F2E9
:100D4000060240F278061268C2F200063668D20146
:100D500006EAE27646E044F20016C4F20606D6F849
:100D60000022D2010ED5D6F8082246F60046C0F27F
:100D7000DC2637E044F20016C4F20606D6F800215D
:100D8000D20125D400262DE044F20868C4F20608FA
:100D900058F8082CD20125D544F20012C4F20602FC
:100DA0001268D2011ED540F27802C2F20002176822
:100DB000C7B1D8F80020D8F80060C2F3022201328F
:100DC000B7FBF2F2C6F3044610367243560809E048
:100DD000D6F8082141F2002602F001025242C0F288
:100DE0007A06164004FB03F705FB03F401284FEADB
:100DF000161563D0032831D0022877D140F2B846C7
:100E000001EB4100C0F2000656F8202012095A43B7
:100E100095426BD806EB8000426812097A439542EE
:100E200064D880680009604385425FD801F00F00F4
:100E30004FEA0911F02341EA0E41C0F20F030CF012
:100E40000F021940114441EA006044F20011C4F25B
:100E5000060141F8E80C0020BDE8F08340F210469E
:100E600001EB4100C0F2000656F8202012095A4357
:100E700095423BD806EB8000426812097A439542BE
:100E800034D880680009604385422FD801F00F00F4
:100E90004FEA0911F02341EA0E41C0F20F030CF0B2
:100EA0000F021940114441EA006044F20011C4F2FB
:100EB000060141F8E40C0020BDE8F08340F26446EE
:100EC00001EB4100C0F2000656F8202012095A43F7
:100ED00095420BD806EB8000426812097A4395428E
:100EE00004D8806800096043854202D90120BDE82A
:100EF000F08301F00F004FEA0911F02341EA0E419F
:100F0000C0F20F030CF00F021940114441EA0060D7
:100F100044F20011C4F2060141F8EC0C0020BDE8D7
:100F2000F08300003C38052809D8DFE800F02630BF
:100F300009140303002908BF7047002008607047A8
:100F400048F20C00C4F204000068C0F301700328EA
:100F500009D100200DE048F20C00C4F20400006842
:100F6000800F0328F5D040F20812C2F2000252F8B6
:100F70002000002918BF0860704748F20C00C4F236
:100F800004000068C0F301600328ECD1E1E748F2F7
:100F90000C00C4F204000068C0F381600328D8D0BC
:100FA000E1E7000048F21000C4F20400016811F00B
:100FB0000C0F04BF4FF4FA307047016801F00C01C8
:100FC000042904BF00207047016801F00C02016889
:100FD000082A05D188074FF4FA4101EAE07070470A
:100FE00001F00C010C2902D10168890701D400200D
:100FF0007047006800F00100404200F47A707047CA
:101000002DE9F04182B00646002745F200104B2E34
:1010100001970D46C4F2060004BF0168C1F3C00782
:101020004B2E06BF006800F007040024A74200F220
:10103000B88045F20008C4F206084046314604F084
:10104000F7FC002800F0AD804046314604F078FD02
:10105000012817D14FF20010CFF6FF7040F278014F
:1010600058F80000C2F200010968C00101EAE0700E
:101070004FF20411CFF6FF7158F80110002D18BF80
:10108000090A7FE04046314604F05AFD02280AD1A1
:101090004FF20020CFF6FF7058F8000005B3C001F2
:1010A00022D400202EE04046314604F049FD0328BA
:1010B0000AD14FF20030CFF6FF7058F8000055B358
:1010C000C0013DD4002045E04046314604F038FDE3
:1010D00006281AD10720294600F0C0F9019059E0EE
:1010E000C0011CD4002028E04FF20820CFF6FF708A
:1010F00058F8000041F2002100F001004042C0F227
:101100007A0108404FF2042126E001A93046FFF79A
:1011100009FF00243EE0C00124D400202CE04FF25F
:101120000820CFF6FF7058F8000041F2002100F0CF
:1011300001004042C0F27A0108404FF204211DE054
:101140004FF20830CFF6FF7058F8000046F6004026
:10115000C0F2DC204FF20431CFF6FF7158F80110D5
:10116000090A0FE04FF20830CFF6FF7058F8000080
:1011700046F60040C0F2DC204FF20431CFF6FF719A
:1011800058F8011011F00701A1F1010218BF20FA6F
:1011900002F101910198611CB0FBF1F0791C484308
:1011A0000190019802B0BDE8F081000044F22001F6
:1011B000C4F20601086810F0706F10D0086800F0E3
:1011C0007060B0F1807F0DD1D1F8E00040F278017D
:1011D000C2F200010968C00101EAE0707047022014
:1011E00000F028BA086800F07060B0F1007F0ED1FE
:1011F000D1F8E001C00125D5D1F8E80141F2002184
:1012000000F001004042C0F27A01084070470868CF
:1012100000F07060B0F1407F0AD1D1F8E002C00167
:1012200010D5D1F8E80246F60040C0F2DC20704745
:10123000086800F07060B0F1C06F21D1D1F8E0050E
:10124000C00101D400207047D1F8E000C0014FF088
:10125000000015D540F27802C2F200021268002A9E
:1012600008BF7047D1F8E805D1F8E815C0F30220AF
:101270000130B2FBF0F0C1F30441103148434008A3
:101280007047000010B548F20404C4F2040420685A
:1012900000055CBF002010BD206810F0F00F13D0D7
:1012A000206800F0F000202811D144F20010C4F2B0
:1012B000060040F278020168C2F200021268C90119
:1012C000406802EAE1712EE0FFF770FF32E020682B
:1012D00000F0F000402809D144F20010C4F20600EA
:1012E000D0F80011C90112D400211AE0206800F0E2
:1012F000F000602825D144F20010C4F20600D0F8B6
:101300000012C90126D4D0F8040200210BE0D0F865
:10131000081141F2002201F001014942C0F27A02B3
:101320001140D0F80401C0F30220421E002818BF6B
:1013300021FA02F02168C1F302210131B0FBF1F082
:1013400010BD206800F0F00070280CD1002000F0E3
:1013500071F9EFE7D0F8081246F60041D0F8040220
:10136000C0F2DC21DFE7206800F0F000802804D123
:101370000720012100F072F8DCE7206800F0F0009F
:10138000902803D1012000F055F9D3E7206800F040
:10139000F000A02802D14FF4FA30CBE7206800F02B
:1013A000F000C02802D1FFF7FDFDC3E7206800F080
:1013B000F000E02814BF002000F002F8BAE70000B7
:1013C00048F21000C4F20400016811F0300F0BD095
:1013D000016801F030020168102A14D188074FF427
:1013E000FA4101EAE070704744F20010C4F20600CE
:1013F00040F278020168C2F200021268C901406836
:1014000002EAE17122E001F03001202905D140F229
:10141000D000C2F2000000687047006800F03000A1
:1014200030281CBF0020704744F20010C4F20600B0
:10143000D0F80012C90101D4002105E0D0F808124B
:1014400046F60041C0F2DC21D0F8040210F007009B
:10145000A0F1010218BF21FA02F070470438A1B1CF
:10146000032825D80FF20401DFE800F002422534FA
:1014700044F20010C4F20600D0F80011C90100F1D6
:101480008680D0F80401002196E0032810D80FF2DE
:101490000601DFE800F00258394A44F20010C4F2B5
:1014A0000600D0F80011C90100F1AA800021B1E0C6
:1014B0000021002082E044F20010C4F2060040F255
:1014C00078020168C2F200021268C901406802EAAB
:1014D000E17171E044F20011C4F20601D1F8000597
:1014E000C00144F20860C4F2060036D400214BE08B
:1014F00044F20010C4F20600D0F80012C90153D41F
:10150000D0F80402002157E044F20010C4F20600B3
:1015100040F278020168C2F2000212684068C90114
:1015200002EAE17100F0070048E044F20011C4F261
:101530000601D1F80005C00144F20860C4F20600BB
:1015400042D4002157E044F20010C4F20600D0F863
:101550000012C90163D4002167E00968C9014FF096
:10156000000111D540F27802C2F2000212685AB1AD
:1015700001680368C1F302210131B2FBF1F1C3F349
:10158000044210325143490850F8040C14E0D0F8DA
:10159000081141F2002201F001014942C0F27A0231
:1015A000D0F80401114007E0D0F8081246F60041D7
:1015B000D0F80402C0F2DC21C0F30220421E002851
:1015C00018BF21FA02F070470968C9014FF0000105
:1015D00011D540F27802C2F2000212685AB10168D5
:1015E0000368C1F302210131B2FBF1F1C3F30442FC
:1015F00010325143490850F8040C00F00700DDE7B1
:10160000D0F8081141F2002201F001014942C0F274
:101610007A021140D0F8040100F00700CEE7D0F8BC
:10162000081246F60041C0F2DC21D0F8040200F0B6
:101630000700C3E744F21002C4F20602116801F089
:101640007061B1F1807F0AD140F27803D2F8F010D6
:10165000C2F200031B68C90103EAE17130E01168BE
:1016600001F07061B1F1007F0ED1D2F8F011C90123
:1016700025D5D2F8F81141F2002301F001014942C9
:10168000C0F27A0319401BE0116801F07061B1F1FA
:10169000407F0AD1D2F8F012C90110D5D2F8F81261
:1016A00046F60041C0F2DC210AE0116801F07061E9
:1016B000B1F1C06F03D1D2F8F015C90115D40021E2
:1016C0001368C3F3034303F10103B1FBF3F150B11A
:1016D000012802D11068000900E0106800F00F0036
:1016E0000130B1FBF0F108467047D2F8F010C901A3
:1016F0004FF00001E4D540F27803C2F200031B680A
:10170000002BDDD0D2F8F815C1F3022101F1010C54
:10171000D2F8F815B3FBFCF3C1F30441103159437F
:101720004908CDE72DE9F04385B00D460446A9BB35
:10173000012144F200108DF80E104FF00111C4F297
:1017400006000491D0F80011C90103D5D0F80811A2
:10175000C9071ED1D0F80012C90116D4D0F800155F
:10176000C90144BF02685FEAC21240F27801C2F2C6
:10177000000100F19780026809680620002908BF6F
:101780005120D10158BF512004E0D0F808020520B3
:1017900000E004200DF10E058DF80F0040F25A60B4
:1017A000C0F20000005DC1070DD110F0180F20D06D
:1017B00068780438C0B203289ABF45A151F8208048
:1017C0004FF0000817E0A4F12101042967D8287818
:1017D000DFE801F00359414D350048F24001C4F201
:1017E00004010A6800280CBF22F0100042F010002B
:1017F00054E04FF000084B2C06BF6888A0F10109A7
:101800004FF000094B2C06BFA888461E002644F264
:101810000010C4F2060000F5706738462146002229
:1018200003F0B2FE2878D0B3384621460122434661
:10183000CDE9006903F032FF05B0BDE8F08348F25E
:101840004001C4F204010A6800280CBF22F0010024
:1018500042F0010022E048F24001C4F204010A68AB
:1018600000280CBF22F0040042F0040016E048F209
:101870004001C4F204010A6800280CBF22F00200F3
:1018800042F002000AE048F24001C4F204010A6892
:1018900000280CBF22F0080042F00800086005B0E4
:1018A000BDE8F0830A68002A3FF465AFD0F8083538
:1018B000D0F80875C3F302230133B2FBF3F2C7F388
:1018C000044310335A43012A7FF655AF072061E7DE
:1018D00002000000030000000100000006000000FC
:1018E0002DE9F04FD1B08246002876D140F20C515C
:1018F00027ACC0F200012046A522FEF743FF4FF4BB
:101900008071ADF82810ADF83310ADF81310032135
:101910008DF840100321C0F2012141F20020CDF8E2
:10192000461040F20311C0F27A00C0F20061079045
:101930000120CDF84A1040F20111C0F2021040F629
:101940000042C0F20031CDF821000120C0F20012A7
:10195000CDF8421021210DF10C0A00258DF825004B
:10196000CDF82D208DF831004FF0011240F2011614
:101970008DF80E008DF81A00ADF818008DF81500DE
:101980008DF83C008DF841008DF84F002491ADF8A2
:10199000540014908DF88F008DF85C000AF154000B
:1019A00024218DF820508DF82C50CDF80F20ADF863
:1019B0000C600E952594ADF857608DF85650FEF7E3
:1019C000FAFE4FF00130CDE92100ADF88C508DF8D2
:1019D0008E50ADF898608DF89A5040F2D00644F2DF
:1019E0000038C2F200064FF000094FF6105BC4F257
:1019F0000608C6F80090CFF6FF7B58F80B0000F001
:101A00007060B0F1407F4BD0D8F80000C00108D41E
:101A100001200021FEF720FF8146B9F1000F3FD1E0
:101A200004E0D8F80800B9F1000F39D140F20311F1
:101A30004EF21400C0F20031C4F207002791016891
:101A4000C9B2802905D10320042812D14FF0010921
:101A500026E00168C9B2012903D101200428F5D08C
:101A600007E00068C1B20420042908BF022004284E
:101A7000ECD027A9FFF748F9814688B90B2000BFB1
:101A800058F80B1001F07061B1F1407FA0F1010135
:101A900002D001280846F3D1002908BF4FF00309FE
:101AA000B9F1000F48D19AF81D000AF11001FEF7B4
:101AB000A7FF814668B99AF803005146FEF730FF48
:101AC000814630B99AF828000AF12001FFF758F84A
:101AD00081464EF21405C4F207052868C0B280287A
:101AE00007D02868C0B2012802D10AF136041FE0ED
:101AF00028682868C0B280280AD02868C0B20128A7
:101B000006D02868C0B2042802D10AF13A040FE0D6
:101B10002868C0B2802806D029684FF00109C9B2F0
:101B2000012918BF29680024802808BF0AF13E0453
:101B3000B9F1000F00F06681B9F1000F2DD19AF8CC
:101B4000430060B10AF136010120FFF7DDF881465C
:101B5000002800F06A81B9F1000F00F070819AF856
:101B6000300000281CBFDAF82C0030609AF83500ED
:101B700098B14FF62051CFF6FF719AF8340058F81B
:101B8000012000F00F0022F0706248F8012058F8A0
:101B9000012042EA006048F80100B9F1000F03D0CB
:101BA000484651B0BDE8F08F9AF84400002848F24A
:101BB0006800C4F204001BD09AF845109AF8462039
:101BC0009AF8473050F8647C002962F3071740F810
:101BD000647C50F8642C63F30A2240F8642C50F8BB
:101BE000642C22F4006218BF02F5006240F8642CF5
:101BF0009AF87810A1B39AF8791050F8282C22F0AE
:101C00000102114340F8281C9AF87A1050F8282C49
:101C1000002922F0020218BF023240F8282C9AF85C
:101C20007B1050F8282C002922F0040218BF04323F
:101C300040F8282C9AF87C1050F8282C002922F023
:101C4000080218BF083240F8282C9AF87D1050F886
:101C5000282C002922F0100218BF103240F8282C3E
:101C60009AF84810D1B19AF84A209AF849109AF88F
:101C70004B309AF84C7050F8586C02F0030226F082
:101C80003F06002B18BF47F0020747EA820201F027
:101C90000301324342EA011140F8581C9AF87E10C1
:101CA00089B3002101609AF8801050F8642C61F328
:101CB0000C3240F8642C016821F080510160016809
:101CC00021F00E010160016821F00101016001684D
:101CD00021F0805101609AF87F10A1B19AF881102B
:101CE0009AF88220036823F080530360036861F34D
:101CF00043030360016821F00101114301600168A1
:101D000041F0805101609AF85010002936D040F21D
:101D100008130AF154010022C2F2000351F82270A4
:101D200043F822700132032AF8D10AF1600100223F
:101D300004E040F85C3C0132062A1FD0D3B2032BEA
:101D4000F9D851F82270DFE803F00814030D00BF42
:101D500050F85C3C67F31D73EBE750F85C3C67F3AD
:101D60001963E6E750F85C3C23F0404343EA87738D
:101D7000DFE750F85C3C67F39B63DAE79AF88C0086
:101D8000B8B14DF20201C4F207019AF88E008A78C8
:101D900000F01F0002F0E002104488709AF88D00F5
:101DA0000A78B0FA80F0400902F07F0242EAC010DF
:101DB0000870DAF8880000283FF4F2AEDAF8840000
:101DC00000283FF4EDAE002708F55066DAF88800E9
:101DD00007EB8705415D3046002203F0D5FBDAF8BA
:101DE00088004419415D6278A378E578247930460B
:101DF000CDE9004503F052FCDAF884000137874250
:101E0000E4D3CDE6E778032F20D19AF81D0000280F
:101E100000F0C48040F20110C0F200102790286842
:101E2000C0B2802826D10320B6E00AF13E0103208B
:101E3000FEF76AFF8146B9F1000F7FF490AE0AF118
:101E40003A010220FEF760FF814688E68DF89F7018
:101E5000A07821888DF89E00ADF89C102868C0B24B
:101E6000802801D1032012E02868C0B2012808D1DF
:101E700001200CE02868C0B2012840F087800120D2
:101E80008AE02868C1B20420042908BF022004287F
:101E900002D14FF0010914E027A9FEF735FF814672
:101EA00078B90B2058F80B10C1F30361B942A0F1C7
:101EB000010102D001280846F4D1002908BF4FF0E3
:101EC0000309B9F1000F7FF437AE9AF80E10D8F875
:101ED0000000820110D4D8F800204FF0000922F44D
:101EE0000002C8F80020C8F80090D8F8002042F09E
:101EF0008062C8F8002001E04FF0020900293FF499
:101F00001BAE10F000707FF417AE9AF808009AF834
:101F10000910D8F8042040F207739A43C8F8042047
:101F2000D8F8042061F30A201043C8F80400D8F858
:101F300008004FF6F67320F00300C8F808009AF87E
:101F40000C009AF80D10D8F80020CFF67F731A40D5
:101F50000123002808BF0923002918BF03F5000347
:101F60009818C8F800006420D8F80010C90148BFCC
:101F7000D8F808200029A0F1010102D40128084660
:101F8000F2D1002908BF4FF00309D5E52868C1B296
:101F90000420042908BF0220042802D14FF00109BF
:101FA00016E027A9FEF7B0FE814688B90B2000BFD6
:101FB00058F80B1001F07061B1F1807FA0F10101C0
:101FC00002D001280846F3D1002908BF4FF00309C9
:101FD0009AF82800A0B3B9F1010F31D140F20110F5
:101FE000C0F2026027902868C0B2802801D1032087
:101FF0000BE02868C0B2012801D1012005E0286863
:10200000C1B20420042908BF0220042802D14FF0E5
:10201000010915E027A9FEF777FE814680B90B205C
:1020200058F80B1001F07061B1F1C06FA0F101011F
:1020300002D001280846F3D1002908BF4FF0030958
:102040009AF80300A0B3B9F1010F31D10120C0F219
:10205000002027902868C0B2802801D103200BE01F
:102060002868C0B2012801D1012005E02868C1B26A
:102070000420042908BF0220042802D14FF00109DE
:1020800016E027A9FEF740FE814688B90B2000BF65
:1020900058F80B1001F07061B1F1007FA0F101015F
:1020A00002D001280846F3D1002908BF4FF00309E8
:1020B000B9F1000F7FF440AD9AF80E10D8F8000087
:1020C000820110D4D8F800204FF0000922F4000259
:1020D000C8F80020C8F80090D8F8002042F08062CC
:1020E000C8F8002001E04FF00209002943D010F0A9
:1020F000007040D19AF808009AF80910D8F8042026
:1021000040F207739A43C8F80420D8F8042061F31A
:102110000A201043C8F80400D8F808004FF6F673F8
:1021200020F00300C8F808009AF80C009AF80D1087
:10213000D8F80020CFF67F731A400123002808BF8B
:102140000923002918BF03F500039818C8F80000F8
:10215000642000BFD8F80010C90148BFD8F8082093
:102160000029A0F1010102D401280846F2D100297A
:1021700008BF4FF00309B9F1000F7FF4DDACE77839
:10218000A07821888DF89F708DF89E00ADF89C1086
:102190002868C0B2802801D103200BE02868C0B2B3
:1021A000012801D1012005E02868C1B204200429DA
:1021B00008BF0220042802D14FF00109BCE427A97E
:1021C000FEF7A2FD814600287FF4B6AC0B2058F83C
:1021D0000B10C1F30361B942A0F101013FF4D1AE8C
:1021E00001280846F3D1CCE670B511280C4618D862
:1021F000112800F26281DFE810F012002301E700ED
:10220000F800C40039015201FB006E01E4006301D3
:10221000B900D7004501AA00E90099002801002073
:102220000FE1252823D8A0F115020425102A4FF02C
:10223000000100F2D982DFE812F01100C1018B0128
:102240000B02D702D7021F029401CA01E90135022D
:1022500026027701AF0181016D01000248F21001F1
:10226000C4F2040151F8041CC1F30161F7E14F28E5
:1022700084BF042070BD45F20002C4F2060201468C
:1022800010460D4603F0D4FB002820D0A5F126030C
:102290002946292B18D804200022DFE803F01C155A
:1022A00015151515151515151515151C15151515D7
:1022B000151C151C1515151515151C1515151515B9
:1022C000151515151515151C0020012203E04FF4F6
:1022D000807000222946002A00F06E8140F25A6088
:1022E000C0F20000465C700606D4B00606D43A2957
:1022F00040F05C81022002E0002000E00120FFF7B6
:1023000099F90146B0FA80F040090A460002002916
:1023100018BF0122002A00F04F8116F0180F00F0BC
:102320004582F10600F1DD800021E1E044F2001178
:10233000C4F20601D1F80005C00144F20860C4F2FD
:10234000060000F1C38150F8040C002226E244F29A
:102350000010C4F2060040F278020168C2F20002E6
:102360001268C901406802EAE17217E244F2001003
:10237000C4F20600D0F80011C90100F1C0810022AA
:10238000C7E144F20010C4F20600D0F80011C90100
:1023900075D5D0F8080141F2002100F0010040425B
:1023A000C0F27A01014000E244F20010C4F20600DB
:1023B000D0F80012C90100F1AF81D0F80402002268
:1023C000ECE1FEF7F3FE3EE002203AE044F20010BA
:1023D000C4F2060040F278020168C2F200021268FC
:1023E000C901406802EAE172C7E1FEF74BFF2AE04B
:1023F00044F20010C4F20600D0F80015C9013ED521
:102400000068C0014FF0000040F1D68040F2780132
:10241000C2F200010A680021002A00F0C78144F2DC
:102420000860C4F2060001680068C1F302210131AE
:10243000B2FBF1F1C0F30440103048434108B4E16D
:102440000120FFF7F7F80146AFE144F20011C4F2B2
:102450000601D1F80005C00144F20860C4F206008C
:1024600000F1638150F8040C002286E144F2001070
:10247000C4F20600D0F80012C90100F16F810020FB
:10248000002193E144F20010C4F20600D0F80012DB
:10249000C90100F16A81D0F8040200226DE144F222
:1024A0000010C4F2060040F278010068C2F2000198
:1024B0000968C00101EAE07177E10021042075E1BB
:1024C00044F20010C4F20600D0F80011C90100F176
:1024D0005981002260E140F2D000C2F200000168A0
:1024E00063E1064628460121FEF78AFD0146304693
:1024F000A5F142032A4613F1060F06D305461046FE
:102500000021FEF77DFD01462846002908BF4FF453
:1025100080704BE148F21001C4F20401096B4FF4E2
:10252000807222EAC11591E048F21001C4F2040160
:10253000096B4FF4807222EA011587E048F210011E
:10254000C4F20401096B4FF4807222EA81157DE028
:1025500048F21001C4F2040151F8041CC1F30171E6
:102560007DE048F21001C4F204010A6812F0300F55
:1025700000F020810A6802F030030A68102B43D073
:1025800002F03002202A40F0448140F2D001C2F231
:1025900000010968002527E148F21001C4F2040196
:1025A000096B4FF4807222EA41154FE000220420AB
:1025B0000021002A7FF4B1AE0021F7E048F21001BB
:1025C000C4F2040151F8041CC1F3816147E04DF2EB
:1025D0000201C4F2070191F90010002941D448F228
:1025E0001001C4F204010A6812F00C0F00F0F98027
:1025F0000A6802F00C02042A33D00A6802F00C03C5
:102600000A68082B40F01581910759E04DF202014C
:10261000C4F2070191F90010002922D448F21001F8
:10262000C4F204010A6892071BD50968002501F06D
:102630000101494201F47A71D6E048F21001C4F276
:102640000401096B4FF4807222EA01250021CBE0DE
:1026500048F21001C4F2040151F8041C890F032947
:1026600002D100210025BFE040F20812C2F20002B0
:1026700052F821100025B7E000250646FEF702FEBD
:1026800001463046B0E04DF20201C4F2070191F973
:1026900000100025B1F1FF3F4FF00001C8BF4FF41B
:1026A000FA31A1E04DF20201C4F2070191F90010E4
:1026B0000029D6D448F21001C4F204010968890740
:1026C0004FF4FA4202EAE17100258DE00968002228
:1026D000C90111D540F27801C2F20001096859B16F
:1026E00002680368C2F302220132B1FBF2F1C3F3C4
:1026F0000442103251434A0850F8040C4EE0D0F81E
:10270000081141F2002201F001014942C0F27A02AF
:102710000A40D0F8040130E0D0F8081246F6004232
:10272000D0F80402C0F2DC2238E009680022C901B6
:1027300011D540F27801C2F20001096859B102686E
:102740000368C2F302220132B1FBF2F1C3F3044287
:10275000103251434A0850F8040C0EE046F600418E
:10276000D0F80802C0F2DC211FE0D0F8081246F6CB
:102770000042D0F80402C0F2DC22C0F30221481E5D
:1027800000290FE0D0F8081141F2002201F0010108
:102790004942C0F27A020A40D0F8040110F0070161
:1027A000A1F1010018BF22FA00F10020002C18BF8F
:1027B000216070BD44F20011C4F2060140F27803BA
:1027C0000A68C2F200031B68D201496803EAE27298
:1027D00011F00701A1F1010318BF22FA03F100254E
:1027E00002E000254FF4FA312138C0B2042804D8A1
:1027F0001DB90120FEF71EFF0146002C284618BF18
:102800002160042D18BF4FF48070002918BF28469E
:1028100070BD096801F0300130297FF422AF44F225
:102820000011C4F20601D1F80022D20107D400221F
:102830000BE002F00C020C2A3FF4F4AE11E7D1F8E1
:10284000082246F60042C0F2DC22D1F80412BFE7AB
:1028500010B586B040F20141C0F20101049100219F
:102860000120CDE902114FF4E131ADF81400CDE9BA
:1028700000012F200021FEF755FF04A94D20FEF78F
:1028800051FF4BF20004C4F2040420460721022247
:1028900003F08EFA20460621022203F089FA204630
:1028A0000721002203F092FA20460621002203F0BD
:1028B0008DFA40F28C01C2F200016A46012001F05B
:1028C000ADFB04F5003001F06FFB06B010BD000059
:1028D00040F27400C2F2000000680022016848F271
:1028E0001C00C4F200000029C270027008BF7047CB
:1028F0008A6812B1486849781047704740F27400FE
:10290000C2F2000000680A22816A48F21C00C4F288
:1029100000000029C270027008BF70478A6812B1B7
:10292000486849781047704740F27400C2F20000CE
:1029300000680B22C16A48F21C00C4F200000029A2
:10294000C270027008BF70478A6812B1486849783F
:102950001047704740F27400C2F2000000680C2279
:10296000016B48F21C00C4F200000029C270027022
:1029700008BF70478A6812B14868497810477047A5
:1029800040F27400C2F2000000680D22416B48F270
:102990001C00C4F200000029C270027008BF70471A
:1029A0008A6812B1486849781047704740F274004D
:1029B000C2F2000000680E22816B48F21C00C4F2D3
:1029C00000000029C270027008BF70478A6812B107
:1029D000486849781047704740F27400C2F200001E
:1029E00000680F22C16B48F21C00C4F200000029ED
:1029F000C270027008BF70478A6812B1486849788F
:102A00001047704740F27400C2F2000000680122D3
:102A1000416848F21C00C4F200000029C270027034
:102A200008BF70478A6812B14868497810477047F4
:102A300040F27400C2F2000000680222816848F28D
:102A40001C00C4F200000029C270027008BF704769
:102A50008A6812B1486849781047704740F274009C
:102A6000C2F2000000680322C16848F21C00C4F2F0
:102A700000000029C270027008BF70478A6812B156
:102A8000486849781047704740F27400C2F200006D
:102A900000680422016948F21C00C4F20000002909
:102AA000C270027008BF70478A6812B148684978DE
:102AB0001047704740F27400C2F20000006805221F
:102AC000416948F21C00C4F200000029C270027083
:102AD00008BF70478A6812B1486849781047704744
:102AE00040F27400C2F2000000680622816948F2D8
:102AF0001C00C4F200000029C270027008BF7047B9
:102B00008A6812B1486849781047704740F27400EB
:102B1000C2F2000000680722C16948F21C00C4F23A
:102B200000000029C270027008BF70478A6812B1A5
:102B3000486849781047704740F27400C2F20000BC
:102B400000680822016A48F21C00C4F20000002953
:102B5000C270027008BF70478A6812B1486849782D
:102B60001047704740F27400C2F20000006809226A
:102B7000416A48F21C00C4F200000029C2700270D1
:102B800008BF70478A6812B1486849781047704793
:102B90002DE9F04100220B7882604260026048F229
:102BA000000C0C78C4F2000C44EA0C044FF4C83654
:102BB00091F801E091F80380A75D0EF03F0507F062
:102BC0007F07A755A75D03F00F0E07F0C0072F443E
:102BD000A755A75D07F0BF0747EA8817A755A55D6A
:102BE00045F08005A5554CEA4E1441F208056251A6
:102BF0004FF48055625141F20405625341F20605DB
:102C0000625341F20C05625141F21005625141F2EA
:102C10001405625341F21605625341F218056251E0
:102C200041F21C05625341F21E05625340F27404E6
:102C3000C2F20004256845F8230055F8230003700C
:102C400055F8230042708CF819E0DCF800004007CA
:102C500010D48878FF280DD08EF00302624492F8D9
:102C6000003103F0F00382F8003192F8003118438C
:102C700082F8000108782268D1E9011352F8207027
:102C80007B6052F8202000209160BDE8F0810000B8
:102C900010B582B0DDE904CE0446CDE900CE00F0E7
:102CA00033F808B102B010BD49F2000304F00F027E
:102CB000C4F2000343EA4212B2F91E30DDF818C034
:102CC000D48B40F2FF11B3F1FF3F4FF60063C8BF52
:102CD00047F6FF71CFF6FF73C4BF48F20003CFF68B
:102CE000FF7301EA0C011C400C43D483D48A2340B7
:102CF0001943D182918B079B21F0080163F3C30133
:102D0000918302B010BD00002DE9F04FDDE909BA52
:102D1000012707FA0BF74FF0FF3656FA87F616EA47
:102D20000A0C40F0B08049F20009C4F2000900F03A
:102D30000F0649EA461E740100254FF20008CEF83E
:102D4000085049F80450AEF80450AEF80650CEF8DA
:102D50000C50CEF81050AEF81450AEF81650CEF815
:102D60001850AEF81C50AEF81E50CFF6FF7859F848
:102D70000850032945F0800549F80850CEF8103076
:102D800049F80420BEF806200BF007036FF3DF229A
:102D9000AEF80620BEF8062022F4E06242EA0322E2
:102DA000AEF80620BEF8062022F0F802AEF80620A3
:102DB000BEF806206BF30202AEF806201AD8DFE850
:102DC00001F00211080C09EB461100228A8079B249
:102DD0000DE079B209EB461202E009EB4612002140
:102DE000918004E079B209EB46129180002109EB51
:102DF0004612918259F8082009EB4611120601F19A
:102E0000080217D51368002B5CBF13685FEA430301
:102E100006D54FF60043CFF6FF7340F2FF3503E0CF
:102E20004FF040436FF04045146805EA0A0523401F
:102E300043EA050AC2F800A0BEF91E20BEF81E3003
:102E40004FF60064CFF6FF74B2F1FF3FC4BF48F203
:102E50000004CFF6FF7403EA04020132AEF81E202C
:102E6000BEF8162022400132AEF816208A8B42F0BE
:102E700002028A8340F27401C2F20001096851F82B
:102E8000200000214170BCF1000F18BF4FF0010C71
:102E90006046BDE8F08F00002DE9F04148F21A04C9
:102EA000C4F20004D4F8125040F274070026C2F2B3
:102EB00000074FF0010806E00136102E4FEA5505D5
:102EC00008BFBDE8F081E807F6D0386850F8261052
:102ED00026700029F0D06671A670267181F80180F5
:102EE0008A68002AE8D0486849789047E4E70000FB
:102EF0002DE9F04381B00E4640F27401C2F20001A8
:102F0000089F49F2100448F20005086040219846E5
:102F10009146C4F20004C4F20005FDF74CFC286899
:102F2000002120F002002860286820F004002860BA
:102F3000286820F040002860286820F08000286081
:102F4000286820F480302860286820F40030286049
:102F5000002000BF6B18621803F58053986042F898
:102F6000100C9880D880D86060502031B1F5007F77
:102F70009882D88298619883D883EBD17078296839
:102F8000002260F38201296030782968002821F04E
:102F9000100118BF1031296040F6FF711020C4F2F3
:102FA000020100BF013801F8012FFBD140F200609F
:102FB000C0F20000841E102534F9020F00F04CF816
:102FC000013DF9D1102000F047F8B9F1000F18BF0A
:102FD000B8F1000F0CD05FB1A8F10404A9F1040509
:102FE00055F8040F54F8041FFFF7D2FD013FF7D145
:102FF000002001B0BDE8F08340F27403C2F2000388
:103000001B6853F820C0CCF8042053F8202000207F
:103010009160704748F21B0200F00F01C4F20002F9
:10302000002011707047000048F21A0200F00F01F2
:10303000C4F20002002011707047000070470000C9
:10304000FEE7000040F27C0072B6C2F200000168A8
:103050000131016070470000411100F01F000122A2
:1030600002FA00F04EF20012CEF2000242F8210005
:103070007047000040F27C00C2F2000001680129A4
:1030800004DB0139016018BF704762B67047000069
:1030900080B540F2CC63C0F20003D3F800C040F228
:1030A0000003C0F200031B689C450DD140F2007381
:1030B000C0F20003D3F800E040F20C73C0F200034A
:1030C0001B689E4598BF80BD0CEB8000002A18BF8E
:1030D000C2F800C0016480BDF0B581B0302000218D
:1030E0000025FEF71FFB40F2886640F27C64C1F6C3
:1030F000FF76C1F6FF7400BF56F8250054F825107E
:10310000012202F055FE56F8250054F82510002241
:1031100002F05CFE0135032DEED140F27066002511
:10312000C1F6FF76012700BF54F8251056F8250098
:1031300007FA01F102F056FE56F8250054F8251062
:10314000012202F037FE0135032DEDD101B0F0BDB3
:1031500040F2C440C1F6FF700068406AC00702D167
:10316000002000F039BD002000F0A2B940F2C440B8
:10317000C1F6FF704068406AC00702D1012000F02C
:103180002BBD012000F094B940F2C440C1F6FF709D
:103190008068406AC00702D1022000F01DBD0220F5
:1031A00000F086B9B0B540F2800140F2C442C2F2EC
:1031B0000001C1F6FF7251F8201052F820C0487C7F
:1031C000DCF85C2002F00702821A16E01C78012568
:1031D0002B440B62CB8A13FA8EF3B3FBF0F505FB9D
:1031E0001030C882CCF86440488BA0EB0E004883B6
:1031F000488B002808BFB0BD013A100625D091F8D1
:103200002D0010B1488B012817D0C88DCB8AC31A66
:10321000042BDABFCB8AA0EB030E4FF0040E0B6A2F
:1032200033B10128D2D0022804D11C880225CFE76F
:103230000024D7E71C680425CAE7DCF8600020F406
:103240008010CCF8600000204883B0BD2DE9F04F1D
:1032500082B0CDE900034FF0FF304FF0000A4FF08D
:10326000020B4FF000094FF0000E00BF31A353F8DE
:103270002A804FF480740026A7194FEA570C5BFA96
:103280008CF303FB08F3B2FBF3F3C7F347078B425E
:103290002CBF3E463C46471A38BF0F1A5D1A38BF4E
:1032A000CD1AAF4288BF1846A31B012BE4D8B31C2C
:1032B00003FB08F3A71CB2FBF3F307FB08F7B2FB11
:1032C000F7FC5D1A38BFCD1ABCEB010738BFA1EB84
:1032D0000C07BD4284BF26466346471A38BF0F1A03
:1032E0005D1A38BFCD1AAF4222BFD646B146184646
:1032F000884204D00AF1010ABAF1080FB6D1009B46
:103300004FEA9902196C196C21F07F5141EA825100
:103310001964196C21F47F4141EA02211964196C86
:1033200069F3070119640199C1F800E002B0BDE832
:10333000F08F00BF01000000020000000400000048
:103340000800000010000000200000004000000005
:1033500080000000032800D3FEE7B0B540F2C4426D
:10336000C1F6FF7252F8204040F28002C2F2000221
:1033700052F82050012914D100F04CF8606940F453
:1033800080706061606940F400706061606940F461
:1033900080706061606940F4007060610120287392
:1033A000B0BD95F82D0018B1206E20F48010206675
:1033B000002028836883A06940F48060A061B0BDCC
:1033C000032800D3FEE7012918BF7047B0B540F2CB
:1033D0008001C2F2000151F8204040F2C441C1F620
:1033E000FF7151F8205000F015F8686940F48070C2
:1033F0006861686940F400706861686940F48070D1
:103400006861686940F40070686101202073BDE85C
:10341000B040704770B5032801D300BFFEE740F20B
:103420008003C2F2000340F2C44253F82040C1F6C8
:10343000FF72002652F8201084F82460A37B182520
:10344000002B08BF1C254B5923F001034B514B594E
:1034500023F002034B5152F82000826922F480527B
:103460008261826922F400628261426942F4805280
:103470004261426942F400624261886920F48060DE
:103480008861486940F48060486194F82C0028B154
:1034900004F10D0001F0FAFF84F82C60A368002B02
:1034A00008BF70BD626820460021BDE87040184723
:1034B0002DE9F041032800D3FEE740F2C442C1F6F3
:1034C000FF7240F2800152F82080C2F2000151F8F0
:1034D0002060D8F81410090525D5316A19B3FFF713
:1034E00099FFD8F8140040F48070C8F81400D8F898
:1034F000140040F40070C8F81400D8F8140040F428
:103500008070C8F81400D8F8140040F40070C8F8AF
:103510001400D8F8140040F40060C8F8140001202A
:103520003073BDE8F081D8F81410C90425D5F169CD
:1035300019B3FFF76FFFD8F8140040F48070C8F893
:103540001400D8F8140040F40070C8F81400D8F83B
:10355000140040F48070C8F81400D8F8140040F447
:103560000070C8F81400D8F8140040F48050C8F86F
:10357000140002203073BDE8F081D8F814108907D8
:1035800059D5318BC9B3D8F85C10C1F30241A9B940
:1035900051E000BFB28AF38D12FA8CF2B2FBF3F75E
:1035A00007FB1322B282328BA2EB0C023283328BE6
:1035B000002A1CBF01395FEA01623CD0D8F87420B0
:1035C000F38DB58A5D1B042DDABFB58AA3EB050C1C
:1035D0004FF0040C5FEA0C45DCD01FFA8CF5EC00D0
:1035E000002500BFF76922FA05F33B70F36908353F
:1035F0000133AC42F361F5D1CCE70446FFF70AFF93
:10360000D8F81410204641F48071C8F81410D8F886
:10361000141041F40071C8F81410D8F8141041F4D3
:103620008071C8F81410D8F8141041F40071C8F86B
:10363000141002213173D8F81410C90705D0718B0A
:1036400019B10446FFF7AEFD2046718B09B1BDE804
:10365000F081D8F8181041F48061C8F81810D8F833
:10366000181021F00101C8F81810318B0029EED193
:10367000D8F81410490558BFBDE8F081BDE8F04105
:10368000FFF7C8BE2DE9F04782B0032801D300BF81
:10369000FEE740F2C443C1F6FF7340F2800753F8DF
:1036A0002060C2F2000747F82010044630694FF04E
:1036B000000940F002003061C6F81090706A40F0D6
:1036C00001007062706A20F040707062706A20F0D1
:1036D00080607062706A20F0006070627068C5B2CD
:1036E000012000FA05F54D7453F8245057F8247062
:1036F0006B69DB0106D5B9F1000F40F0808002B0A4
:10370000BDE8F087286920F001002861B2F814C0F4
:1037100040F6F870ACF108039BB2834264D810699C
:103720008846917DB862D07A87F82D10A7F830C00E
:10373000B874907A87F82C90B8730CF1070080B2B7
:10374000C00887F82490032808BF0420411E4FF6C4
:10375000FC731940042888BF081DF885108992461B
:10376000A7F80F00D2E9000192F817C0C7E90101DC
:10377000117E6B6A4FF4807001F1080E884023EAD5
:1037800000000CFA0EF108436862D2F810C0D1694B
:1037900001AB28466246FFF759FD696A41F0020114
:1037A0006962296941F00101296110B39AF80D306D
:1037B0009AF80C2001989B0743EAC2729AF81830D5
:1037C0009AF80BC042EAC0609AF816103F8E40EAA1
:1037D000036040EACC5040EA4150791E0843286615
:1037E00000204FF0010905E00120B9F1000F86D05B
:1037F00005E001204146B9F1000F3FF480AF002001
:1038000041F80D0B0846002101F032FE40F2D04194
:10381000C1F6FF7131F9141004460846FFF71CFC8D
:10382000306940F001012046316102B0BDE8F08707
:103830002DE9F04F85B0032801D300BFFEE740F229
:10384000C44740F28006C1F6FF77C2F2000657F87F
:10385000207056F8206001257C69E4010BD4013DFD
:10386000FAD0F58DB3FBF5F404FB15353DB101201D
:1038700005B0BDE8F08F022005B0BDE8F08F7D698E
:1038800045F480757D617D6945F400757D617D69D4
:1038900045F480757D617D6945F400757D6196F81C
:1038A0002D501DB13D6E45F480153D664FF0000C66
:1038B00086F80CC07D69BE4645F47C557D615EF896
:1038C000184F44F40064CEF8004042B1BC6944F49F
:1038D0008054BC6133833C6E24F4002404E0A6F8D9
:1038E00018C03C6E44F400243C66BC6D022565F3B0
:1038F0000104BC65BD6D25F44035BD65B57B012D6A
:1039000017D10020F082C6E907217383B08296F8B0
:103910002D0010B1708B013070830120002A86F8D1
:10392000240068D0DEF8000040F00200CEF800006D
:1039300061E08146F08D07F1640C451E18BF01253A
:103940006D00022808BF012523FA05FA0B46F07B1B
:103950004FF00108002908BF334608FA05FB00298B
:103960004FF0010114461A466346CDE9005BCDF8DD
:1039700008A008BF0321CDF80C80FFF789F95CB3DC
:10398000307C234607F174020021CDE9005BCDF8BD
:1039900008A0CDF80C80FFF77BF9307C43F2C131F1
:1039A000C0F200014A46FFF727FB307CFFF732FBED
:1039B000F07B43F25531C0F200014A46FFF71CFB91
:1039C000F07BFFF727FB86F82480F86907F11C0ECF
:1039D00040F00200F8610EE0F07B43F25531C0F296
:1039E00000014A46FFF708FBF07BFFF713FB86F860
:1039F000248007F11C0EDEF8000040F00100CEF834
:103A00000000002005B0BDE8F08F00002DE9F04F68
:103A100081B073B340F2C44BC1F6FF7B04465BF840
:103A2000207040F28000C2F2000050F824A07869B3
:103A3000C00122D40AF10D0840460E4600219946E5
:103A4000154601F037FD01208AF82C00204631464A
:103A50002A464B46FFF7ECFE98B1B969032C21F0DA
:103A60000201B961B96921F00101B9611AD300BF3E
:103A7000FEE7002001B0BDE8F08F022001B0BDE8F4
:103A8000F08F0A990546404601F014FD032829D11C
:103A900000208AF82C002046FFF7BCFC032001B070
:103AA000BDE8F08F5BF824108A6922F480528A61A5
:103AB0008A6922F400628A614A6942F480524A614A
:103AC0004A6942F400624A61B96921F48061B961CE
:103AD000796941F48061796100218AF82C1001B084
:103AE000BDE8F08F032C00D3FEE75BF8240081696A
:103AF00021F480518161816921F400618161416912
:103B000041F480514161416941F400614161B8690A
:103B100020F48060B861786940F48060786128465C
:103B200001B0BDE8F08F000070B540F28001C2F234
:103B3000000151F8206040F2C44CC1F6FF7CB37B19
:103B40005CF820101C25012B6FF0010308BF18251D
:103B500008BF6FF002034A596FF0020402EA030241
:103B60004A514A5908BF6FF00104224003284A51C4
:103B700001D300BFFEE75CF820000025826922F433
:103B800080528261826922F400628261426942F459
:103B900080524261426942F40062426186F82450D8
:103BA000486940F480704861486940F40070486199
:103BB000486940F480704861486940F40070486189
:103BC00096F82C00002808BF70BD06F10D0001F02A
:103BD0005DFC86F82C5070BD032800D3FEE72DE96C
:103BE000F04740F2C448C1F6FF7858F820A040F2F0
:103BF0008007C2F2000757F82090DAF81410090580
:103C000009D5D9F8201031B1FFF78EFF012089F8CE
:103C10000C00BDE8F087DAF81410C90409D5D9F80A
:103C20001C1031B1FFF780FF022089F80C00BDE8BD
:103C3000F087DAF81410C90706D0B9F81A1019B1CC
:103C40000546FFF7AFFA2846DAF8141089070BD5B6
:103C5000B9F8181041B158F820C057F82000DCF826
:103C60005C20C2F3024252BBB9F81A0028B9DAF854
:103C7000180020F00100CAF81800B9F8180028B997
:103C8000DAF8180020F00200CAF81800B9F8180095
:103C900078B3BDE8F08700BF818AC38D11FA87F140
:103CA000B1FBF3F606FB13118182018BC91B018363
:103CB000018B00291CBF013A5FEA0261D4D0DCF815
:103CC0007430C78D858A7D1B042DDABF858A7F1BE2
:103CD00004273D04E0D0BDB2ED000024C66923FAFC
:103CE00004F13170C16908340131A542C161F5D1D7
:103CF000D2E7B9F81A00002818BFBDE8F087DAF853
:103D0000180020F40060CAF81800DAF8180020F44F
:103D10008050CAF81800D9F8083023B1D9F8042027
:103D200048460021984799F82C0030B109F10D0060
:103D300001F0ACFB002089F82C00002089F8240059
:103D4000BDE8F087002000F037B90000012000F046
:103D500033B90000022000F02FB90000032800D37F
:103D6000FEE72DE9F04381B0054640F24460C0F221
:103D7000000050F8256040F2C009C2F2000959F86D
:103D80002540706943F6FF784003C3F6E0783ED5DE
:103D900040F20350608094F8300048B3B06920F4DA
:103DA0008020B061B0694003FCD4B06920F00060AD
:103DB000B061B06920F08070B061B06920F08060BF
:103DC000B061B06920F00070B061F069B06920F4B2
:103DD0000010B061E07A20B1201D01F057FB0020F7
:103DE000E072002060726188022908BF608002E0F2
:103DF000284600F093FA236A1BB1626A2046032129
:103E00009847706900EA080040F47020706170699A
:103E100000033ED594F8300060B359F82570B069BE
:103E200020F48020B06100BFB0694003FCD4B069C9
:103E300020F00060B061B06920F08070B061B069BE
:103E400020F08060B061B06920F00070B061F0696E
:103E5000B06920F40010B061F87A20B1381D01F08B
:103E600015FB0020F872002078727988022908BFBB
:103E7000788002E0284600F051FA236A1BB1626A9A
:103E8000204603219847706900EA080040F470203A
:103E900070617069800340D540F20550608094F8ED
:103EA000300058B359F82570B06920F48020B06113
:103EB000B0694003FCD4B06920F00060B061B06923
:103EC00020F08070B061B06920F08060B061B069AE
:103ED00020F00070B061F069B06920F40010B061AA
:103EE000F87A20B1381D01F0D1FA0020F8720020D4
:103EF00078727988022908BF788002E0284600F0AD
:103F00000DFA236A1BB1626A204603219847706943
:103F100000EA080040F4702070617069C00340D569
:103F200040F20450608094F8300058B359F825509E
:103F3000B06920F48020B061B0694003FCD4B0695E
:103F400020F00060B061B06920F08070B061B069AD
:103F500020F08060B061B06920F00070B061F0695D
:103F6000B06920F40010B061E87A20B1281D01F09A
:103F70008DFA0020E872002068726988022908BF63
:103F8000688002E0284600F0C9F9236A1BB1626A22
:103F9000204603219847706900EA080040F4702029
:103FA000706101B0BDE8F083816941F40021816155
:103FB00081690903FCD57047B0B5032801D300BF60
:103FC000FEE7044640F24460C0F2000050F824507E
:103FD0002046FFF7C3FEA869800244BF68695FEA14
:103FE000802012D4A869400244BF68695FEA40207B
:103FF0000FD4A869000246BF68695FEA0020B0BD1F
:104000002046BDE8B04000F027BA204600F098F8FE
:10401000E8E7204600F0C0F9EBE70000032800D3F2
:10402000FEE7F0B581B0044640F24460C0F2000003
:1040300050F8247040F25060C0F20000005D0D4660
:1040400069461646FEF7D0F828463421FCF7B3FB44
:1040500040F2C000C2F2000040F82450B6F80B0055
:104060002880B17A307885F83110042185F8300045
:104070000020C0F600716880E88039614CF20001D0
:10408000CCF21F0179614FF47031B8613862786207
:10409000B962F8627168204600F0D0F8317AB07ADF
:1040A000002918BF0130022803D1386940F00050C0
:1040B00008E0B96921F0100141EA0010B8613869DF
:1040C00020F000503861707A396900F0010021F465
:1040D000005141EA40303861307AB96900F0FE029F
:1040E00021F002011143B961B96960F30001B961BE
:1040F000281D002101F0BCF9064605F10800002149
:1041000001F0B6F9012E4FF0010518BF012813D0B8
:1041100040F25460C0F2000030F9146040F2D84020
:10412000C1F6FF7050F82410304600220025FEF73B
:10413000AFFF3046FEF790FF284601B0F0BD00000B
:10414000F0B581B0032800D3FEE740F2C006C2F20A
:10415000000656F8204040F24461C0F2000194F895
:10416000312051F82050A1693AB1012A07D1AA693A
:10417000EB69D20F01F8013B0BE0EA6909E0AA699B
:104180000227AB6907EA5272EF6942EAD37201F87B
:10419000017B0A7094F8311031B12169A2690239AA
:1041A0000232A261216105E02169A2690139216120
:1041B000511CA161216939B9236A2BB1626A074692
:1041C0002046002198473846216909B101B0F0BD69
:1041D00056F82060A86920F48020A861A8694003EF
:1041E000FCD4A86920F00060A861A86920F0807064
:1041F000A861A86920F08060A861A86920F000701B
:10420000A861E869A86920F40010A861F07A20B1DB
:10421000301D01F03BF90020F072002070727188AF
:10422000022908BF7080236A002BCFD0626A204623
:10423000022101B0BDE8F04018470000032800D378
:10424000FEE72DE9F04182B040F24462C0F2000284
:1042500052F8208040F2C00240F25063C2F20002E5
:10426000C0F2000352F82020185C3AB1537A0BB91F
:10427000927A1AB1022002B0BDE8F08101AA0C4680
:104280001146FDF7B1FFDDF804C0A000BCFBF0F063
:104290004FF6FC73C0F2030303EA8003BCFBF3F3A5
:1042A000A6461C1B98BFAEEB03040EEB8E05042341
:1042B000052600BFBCFBF5F77544BAB27243BCFBE0
:1042C000F2F2B2EB0E0198BFAEEB0201A14298BF31
:1042D000334606F1010638BF0C4698BF3846212EFA
:1042E000E8D1072B05D8D8F8101041F40031C8F8F0
:1042F00010104FF0F852D8F8101002EB0362120EB3
:1043000062F31C61C8F81010D8F8101060F30C01AB
:10431000C8F81010002002B0BDE8F081032800D3D7
:10432000FEE710B540F24461C0F2000151F82010E0
:1043300040F2C002C2F2000252F82040886920F424
:104340008020886188694003FCD4886920F000607F
:104350008861886920F080708861886920F08060B9
:104360008861886920F000708861086920F4001075
:104370000861C8692078FEF757FEE07A20B1201D59
:1043800001F084F80020E0726088022804BF002059
:1043900060800020607210BDB0B5032801D300BF5B
:1043A000FEE740F2C001C2F2000151F8204061690D
:1043B000002918BFB0BD40F2446294F83010C0F23A
:1043C000000252F8205029B1E088022823D10020B1
:1043D000E08024E0286920F4000028616078FEF77E
:1043E00023FEA86920F48000A861A86920F40020B9
:1043F000A86100BFA8690003FCD4207B18B104F1B8
:10440000080001F043F8E088022804BF0020E080A3
:104410000020A07217E0A86920F40000A861A86934
:1044200020F48000A861A86920F40020A86100BFE2
:10443000A8690003FCD40020A072207B18B104F10D
:10444000080001F023F8A36A2BB1E26A204602219A
:10445000BDE8B0401847B0BD032800D3FEE7B0B5B3
:1044600040F2C002C2F2000240F2446152F8204021
:10447000C0F2000151F82050606920B3E16994F85E
:104480003120087862B1012A4978AA6912BF22F066
:10449000404201F0010122F0804242EA8171A961AB
:1044A000287794F8310030B16069E169023802314F
:1044B000E161606105E06069E16901386061481CA3
:1044C000E061606900B1B0BDA36A1BB1E26A204639
:1044D000012198476069002818BFB0BDA86920F481
:1044E0000000A861A86940F48000A861B0BD000088
:1044F0002DE9F04F85B082464FF28009002000215F
:104500007F229F23C4F20F094FF0000800F0E4FE61
:1045100048464FF4007101F02BFB2C200DF11306DF
:104520000DF109078DF813004FF47A7B0120314615
:104530003A460123CDF800B0FFF768FA4FEA1A2493
:10454000A02500BF48464FF4007101F04BFC01204C
:1045500031463A4601238DF81340CDF800B0FFF7FD
:1045600055FA012031463A4601238DF813A0CDF8C3
:1045700000B0FFF74BFA013DE4D108F10108B8F1B2
:10458000800FDDD105B0BDE8F08F00002DE9F04FC0
:1045900085B040F2B0514FF28004C1F6FF7108209F
:1045A000C4F20F0401F0F4FB40F2340040F2406129
:1045B00040F2306240F220630427C2F20000C0F2F1
:1045C0000001C0F20002C0F200030097FEF790FC69
:1045D00040F2D40140F29052C2F20001C1F6FF72E3
:1045E0000120FFF74FF8302000210027FDF79AF84F
:1045F0004BF20005C4F2040505F580563046112142
:1046000001224FF0110801F0D3FB304611210022A6
:1046100001F0DCFB04F1400630464FF4003101F0BC
:10462000E1FB30461121012201F0C4FB2F200021C3
:10463000FDF778F828460821012201F0B9FB284649
:104640000821002201F0C2FB20464FF4807101F0E6
:10465000C9FB20460821012201F0ACFB2F200021DC
:10466000FDF760F828460921012201F0A1FB284648
:104670000921002201F0AAFB20464FF4007101F04D
:10468000B1FB20460921012201F094FB00F0E0FD7E
:1046900020464FF4007101F06BFA4FF47A760DF179
:1046A00013010DF10902012001238DF813800096FA
:1046B000FFF7ACF904F1800540F698062846022180
:1046C00001F090FB2846022101F052FA013EF5D19B
:1046D0000137C82FF0D120464FF4007101F048FA9D
:1046E000B1208DF813004FF47A750DF113010DF11F
:1046F00009020120012300950126FFF787F92046D2
:104700004FF4007101F06EFB0DF113010DF1090280
:10471000012001238DF8136001270095FFF776F93A
:1047200020464FF4007101F05DFB2C208DF8130042
:104730000DF113010DF10902012001234FF02C08A6
:104740000095FFF763F920464FF4007101F04AFB32
:104750004FF02D090DF113010DF109020120012384
:104760008DF813900095FFF751F920464FF4007132
:1047700001F0FEF9B2208DF813000DF113010DF1D7
:104780000902012001230095FFF740F920464FF46C
:10479000007101F027FB0DF113010DF10902012059
:1047A00001238DF8137001270095FFF72FF920469C
:1047B0004FF4007101F016FB0DF113010DF1090228
:1047C000012001238DF813804FF02C080095FFF78E
:1047D0001DF920464FF4007101F004FB0DF11301A7
:1047E0000DF10902012001238DF813900095FFF7C8
:1047F0000DF920464FF4007101F0BAF9B3208DF89D
:1048000013000DF113010DF10902012001230095A0
:10481000FFF7FCF820464FF4007101F0E3FA0DF1C8
:1048200013010DF10902012001238DF813700127F6
:104830000095FFF7EBF820464FF4007101F0D2FA33
:104840000DF113010DF10902012001238DF81380F0
:104850002C260095FFF7DAF820464FF4007101F09E
:10486000C1FA0DF113010DF10902012001238DF8A8
:1048700013900095FFF7CAF820464FF4007101F03D
:10488000B1FA0DF113010DF10902012001238DF898
:1048900013700095FFF7BAF820464FF4007101F04D
:1048A000A1FA0DF113010DF10902012001238DF888
:1048B00013600095FFF7AAF820464FF4007101F04D
:1048C00091FA0DF113010DF10902012001238DF878
:1048D00013900095FFF79AF820464FF4007101F00D
:1048E00047F9B4208DF813000DF113010DF1090201
:1048F000012001230095FFF789F820464FF400714D
:1049000001F070FA07208DF813000DF113010DF17D
:104910000902012001230095FFF778F820464FF4A3
:10492000007101F025F94FF0C00A0DF113010DF1EE
:104930000902012001238DF813A00095FFF766F806
:1049400020464FF4007101F04DFAA2208DF81300BB
:104950000DF113010DF10902012001230095FFF76C
:1049600055F820464FF4007101F03CFA02208DF812
:1049700013000DF113010DF109020120012300952F
:10498000FFF744F820464FF4007101F02BFA842021
:104990008DF813000DF113010DF10902012001231F
:1049A0000095FFF733F820464FF4007101F0E0F86E
:1049B000C1208DF813000DF113010DF10902012042
:1049C00001230095FFF722F820464FF4007101F013
:1049D00009FAC5260DF113010DF109020120012389
:1049E0008DF813600095FFF711F820464FF4007121
:1049F00001F0BEF8C2208DF813000DF113010DF186
:104A00000902012001230095FFF700F820464FF42A
:104A1000007101F0E7F90A208DF813000DF1130180
:104A20000DF10902012001230095FEF7EFFF20465A
:104A30004FF4007101F0D6F94FF0000B0DF11301A6
:104A40000DF10902012001238DF813B00095FEF746
:104A5000DDFF20464FF4007101F08AF8C3208DF885
:104A600013000DF113010DF109020120012300953E
:104A7000FEF7CCFF20464FF4007101F0B3F98A270E
:104A80000DF113010DF10902012001238DF81370BE
:104A90000095FEF7BBFF20464FF4007101F0A2F92C
:104AA0002A208DF813000DF113010DF109020120E8
:104AB00001230095FEF7AAFF20464FF4007101F094
:104AC00057F8C4208DF813000DF113010DF1090200
:104AD000012001230095FEF799FF20464FF4007155
:104AE00001F080F90DF113010DF1090201200123FC
:104AF0008DF813700095FEF789FF20464FF4007182
:104B000001F070F9EE208DF813000DF113010DF195
:104B10000902012001230095FEF778FF20464FF49B
:104B2000007101F025F80DF113010DF109020120CA
:104B300001238DF813600095FEF768FF20464FF4BF
:104B4000007101F04FF90E208DF813000DF11301E3
:104B50000DF10902012001230095FEF757FF2046C1
:104B60004FF4007101F004F836208DF813000DF1B8
:104B700013010DF10902012001230095FEF746FF04
:104B800020464FF4007101F02DF90DF113010DF1E4
:104B90000902012001238DF813A00095FEF736FFCE
:104BA00020464FF4007100F0E3FFE0208DF8130081
:104BB0000DF113010DF10902012001230095FEF70B
:104BC00025FF20464FF4007101F00CF94FF00F0A59
:104BD0000DF113010DF10902012001238DF813A03D
:104BE0000095FEF713FF20464FF4007101F0FAF82C
:104BF0001A208DF813000DF113010DF109020120A7
:104C000001230095FEF702FF20464FF4007101F0EA
:104C1000E9F80DF113010DF10902012001238DF8CE
:104C200013A00095FEF7F2FE20464FF4007101F04C
:104C3000D9F818208DF813000DF113010DF10902B8
:104C4000012001230095FEF7E1FE20464FF400719C
:104C500001F0C8F82F208DF813000DF113010DF1AC
:104C60000902012001230095FEF7D0FE20464FF4F3
:104C7000007101F0B7F828208DF813000DF1130131
:104C80000DF10902012001230095FEF7BFFE204629
:104C90004FF4007101F0A6F820208DF813000DF1FB
:104CA00013010DF10902012001230095FEF7AEFE6C
:104CB00020464FF4007101F095F822208DF8130082
:104CC0000DF113010DF10902012001230095FEF7FA
:104CD0009DFE20464FF4007101F084F81F208DF8EE
:104CE00013000DF113010DF10902012001230095BC
:104CF000FEF78CFE20464FF4007101F073F84FF080
:104D00001B090DF113010DF10902012001238DF89A
:104D100013900095FEF77AFE20464FF4007101F0E3
:104D200061F823208DF813000DF113010DF1090234
:104D3000012001230095FEF769FE20464FF4007123
:104D400001F050F837208DF813000DF113010DF12B
:104D50000902012001230095FEF758FE20464FF47A
:104D6000007101F03FF80DF113010DF1090201206E
:104D700001238DF813B00095FEF748FE20464FF44E
:104D8000007101F02FF84FF007080DF113010DF13C
:104D90000902012001238DF813800095FEF736FEED
:104DA00020464FF4007101F01DF802208DF8130029
:104DB0000DF113010DF10902012001230095FEF709
:104DC00025FE20464FF4007101F00CF810260DF17D
:104DD00013010DF10902012001238DF813600095E4
:104DE000FEF714FE20464FF4007100F0C1FEE120F2
:104DF0008DF813000DF113010DF1090201200123BB
:104E00000095FEF703FE20464FF4007100F0EAFF24
:104E10000DF113010DF10902012001238DF813A0FA
:104E20000095FEF7F3FD20464FF4007100F0DAFF25
:104E30000DF113010DF10902012001238DF81390EA
:104E40000095FEF7E3FD20464FF4007100F0CAFF25
:104E50000DF113010DF10902012001238DF813A0BA
:104E60000095FEF7D3FD20464FF4007100F0BAFF25
:104E700017208DF813000DF113010DF10902012027
:104E800001230095FEF7C2FD20464FF4007100F0AB
:104E9000A9FF33208DF813000DF113010DF1090264
:104EA000012001230095FEF7B1FD20464FF400716B
:104EB00000F098FF2C208DF813000DF113010DF177
:104EC0000902012001230095FEF7A0FD20464FF4C2
:104ED000007100F087FF4FF029090DF113010DF16A
:104EE0000902012001238DF813900095FEF78EFD35
:104EF00020464FF4007100F075FF2E208DF813004E
:104F00000DF113010DF10902012001230095FEF7B7
:104F10007DFD20464FF4007100F064FF30270DF155
:104F200013010DF10902012001238DF81370009582
:104F3000FEF76CFD20464FF4007100F053FF0DF1B9
:104F400013010DF10902012001238DF81370009562
:104F5000FEF75CFD20464FF4007100F043FF39205E
:104F60008DF813000DF113010DF109020120012349
:104F70000095FEF74BFD20464FF4007100F032FF24
:104F80003F208DF813000DF113010DF109020120EE
:104F900001230095FEF73AFD20464FF4007100F022
:104FA00021FF0DF113010DF10902012001238DF8FC
:104FB00013B00095FEF72AFD20464FF4007100F073
:104FC00011FF0DF113010DF10902012001238DF8EC
:104FD00013800095FEF71AFD20464FF4007100F093
:104FE00001FF03208DF813000DF113010DF10902EB
:104FF000012001230095FEF709FD20464FF40071C2
:1050000000F0F0FE0DF113010DF109020120012362
:105010008DF813600095FEF7F9FC20464FF40071FF
:1050200000F0A6FD2A208DF813000DF113010DF1FB
:105030000902012001230095FEF7E8FC20464FF409
:10504000007100F0CFFE0DF113010DF109020120F6
:1050500001238DF813B00095FEF7D8FC20464FF4DD
:10506000007100F0BFFE0DF113010DF109020120E6
:1050700001238DF813B00095FEF7C8FC20464FF4CD
:10508000007100F0AFFE0DF113010DF109020120D6
:1050900001238DF813B00095FEF7B8FC20464FF4BD
:1050A000007100F09FFE7F208DF813000DF11301B9
:1050B0000DF10902012001230095FEF7A7FC20460F
:1050C0004FF4007100F054FD2B208DF813000DF10A
:1050D00013010DF10902012001230095FEF796FC52
:1050E00020464FF4007100F07DFE0DF113010DF12B
:1050F0000902012001238DF813B00095FEF786FC0C
:1051000020464FF4007100F06DFE0DF113010DF11A
:105110000902012001238DF813B00095FEF776FCFB
:1051200020464FF4007100F05DFE0DF113010DF10A
:105130000902012001238DF813B00095FEF766FCEB
:1051400020464FF4007100F04DFE9F208DF81300B3
:105150000DF113010DF10902012001230095FEF765
:1051600055FC20464FF4007100F002FDF0208DF850
:1051700013000DF113010DF1090201200123009527
:10518000FEF744FC20464FF4007100F02BFE012096
:105190000DF113010DF1090201238DF813000095A3
:1051A000FEF734FC20464FF4007100F0E1FCF620DD
:1051B0008DF813000DF113010DF1090201200123F7
:1051C0000095FEF723FC20464FF4007100F00AFE24
:1051D0000DF113010DF10902012001238DF813B027
:1051E0000095FEF713FC20464FF4007100F0C0FC60
:1051F0003A208DF813000DF113010DF10902012081
:1052000001230095FEF702FC20464FF4007100F0E8
:10521000E9FD05208DF813000DF113010DF10902D0
:10522000012001230095FEF7F1FB20464FF40071A9
:1052300000F09EFC0DF113010DF109020120012384
:105240008DF813900095FEF7E1FB05B0BDE8F08FF7
:10525000F0B581B04FF20014C4F20F04A4F1400580
:1052600028464FF4003100F083FC17A000F076FED2
:10527000002600BF40F698072046022100F0B2FD4C
:105280002046022100F074FC013FF5D10136642E66
:10529000F0D128464FF4003100F0A4FD0CA000F03E
:1052A0005DFE002540F698062046022100F09AFD9A
:1052B0002046022100F05CFC013EF5D10135642D51
:1052C000F0D101B0F0BD00BF313131310D0000002F
:1052D000323232320D0000002DE9F04784B04FF237
:1052E0008004C4F20F048946054620464FF400713D
:1052F0009846174600F03CFC2A208DF80F004FF42A
:105300007A760DF10F010DF10502012001230096BF
:10531000FEF77CFB20464FF4007100F063FD4FF078
:10532000000A0DF10F010DF10502012001238DF896
:105330000FA00096FEF76AFB20464FF4007100F0C4
:1053400051FD0DF10F010DF10502012001238DF832
:105350000F500096FEF75AFB20464FF4007100F004
:1053600041FD0DF10F010DF10502012001238DF822
:105370000FA00096FEF74AFB20464FF40071BD1CBB
:1053800000F030FD0DF10F010DF1050201200123A8
:105390008DF80F500096FEF739FB20464FF4007150
:1053A00000F0E6FB2B208DF80F000DF10F010DF141
:1053B0000502012001230096FEF728FB20464FF44A
:1053C000007100F00FFD0DF10F010DF1050201203C
:1053D00001238DF80FA00096FEF718FB20464FF42E
:1053E000007100F0FFFC0DF10F010DF1050201202D
:1053F00001238DF80F900096FEF708FB20464FF42E
:10540000007100F0EFFC0DF10F010DF1050201201C
:1054100001238DF80FA00096FEF7F8FA20464FF40E
:10542000007108F1010500F0DDFC0DF10F010DF137
:105430000502012001238DF80F500096FEF7E6FAD1
:1054400020464FF4007100F093FB2C208DF80F00E4
:105450000DF10F010DF10502012001230096FEF769
:10546000D5FA04B0BDE8F087FEE700007047000001
:10547000002804BF01207047B0B504460D46FDF773
:10548000E1FD2570FDF7F6FD0020B0BD10B550B16F
:105490000446FDF7D7FD2078FF2806D0207801309C
:1054A0002070002402E0012010BD0124FDF7E2FD80
:1054B000204610BDF0B581B0002849D004460D4605
:1054C0004EF21006002769460020CEF20006009733
:1054D000FCF78AFE30683760009844F6D351C1F279
:1054E0006201A0FB01018809706040F20000C2F275
:1054F00000000178002902BF01210170B760306807
:1055000040F0070030602DB3681C40F2CC00C2F2BE
:10551000000008BF4FF0FF3501680022002600BFE1
:10552000237893B90768B5F1FF33A7EB010718BFDC
:105530000123AF424FF0000788BF01273B4042EAFA
:10554000030218BF0326D307EAD0300410D108E0C5
:1055500001260DE020780026002808BF032630042D
:1055600006D1FDF76FFD207801382070FDF782FD30
:10557000B0B201B0F0BD000040F2CC00C2F20000B9
:105580000168013101607047A1F12903252B88BF13
:1055900070470FF20A014FF4E67CDFE803F0751361
:1055A000434F464C5B5E28647D2E49371F557D581E
:1055B0007D6A67193A6D1C7D342B52227370313D20
:1055C000614016254FF0C80C5EE04FF4D67C5BE0DE
:1055D0004FF0E80C58E04FF4DE7C55E04FF0D80C6B
:1055E00052E04FF4CC7C4FE04FF4D87C4CE04FF4C9
:1055F0009A7C49E04FF09C0C46E04FF0900C43E061
:105600004FF0B40C40E04FF0EC0C3DE04FF0AC0C30
:105610003AE04FF0980C37E04FF0B80C34E04FF41C
:10562000D47C31E04FF0840C2EE04FF4927C2BE0E0
:105630004FF0940C28E04FF4947C25E04FF4C27CAA
:1056400022E04FF4B47C1FE04FF0C40C1CE04FF09C
:10565000800C19E04FF4967C16E04FF4987C13E030
:105660004FF4807C10E04FF0F40C0DE04FF0E40CB0
:105670000AE04FF0E00C07E04FF4DC7C04E04FF070
:10568000B00C01E04FF0DC0C50F80C1021F0804120
:1056900062F39E7140F80C107047000010B5A1F144
:1056A000290CBCF1250F88BF10BD0FF20601DFE801
:1056B0001CF026001A01FF000801A300310143017C
:1056C00011015501C3007D008C00F600BA0059009D
:1056D0003A017D004C017D00860178013D00CC003F
:1056E00094014B007D00AC007E0023016200B001FC
:1056F000A2019500DA005E01E8002F007000D0F8EA
:10570000CC1121F0804162F39E71C0F8CC1110BD24
:10571000D0F8AC114FF0E06404EA036321F08E414D
:1057200062F39E731944C0F8AC1110BDD0F8E810B4
:1057300021F08E4C4FF0E06101EA036162F39E714B
:105740006144C0F8E81010BDD0F8BC1121F08E4CB7
:105750004FF0E06101EA036162F39E716144C0F8B9
:10576000BC1110BDD0F8D81021F0804162F39E71B9
:10577000C0F8D81010BDD0F8981121F08E4C4FF021
:10578000E06101EA036162F39E716144C0F898111F
:1057900010BDD0F8B0114FF0E06404EA036321F0CB
:1057A0008E4162F39E731944C0F8B01110BDD0F859
:1057B0009C1021F08E4C4FF0E06101EA036162F32E
:1057C0009E716144C0F89C1010BDD0F8901021F07B
:1057D000804162F39E71C0F8901010BDD0F8B410F3
:1057E00021F08E4C4FF0E06101EA036162F39E719B
:1057F0006144C0F8B41010BDD0F8241121F08041EC
:1058000062F39E71C0F8241110BDD0F8EC1021F0A5
:105810008E4C4FF0E06101EA036162F39E716144D6
:10582000C0F8EC1010BDD0F8AC1021F0804162F34C
:105830009E71C0F8AC1010BDD0F8F41021F080417A
:1058400062F39E71C0F8F41010BDD0F8981021F0EA
:105850008E4C4FF0E06101EA036162F39E71614496
:10586000C0F8981010BDD0F8B81021F08E4C4FF051
:10587000E06101EA036162F39E716144C0F8B8100F
:1058800010BDD0F8A8114FF0E06404EA036321F0E2
:105890008E4162F39E731944C0F8A81110BDD0F870
:1058A000941021F0804162F39E71C0F8941010BDF5
:1058B000D0F8841021F0804162F39E71C0F884100A
:1058C00010BDD0F8841121F0804162F39E71C0F8C0
:1058D000841110BDD0F8301121F0804162F39E7127
:1058E000C0F8301110BDD0F8C81021F0804162F32B
:1058F0009E71C0F8C81010BDD0F8681121F08E4C10
:105900004FF0E06101EA036162F39E716144C0F807
:10591000681110BDD0F8281121F0804162F39E710A
:10592000C0F8281110BDD0F8C41021F0804162F3F6
:105930009E71C0F8C41010BDD0F82C1121F0804128
:1059400062F39E71C0F82C1110BDD0F8801021F0C8
:10595000804162F39E71C0F8801010BDD0F8341100
:1059600021F0804162F39E71C0F8341110BDD0F86F
:1059700000114FF6F074CBF6FF04DDE902CE2140B2
:105980004FF0E06404EA036362F39E730CF00704D3
:105990000EF00102234443EAC2021144C0F8001190
:1059A00010BDD0F8E41021F08E4C4FF0E06101EA18
:1059B000036162F39E716144C0F8E41010BDD0F839
:1059C000E01021F08E4C4FF0E06101EA036162F3D8
:1059D0009E716144C0F8E01010BDD0F8B81121F0FC
:1059E0008E4C4FF0E06101EA036162F39E71614405
:1059F000C0F8B81110BDD0F8B01021F08E4C4FF0A7
:105A0000E06101EA036162F39E716144C0F8B01085
:105A100010BDD0F8DC1021F08E4C4FF0E06101EAAF
:105A2000036162F39E716144C0F8DC1010BD000098
:105A3000A1F12902252A00F27F800FF20A014FF41A
:105A4000E67CDFE802F07513434F464C5B5E28644A
:105A5000792E49371F557958796A67193A6D1C793B
:105A6000342B52227370313D614016254FF0C80C23
:105A70005EE04FF4D67C5BE04FF0E80C58E04FF46A
:105A8000DE7C55E04FF0D80C52E04FF4CC7C4FE078
:105A90004FF4D87C4CE04FF49A7C49E04FF09C0CDA
:105AA00046E04FF0900C43E04FF0B40C40E04FF074
:105AB000EC0C3DE04FF0AC0C3AE04FF0980C37E0C6
:105AC0004FF0B80C34E04FF4D47C31E04FF0840C4C
:105AD0002EE04FF4927C2BE04FF0940C28E04FF432
:105AE000947C25E04FF4C27C22E04FF4B47C1FE0AC
:105AF0004FF0C40C1CE04FF0800C19E04FF4967C82
:105B000016E04FF4987C13E04FF4807C10E04FF0E7
:105B1000F40C0DE04FF0E40C0AE04FF0E00C07E06D
:105B20004FF4DC7C04E04FF0B00C01E04FF0DC0CF3
:105B300050F80C00C0F3807303F0010070470000C0
:105B40003C39C9B2122906D84FF6BF72C0F207021B
:105B5000CA40D20701D10020704740F2B452C0F2CF
:105B6000000252F821104058C0F302607047000054
:105B70008160704770B5D0E9046252F82610C47B8A
:105B800054B1012C04D0022C08BF41F0030105E000
:105B9000022464F3010101E021F002014FF6AF0499
:105BA000857BCFF6F074037B0C40417B05F00F053D
:105BB00044EA051503F00103082945EA831449D195
:105BC00048F2040CC4F2040C4BF20001DCF800E0D3
:105BD000C4F204018A4219D04AF20001C4F204015D
:105BE0008A421BD1102E4FF0FF022AD80EF00F016F
:105BF000DFE806F0091F272727272727272727273A
:105C0000271922251C0041F001021AE0012E07D0BD
:105C1000002E0CBF0EF00B02FF2212E0FF2210E05C
:105C20000EF007020DE041F004020AE00EF00D0252
:105C300007E041F0020204E041F0080201E00EF04A
:105C40000E02FF2A05D0DCF8001062F30301CCF845
:105C500000100021027A01F00701437A44EA012191
:105C600002F00F0241EA0241002BD0E9043218BFD2
:105C700041F0807142F82310D0E904210126D1F8C7
:105C8000C030857A9640B34305FA02F21A43C1F850
:105C9000C020417B012918BF70BD4268516943781B
:105CA000012B16D023B90669012505FA06F6B14382
:105CB000012B0AD103690678156801249C40A5438D
:105CC00006FA03F32B43166813604068426941618A
:105CD00070BD0669012505FA06F63143012BE9D0AE
:105CE000F3E7000050F82130082A4CD1B0B548F253
:105CF000040CC4F2040C4BF20002DCF800E0C4F225
:105D00000402904219D04AF20002C4F20402904206
:105D10001BD110294FF0FF022AD80EF00F04DFE844
:105D200001F0091F27272727272727272727271994
:105D300022251C0044F001021AE0012907D00029A5
:105D40000CBF0EF00B02FF2212E0FF2210E00EF05B
:105D500007020DE044F004020AE00EF00D0207E035
:105D600044F0020204E044F0080201E00EF00E02EA
:105D7000FF2A05D0DCF8005062F30305CCF8005090
:105D80000022BDE8B04062F30A2340F8213070479A
:105D900058B1B0B504460D462846FFF7EBFE013C6E
:105DA00005F11805F8D1BDE8B040002070470000AB
:105DB000FFF798BFD0F814C001238B402CEA0303EF
:105DC00002FA01F1194341617047000050F8213097
:105DD00002F00F0223F4702343EA024240F821202C
:105DE0007047000041607047704700007047000036
:105DF000FFF7C2BB4EF68850CEF20000016841F4B6
:105E000040110160016841F440010160D0F8AC111B
:105E100021F08041C0F8AC1142F204004CF2205154
:105E2000C4F20500CDF628110160016842F6201188
:105E300040F8041C4FF6FF7141607047FEE7000018
:105E400040F2C86040F2CC6CC0F20000C0F2000C1E
:105E50000368DCF800209A4210D040F2D061C0F212
:105E600000010968890807D0043A043B53F8040F7D
:105E7000013942F8040FF9D1DCF800304EF6085031
:105E8000CEF20000036070474BF21401C4F2060129
:105E90000A681202FCD588607047000040F2044096
:105EA0004FF20014C1F6FF70C4F20F04FBF718FDA7
:105EB000FDF712F9FCF7CCFCFEF768FB4FF2A030BF
:105EC000FEF716FB002500BF40F69806204602218B
:105ED000FFF788FF20460221FFF74AFE013EF5D179
:105EE0000135B5F5FA7FEFD100200025FEF700FB64
:105EF00040F6980620460221FFF774FF2046022153
:105F0000FFF736FE013EF5D10135B5F5FA7FEFD149
:105F10004FF6FF70FEF7ECFA002500BF40F698063A
:105F200020460221FFF75EFF20460221FFF720FEF8
:105F3000013EF5D10135B5F5FA7FEFD1D4E702E0A6
:105F400008C8121F08C1002AFAD170477047002004
:105F500001E001C1121F002AFBD1704710B50446B1
:105F600001E0FFF791FF14F8010B04490028F8D174
:105F7000BDE810400A20FFF787BF00000004FF1FA4
:105F8000A05F00000004FF1F94020000FC07000057
:105F9000B060000000000020140100004E5F00000F
:105FA000413A0101290819041902112B127A092A10
:105FB0000310290F21120C5B02030B71391D13030F
:105FC0000315010203012A06433920793304218095
:105FD000841E497839331132223DE404FF1F0E8BB1
:105FE00010FF248A110C9A02189A03181114C00287
:105FF000401AD00415E002401A121B321C23453D02
:106000001A4D041A55042A29542A2A052A2B052A2E
:106010002C052A2D052A2E052A2F052A30052A317E
:10602000052A32052A34052A35052A36052A370578
:106030002A38052A3A05243C01022A3D052A3E0554
:106040002A3F052A40052A41052A43052A44052AF4
:1060500045052A46052A47052A48052A49052A4AA8
:10606000052A4B052A4C052A4D052A4E05A129680B
:10607000519D6CDC02080CD17203ECA00440180A9C
:10608000150E1839410911180A15041839880A150E
:10609000C0480911183993E918192D39487FD004DF
:1060A00040C0F00F0441320F6A1034590400000060
:04000005000006AD44
:00000001FF
