:020000040000FA
:1000000000F00020D9110000096D000081540000AB
:10001000056D0000491C0000357F00000000000055
:10002000000000000000000000000000D57C00007F
:10003000A9530000000000004D7C0000D97C0000A6
:10004000C94D0000FD4E0000294F0000554F000033
:10005000814F0000AD4F0000D94F00000550000057
:10006000315000005D500000F54D0000214E0000B1
:100070004D4E0000794E0000A54E0000D14E00000C
:100080002953000029120000115400002912000019
:100090002912000029120000291200002912000074
:1000A0002D5A0000D55C0000D55F0000F15F000014
:1000B0000D600000291200002912000055650000A3
:1000C000291200005D65000029120000656500002E
:1000D0002912000029120000291200002912000034
:1000E0002912000029120000291200002912000024
:1000F0002912000029120000517C00002912000082
:100100002912000029120000291200002912000003
:1001100029120000291200002912000029120000F3
:1001200029120000291200002912000029120000E3
:1001300029120000291200002912000029120000D3
:1001400029120000291200002912000029120000C3
:1001500029120000152300002912000029120000B6
:1001600029120000291200002912000029120000A3
:100170002912000029120000991C00004D1C0000EB
:10018000CD1C0000891C0000911C000029120000F9
:1001900029120000891D00003D1D000029120000E9
:1001A000791D0000811D00002912000029120000A5
:1001B000011E0000BD1D000029120000F91D0000F5
:1001C0002912000029120000291200008D230000CE
:1001D000952300009D230000A523000029120000A4
:1001E00029120000AD230000B5230000BD2300004C
:1001F000C52300002912000029120000CD230000B1
:10020000D5230000DD230000E523000029120000B3
:1002100029120000ED230000F5230000FD2300005B
:100220000524000029120000291200000D240000FE
:10023000152400001D2400002524000029120000C0
:10024000291200002D240000352400003D24000068
:100250004524000029120000291200002712000086
:10026000000000000000000000000000000000008E
:10027000000000000000000000000000000000007E
:10028000000000000000000000000000000000006E
:10029000000000000000000000000000000000005E
:1002A000000000000000000000000000000000004E
:1002B000000000000000000000000000000000003E
:1002C000000000000000000000000000000000002E
:1002D000000000000000000000000000000000001E
:1002E000000000000000000000000000000000000E
:1002F00000000000000000000000000000000000FE
:1003000000000000000000000000000000000000ED
:1003100000000000000000000000000000000000DD
:1003200000000000000000000000000000000000CD
:1003300000000000000000000000000000000000BD
:1003400000000000000000000000000000000000AD
:10035000000000000000000000000000000000009D
:10036000000000000000000000000000000000008D
:10037000000000000000000000000000000000007D
:10038000000000000000000000000000000000006D
:10039000000000000000000000000000000000005D
:1003A000000000000000000000000000000000004D
:1003B000000000000000000000000000000000003D
:1003C000000000000000000000000000000000002D
:1003D000000000000000000000000000000000001D
:1003E000000000000000000000000000000000000D
:1003F00000000000000000000000000000000000FD
:10040000FFFFFFFFFFFFFFFFFFFFFFFFFEFFFFFFFD
:1004100000000000000000000000000000FCAC062E
:10042000007E5603003FAB0100FCAC06007E560385
:10043000003FAB0100FCAC06007E5603003FAB0161
:1004400000000000000000000000000000000000AC
:10045000000000000000000000FCAC06007E560317
:10046000003FAB01000000000000000000000000A1
:1004700000B4C404006CDC02B0F3960100B4C40400
:10048000006CDC02B0F3960100B4C404006CDC0222
:10049000B0F3960100000000000000000000000022
:1004A00000000000000000000000000000B4C404D0
:1004B000005A6202B0F39601000000000000000044
:1004C0000000000000093D0000093D0040420F000F
:1004D00000093D0000093D0040420F0000093D00B9
:1004E00000093D0040420F00000000000000000035
:1004F00000000000000000000000000000000000FC
:1005000000093D0000093D0040420F0029010000A4
:10051000002A010000002B010000002C0100000057
:100520002D010000002E010000002F01000000300E
:100530000100000031010000003201000000340120
:100540000000003501000000360100000037010006
:10055000000038010000003A010000003C010200E8
:10056000003D010200003E010200003F01020000C8
:10057000430102000044010200004601020000475E
:1005800001020000480102000049010200004A0186
:100590000200004B010200004C010200004D01026C
:1005A00000004E0102000040010200004101020073
:1005B000000C101418203040200000000000002122
:1005C0000000002F00002200000700070023001495
:1005D0007F147F142400242A7F2A122500626408D5
:1005E000132326003649552250270000050300003A
:1005F0002800001C22410029000041221C002A0082
:1006000014083E08142B0008083E08082C000000BF
:10061000A060002D0008080808082E000060600097
:10062000002F00201008040230003E5149453E31A1
:100630000000427F400032004261514946330021B0
:1006400041454B3134001814127F103500274545C1
:10065000453936003C4A49493037000171090503E4
:10066000380036494949363900064949291E3A00B9
:1006700000363600003B0000563600003C000814EF
:100680002241003D0014141414143E0000412214B1
:10069000083F0002015109064000324959513E41CC
:1006A000007C1211127C42007F4949493643003ECA
:1006B0004141412244007F4141221C45007F49497C
:1006C000494146007F0909090147003E4149497AED
:1006D00048007F0808087F490000417F41004A0028
:1006E0002040413F014B007F081422414C007F40D5
:1006F0004040404D007F020C027F4E007F040810F6
:100700007F4F003E4141413E50007F09090906519B
:10071000003E4151215E52007F091929465300468F
:1007200049494931540001017F010155003F4040D2
:10073000403F56001F2040201F57003F4038403F99
:1007400058006314081463590007087008075A001A
:1007500061514945435B00007F4141005D0000411C
:10076000417F005E0004020102045F0040404040FF
:10077000406000000102040061002054545478627B
:10078000007F4844443863003844444420640038BF
:100790004444487F650038545454186600087E0964
:1007A0000102670018A4A4A47C68007F08040478F0
:1007B000690000447D40006A004080847D006B0039
:1007C0007F102844006C0000417F40006D007C04D5
:1007D0001804786E007C080404786F0038444444A0
:1007E000387000FC24242418710018242418FC728A
:1007F000007C080404087300485454542074000416
:100800003F44402075003C4040207C76001C204046
:10081000201C77003C4030403C780044281028449D
:1008200079001CA0A0A07C7A004464544C447C1441
:100830001414141414200000000000000000000034
:1008400000000000000021000000F800000000008F
:10085000000033300000002200100C06100C0600CF
:1008600000000000000000002340C07840C0784035
:1008700000043F04043F04040024007088FC083096
:100880000000001820FF211E000025F008F000E005
:1008900018000000211C031E211E002600F00888FD
:1008A000700000001E212324192721102710160E86
:1008B0000000000000000000000000000028000010
:1008C00000E0180402000000000718204000290082
:1008D000020418E000000000402018070000002A71
:1008E000404080F0804040000202010F01020200FF
:1008F0002B000000F0000000000101011F010101B8
:10090000002C000000000000000080B0700000001B
:1009100000002D00000000000000000001010101A6
:100920000101012E00000000000000000030300036
:10093000000000002F000000008060180400601814
:1009400006010000003000E010080810E000000F71
:10095000102020100F0031001010F80000000000DF
:1009600020203F2020000032007008080888700016
:100970000030282422213000330030088888483095
:10098000000018202020110E00340000C02010F8B4
:10099000000000070424243F24003500F80888885C
:1009A0000808000019212020110E003600E01088F0
:1009B00088180000000F112020110E0037003808A1
:1009C00008C83808000000003F0000000038007030
:1009D000880808887000001C222121221C00390090
:1009E000E010080810E0000000312222110F003A48
:1009F000000000C0C0000000000000303000000017
:100A00003B0000008000000000000080600000004B
:100A1000003C000080402010080000010204081083
:100A200020003D4040404040404000040404040495
:100A30000404003E00081020408000000020100840
:100A4000040201003F007048080808F000000000A0
:100A5000303601000040C030C828E810E000071818
:100A6000272423140B00410000C038E000000020C0
:100A70003C2302022738204208F88888887000004A
:100A8000203F202020110E0043C0300808080838FD
:100A90000007182020201008004408F80808081053
:100AA000E000203F202020100F004508F88888E84B
:100AB000081000203F2020232018004608F88888CE
:100AC000E8081000203F20000300000047C0300865
:100AD000080838000007182020221E02004808F8E5
:100AE00008000008F808203F210101213F204900AB
:100AF0000808F8080800000020203F202000004AD5
:100B000000000808F8080800C08080807F0000000E
:100B10004B08F888C028180800203F2001263820FC
:100B2000004C08F8080000000000203F2020202092
:100B300030004D08F8F800F8F80800203F003F00AA
:100B40003F20004E08F830C00008F808203F200081
:100B500007183F004FE01008080810E0000F1020B1
:100B60002020100F005008F808080808F000203F67
:100B700021010101000051E01008080810E0000FF9
:100B800018242438504F005208F88888888870004C
:100B9000203F2000030C30205300708808080838DC
:100BA000000038202121221C0054180808F80808E9
:100BB00018000000203F200000005508F808000041
:100BC00008F808001F202020201F00560878880001
:100BD00000C83808000007380E01000057F8080068
:100BE000F80008F800033C0700073C030058081809
:100BF00068808068180820302C03032C30205908A6
:100C000038C800C83808000000203F200000005A03
:100C100010080808C83808002038262120201800AD
:100C20005B000000FE020202000000007F40404026
:100C3000005D00020202FE000000004040407F0014
:100C400000005E0000040202020400000000000038
:100C50000000005F00000000000000008080808035
:100C6000808080806000020204000000000000001C
:100C700000000000006100008080808000000019FA
:100C8000242222223F206208F80080800000000019
:100C90003F112020110E00630000008080800000C2
:100CA000000E11202020110064000000808088F8D0
:100CB00000000E112020103F206500008080808001
:100CC0000000001F22222222130066008080F0888C
:100CD0008888180020203F202000006700008080C6
:100CE00080808000006B9494949360006808F80002
:100CF0008080800000203F210000203F206900808C
:100D00009898000000000020203F202000006A008A
:100D10000000809898000000C08080807F00006BF9
:100D200008F8000080808000203F24022D30200041
:100D30006C000808F8000000000020203F20200080
:100D4000006D8080808080808000203F20003F20D8
:100D5000003F6E8080008080800000203F210000E6
:100D6000203F206F0000808080800000001F202036
:100D700020201F0070808000808000000080FFA184
:100D80002020110E00710000008080808000000E85
:100D9000112020A0FF807280808000808080002051
:100DA000203F2120000100730000808080808000AF
:100DB000003324242424190074008080E080800003
:100DC000000000001F2020000075808000000080CF
:100DD0008000001F202020103F20768080800000AF
:100DE00080808000010E300806010077808000803E
:100DF000008080800F300C030C300F007800808062
:100E000000808080000020312E0E3120007980800B
:100E100080000080808080818E70180601007A003A
:100E2000808080808080000021302C222130007B57
:100E300000000000807C020200000000003F4040F3
:100E40007C00000000FF00000000000000FF000028
:100E5000007D0002027C800000000040403F000056
:100E600000007E00060101020204040000000000F0
:100E70000000000020000000002000000000200012
:100E800000000020100000002000000040000000D2
:100E900080000000EFFFFFFFDFFFFFFFBFFFFFFF4E
:100EA0007FFFFFFF010000000001000000000100C3
:100EB00000000001FBFFFFFFFFFBFFFFFFFFFBFF49
:100EC000FFFFFFFB08000000000800000000080012
:100ED00000000008040000000004000000000400FE
:100EE00000000004300031003200330000400240B6
:100EF0000050024000B002400080034000900340D8
:100F000000A003400060024000E0064000F0064000
:100F100000A0064000B0064000C006404C4D4E0008
:100F20001F0021002300000000000000000000005E
:100F300000000000000000000000000000000000B1
:100F4000000000000000004141414141000000203C
:100F50002020202020202020200040404040400031
:100F60008000484848484848003030303030303001
:100F7000303630303000001B5B303B33316D5B2549
:100F8000735D2047656568792D47333241313436CA
:100F90003520627920636F646572656E642032303B
:100FA00032352E30312E31362074657374696E6798
:100FB0005B6F6B5D21200D0A1B5B306D0D0A001B02
:100FC0005B303B33346D5B25735D20476565687925
:100FD0002D4733324131343635205345474745524A
:100FE0002D5254542074657374696E675B6F6B5D2A
:100FF00021200D0A1B5B306D0D0A001B5B303B335B
:10100000346D5B25735D2047656568792D47333204
:101010004131343635206D646B2D74656D706C61B3
:1010200074652074657374696E675B6F6B5D2120F6
:101030000D0A1B5B306D0D0A001B5B303B33346DBA
:101040005B25735D2047656568792D4733324131F3
:101050003436352072742D74687265616420666957
:101060006E73682074657374696E675B6F6B5D2166
:10107000200D0A1B5B306D0D0A001B5B303B3334C7
:101080006D5B25735D2047656568792D4733324177
:101090003134363520626F6172645F6C65645F69FC
:1010A0006E69745B6F6B5D21200D0A1B5B306D0DEB
:1010B0000A001B5B303B33346D5B25735D20476555
:1010C0006568792D473332413134363520626F619E
:1010D00072645F627574746F6E5F696E69745B6F62
:1010E0006B5D21200D0A1B5B306D0D0A001B5B3010
:1010F0003B33346D5B25735D2047656568792D470B
:101100003332413134363520626F6172645F636F10
:101110006D756172745F696E69745B6F6B5D2120C0
:101120000D0A1B5B306D0D0A001B5B303B33336DCA
:101130005B25735D20477265656E206C6564207069
:10114000696E73206F757470757420737461747533
:10115000733A2025640D0A1B5B306D0D0A006D612A
:10116000696E006273705F627574746F6E00000068
:10117000DFF80CD000F046FB004800476184000017
:1011800000F00020600200000000000000000000ED
:101190000000FF1F60020000B806FF1FB806FF1F17
:1011A000B806FF1F74930000749300001C01002018
:1011B000000000200004FF1FB806FF1F0004FF1FEF
:1011C00074930000BC90000000000020000000208C
:1011D0000000FF1F00EC002072B61448006814499C
:1011E0000968A1EB0001A1F10101012907DD4FF020
:1011F000000240F8042BA1F104010429F9DA00BF30
:101200000C490D4A0A600D4880470D48804762B678
:101210000C480047FEE7FEE7FEE7FEE7FEE7FEE7D5
:10122000FEE7FEE7FEE7FEE7FEE70000D011000064
:10123000D411000008ED00E000000000ED7E000089
:1012400079810000711100002DE9F05F0546002052
:1012500092469B4688460646814640241BE0284627
:1012600041464746224600F0AEF953465A46C01A58
:10127000914110D311461846224600F095F92D1AD7
:1012800067EB01084F4622460120002100F08CF94F
:1012900017EB00094E41201EA4F10104DFDC484693
:1012A00031462A464346BDE8F09F40EA01039B07CA
:1012B00003D009E008C9121F08C0042AFAD203E0CB
:1012C00011F8013B00F8013B521EF9D27047D2B22F
:1012D00001E000F8012B491EFBD270470022F6E71F
:1012E00010B513460A4604461946FFF7F0FF20469C
:1012F00010BD2DE9FE4F804681EA0300C00F0C4669
:10130000009021F0004123F00045B8EB0200A94114
:1013100005D24046214690461C460B46024623F025
:101320000040104347D0270DC7F30A00C3F30A510A
:101330000290401A019040286BDAC3F3130040F486
:10134000801B0098924620B10023D2EB030A63EB86
:101350000B0B01985946C0F14002504600F024F9A9
:1013600006460D4650465946019A00F03CF910EBEE
:1013700008006141002487EA115284EAE7731A43A6
:1013800040D0009A62B3019A012A4FEA075215DC55
:10139000001B61EB02014FF0004202EA0752CDE967
:1013A0000042001C41F5801132462B4600F03CF90A
:1013B00003B0BDE8F08F40462146F9E7001B61EB22
:1013C0000201001C41F5801300185B412018A2F5B2
:1013D000001747EB030140EAD570B6196D4111E0E3
:1013E0006D084FEA360645EAC0754FEA0752001B02
:1013F00061EB0201001C41F5801149084FEA300001
:101400000019514132462B4603B0BDE8F04F00F0C1
:10141000FCB80098012240000023D0EB020263EBED
:10142000E073009821464FEAE074B8EB000061EBEE
:101430000401E9E783F000435BE781F0004158E7EE
:101440002DE9FE4F81EA030404F0004421F000413D
:1014500000944FF0000B23F0004350EA01045ED0EB
:1014600052EA03045BD0C3F30A54C1F30A552C4477
:10147000A4F2F3340194A0FB0254C1F3130141F42C
:101480008011C3F3130343F4801301FB024400FBF8
:10149000034E840A970A44EA815447EA8357A4FB1F
:1014A000076802958D0A05FB07854FEA932C04FB1C
:1014B0000C542705029D4FEA065847EA1637B5EB4C
:1014C00008056EEB070C870E920E47EA811742EA79
:1014D0008312A7FB0201B6EB0B0164EB00042B0D9A
:1014E00043EA0C335E1844EB1C50DA465146E7FBE6
:1014F0000201C5F313044FEA0B3343EA14534FEAD6
:101500000432019C43EA0603A4F10C040294009CFB
:10151000CDE900B400F088F803B0BDE8F08F0020FA
:101520000146F9E7C1F30A5210B5C1F3130140F2C5
:10153000FF3341F480119A4201DA002010BD40F2DD
:1015400033439A42A2F2334203DC524200F03BF8AA
:1015500010BD904010BD00F0004230F000400AD0B5
:10156000C10D01F56071C0F3160042EA0151C208D5
:1015700040071143704700200146704730B50B46C5
:10158000014600202022012409E021FA02F59D42B3
:1015900005D303FA02F5491B04FA02F52844151E87
:1015A000A2F10102F1DC30BD202A04DB203A00FA6E
:1015B00002F1002070479140C2F1200320FA03F3AA
:1015C000194390407047202A04DB203A21FA02F0A8
:1015D0000021704721FA02F3D040C2F1200291406D
:1015E000084319467047202A06DBCB17203A41FAF8
:1015F00002F043EAE07306E041FA02F3D040C2F1A0
:101600002002914008431946704710B5141E73F12B
:10161000000408DA401C41F1000192185B411A43B2
:1016200001D120F0010010BD2DE9F04D92469B46FE
:1016300011B1B1FA81F202E0B0FA80F220329046A4
:10164000FFF7B2FF04460F4640EA0A0041EA0B01E9
:1016500053465A46084313D0114653EA010019D0A5
:10166000C8F140025046FFF7AEFF05460E46504611
:1016700059464246FFF798FF084305D0012004E091
:1016800020463946BDE8F08D0020054346EAE07665
:101690002C4337430A986305E40AA0EB08000022B4
:1016A000FD0A44EA47540A3002D500200146E9E722
:1016B000010510196941DDE9084500196941BDE8D6
:1016C000F04DA2E72DE9F04D81EA030404F0004B50
:1016D00021F0004514464FF0000A23F0004150EA83
:1016E000050220D054EA01021DD0C5F30A57024674
:1016F000C5F31303C1F31300C1F30A5640F4801578
:1017000043F48013A7EB0608101BD64608F2FD38F9
:1017100073EB050002D308F1010801E092185B4168
:10172000B8F1000F03DA00200146BDE8F08D00207B
:101730004FF48011064684460EE0171B73EB050735
:1017400005D3121B63EB050306434CEA010C490861
:101750004FEA300092185B4150EA0107EDD152EA9E
:10176000030012D082EA040083EA0501084305D091
:10177000101BAB4106D20122002306E000224FF0ED
:10178000004302E06FF0010253101AEB06004CEB2D
:10179000085110EB0A0041EB0B01BDE8F04DFFF7DB
:1017A00034BFC1F30A52C1F3130140F2FF3341F4D5
:1017B00080119A4202DA00200146704740F233431A
:1017C0009A42A2F2334202DC5242FFF7FCBEFFF71C
:1017D000EBBE000030B5041E71F1000404DB4FF0D5
:1017E0000044404264EB0101141E73F1000405DB68
:1017F0001C464FF00043524263EB0403994208BF7A
:10180000904230BD064C074D06E0E06840F0010311
:1018100094E8070098471034AC42F6D3FFF7ACFCCD
:101820009C900000BC90000070B58C1810F8015B13
:1018300015F0070301D110F8013B2A1106D110F869
:10184000012B03E010F8016B01F8016B5B1EF9D16D
:101850002B0705D40023521E0DD401F8013BFAE7F3
:1018600010F8013BCB1A921C03E013F8015B01F85E
:10187000015B521EF9D5A142D8D3002070BD0000F3
:1018800041F2631102A0C0F2000103F053BE00BF99
:101890001B5B303B33336D5B25735D202D2D2D3E5F
:1018A000206B65793120707265737320646F756287
:1018B0006C652020636C69636B21203C2D2D2D0D00
:1018C0000A1B5B306D0D0A0041F2631102A0C0F2E9
:1018D000000103F02FBE00BF1B5B303B33336D5B59
:1018E00025735D202A2A2A3E206B657931206C6F92
:1018F0006E6720707265737320686F6C6421203C82
:101900002A2A2A0D0A1B5B306D0D0A0041F2631171
:1019100002A0C0F2000103F00DBE00BF1B5B303B14
:1019200033336D5B25735D202D2D2D3E206B657946
:1019300031206C6F6E6720707265737320737461F1
:10194000727421203C2D2D2D0D0A1B5B306D0D0A6C
:101950000000000041F2631102A0C0F2000103F098
:10196000E9BD00BF1B5B303B33336D5B25735D20EE
:101970002D2D2D3E206B657931207072657373209B
:10198000646F776E21203C2D2D2D0D0A1B5B306D71
:101990000D0A000041F2631102A0C0F2000103F041
:1019A000C9BD00BF1B5B303B33336D5B25735D20CE
:1019B0002D2D2D3E206B657931207072657373205B
:1019C00072657065617421203C2D2D2D0D0A1B5B05
:1019D000306D0D0A0000000041F2631102A0C0F258
:1019E000000103F0A7BD00BF1B5B303B33336D5BD1
:1019F00025735D202D2D2D3E206B65793120707271
:101A000065737320757021203C2D2D2D0D0A1B5BF5
:101A1000306D0D0A0000000041F2631102A0C0F217
:101A2000000103F087BD00BF1B5B303B33336D5BB0
:101A300025735D202D2D2D3E206B65793120707230
:101A4000657373207369676E6C652020636C6963CE
:101A50006B2121203C2D2D2D0D0A1B5B306D0D0AB5
:101A60000000000041F2631102A0C0F2000103F087
:101A700061BD00BF1B5B303B33336D5B25735D2065
:101A80002D2D2D3E206B6579322070726573732089
:101A9000646F75626C652020636C69636B21203C08
:101AA0002D2D2D0D0A1B5B306D0D0A0041F26311C7
:101AB00002A0C0F2000103F03DBD00BF1B5B303B44
:101AC00033336D5B25735D202A2A2A3E206B6579AE
:101AD00032206C6F6E6720707265737320686F6C54
:101AE0006421203C2A2A2A0D0A1B5B306D0D0A0056
:101AF00041F2631102A0C0F2000103F01BBD00BF60
:101B00001B5B303B33336D5B25735D202D2D2D3EEC
:101B1000206B657932206C6F6E672070726573730D
:101B200020737461727421203C2D2D2D0D0A1B5BD6
:101B3000306D0D0A0000000041F2631102A0C0F2F6
:101B4000000103F0F7BC00BF1B5B303B33336D5B20
:101B500025735D202D2D2D3E206B6579322070720E
:101B600065737320646F776E21203C2D2D2D0D0A37
:101B70001B5B306D0D0A000041F2631102A0C0F240
:101B8000000103F0D7BC00BF1B5B303B33336D5B00
:101B900025735D202D2D2D3E206B657932207072CE
:101BA0006573732072657065617421203C2D2D2D45
:101BB0000D0A1B5B306D0D0A0000000041F263113D
:101BC00002A0C0F2000103F0B5BC00BF1B5B303BBC
:101BD00033336D5B25735D202D2D2D3E206B657994
:101BE0003220707265737320757021203C2D2D2D6D
:101BF0000D0A1B5B306D0D0A0000000041F26311FD
:101C000002A0C0F2000103F095BC00BF1B5B303B9B
:101C100033336D5B25735D202D2D2D3E206B657953
:101C200032207072657373207369676E6C65202053
:101C3000636C69636B2121203C2D2D2D0D0A1B5BEC
:101C4000306D0D0A00000000FEE7000080B540F294
:101C50007000C2F200000268D2F8083113B100200F
:101C60000921984744F22000C4F2020001680622CC
:101C7000C0F23B02114208BF80BD0221C0F2300118
:101C80000160006880BD0000002000F0A1B90000E4
:101C9000002000F09DB9000080B540F27000C2F253
:101CA00000000268D2F8083113B1002009219847DA
:101CB00044F22000C4F2020002680421C0F20B01C9
:101CC0000A421CBF0160006880BD0000B0B540F250
:101CD0007000C2F20000046844F20000C4F2020086
:101CE0000068400428D544F60835C4F20205286887
:101CF000C0030DD5286840F480302860D4F800C1B6
:101D0000BCF1000F04D00020052100222346E0474B
:101D10002868800358BFB0BD286840F400302860B0
:101D2000D4F800C1BCF1000F06D00020062100222B
:101D30002346BDE8B0406047B0BD000080B540F22A
:101D40007000C2F200004268D2F8083113B10120DD
:101D50000921984745F22000C4F2020001680622DA
:101D6000C0F23B02114208BF80BD0221C0F2300127
:101D70000160006880BD0000012000F029B900006A
:101D8000012000F025B9000080B540F27000C2F2D9
:101D900000004268D2F8083113B1012009219847A8
:101DA00045F22000C4F2020002680421C0F20B01D7
:101DB0000A421CBF0160006880BD000080B540F28F
:101DC0007000C2F200008268D2F8083113B102201C
:101DD000092198474BF22000C4F202000168062254
:101DE000C0F23B02114208BF80BD0221C0F23001A7
:101DF0000160006880BD0000022000F0E9B800002A
:101E000080B540F27000C2F200008268D2F808315A
:101E100013B10220092198474BF22000C4F20200BE
:101E200002680421C0F20B010A421CBF0160006875
:101E300080BD000070B5054640F27000C2F200009F
:101E400050F8254094F81001C0B16079032827D0DC
:101E500094F81101266803F09DFA3068810202D4DB
:101E60007168890C7160C0F30340F16886F848001E
:101E700008BAB168F06008BAB06011E040F6EC60F2
:101E8000C0F2000050F82500816A21F02001816233
:101E9000816A21F080018162816A21F040018162C2
:101EA00000202060617903290CD06071D4F80061B2
:101EB00046B194F81001012804D1284607210022D8
:101EC0002346B047A079002808BF70BD607900B1F3
:101ED00070BD201DBDE8704005F09CBA70B5036868
:101EE0001B0501D4102307E0D0F8003C0825C3F3FC
:101EF000014305FA03F308334FF40075B5FBF3F51E
:101F00009B08EDB2B1FBF5F404FB1511594301EB4D
:101F1000C41100EB810C5CF8801FC1F3034EBEF1CD
:101F2000090F12D3090C01F00F03092B0BD34FF04B
:101F3000E04303EB017140F2B1530917C0F2000313
:101F400013F801E001E04FF0000E016809054FF0C1
:101F5000080104D5D0F8003CC3F3014399408E45F5
:101F60000CF108060AD901684FF0080E090505D5DD
:101F7000D0F8000CC0F301400EFA00FE82F848E0F1
:101F8000DCF800001060DCF80410800258BF890CF7
:101F90001EF0FC0051600DD0002104237458D518A8
:101FA00024BA6C601C1D043183422346F6D3201FE3
:101FB000C0B200E00020704528BF70BD02F10801EA
:101FC00080F00302B25C0A5401308645F8D170BD3E
:101FD0002DE9F04794B0824640F6EC60C0F2000074
:101FE00050F82A4040F27008C2F2000858F82A90CF
:101FF000A06A216B0026084000F001000AE000BF43
:10200000A06A216B084006F01F01C84000F00100E3
:10201000202E07D038B91E2E06F10106F0D9002077
:10202000202EF7D12026002800F071812068072E8D
:1020300028D810F0005025D0072E2FD0062E37D0EC
:10204000052E40F0EA8099F80500012840F0E5806F
:10205000D9F80010D4F88020C2F303400928C0F05A
:10206000B280100C00F00F02092AC0F0AB804FF0D4
:10207000E04202EB007040F2B1520017C0F20002E1
:10208000105CA0E009EBC60515F8050F012840F02B
:10209000C4802068000518D410201EE08020206332
:1020A000D9F80051002D00F0B8805046042108E016
:1020B00040202063D9F80051002D00F0AE8050463A
:1020C000032100224B46A847A7E0D4F8000C0821C2
:1020D000C0F3014001FA00F008304FF40071B1FB89
:1020E000F0F18008C9B2B6FBF1F202FB116148437E
:1020F00000EBC21004EB8000D0F8800059F83620C5
:1021000020463146FFF7EAFE1F2E05D806F01F00D5
:10211000012101FA00F020632068800004D559F8FD
:102120003600C078000724D0A06800202870D9F8B5
:10213000007127B15046012132464B46B8472878F6
:1021400000286AD158F82A001F2E08D806F01F016F
:102150000122A36A02FA01F123EA0101A16200EB64
:10216000C605A87910B1281D05F054F90020687142
:1021700053E02068000501D4102007E0D4F8000CDB
:102180000821C0F3014001FA00F008304FF400715B
:10219000B1FBF0F18008C9B2B6FBF1F202FB1161AC
:1021A000484300EBC21004EB8000D0F8801021F00F
:1021B0007061C0F88010D0F8801041F08061C0F8E4
:1021C0008010B2E7002081F84800D4F880200A602F
:1021D000D4F88430920258BF9B0C4B6050B104F18C
:1021E00088020831002300BFD7583FBACF500433CC
:1021F0008342F9D320202063002089F80500D9F814
:10220000005125B15046022100224B46A84799F8BB
:10221000050010B95046FFF70DFE09EBC600054654
:1022200015F8051F022955D1C07948B3206800056B
:1022300001D4102007E0D4F8000C0821C0F30140BD
:1022400001FA00F008304FF40071B1FBF0F18008A2
:10225000C9B2B6FBF1F202FB1161484300EBC210B8
:1022600004EB8000D0F8800001AA20463146FFF739
:1022700035FEA068019800F07060B0F1806F07D162
:102280001F2E05D806F01F00012101FA00F020637F
:1022900000202870D9F8007127B15046002132463D
:1022A0004B46B8472878A8B958F82A001F2E08D8F6
:1022B00006F01F010122A36A02FA01F123EA0101DB
:1022C000A16200EBC607B87910B1381D05F0A2F87D
:1022D000002078711F2E1AD8A16A06F01F00012372
:1022E000226B83401940114211D02168072E06D875
:1022F00011F0005103D099F8051011B107E02978C9
:1023000029B91F2E9EBF012101FA00F0206314B0ED
:10231000BDE8F0872DE9F04381B04AF21000C4F225
:10232000050001690268436902EA010440F27C0287
:10233000C2F20002476881698068126807EA0305F3
:1023400000EA0108171D00264FF0FF3904E000BF26
:1023500088470136042E15D057F826000028F8D0FB
:1023600081680029F5D00279437909FA02F2D24353
:102370009A40144208BF15EA0203E9D112EA0802A2
:10238000E7D0E5E701B0BDE8F083000000200021C0
:1023900000F05CB80020012100F058B800200221B4
:1023A00000F054B80020032100F050B801200021B3
:1023B00000F04CB80120012100F048B801200221B2
:1023C00000F044B80120032100F040B802200021B1
:1023D00000F03CB80220012100F038B802200221B0
:1023E00000F034B80220032100F030B803200021AF
:1023F00000F02CB80320012100F028B803200221AE
:1024000000F024B80320032100F020B804200021AC
:1024100000F01CB80420012100F018B804200221AB
:1024200000F014B80420032100F010B805200021AA
:1024300000F00CB80520012100F008B805200221A9
:1024400000F004B805200321AFF3008070B540F21E
:102450008002C2F2000252F820201378082B01D02B
:10246000012B63D140F6F863C0F2000353F820C09B
:1024700003294FEA41030BD848B240F6D461C0F2B9
:10248000000151F82000DCF86410084018BF01205A
:10249000C007D8B20CF10C0411D004EBC001D1F884
:1024A00004E043F00101C9B204EBC10464681FFAFF
:1024B0008EF5A6B2AE4210D9A4EB0E0E12E054F87F
:1024C0003000C043C0B243EAD013D9B204EBC1001C
:1024D000406802EB4104A0810FE01589A4EB0E06D1
:1024E00006EB050E02EB4004A4F80CE00CEBC00078
:1024F000C668C66826F08006C6600CEBC100C168DD
:10250000C16821F08001C160D9B202EB8100DCF822
:102510000860436C1681002B08BF70BD1144097F11
:1025200021B1416A0020BDE87040184770BD00002D
:1025300010B582B0844649B90120ADF805008DF888
:1025400002004FF480706946ADF8000044F2003399
:10255000C4F20603186810F0007E0ED1186820F44B
:1025600000001860002018601A6842F080621A604B
:10257000BCF1000F05D102B010BD0220BCF1000F6C
:10258000F9D0BEF1000FF6D14A7891F802C0D3F825
:1025900004E040F207742EEA04045C605C686CF3AB
:1025A0000A2222435A609A6822F003029A604A790A
:1025B00091F806C01C684FF6F671CFF67F71214086
:1025C0000124002A08BF0924BCF1000F18BF04F53C
:1025D00000042144196064211A6812F0807218BF47
:1025E0009C68002AA1F1010202D101291146F3D110
:1025F000002A08BF032002B010BD000010B582B051
:10260000844671B94FF48070ADF8040000208DF855
:10261000060001208DF8020040F201106946ADF875
:10262000000044F20023C4F20603186810F00072A0
:1026300003D002204AB102B010BD186820F4000097
:10264000186000201860002AF5D1BCF1000FF2D00C
:102650004A7891F802C0D3F804E040F207742EEAF9
:1026600004045C605C686CF30A2222435A600A78B6
:102670009C6862F300049C600A7991F805E091F887
:1026800006C019684FF6F874CFF67F742140032412
:10269000002A08BF0124BEF1000F18BF0434BCF1AA
:1026A000000F18BF04F50004214441F2002C19600A
:1026B0006421C0F27A0C00BF1A68D20102D4002251
:1026C00006E000BF9A6802F00102524202EA0C02E0
:1026D000002AA1F1010202D101291146ECD1002A00
:1026E00008BF032002B010BD70B584B0864689B91A
:1026F00040F20010C0F20020019000208DF80C0084
:1027000040F20110ADF8080041F20020C0F27A005A
:102710006946009044F20014C4F20604206840F2B6
:10272000A00C10F00072C2F2000C10D1206820F44E
:102730000000206000202060236843F08063236055
:10274000CCF80000BEF1000F05D104B070BD02202E
:10275000BEF1000FF9D0002AF7D10A7A91F809E00A
:10276000636840F20775AB43636063686EF30A22E7
:102770001A436260CD7991F805E08B79A268302622
:1027800006EA051522F03C0263F3C3050EF00103CF
:102790002A4442EA8302A2600A79022A10D0012A5E
:1027A00020D092BB0A7B23684FF6FE76CFF67C766C
:1027B00033400126C0F28006002A08BF012621E02E
:1027C0000A7B23684FF6FE76CFF67C7633400126EF
:1027D000C0F2800606F54036002A04BF0126C0F28A
:1027E00003060FE00A7B23684FF6FE76CFF67C7671
:1027F00033400126C0F2800606F58036002A08BF65
:102800004FF00116F218226000E001200A6841F63C
:102810007801CCF80020B2FA82F2CFF6CF715209DB
:10282000012300BF2668013106F0807683EA166630
:102830001643012E01D10029F4D1002908BF03203D
:1028400004B070BD70B583B0844651B94FF4E02038
:10285000009000208DF8070040F201106946ADF8A5
:10286000040044F20063C4F20603186810F000721A
:102870000ED1186820F400001860002018601C6851
:1028800044F080641C60BCF1000F05D103B070BD42
:102890000220BCF1000FF9D0002AF7D14FF6003C1E
:1028A00044F2046ECFF6FF7CC4F2060E53F80C20FF
:1028B0000A794C79DEF8005040F20776B543CEF83D
:1028C0000050DEF8005064F30A222A43CEF80020BC
:1028D0008C784A78DEF804504FF6FF0604F01F04A7
:1028E000CFF6E076240402F00702354044EA0222E3
:1028F0002A44CEF804200A78022A12D0012A22D0D3
:10290000A2BBC9791A684FF6FE74CFF67C742240D8
:102910000124C0F2030404F5FA04002908BF0124CD
:1029200021E0C9791A684FF6FE74CFF67C74224014
:102930000124C0F2030404F50004002904BF0124AB
:10294000C0F203040FE0C9791A684FF6FE74CFF69F
:102950007C7422400124C0F2030404F5FC04002925
:1029600008BF4FF00114A118196000E0012040F2E7
:10297000A001C2F2000109684FF47A721C68E401F8
:1029800002D4002415E000BF53F80C40E4014FF0DE
:1029900000040ED569B1DEF80440DEF80450C4F33B
:1029A00002240134B1FBF4F4C5F3044510356C4343
:1029B0006408002CA2F1010402D1012A2246DDD1D3
:1029C000002C08BF032003B070BD00002DE9F043C8
:1029D00091F800C091F8019091F802E0C9780EF1E9
:1029E00001034F1E09F101040CF10105052F4FF001
:1029F00000063ED8DFE807F00311243D3D3344F2E2
:102A00000012C4F2060240F2A0061268C2F20006EA
:102A10003668D20106EAE2762BE044F20016C4F2F0
:102A20000606D6F80021D20122D5D6F8082141F2B7
:102A3000002602F001025242C0F27A06164018E067
:102A400044F20016C4F20606D6F80022D2010FD5D1
:102A5000D6F8082246F60046C0F2DC2609E044F229
:102A60000868C4F2060858F8082CD20100F18780E3
:102A7000002604FB03F75D4301284FEA161433D008
:102A8000032861D0022877D140F2B84601EB41001B
:102A9000C0F2000656F8202012095A4394426BD81F
:102AA00006EB8000426812097A43944264D8806839
:102AB0000009684384425FD801F00F004FEA091112
:102AC000F02341EA0E41C0F20F030CF00F0219404F
:102AD000114441EA006044F20011C4F2060141F8D9
:102AE000E80C0020BDE8F08340F2644601EB4100B1
:102AF000C0F2000656F8202012095A4394423BD8EF
:102B000006EB8000426812097A43944234D8806808
:102B10000009684384422FD801F00F004FEA0911E1
:102B2000F02341EA0E41C0F20F030CF00F021940EE
:102B3000114441EA006044F20011C4F2060141F878
:102B4000EC0C0020BDE8F08340F2104601EB4100A0
:102B5000C0F2000656F8202012095A4394420BD8BE
:102B600006EB8000426812097A43944204D88068D8
:102B700000096843844222D90120BDE8F08344F271
:102B80000012C4F2060212680026D2017FF571AF6E
:102B900040F2A002C2F200021768002F3FF469AFB2
:102BA000D8F80020D8F80060C2F302220132B7FB47
:102BB000F2F2C6F3044610367243560859E701F0A4
:102BC0000F004FEA0911F02341EA0E41C0F20F0352
:102BD0000CF00F021940114441EA006044F2001168
:102BE000C4F2060141F8E40C0020BDE8F0830000C7
:102BF0003C38052809D8DFE800F009141F2A030330
:102C0000002908BF704700200860704748F20C0098
:102C1000C4F204000068C0F30160032821D1002041
:102C200025E048F20C00C4F204000068C0F38160A3
:102C3000032816D100201AE048F20C00C4F2040068
:102C40000068C0F3017003280BD100200FE048F2A8
:102C50000C00C4F204000068800F032801D100209A
:102C600005E040F20C12C2F2000252F820000029E6
:102C700018BF08607047000048F21000C4F204005A
:102C8000016811F00C0F04BF4FF4FA30704701686F
:102C900001F00C01042904BF00207047016801F015
:102CA0000C020168082A05D188074FF4FA4101EAAD
:102CB000E070704701F00C010C2902D1016889070E
:102CC00001D400207047006800F00100404200F489
:102CD0007A7070472DE9F04182B00D460646002714
:102CE0004B28019706D145F20010C4F20600006897
:102CF000C0F3C0074B2E0AD145F20010C4F2060003
:102D0000006800F00704A74200F2BD8003E0002441
:102D1000A74200F2B88045F20008C4F20608404617
:102D2000314604F0CFFD002800F0AD80404631462A
:102D300004F03AFE012817D14FF20010CFF6FF70D1
:102D400040F2A00158F80000C2F200010968C00179
:102D500001EAE0704FF20411CFF6FF7158F801104C
:102D6000002D18BF090A7FE04046314604F01CFEE2
:102D700002280BD14FF20020CFF6FF7058F8000068
:102D800000F0807005B310BB00202EE040463146B5
:102D900004F00AFE03280BD14FF20030CFF6FF708B
:102DA00058F8000000F0807045B3D8BB002043E025
:102DB0004046314604F0F8FD062819D1072029467F
:102DC00000F0BEF9019057E0D8B9002027E04FF29B
:102DD0000820CFF6FF7058F8000041F2002100F003
:102DE00001004042C0F27A0108404FF2042125E080
:102DF00001A93046FFF7FCFE00243DE020BB002087
:102E00002CE04FF20820CFF6FF7058F8000041F296
:102E1000002100F001004042C0F27A0108404FF268
:102E200004211DE04FF20830CFF6FF7058F8000083
:102E300046F60040C0F2DC204FF20431CFF6FF71BD
:102E400058F80110090A0FE04FF20830CFF6FF7072
:102E500058F8000046F60040C0F2DC204FF2043182
:102E6000CFF6FF7158F8011011F00701A1F101022E
:102E700018BF20FA02F101910198611CB0FBF1F03A
:102E8000791C48430190019802B0BDE8F081000030
:102E900044F22001C4F20601086810F0706F10D0EF
:102EA000086800F07060B0F1807F0DD1D1F8E000CB
:102EB00040F2A001C2F200010968C00101EAE0701D
:102EC0007047022000F02CBA086800F07060B0F182
:102ED000007F0ED1D1F8E001C00125D5D1F8E8017D
:102EE00041F2002100F001004042C0F27A010840A6
:102EF0007047086800F07060B0F1407F0AD1D1F8E7
:102F0000E002C00110D5D1F8E80246F60040C0F258
:102F1000DC207047086800F07060B0F1C06F21D10C
:102F2000D1F8E005C00101D400207047D1F8E000DD
:102F3000C0014FF0000015D540F2A002C2F200021D
:102F40001268002A08BF7047D1F8E805D1F8E815E3
:102F5000C0F302200130B2FBF0F0C1F304411031A4
:102F6000484340087047000010B548F20404C4F21A
:102F70000404206800055CBF002010BD206810F02C
:102F8000F00F13D0206800F0F000202811D144F297
:102F90000010C4F2060040F2A0020168C2F2000272
:102FA0001268C901406802EAE17140E0FFF770FF72
:102FB00044E0206800F0F000402809D144F20010FD
:102FC000C4F20600D0F80011C90112D400211AE0A1
:102FD000206800F0F000602818D144F20010C4F21C
:102FE0000600D0F80012C90119D4D0F8040200215B
:102FF0001DE0D0F8081141F2002201F00101494220
:10300000C0F27A021140D0F8040110E0206800F00C
:10301000F000702819D1002000F082F90EE0D0F8FD
:10302000081246F60041D0F80402C0F2DC21C0F3D9
:103030000220421E002818BF21FA02F02168C1F3C5
:1030400002210131B0FBF1F010BD206800F0F0006A
:10305000802804D10720012100F072F8EEE72068F3
:1030600000F0F000902803D1012000F059F9E5E7C5
:10307000206800F0F000A02802D14FF4FA30DDE71C
:10308000206800F0F000C02802D1FFF7F5FDD5E779
:10309000206800F0F000E02814BF002000F002F8E3
:1030A000CCE7000048F21000C4F20400016811F0FF
:1030B000300F0BD0016801F030020168102A14D1E2
:1030C00088074FF4FA4101EAE070704744F20010BB
:1030D000C4F2060040F2A0020168C2F200021268C7
:1030E000C901406802EAE17122E001F030012029C3
:1030F00005D140F20810C2F2000000687047006875
:1031000000F0300030281CBF0020704744F200104F
:10311000C4F20600D0F80012C90101D4002105E074
:10312000D0F8081246F60041C0F2DC21D0F80402C3
:1031300010F00700A0F1010218BF21FA02F0704759
:10314000043889B1032822D80FF20401DFE800F027
:1031500002222C3D44F20010C4F20600D0F8001107
:10316000C9016CD4002174E003285BD80FF204017C
:10317000DFE800F0025B394A44F20010C4F20600B6
:10318000D0F80011C90100F1AC800021B3E00021AA
:103190000020BFE044F20010C4F20600D0F8001294
:1031A000C9015BD400215FE044F20010C4F20600C4
:1031B00040F2A0020168C2F2000212684068C90130
:1031C00002EAE171C0F30220A4E044F20011C4F26B
:1031D0000601D1F80005C00144F20860C4F20600FF
:1031E00047D400215CE044F20010C4F2060040F233
:1031F000A0020168C2F2000212684068C90102EA36
:10320000E17100F0070085E044F20011C4F206010C
:10321000D1F80005C00144F20860C4F2060044D4AD
:10322000002159E00021002074E044F20010C4F2B3
:103230000600D0F80012C90162D4002166E0D0F87F
:10324000081141F2002201F001014942C0F27A0264
:103250001140D0F80401C0F302205BE0D0F808125E
:1032600046F60041C0F2DC21D0F80402C0F302208F
:1032700050E00968C9014FF0000111D540F2A002E9
:10328000C2F2000212685AB101680368C1F3022158
:103290000131B2FBF1F1C3F304421032514349084A
:1032A00050F8040CC0F3022034E00968C9014FF063
:1032B000000111D540F2A002C2F2000212685AB118
:1032C00001680368C1F302210131B2FBF1F1C3F3DC
:1032D000044210325143490850F8040C00F0070032
:1032E00018E0D0F8081141F2002201F00101494232
:1032F000C0F27A021140D0F8040100F0070009E0A2
:10330000D0F8081246F60041C0F2DC21D0F80402E1
:1033100000F00700421E002818BF21FA02F0704793
:1033200044F21002C4F20602116801F07061B1F1BA
:10333000807F0AD140F2A003D2F8F010C2F200035D
:103340001B68C90103EAE17130E0116801F07061A6
:10335000B1F1007F0ED1D2F8F011C90125D5D2F814
:10336000F81141F2002301F001014942C0F27A0351
:1033700019401BE0116801F07061B1F1407F0AD182
:10338000D2F8F012C90110D5D2F8F81246F6004171
:10339000C0F2DC210AE0116801F07061B1F1C06F88
:1033A00003D1D2F8F015C90115D400211368C3F375
:1033B000034303F10103B1FBF3F150B1012802D142
:1033C0001068000900E0106800F00F000130B1FB48
:1033D000F0F108467047D2F8F010C9014FF0000133
:1033E000E4D540F2A003C2F200031B68002BDDD03D
:1033F000D2F8F815C1F3022101F1010CD2F8F81549
:10340000B3FBFCF3C1F30441103159434908CDE744
:103410002DE9F04385B00D460446A9BB012144F2D5
:1034200000108DF80C104FF00111C4F20600CDF819
:103430000E10D0F80011C90103D5D0F80811C90742
:103440001ED1D0F80012C90116D4D0F80015C90158
:1034500044BF02685FEAC21240F2A001C2F200015A
:1034600000F19680026809680620002908BF5120F3
:10347000D10158BF512004E0D0F80802052000E037
:10348000042003AD8DF80D0040F62670C0F2000058
:10349000005DC1070CD110F0180F1ED068780438F9
:1034A000C1B2032919D840B247A151F8208016E0D3
:1034B000A4F12101042900F284802878DFE801F0DA
:1034C0000335414D590048F24001C4F204010A6835
:1034D000002873D042F0100056E04FF000084B2C4B
:1034E00006BF6888A0F101094FF000094B2C06BF08
:1034F000A888461E002644F20010C4F2060000F51B
:10350000706738462146002203F0A0FF2878002883
:1035100057D038462146012243460096CDF8049004
:1035200004F006F805B0BDE8F08348F24001C4F2AB
:1035300004010A6800280CBF22F0080042F00800CD
:1035400022E048F24001C4F204010A6800280CBFDE
:1035500022F0040042F0040016E048F24001C4F2F8
:1035600004010A6800280CBF22F0020042F00200A9
:103570000AE048F24001C4F204010A68002814BFBE
:1035800042F0010022F00100086005B0BDE8F083C0
:103590000A68002A3FF466AFD0F80835D0F80875FD
:1035A000C3F302230133B2FBF3F2C7F30443103336
:1035B0005A43012A7FF656AF072062E722F0100037
:1035C000086005B0BDE8F0830200000003000000C1
:1035D00001000000060000002DE9F04FD1B0804648
:1035E000002876D140F20C5127ACC0F200012046F1
:1035F000A522FDF75AFE4FF48071ADF82810ADF802
:103600003310ADF8131003218DF840100321C0F2E0
:10361000012141F20020CDF8461040F20311C0F222
:103620007A00C0F2006107900120CDF84A1040F204
:103630000111C0F2021040F60042C0F20031CDF894
:1036400021000120C0F20012CDF8421021210DF11D
:103650000C0800258DF82500CDF82D208DF83100BF
:103660004FF0011240F201168DF80E008DF81A008D
:10367000ADF818008DF815008DF83C008DF841006C
:103680008DF84F002491ADF8540014908DF88F0000
:103690008DF85C0008F1540024218DF820508DF83D
:1036A0002C50CDF80F20ADF80C600E952594ADF898
:1036B00057608DF85650FDF711FE4FF00130CDE9FF
:1036C0002100ADF88C508DF88E50ADF898608DF8D3
:1036D0009A5040F20814C2F200044FF00009B8F109
:1036E000000FC4F8009000F0978044F200364FF6C7
:1036F000105BC4F20606CFF6FF7B56F80B0000F015
:103700007060B0F1407F02D14FF000094AE03068AC
:10371000C00108D401200021FEF70AFF8146B9F15B
:10372000000F3FD105E0B0684FF00009B9F1000F7C
:1037300038D140F203114EF21400C0F20031C4F24D
:10374000070027910168C9B2802905D10320042808
:1037500012D14FF0010925E00168C9B2012903D156
:1037600001200428F5D007E00068C1B20420042934
:1037700008BF02200428ECD027A9FFF727F98146CB
:1037800080B90B2056F80B1001F07061B1F1407F49
:10379000A0F1010102D001280846F3D1002908BF99
:1037A0004FF00309B9F1000F00F07281B9F1000F79
:1037B00032D198F84300A8B108F136010120FFF793
:1037C00005F9814628B908F13E010320FFF7FEF80C
:1037D0008146B9F1000F05D108F13A010220FFF747
:1037E000F5F8814698F8300000281CBFD8F82C0066
:1037F000206098F8350078B14FF62051CFF6FF7170
:1038000098F83400725800F00F0022F07062725085
:10381000725842EA00607050B9F1000F03D0484678
:1038200051B0BDE8F08F98F84400002848F26800D5
:10383000C4F204001BD098F8451098F8462098F878
:10384000473050F8647C002962F3071740F8647C25
:1038500050F8642C63F30A2240F8642C50F8642C6E
:1038600022F4006218BF02F5006240F8642C98F858
:103870007810A1B398F8791050F8282C22F00102A2
:10388000114340F8281C98F87A1050F8282C002989
:1038900022F0020218BF023240F8282C98F87B1060
:1038A00050F8282C002922F0040218BF043240F8F6
:1038B000282C98F87C1050F8282C002922F00802B7
:1038C00018BF083240F8282C98F87D1050F8282CA2
:1038D000002922F0100218BF103240F8282C98F866
:1038E0004810D1B198F84A2098F8491098F84B3010
:1038F00098F84C7050F8586C02F0030226F03F061E
:10390000002B18BF47F0020747EA820201F00301CB
:10391000324342EA011140F8581C98F87E1089B3EE
:103920000021016098F8801050F8642C61F30C328B
:1039300040F8642C016821F080510160016821F099
:103940000E010160016821F001010160016821F0B0
:103950008051016098F87F10A1B198F8811098F813
:103960008220036823F080530360036861F34303FC
:103970000360016821F0010111430160016841F019
:103980008051016098F85010002938D040F20C1294
:103990005021C2F2000200BF08EB01035B68571818
:1039A00004315C2947F8503CF6D108F1600100224F
:1039B00004E040F85C3C0132062A20D0D3B2032B4D
:1039C000F9D851F82270DFE803F00A0F150300BFA1
:1039D00050F85C3C23F0404343EA8773E9E750F832
:1039E0005C3C67F31963E4E750F85C3C67F39B6366
:1039F000DFE700BF50F85C3C67F31D73D9E798F828
:103A00008C00B8B14DF20201C4F2070198F88E00A3
:103A10008A7800F01F0002F0E0021044887098F8E5
:103A20008D000A78B0FA80F0400902F07F0242EA85
:103A3000C0100870D8F8880000283FF4F0AED8F81D
:103A4000840000283FF4EBAE44F20030C4F20600DC
:103A5000002700F5506600BFD8F8880007EB8705FF
:103A6000415D3046002203F0F1FCD8F8880044198B
:103A7000415D20796278A378E57800903046019521
:103A800003F056FDD8F8840001378742E4D3C6E638
:103A900098F81D0008F11001FEF726FE814668B96E
:103AA00098F803004146FEF7A9FD814630B998F821
:103AB000280008F12001FEF7C5FE81464EF21405EC
:103AC000C4F207052868C0B2802809D10320012864
:103AD00016D108F1360AB9F1000F7FF467AE4BE05A
:103AE0002868C0B2012803D101200128F1D007E0E5
:103AF0002868C1B20420042908BF02200128E8D0A8
:103B00002868C0B2802809D10320022816D108F104
:103B10003A0AB9F1000F7FF449AE2DE02868C0B22F
:103B2000012803D101200228F1D007E02868C1B2A2
:103B30000420042908BF02200228E8D02868C0B267
:103B4000802801D103200BE02868C0B2012801D1F0
:103B5000012005E02868C1B20420042908BF022022
:103B60004FF0000A032814BF4FF0010908F13E0A84
:103B7000B9F1000F7FF41AAE9AF80370032F0FD13A
:103B800098F81D00002800F0A88040F20110C0F253
:103B9000001027902868C0B2802817D103209AE02F
:103BA0008DF89F709AF80200BAF800108DF89E0008
:103BB000ADF89C102868C0B2802801D1032011E024
:103BC0002868C0B2012807D101200BE02868C0B2E4
:103BD00001287AD101207EE02868C1B2042004299E
:103BE00008BF0220042802D14FF0010915E027A9DF
:103BF000FEF7ECFE814680B90B2000BF56F80B1093
:103C0000C1F30361B942A0F1010102D001280846C5
:103C1000F4D1002908BF4FF00309B9F1000F7FF478
:103C2000C5AD98F80E10306810F000700CD13268F5
:103C30004FF0000922F400023260C6F800903268AA
:103C400042F08062326001E04FF0020900293FF447
:103C5000ADAD00287FF4AAAD98F8080098F80910D7
:103C6000726840F207739A437260726861F30A20C7
:103C700010437060B0684FF6F67320F00300B06038
:103C800098F80C0098F80D103268CFF67F731A4040
:103C90000123002808BF0923002918BF03F50003EA
:103CA00098183060642000BF316811F0807118BF2F
:103CB000B2680029A0F1010102D101280846F3D120
:103CC000002908BF4FF0030970E52868C1B204203D
:103CD000042908BF0220042802D14FF0010915E091
:103CE00027A9FEF773FE814680B90B2056F80B100A
:103CF00001F07061B1F1807FA0F1010102D00128D3
:103D00000846F3D1002908BF4FF0030998F82800AE
:103D1000A0B3B9F1010F31D140F20110C0F202603D
:103D200027902868C0B2802801D103200BE02868C2
:103D3000C0B2012801D1012005E02868C1B20420E9
:103D4000042908BF0220042802D14FF0010915E020
:103D500027A9FEF73BFE814680B90B2056F80B10D1
:103D600001F07061B1F1C06FA0F1010102D0012832
:103D70000846F3D1002908BF4FF0030998F8030063
:103D800098B3B9F1010F30D10120C0F20020279083
:103D90002868C0B2802801D103200BE02868C0B297
:103DA000012801D1012005E02868C1B204200429BE
:103DB00008BF0220042802D14FF0010915E027A90D
:103DC000FEF704FE814680B90B2056F80B1001F077
:103DD0007061B1F1007FA0F1010102D00128084615
:103DE000F3D1002908BF4FF00309B9F1000F7FF4A8
:103DF000DDAC98F80E10306810F000700CD132680D
:103E00004FF0000922F400023260C6F800903268D8
:103E100042F08062326001E04FF00209C1B3B8BBEA
:103E200098F8080098F80910726840F207739A43EE
:103E30007260726861F30A2010437060B0684FF6D8
:103E4000F67320F00300B06098F80C0098F80D109D
:103E50003268CFF67F731A400123002808BF092378
:103E6000002918BF03F5000398183060642000BFD4
:103E7000316811F0807118BFB2680029A0F101010A
:103E800002D101280846F3D1002908BF4FF00309E9
:103E9000B9F1000F7FF48AAC9AF803709AF8020027
:103EA000BAF800108DF89F708DF89E00ADF89C1048
:103EB0002868C0B2802801D103200BE02868C0B276
:103EC000012801D1012005E02868C1B2042004299D
:103ED00008BF0220042803D14FF00109FFF766BC98
:103EE00027A9FEF773FD814600287FF45FAC0B2005
:103EF00056F80B10C1F30361B942A0F101013FF480
:103F0000DFAE01280846F3D1DAE60000F0B581B053
:103F1000054611280C461BD8112D00F27580DFE8EC
:103F200015F01200760078007C0080009300A2005B
:103F3000B000BC00C200C600D100DC00E900F60001
:103F400005011401250100200026FFF7E9F9A3E28D
:103F5000252D23D8A5F11501042710294FF00000C5
:103F600000F2E581DFE811F0110013011C012501C9
:103F7000E301E30139013D01580177018E01A201FE
:103F8000B101BB01C501CF01D90148F21000C4F253
:103F9000040050F8040CC0F3016011E14F2D1AD851
:103FA00045F20000C4F20600294603F08BFCA0B1E4
:103FB000272D0ED3A5F133001C2800F2A182012188
:103FC00001FA00F048F24111C1F20001084200F08C
:103FD0009782042603E004269BE24FF480760020BB
:103FE000002800F0928240F62670C0F20000475D83
:103FF000780607D4B80600F1AF813A2D40F062820E
:104000000220AAE10020A8E10020042644E20120C9
:1040100000E00220FFF784F93DE20026FEF7A4FF4E
:104020003AE244F20010C4F20600D0F80011C901CF
:1040300030D5D0F8080141F2002100F001004042E3
:10404000C0F27A01084026E244F20011C4F20601EF
:10405000D1F80002C0011DD546F60040D1F8081283
:10406000C0F2DC2017E244F20010C4F2060040F275
:10407000A0010068C2F200010968C00101EAE07015
:1040800009E244F20010C4F20600D0F80015C9019C
:1040900000F1798100260020FEE140F20810C2F212
:1040A00000000068F7E10026FEF7F2FEF4E144F2BA
:1040B0000010C4F20600D0F80011C90100F181819E
:1040C000002188E144F20010C4F20600D0F800118B
:1040D000C90100F1838100218AE144F20010C4F299
:1040E0000600D0F80012C90100F18581D0F8040261
:1040F0000021ABE144F20010C4F20600D0F8001237
:10410000C90100F18181D0F804020021BCE144F230
:104110000010C4F2060040F2A0020168C2F20002E0
:104120001268C901406802EAE1718FE144F20010AF
:10413000C4F2060040F2A0020168C2F20002126856
:10414000C901406802EAE1719EE144F20011C4F243
:104150000601D1F80005C00144F20860C4F206006F
:1041600000F15B8150F8040C00216FE144F2001172
:10417000C4F20601D1F80005C00144F20860C4F29F
:10418000060000F1688150F8040C00217CE148F23F
:104190001000C4F2040050F8040CC0F381600FE07A
:1041A00048F21000C4F2040050F8040CC0F301708F
:1041B00006E048F21000C4F2040050F8040C800F2E
:1041C000032802D100200027B1E040F20C11C2F216
:1041D000000151F820000027A9E00027FEF7C4FEE7
:1041E000A5E048F21000C4F20400016811F0300F9D
:1041F00000F06F81016801F030020168102A28D0B8
:1042000001F03001202940F08D8140F20810C2F207
:104210000000006800278AE04DF20200C4F20700A7
:1042200090F900000028CDD448F21000C4F2040038
:10423000016811F00C0F00F06F81016801F00C01B2
:104240000429BFD0016801F00C020168082A40F07F
:104250007981880724E04DF20200C4F2070090F94A
:1042600000000028AED448F21000C4F20400016837
:104270008907A7D50068002700F00100404200F43C
:104280007A7054E04DF20200C4F2070090F9000089
:10429000002897D448F21000C4F204000068800798
:1042A0004FF4FA4101EAE070002740E04DF20200CD
:1042B000C4F2070090F900000027B0F1FF3F4FF073
:1042C0000000C8BF4FF4FA3031E048F21000C4F2E9
:1042D0000400006B4FF4807121EA001726E048F2D9
:1042E0001000C4F20400006B4FF4807121EA401703
:1042F0001CE048F21000C4F20400006B4FF480711F
:1043000021EA801712E048F21000C4F20400006BAA
:104310004FF4807121EAC01708E048F21000C4F29F
:104320000400006B4FF4807121EA00270020A5F102
:104330002101C9B2042903D817B90120FEF7F0FF03
:10434000002C3E4618BF2060042F18BF4FF4807623
:10435000002818BF3E46DCE00120FEF7E1FFB0FA7E
:1043600080F2520901461602002818BF01210029D7
:1043700000F0CB8017F0180F00F0C880F80600F1AD
:104380008F80002090E000680026C00140F1C880C6
:1043900040F2A000C2F200000168002000297BD09A
:1043A00044F20860C4F2060002680068C2F3022208
:1043B0000132B1FBF2F1C0F3044010304843400831
:1043C00069E0D0F8081141F2002201F001014942F0
:1043D000C0F27A021140D0F8040137E0D0F8081199
:1043E00041F2002201F001014942C0F27A0211407B
:1043F000D0F8040148E0D0F8081246F60041D0F8A1
:104400000402C0F2DC2121E0D0F8081246F6004197
:10441000D0F80402C0F2DC2136E00968C9014FF08F
:10442000000111D540F2A002C2F2000212685AB196
:1044300001680368C1F302210131B2FBF1F1C3F35A
:10444000044210325143490850F8040C10F00700A0
:10445000A0F101021CE00968C9014FF0000111D56B
:1044600040F2A002C2F2000212685AB10168036869
:10447000C1F302210131B2FBF1F1C3F30442103266
:104480005143490850F8040CC0F30220421E002892
:1044900018BF21FA02F00026002C18BF206038E077
:1044A00028460121FEF716FCA5F1420111F1060F85
:1044B00003D328460021FEF70DFC002808BF4FF467
:1044C000807623E000210426002000297FF452AFEB
:1044D0001BE044F20010C4F2060040F2A0020168A2
:1044E000C2F200021268C901406802EAE17110F0EC
:1044F0000700A0F1010218BF21FA02F0002716E719
:104500000026012000287FF46EAD0020002C18BF8B
:104510002060304601B0F0BD00274FF4FA3006E7C6
:104520000020B9E7006800F0300030287FF44AAE80
:1045300044F20010C4F20600D0F80012C90107D4FA
:1045400000210BE001F00C010C297FF43BAE8EE65C
:10455000D0F8081246F60041C0F2DC21D0F804027F
:10456000C5E7000010B586B040F20141C0F201017C
:10457000049100210120CDE902114FF4E131ADF8A1
:104580001400CDE900012F200021FEF741FF04A90E
:104590004D20FEF73DFF4BF20004C4F20404204618
:1045A0000721022203F028FB20460621022203F005
:1045B00023FB20460721002203F02CFB2046062186
:1045C000002203F027FB40F2C401C2F200016A4658
:1045D000012002F02BF904F5003002F0EDF806B0EE
:1045E00010BD0000F0B541F2000EC1F2004EDEF841
:1045F0000400000C7F2800F32B8001383F2800F2D4
:10460000308000220123DFE800F04E202C362C2CD5
:104610002C392C2C2C2C2C2C2C3C2C2C2C2C2C2CBD
:104620002C2C2C2C2C2C2C2C2C3F2C2C2C2C2C2CB7
:104630002C2C2C2C2C2C2C2C2C2C2C2C2C2C2C2CBA
:104640002C2C2C2C2C2C2C2C2C4240F2036229E0FC
:10465000B0F5007F07DB1DD0B0F5806F1DD0B0F541
:10466000006F01221EE080281AD0B0F5807FF8D1BB
:1046700040F20F6216E040F2066213E040F205627B
:1046800010E04FF4C1620DE040F204620AE040F233
:10469000096207E040F2116204E040F20C6201E0BE
:1046A00040F20762002340F2980CC2F2000CDCF8E2
:1046B0000000002B428000F08E80D0E906130479C0
:1046C000027D0B44E4B1042A38D3002003240021E6
:1046D00000F1100525F003055EF8055040F00107D4
:1046E0002E0E1E542E0CDE552E0A40F00200043110
:1046F0001E54C8B21D5540F003049442E8D31EE096
:10470000042A3AD300200324002100BF00F1200531
:1047100025F003055EF8055040F001072E0E1E54EB
:104720002E0CDE552E0A40F0020004311E54C8B291
:104730001D5540F003049442E8D31FE00021C9B2A4
:10474000914207D321E000BFC0F307405854013124
:104750008A421AD001F1100000F0FC005EF800005F
:1047600001F00304022C05D0012CEDD0002C08BF71
:10477000000EEBE7C0F30720E8E70021C9B2914241
:1047800016D3DCF8000001210171DCF80000017D86
:10479000826903691144994281611CD2BDE8F040ED
:1047A00000F084BAC0F30740585401318A42E8D07F
:1047B00001F1200000F0FC005EF8000001F00304AD
:1047C000022C05D0012CEDD0002C08BF000EEBE729
:1047D000C0F30720E8E700210170F0BD2DE9F043A8
:1047E00081B041F20009C1F20049D9F80400000C7F
:1047F0007F2800F32B80421E3F2A00F230800020E9
:104800000121DFE802F04E202C362C2C2C392C2CE8
:104810002C2C2C2C2C3C2C2C2C2C2C2C2C2C2C2CC8
:104820002C2C2C2C2C3F2C2C2C2C2C2C2C2C2C2CB5
:104830002C2C2C2C2C2C2C2C2C2C2C2C2C2C2C2CB8
:104840002C2C2C2C2C4240F2036029E0B0F5007F88
:1048500007DB1DD0B0F5806F1DD0B0F5006F0120D3
:104860001EE080281AD0B0F5807FF8D140F20F60AA
:1048700016E040F2066013E040F2056010E04FF4ED
:10488000C1600DE040F204600AE040F2096007E018
:1048900040F2116004E040F20C6001E040F2076079
:1048A000002140F29808C2F20008D8F80020508099
:1048B00001B39169107DD269042811441FD30023EC
:1048C0000324002203F1100626F0030659F80660BF
:1048D00043F00105370ECF54370C4F55370A43F0DC
:1048E00002030432CF54D3B20E5543F00304844282
:1048F000E8D305E00020107001B0BDE8F08300228D
:10490000D2B2824232D3D8F80000017D83690269B5
:1049100019448A4281613CD9521A13090725072B91
:1049200038BF1509C0682C0101441020224600F050
:1049300063F9D9F80C004FF6FF7188432843C9F892
:104940000C00D8F8000002794178446140791202E5
:1049500042EA01610844C9F8000001B0BDE8F083F3
:10496000C3F307438B5401329042CCD002F11003C1
:1049700003F0FC0359F8033002F00304022C05D0C5
:10498000012CEDD0002C08BF1B0EEBE7C3F307236F
:10499000E8E70021017001B0BDE8F08370B541F295
:1049A0000005C1F200456868000C7F2800F32B80E9
:1049B000421E3F2A00F2308000200121DFE802F091
:1049C0004E202C362C2C2C392C2C2C2C2C2C2C3CEA
:1049D0002C2C2C2C2C2C2C2C2C2C2C2C2C2C2C3F04
:1049E0002C2C2C2C2C2C2C2C2C2C2C2C2C2C2C2C07
:1049F0002C2C2C2C2C2C2C2C2C2C2C2C2C2C2C42E1
:104A000040F2036029E0B0F5007F07DB1DD0B0F570
:104A1000806F1DD0B0F5006F01201EE080281AD0F5
:104A2000B0F5807FF8D140F20F6016E040F20660EA
:104A300013E040F2056010E04FF4C1600DE040F279
:104A400004600AE040F2096007E040F2116004E00F
:104A500040F20C6001E040F20760002140F298064D
:104A6000C2F200063268508029B31079002804BFD2
:104A700001201071107D9369116918448142906181
:104A80001CD90B1AD9B27029D16888BF7023DCB247
:104A900001441020224600F0AFF83068006AE86058
:104AA00030680279417844614079120242EA01613A
:104AB0000844286070BD0020107013E00020D16908
:104AC000107041F22402481C6FF00301C1F2004251
:104AD0008B5846181BBAC6F8033001F10B0304319A
:104AE000102BF5D370BD000041F2040CC1F2004C54
:104AF000DCF80010090C7F2900F32B804B1E3F2BA4
:104B000000F2308000210122DFE803F04E202C3635
:104B10002C2C2C392C2C2C2C2C2C2C3C2C2C2C2CB8
:104B20002C2C2C2C2C2C2C2C2C2C2C3F2C2C2C2CB2
:104B30002C2C2C2C2C2C2C2C2C2C2C2C2C2C2C2CB5
:104B40002C2C2C2C2C2C2C2C2C2C2C4240F20361A9
:104B500029E0B1F5007F07DB1DD0B1F5806F1DD0D6
:104B6000B1F5006F01211EE080291AD0B1F5807FD8
:104B7000F8D140F20F6116E040F2066113E040F216
:104B8000056110E04FF4C1610DE040F204610AE0FC
:104B900040F2096107E040F2116104E040F20C616B
:104BA00001E040F20761002240F29800C2F20000EA
:104BB0000368002A598002BF0020187070471879D6
:104BC000002804BF01201871187D9969084493F8E2
:104BD0002C10986181F001000029187008BF00F0C6
:104BE000B1B8DCF810000021B0F5803F186B38BF79
:104BF000012101707047000070B541F2000C042AD9
:104C0000C1F2004C20D3002303244FF0000E00BF5C
:104C100043F001054D5DCE5C2D0445EA066543F089
:104C200002068E5D0C5D03440EF1040E45EA062576
:104C300023F003065FFA8EF3254443F00304944205
:104C40004CF80650E4D301E04FF0000E5FFA8EF30B
:104C5000934228BF70BD00BF03EB000E0EF0FC05B1
:104C6000CC5C5CF805500EF00306022E12D0012E2B
:104C70000AD0002E19BF25F0FF052C4425F07F45F2
:104C800045EA04640AE000BF25F47F0545EA0444D0
:104C900004E000BF25F47F4545EA04240133CEF348
:104CA00085069A424CF82640D6D170BDB0B540F288
:104CB0009805C2F20005296808698A690B79801A8B
:104CC0004FEA101053B1072828BF0720C968040114
:104CD000114410202246FFF78FFF1BE0896841F244
:104CE0000C02CB1E0321C1F20042062828BF062079
:104CF000D3F80340043124BA043342F8044F102996
:104D0000F6D329680401CA68896920201144E2B2F7
:104D1000FFF772FF286841F20C01C1F200410069FF
:104D20000A68C2EA201008602868E2B2037942618A
:104D3000427840791B0243EA0262104441F80C0CAD
:104D4000B0BD0000F0B581B040F29806C2F2000696
:104D5000306841F208058269D0E90301C1F20045DB
:104D60008F1AF9B2702988BF7027FCB28118102001
:104D70002246FFF741FF30680F21006A51FA87F1A0
:104D800068603068806A2A68C2EA004201F0F00078
:104D900060282A600AD831681030496AC0B21022EF
:104DA000FFF72AFF3068012180F82C103068027963
:104DB000417844614079120242EA0161084445F8B1
:104DC000080C01B0F0BD000040F29C00C2F20000EF
:104DD00000680022016848F21C00C4F200000029AB
:104DE000C270027008BF70478A6812B1486849787B
:104DF0001047704740F29C00C2F2000000680A228F
:104E0000816A48F21C00C4F200000029C2700270DE
:104E100008BF70478A6812B14868497810477047E0
:104E200040F29C00C2F2000000680B22C16A48F206
:104E30001C00C4F200000029C270027008BF704755
:104E40008A6812B1486849781047704740F29C0060
:104E5000C2F2000000680C22016B48F21C00C4F290
:104E600000000029C270027008BF70478A6812B142
:104E7000486849781047704740F29C00C2F2000031
:104E800000680D22416B48F21C00C4F200000029AA
:104E9000C270027008BF70478A6812B148684978CA
:104EA0001047704740F29C00C2F2000000680E22DA
:104EB000816B48F21C00C4F200000029C27002702D
:104EC00008BF70478A6812B1486849781047704730
:104ED00040F29C00C2F2000000680F22C16B48F251
:104EE0001C00C4F200000029C270027008BF7047A5
:104EF0008A6812B1486849781047704740F29C00B0
:104F0000C2F2000000680122416848F21C00C4F2AD
:104F100000000029C270027008BF70478A6812B191
:104F2000486849781047704740F29C00C2F2000080
:104F300000680222816848F21C00C4F200000029C7
:104F4000C270027008BF70478A6812B14868497819
:104F50001047704740F29C00C2F200000068032234
:104F6000C16848F21C00C4F200000029C27002703F
:104F700008BF70478A6812B148684978104770477F
:104F800040F29C00C2F2000000680422016948F26D
:104F90001C00C4F200000029C270027008BF7047F4
:104FA0008A6812B1486849781047704740F29C00FF
:104FB000C2F2000000680522416948F21C00C4F2F8
:104FC00000000029C270027008BF70478A6812B1E1
:104FD000486849781047704740F29C00C2F20000D0
:104FE00000680622816948F21C00C4F20000002912
:104FF000C270027008BF70478A6812B14868497869
:105000001047704740F29C00C2F20000006807227F
:10501000C16948F21C00C4F200000029C27002708D
:1050200008BF70478A6812B14868497810477047CE
:1050300040F29C00C2F2000000680822016A48F2B7
:105040001C00C4F200000029C270027008BF704743
:105050008A6812B1486849781047704740F29C004E
:10506000C2F2000000680922416A48F21C00C4F242
:1050700000000029C270027008BF70478A6812B130
:10508000486849781047704741F2000CC4F2020C9E
:10509000034610F80C0001F03F0100F07F0003F818
:1050A0000C0013F80C0000F0C000084403F80C00DA
:1050B00013F80C0000F0BF0062F3861003F80C0038
:1050C00013F80C0040F08001002003F80C1070472A
:1050D00010B582B0DDE904CE0446CDE900CE00F083
:1050E0003BF808B102B010BD48F2000304F00F0213
:1050F000C4F2000343EA421241F21E0E32F90E409E
:10510000DDF818C032F80E1047F6FF73002C48F295
:10511000000448BF40F2FF13CFF6FF7444BF4FF6C0
:105120000064CFF6FF7403EA0C032140194322F810
:105130000E1041F2160C32F80C102140194322F8DF
:105140000C1041F21C01535A079C23F0080364F32E
:10515000C303535202B010BD2DE9F04F81B0DDE919
:105160000ABE012707FA0BF74FF0FF3656FA87F60B
:1051700016EA0E0C40F0C58048F20005C4F20005A6
:1051800000F00F04009045EA441441F208004FF08B
:10519000000A44F800A04FF4805044F800A041F207
:1051A000040041F2060641F20C0524F800A024F8A0
:1051B00006A044F805A041F2100541F2140044F89D
:1051C00005A024F800A041F2160041F2180924F8C5
:1051D00000A044F809A041F21C0941F21E0824F87D
:1051E00009A024F808A048F2000AC4F2000ADAF87C
:1051F000000049EA040940F08000CAF800004FF4BA
:10520000805063512250A05B0BF007026FF3DF2048
:10521000A053A05B032920F4E06040EA0220A053E1
:10522000A05B44EA080520F0F800A053A05B6BF3F4
:105230000200A05341F2080044EA000641F21600C1
:1052400044EA000B17D841F2040044EA000241F29C
:1052500014031C43DFE801F002060A0C0020108052
:1052600079B207E078B21080002103E079B200E063
:10527000002111802180DAF80000000601D4009C92
:1052800018E0306800285CBF30685FEA400006D54F
:105290004FF60041CFF6FF7140F2FF3203E04FF0CE
:1052A00040416FF04042009C306802EA0E02084024
:1052B00040EA020EC6F800E0B5F9000048F200012D
:1052C00000282888CFF6FF7144BF4FF60061CFF663
:1052D000FF71084001302880BBF800000840013011
:1052E000ABF80000B9F80000002140F00200A9F876
:1052F000000040F29C00C2F20000006850F8240058
:105300004170BCF1000F18BF4FF0010C604601B0B6
:10531000BDE8F08F00F00F0049F20C024001C4F22A
:1053200000021150704700002DE9F04148F21A04C4
:10533000C4F20004D4F8125040F29C070026C2F2D6
:1053400000074FF0010806E00136102E4FEA550520
:1053500008BFBDE8F081E807F6D0386850F826109D
:1053600026700029F0D06671A670267181F8018040
:105370008A68002AE8D0486849789047E4E7000046
:1053800048F21B0200F00F01C4F20002002011706D
:105390007047000048F21A0200F00F01C4F2000248
:1053A00000201170704700007047000040F2445028
:1053B000C1F6FF70016844F6D352C1F26202A1FB4C
:1053C00002124FF0FF3101EB92120021B1EB126F8C
:1053D0000ED14EF21003CEF200034EF6235C5A605B
:1053E000CEF2000CF0228CF80020072299601A609F
:1053F00000684DF68362C4F21B32A0FB0202900CDF
:1054000040F26802C2F20002C2E9000170470000E7
:10541000B0B50124C4F2020414F9010CB0F1FF3F4D
:1054200000DDB0BD40F29805C2F2000528680178A1
:105430000029F6D04078013805280FD8DFE800F0C1
:1054400003060306090CFFF7C9F907E0FFF7CAF8DE
:1054500004E0FFF7A3FA01E0FFF746FB28680078B5
:10546000002818BFB0BD207800F07F0020702968A8
:105470004A6B002AD5D04878896BBDE8B040104708
:10548000FEE70000411100F01F00012202FA00F0C7
:105490004EF28012CEF2000242F821007047000066
:1054A00040F2A40072B6C2F200000168013101604E
:1054B00070470000411100F01F00012202FA00F0C5
:1054C0004EF20012CEF2000242F8210070470000B6
:1054D00040F2A400C2F200000168012904DB013996
:1054E000016018BF704762B67047000080B541F296
:1054F0009013C0F20003D3F800C040F20003C0F2E2
:1055000000031B689C450DD141F2C413C0F2000397
:10551000D3F800E041F2D013C0F200031B689E45AF
:1055200098BF80BD0CEB8000002A18BFC2F800C0F5
:10553000016480BD83B080B581B00DF10C0C8CE8A6
:105540000E0040F2B462C1F6FF72126803A9009126
:10555000904701B0BDE8804003B0704708B100BF7C
:10556000FEE72DE9F04146F2180440F2A808C4F223
:105570000604C2F20008D8F8005054F8040CC00722
:1055800040F0028154F8040C800739D595F82D00BD
:10559000002800F0E28095F82E0018B105F1170000
:1055A00001F038FF03202883002001212A69C5E982
:1055B0000700C5E90900A973688054F8081C41F088
:1055C000020144F8081CD4F8F81041F00201C4F8B4
:1055D000F81044F8080CC4F8F8002978002000F00E
:1055E00089F9D8F8000018B1A97EAA8A817682824A
:1055F00054F8080C40F0010044F8080CC8F80050BA
:1056000054F8040CC0042ED554F8040C012620F4E0
:10561000805044F8040C2E83206841F603418843EF
:105620002060687868B9A87DFFF7B4FE286A6168D1
:105630006FF00202002808BF6FF0010201EA0200C9
:1056400060600020C5E90700C5E90900AE7395F860
:105650002E0018B105F1170001F0DCFE2A6B12B123
:10566000696B0420904754F8040C000530D554F8B9
:10567000040C41F6034120F4006044F8040C206857
:1056800088432060687868B9A87DFFF783FE286AA0
:1056900061686FF00202002808BF6FF0010201EAA2
:1056A000020060600020C5E90700C5E9090001208B
:1056B000A87395F82E0018B105F1170001F0AAFEA5
:1056C00040F2033028832A6B12B1696B04209047A3
:1056D00054F8040C400558BFBDE8F08195F82E0041
:1056E00018B105F1170001F095FE4FF440702883C2
:1056F000206841F6034188432060687868B9A87D36
:10570000FFF748FE286A61686FF00202002808BFB0
:105710006FF0010201EA020060600020C5E90700A5
:10572000C5E909000120A8732A6B12B1696B042036
:10573000904754F8040C20F4806044F8040CBDE851
:10574000F08100BF286A60B1A06DE9690870D5E9F1
:10575000070101300139C5E90701606C10F4E02F41
:10576000F0D1286A00285ED0216CC1F30141884243
:105770003FF646AF4FF44032216C02EB0040000C84
:1057800060F3114121643BE7A878E97881421ED19A
:10579000686A002842D0A86A002877D0616C54F863
:1057A000140C012200F00F0002FA00F001F00701D2
:1057B0008142BFF4E7AE696A0978A164616CD5E9FA
:1057C00009230132013BC5E90923EFD1DAE6626C16
:1057D00054F8141C012301F00F0103FA01F102F047
:1057E00007028A42BFF4CEAEAA1C00BF52FA80F074
:1057F0008378C07943EA0020A064666CA878EB78CF
:105800000130C7B2BB42A87003D006F007068E4233
:10581000ECD3BB4204BF00206880B3E6206820F0D0
:1058200001002060AEE695F82C60206841F6034147
:1058300088432060687868B9A87DFFF7ABFD286AC7
:1058400061686FF00202002808BF6FF0010201EAF0
:1058500002006060002E1CBF4FF40070A0640026A0
:105860000120C5E90766C5E90966A87395F82E0009
:1058700018B105F1170001F0CDFD2E832A6B002A27
:105880003FF4BEAE696B04209047B9E695F82C70E2
:10589000206841F6034188432060687868B9A87D94
:1058A000FFF778FD286A61686FF00202002808BFE0
:1058B0006FF0010201EA02006060002F1CBF4FF48C
:1058C0000070A06400270120C5E90777C5E90977C2
:1058D000A87395F82E0018B105F1170001F09AFD94
:1058E0002F832A6B002A3FF44DAE696B042090474A
:1058F00048E6000008B100BFFEE72DE9F04381B0A3
:1059000040F2A808C2F200088946D8F80000002139
:105910000091807B70B3694646201546FEF7F6FA83
:10592000002840F08080009E002E7CD046F2480186
:10593000C4F2060151F8382C22F001024FF0800C1D
:1059400041F8382CD5B1731EEF01B3FBF7F30124F6
:105950005F1C4FF0FF3300BF0133062B03D804FA5E
:1059600003F2BA42F8D305FA03F206EB5207B7FB8B
:10597000F2F705E0022001B0BDE8F083072380279D
:10598000802F38BFBC46ACF10202A2EB52070025C3
:10599000BCF1010F88BF5508032F4FF0030298BFD9
:1059A0001746002D08BF012551F8244C2E4663F3FD
:1059B0000204022D98BF022641F8244C0B68BCF16A
:1059C000010F88BF07F03F0223F03F031A440A602B
:1059D0000A684FF0807765F30D220A600A684FF07D
:1059E0007C5366F315420A600A68012D22F07C524E
:1059F00088BF03EAC5573A440A60D8F8002082F805
:105A0000009051F8242C22F0E06241F8242C51F847
:105A1000242C22F4007241F8242C51F8382C42F046
:105A2000010241F8382C01B0BDE8F0830020FFF7F7
:105A300095BD000010B50446407810B9207AFFF7F4
:105A4000A9FCE07828BB46F21010C4F20600816879
:105A500040F6077291438160617851B92169C2684B
:105A60006FF00203002908BF6FF0010302EA03018F
:105A7000C160016821F00101016000206072C4E989
:105A80000300C4E90500A071207910B1E01D01F008
:105A9000C1FCE269002A08BF10BD216A0420BDE8EC
:105AA00010401047B0B500B1FEE746F2141540F2C1
:105AB000AC00C4F20605C2F2000004682868400584
:105AC0000CD42868296800F4007011F4807F14D089
:105AD000617A4A1C6272D9B3012110E00120A084CE
:105AE000286840F480602860686820F00101204642
:105AF0006960BDE8B040FFF79DBFC1F300212A688F
:105B0000002808BF002914D042F4007028602868DB
:105B100040F480702860686820F001006860A08C04
:105B2000022804BF0020A0842046BDE8B040FFF753
:105B300081BF50072CD5E86BE269C00711D122B1B3
:105B4000E07810B1216A032090476078F0B919E03D
:105B5000A1780029C0D0296841F480712960002112
:105B6000CDE722B1E07810B1216A02209047607839
:105B7000012803D1686840F0010068606078002166
:105B8000617118B9E07808B100F048F80220A084EB
:105B90002868C0071CBF68685FEAC07007D1286822
:105BA000800744BF68685FEA807019D4B0BD60792F
:105BB00000281CBF40F20130A084E06820B9E269EF
:105BC00012B1216A01209047E068E0B16069007875
:105BD000E8646069E16801306061481EE060DEE70A
:105BE000206920B9E26912B1216A0020904720693A
:105BF00070B1E86DA1690870A06921690130A061E8
:105C0000481E2061B0BD01206071FF20E864C6E736
:105C100040F20230A084E86DB0BD00002DE9F04FE5
:105C200085B040F2AC00C2F200000768F86828B105
:105C300007F114014FF0010B814605E0D7F81090F1
:105C400007F118014FF0000B3C7A0E6846F21C1861
:105C50000028C4F20608204612D02D21002200257B
:105C6000FFF712FA012008F15403CDE90050204655
:105C7000594632460395CDF80890FFF729FA13E00C
:105C80002C2100224FF0000AFFF7FEF9012008F155
:105C90005402CDE900A0204659463346CDF80CA069
:105CA000CDF80890FFF714FAF86841422046FFF754
:105CB00031FB2046FFF764FBF868D8F8001001229A
:105CC000002808BF022241EA0200C8F8000005B01F
:105CD000BDE8F08F0020FFF7E5BE000008B100BF6F
:105CE000FEE72DE9F04381B015460C46002900F08F
:105CF000888047F22801C4F203012201287C8B58D6
:105D000047F2100823F002038B508B58C4F20308AB
:105D10001843885028788B5800F0030023F00C03B8
:105D20008B508B5801EB041743EA80008850687849
:105D3000D5F8049001281BD140F2B406C2F2000647
:105D400047203146FEF7E2F8306844F24022A0FBDB
:105D50000901C0F20F020023FBF776FAB0F1010946
:105D600071F10000396852D00126002008B904E022
:105D7000002608EB0410C0F81090002E72D1E868DD
:105D8000396800F00F0021F070613960396841EA2C
:105D900000603860287A396800F0010021F40001C1
:105DA0003960396841EAC0503860A87C396821F40C
:105DB00080213960396808433860E87C396821F40B
:105DC00080313960396808433860287D396821F4AA
:105DD00000313960396808433860687C0121002847
:105DE00001FA04F031D0D8F80010014340F6E46025
:105DF000C0F2000030F91400C8F80010FFF75AFB99
:105E000030E0287C00283FF474AF01262AE001F03E
:105E10000C0104294FF0000613D14FF6FE71C0F2B9
:105E20000101B1EB090176EB00019DD3B9F5803199
:105E30004FF0000670F1000024BF4FF6FF7040EAFB
:105E400009490120002894D197E7D8F80010814330
:105E500040F6E460C0F2000030F91400C8F8001009
:105E6000FFF710FB304601B0BDE8F08308B100BF7A
:105E7000FEE747F20C00C4F20300016000687047BF
:105E800008B100BFFEE747F20800C4F20300016852
:105E900021F001010160704708B100BFFEE770B555
:105EA00084B040F2B405C2F200050C4647F2080681
:105EB00047202946C4F20306FEF728F80020019087
:105EC00001A90020FEF722F82868019901EB500192
:105ED000B1FBF0F00290316841F00201316000BF87
:105EE000029931B102990139029100BF00BF00BF90
:105EF000F6E7316821F0020131600390306840F02C
:105F000001003060039840B103980138039000BF4E
:105F100000BF00BF03980028F6D16078316821F0F7
:105F2000080131603168084330602078316821F021
:105F30000401316031680843306004B070BD000076
:105F400080B50020FFF79CFF40F2B001C2F20001D3
:105F50000020FFF7A1FF40F2D852C1F6FF720020E7
:105F60000121FFF7BBFE0020012100F027F845F6D4
:105F70008971C0F2000131200022FFF7B7FA312009
:105F8000BDE88040FFF796BA80B50020022100F0FE
:105F90000BF8002808BF80BD00200221FFF766FF34
:105FA000BDE8804002F046B908B100BFFEE747F205
:105FB0000C00C4F2030000680840704708B100BF3D
:105FC000FEE747F21400C4F20300026811430160C7
:105FD0007047000040F2F050C1F6FF700068406A60
:105FE000C00702D1002000F0FDB9002000F0BEB8CB
:105FF00040F2F050C1F6FF704068406AC00702D11D
:10600000012000F0EFB9012000F0B0B840F2F050EC
:10601000C1F6FF708068406AC00702D1022000F01C
:10602000E1B9022000F0A2B8B0B540F2B80140F2E8
:10603000F052C2F20001C1F6FF7251F8201052F87E
:1060400020C0487CDCF85C2002F00702821A16E0CF
:106050001C6804252B440B62CB8A13FA8EF3B3FB26
:10606000F0F505FB1030C882CCF86440488BA0EBFB
:106070000E004883488B002808BFB0BD013A1006C7
:1060800025D091F82D0010B1488B012817D0C88D6C
:10609000CB8AC31A042BDABFCB8AA0EB030E4FF0D6
:1060A000040E0B6A33B1012806D00228D0D11C8817
:1060B0000225CFE70024D7E71C780125CAE7DCF8E2
:1060C000600020F48010CCF8600000204883B0BD50
:1060D00070B5032801D300BFFEE740F2B803C2F257
:1060E000000340F2F05253F82040C1F6FF72002640
:1060F00052F8201084F82460A37B1825002B08BFD9
:106100001C254B5923F001034B514B5923F002033B
:106110004B5152F82000826922F4805282618269D8
:1061200022F400628261426942F480524261426913
:1061300042F400624261886920F4806088614869A5
:1061400040F48060486194F82C0028B104F10D00FF
:1061500001F060F984F82C60A368002B08BF70BDC3
:10616000626820460021BDE8704018472DE9F047DD
:10617000032800D3FEE740F2F0518146C1F6FF71DB
:1061800051F8298040F2B800C2F20000C24650F82F
:1061900029605AF8140F000526D5306A20B3484606
:1061A000FFF796FFDAF8000040F48070CAF80000AC
:1061B000DAF8000040F40070CAF80000DAF80000D5
:1061C00040F48070CAF80000DAF8000040F4007073
:1061D000CAF80000DAF8000040F40060CAF80000D5
:1061E00001203073BDE8F087DAF80000C00425D53F
:1061F000F06918B34846FFF76BFFDAF8000040F487
:106200008070CAF80000DAF8000040F40070CAF8A4
:106210000000DAF8000040F48070CAF80000DAF8F4
:10622000000040F40070CAF80000DAF8000040F402
:106230008050CAF80000022030736EE0DAF80000E7
:10624000800751D5308B90B3D8F85C00C0F3024082
:1062500098B949E0B18AF38D11FA82F1B1FBF3F7F5
:1062600007FB1311B182318B891A3183318B0029DD
:106270001CBF01385FEA006136D0D8F87410F28D87
:10628000B38AD31A042BDABFB38AD21A04221304B6
:10629000E0D093B2DB000027F46921FA07F52570FE
:1062A000F56908370135BB42F561F5D1D2E74846BB
:1062B000FFF70EFFDAF8000040F48070CAF8000023
:1062C000DAF8000040F40070CAF80000DAF80000C4
:1062D00040F48070CAF80000DAF8000040F4007062
:1062E000CAF8000002203073DAF80000C00704D0BA
:1062F000708B10B14846FFF797FE708B68B9D8F8DD
:10630000180040F48060C8F81800D8F8180020F091
:106310000100C8F81800308B08B1BDE8F087DAF842
:106320000000400558BFBDE8F0874846BDE8F0478B
:10633000FFF7CEBE70B540F2B801C2F2000151F8CD
:10634000206040F2F05CC1F6FF7CB37B5CF820106B
:106350001C25012B6FF0010308BF182508BF6FF043
:1063600002034A596FF0020402EA03024A514A59F1
:1063700008BF6FF00104224003284A5101D300BF37
:10638000FEE75CF820000025826922F480528261D9
:10639000826922F400628261426942F48052426161
:1063A000426942F40062426186F82450486940F430
:1063B00080704861486940F400704861486940F461
:1063C00080704861486940F40070486196F82C007C
:1063D000002808BF70BD06F10D0001F01BF886F81B
:1063E0002C5070BD032800D3FEE72DE9F04740F2A2
:1063F000F058C1F6FF7858F820A040F2B807C2F272
:106400000007054657F82090DAF8140000050AD571
:10641000D9F8200038B12846FFF78CFF012089F811
:106420000C00BDE8F087DAF81400C0040AD5D9F8EA
:106430001C0038B12846FFF77DFF022089F80C00C8
:10644000BDE8F087DAF81400C00705D0B9F81A00E3
:1064500010B12846FFF7E8FDDAF8140080070BD5E5
:10646000B9F8180040B158F825C057F82510DCF8E5
:106470005C20C2F3024252BBB9F81A0028B9DAF81C
:10648000180020F00100CAF81800B9F8180028B95F
:10649000DAF8180020F00200CAF81800B9F818005D
:1064A00078B3BDE8F08700BF888ACB8D10FA87F0FB
:1064B000B0FBF3F606FB13008882088BC01B088331
:1064C000088B00281CBF013A5FEA0260D4D0DCF8D8
:1064D0007430CF8D8D8A7D1B042DDABF8D8A7F1B92
:1064E00004273D04E0D0BDB2ED000024CE6923FABC
:1064F00004F03070C86908340130A542C861F5D194
:10650000D2E7B9F81A00002818BFBDE8F087DAF81A
:10651000180020F40060CAF81800DAF8180020F417
:106520008050CAF81800D9F8083023B1D9F80420EF
:1065300048460021984799F82C0030B109F10D0028
:1065400000F068FF002089F82C00002089F8240062
:10655000BDE8F087002000F037B90000012000F00E
:1065600033B90000022000F02FB90000032800D347
:10657000FEE72DE9F04381B0054640F61070C0F209
:10658000000050F8256040F2F809C2F2000959F8FD
:106590002540706943F6FF784003C3F6E0783ED5A6
:1065A00040F20350608094F8300048B3B06920F4A2
:1065B0008020B061B0694003FCD4B06920F0006075
:1065C000B061B06920F08070B061B06920F0806087
:1065D000B061B06920F00070B061F069B06920F47A
:1065E0000010B061E07A20B1201D00F013FF002000
:1065F000E072002060726188022908BF608002E0BA
:10660000284600F093FA236A1BB1626A20460321F0
:106610009847706900EA080040F470207061706962
:1066200000033ED594F8300060B359F82570B06986
:1066300020F48020B06100BFB0694003FCD4B06991
:1066400020F00060B061B06920F08070B061B06986
:1066500020F08060B061B06920F00070B061F06936
:10666000B06920F40010B061F87A20B1381D00F054
:10667000D1FE0020F872002078727988022908BFC4
:10668000788002E0284600F051FA236A1BB1626A62
:10669000204603219847706900EA080040F4702002
:1066A00070617069800340D540F20550608094F8B5
:1066B000300058B359F82570B06920F48020B061DB
:1066C000B0694003FCD4B06920F00060B061B069EB
:1066D00020F08070B061B06920F08060B061B06976
:1066E00020F00070B061F069B06920F40010B06172
:1066F000F87A20B1381D00F08DFE0020F8720020DD
:1067000078727988022908BF788002E0284600F074
:106710000DFA236A1BB1626A20460321984770690B
:1067200000EA080040F4702070617069C00340D531
:1067300040F20450608094F8300058B359F8255066
:10674000B06920F48020B061B0694003FCD4B06926
:1067500020F00060B061B06920F08070B061B06975
:1067600020F08060B061B06920F00070B061F06925
:10677000B06920F40010B061E87A20B1281D00F063
:1067800049FE0020E872002068726988022908BF6B
:10679000688002E0284600F0C9F9236A1BB1626AEA
:1067A000204603219847706900EA080040F47020F1
:1067B000706101B0BDE8F083816941F4002181611D
:1067C00081690903FCD57047B0B5032801D300BF28
:1067D000FEE7044640F61070C0F2000050F8245066
:1067E0002046FFF7C3FEA869800244BF68695FEADC
:1067F000802012D4A869400244BF68695FEA402043
:106800000FD4A869000246BF68695FEA0020B0BDE6
:106810002046BDE8B04000F027BA204600F098F8C6
:10682000E8E7204600F0C0F9EBE70000032800D3BA
:10683000FEE7F0B581B0044640F61070C0F20000EB
:1068400050F8247040F61C70C0F20000005D0D4648
:1068500069461646FDF75AFB28463421FAF73EFDF5
:1068600040F2F800C2F2000040F82450B6F80B00E5
:106870002880B17A307885F83110042185F830000D
:106880000020C0F600716880E88039614CF2000198
:10689000CCF21F0179614FF47031B86138627862CF
:1068A000B962F8627168204600F0D0F8317AB07AA7
:1068B000002918BF0130022803D1386940F0005088
:1068C00008E0B96921F0100141EA0010B8613869A7
:1068D00020F000503861707A396900F0010021F42D
:1068E000005141EA40303861307AB96900F0FE0267
:1068F00021F002011143B961B96960F30001B96186
:10690000281D002100F078FD064605F10800002151
:1069100000F072FD012E4FF0010518BF012813D0C1
:1069200040F62070C0F2000030F9146040F2FC50D4
:10693000C1F6FF7050F82410304600220025FEF703
:10694000D5FD3046FEF7B6FD284601B0F0BD00008B
:10695000F0B581B0032800D3FEE740F2F807C2F299
:10696000000757F82040054640F61070C0F20000BE
:1069700094F8311050F82560A06931B1012907D190
:10698000B169F269C90F02700DE0F16901700BE0A5
:10699000B1694FF4007202EA5151B269F36941EAF8
:1069A000D251090A0370417094F8310030B1206966
:1069B000A16902380231A161206105E02069A16965
:1069C00001382061481CA061206928B9236A1BB1E5
:1069D000626A204600219847206908B101B0F0BDE5
:1069E00057F82550B06920F48020B061B0694003A9
:1069F000FCD4B06920F00060B061B06920F0807014
:106A0000B061B06920F08060B061B06920F00070C2
:106A1000B061F069B06920F40010B061E87A20B18B
:106A2000281D00F0F7FC0020E872002068726988D9
:106A3000022908BF6880236A002BCFD0626A2046F3
:106A4000022101B0BDE8F04018470000032800D340
:106A5000FEE72DE9F04381B0894640F2F801C2F229
:106A6000000151F8201039B14A7A0AB9897A19B16E
:106A7000022001B0BDE8F08340F61071C0F20001C1
:106A800051F8208040F61C71C0F20001085C694694
:106A9000FDF73CFADDF800C04FEA8900BCFBF0F0DE
:106AA0004FF6FC72C0F2030202EA8002BCFBF2F273
:106AB00009EB8905B2EB090398BFA9EB0203042295
:106AC000052600BFBCFBF5F74D44B9B27143BCFBD2
:106AD000F1F1B1EB090498BFA9EB01049C4298BF06
:106AE000324606F1010638BF234698BF3846212EAC
:106AF000E8D1072A05D8D8F8101041F40031C8F8B9
:106B000010104FF0F853D8F8101003EB0262120E79
:106B100062F31C61C8F81010D8F8101060F30C0173
:106B2000C8F81010002001B0BDE8F083032800D39E
:106B3000FEE710B540F61071C0F2000151F82010C8
:106B400040F2F802C2F2000252F82040886920F4B4
:106B50008020886188694003FCD4886920F0006047
:106B60008861886920F080708861886920F0806081
:106B70008861886920F000708861086920F400103D
:106B80000861C8692078FEF705FCE07A20B1201D75
:106B900000F040FC0020E0726088022804BF002062
:106BA00060800020607210BDB0B5032801D300BF23
:106BB000FEE740F2F801C2F2000151F8204061699D
:106BC000002918BFB0BD40F6107294F83010C0F222
:106BD000000252F8205029B1E088022823D1002079
:106BE000E08024E0286920F4000028616078FEF746
:106BF000D1FBA86920F48000A861A86920F40020D6
:106C0000A86100BFA8690003FCD4207B18B104F17F
:106C1000080000F0FFFBE088022804BF0020E080AD
:106C20000020A07217E0A86920F40000A861A869FC
:106C300020F48000A861A86920F40020A86100BFAA
:106C4000A8690003FCD40020A072207B18B104F1D5
:106C5000080000F0DFFBA36A2BB1E26A20460221A4
:106C6000BDE8B0401847B0BD032800D3FEE7B0B57B
:106C700040F2F801C2F2000151F82040616969B3A5
:106C800040F61071C0F2000151F8205094F8311014
:106C9000E06979B1012901784078AA6912BF22F030
:106CA000404200F0010022F0804242EA8070A86178
:106CB000297701E00078287794F8310030B16069D5
:106CC000E16902380231E161606105E06069E16912
:106CD00001386061481CE061606900B1B0BDA36A21
:106CE0001BB1E26A2046012198476069002818BF5D
:106CF000B0BDA86920F40000A861A86940F4800034
:106D0000A861B0BDFEE700007047000010B52D205F
:106D10000021FCF77DFB49F20004C4F20404204684
:106D20000A21012200F068FF20460421012200F020
:106D300063FF20460A21002200F06CFF2046042158
:106D4000002200F067FF04F5362420464FF48061EE
:106D500000F06CFF2046102100F068FF20460A2159
:106D6000012200F04BFF204604210122BDE8104023
:106D700000F044BFB0B5FFF7C9FFAE2001F008F93D
:106D80000020002401F004F9102001F001F9402056
:106D900001F0FEF8B02001F0FBF8812001F0F8F8D6
:106DA000FF2001F0F5F8A12001F0F2F8A62001F093
:106DB000EFF8A82001F0ECF83F2001F0E9F8C82036
:106DC00001F0E6F8D32001F0E3F8002001F0E0F84C
:106DD000D52001F0DDF8802001F0DAF8D82001F0AC
:106DE000D7F8052001F0D4F8D92001F0D1F8F1202E
:106DF00001F0CEF8DA2001F0CBF8122001F0C8F84B
:106E0000DB2001F0C5F8302001F0C2F88D2001F040
:106E1000BFF8142001F0BCF8AF2001F0B9F800BFB2
:106E2000A4F15000C0B201F0B3F80020002501F039
:106E3000AFF8102001F0ACF8002001F023F9681C35
:106E400045B2B5F1FF3FF7DCE0B201340728E7D3E4
:106E500000200021BDE8B040AFF3008010B504462B
:106E6000A1F15000C0B2002100F0C0FA200910309A
:106E7000002100F0BBFA04F00F000021BDE8104033
:106E800000F0B4BA2DE9F04F81B0002B42D040F2AF
:106E9000B8540646A1F15000C0F20004994693464A
:106EA0000027A4F1010AC0B2009006E001370BF1FF
:106EB000010B4F4506F106062CD29BF8000000217D
:106EC000554600BFC1EBC102A25C904206D05929D1
:106ED00001F1010105F10705F4D9E7E70098002168
:106EE00000F084FAF0B200091030002100F07EFAC0
:106EF00006F00F00002100F079FA4FF0060800BFFD
:106F0000A878012100F072FAB8F1010805F1010535
:106F1000F6D1CBE701B0BDE8F08F00002DE9F041DC
:106F20000646A1F150008846C0B20021174600F085
:106F30005DFA300900F110052846002100F056FAEC
:106F400006F00F063046002100F050FA40F20440EF
:106F5000C1F6FF7000EB87174FF0FF343819407807
:106F6000012100F043FA01340F2CF7D1A8F14F00B2
:106F7000C0B2002100F03AFA2846002100F036FAAB
:106F80003046002100F032FA1F2400BF3819407843
:106F9000012100F02BFA01342F2CF7D1BDE8F0814C
:106FA0002DE9F04381B0064640F63500C0F20000FE
:106FB0008846471E5E2000BF7978914204D0013890
:106FC00007F11107F8D134E0A8F15000C0B2002158
:106FD00000F00CFA300900F110094846002100F0D9
:106FE00005FA06F00F063046002100F0FFF907F120
:106FF00009040825B878012100F0F8F9013D07F1EE
:107000000107F7D1A8F14F00C0B2002100F0EEF95E
:107010004846002100F0EAF93046002100F0E6F988
:10702000082500BF14F8010F012100F0DFF9013D30
:10703000F8D101B0BDE8F0832DE9F04F81B02DED1E
:10704000028B90B0B5EE400A40F2B8541D46174688
:10705000B0EE408A88468146F1EE10FAC0F2000494
:107060001CDAA8F15000C0B20021B1EE488A00F04D
:10707000BDF94FEA19101030002100F0B7F909F0FE
:107080000F00002100F0B2F95B34062614F8010F5E
:10709000012100F0ABF9013EF8D11AE0A8F150004F
:1070A000C0B2002100F0A2F94FEA191010300021FF
:1070B00000F09CF909F00F00002100F097F94D3421
:1070C000062600BF14F8010F012100F08FF9013EE0
:1070D000F8D1E8190828CDE90B9810D3F8B20021AF
:1070E000062838BF01216D1A0528E8B288BF013F84
:1070F00050FA87F00728F1D8F8B20A9000E00A9712
:10710000BCEEC80AB8EE401A10EE104A38EE410A3A
:1071100010EE100AFAF71FFA9FED7F0B53EC102BBD
:10712000FAF7E7F89FED7E0B53EC102BFAF788F98E
:10713000FAF7F8F941F2597ECDF2B71EA4FB0E1210
:107140004CF6CD4C44F6D356510BCCF6CC4CC1F298
:1071500062060991A1FB0C12A4FB061348F21F5B07
:107160009909C5F2EB1B08920791A1FB0C12A4FB35
:107170000B130692024658090590A0FB0C10A4FBC5
:107180000C980490A2FB0E19A2FB0613A2FB0B1B8A
:10719000A2FB0C104FEAD8014FEA59384FEA5B19AD
:1071A00003949B09C008A9FB0C64A1FB0C6BA8FB12
:1071B0000C6EA3FB0C6A0194A0FB0C64089EDDF826
:1071C00024C0F60806EB8606ACEB460646F0300611
:1071D0008DF83B60069E0294F608079C06EB860637
:1071E000A4EB460646F030068DF83C60049E059CF4
:1071F000F60806EB8606A4EB460646F030068DF848
:107200003D604FEADB0606EB8606A1EB460646F03C
:1072100030068DF83E60039E01EB8101A6EB410133
:1072200041F030018DF83F104FEADE0101EB8101A2
:10723000A8EB410141F030018DF836104FEADA0138
:1072400001EB8101A3EB410141F030018DF83710D2
:1072500001990C9CC90801EB8101A9EB410141F0A6
:1072600030018DF838100299DDF82C90C90801EB37
:107270008101A0EB410100EB800041F03001A2EB65
:1072800040008DF8391040F030000A998DF83A002E
:107290000DF13B0009F10606401A421DFBB2F0B2A7
:1072A0002146FFF7EFFD07EB47004FEA400806EBEA
:1072B0004006A4F15000C0B20021F7B200F096F8E9
:1072C00038091030002100F091F806F00F0000217D
:1072D00000F08CF840F2B850C0F2000000F16206F5
:1072E000062700BF16F8010F012100F07FF8013FCB
:1072F000F8D108EB09000C30C0B2EBB20DF1360248
:107300002146FFF7BFFD10B0BDEC028B01B0BDE818
:10731000F08F00BF00BF00BFF168E388B5F8D43E2E
:1073200000000000006AF8402DE9F047924612780C
:10733000002A08BFBDE8F08740F2B8570546A1F122
:107340005000C0F20007A7F101095FFA80F803E0DE
:107350001AF8012F063532B36FF41F704E4600BF86
:10736000391891F87D12914204D0073006F10706D2
:10737000F6D1EDE74046002100F038F8E8B2000908
:107380001030002100F032F805F00F00002100F06D
:107390002DF80624B078012100F028F8013C06F110
:1073A0000106F7D1D4E7BDE8F0870000F0B581B061
:1073B00016461278BAB10C460546002707E000BF12
:1073C000FFF7ACFD0220325C064407445AB150B2CC
:1073D000002805EBC700C0B2D2B22146F0D4FFF7B7
:1073E000DFFD0120EFE701B0F0BD0000002908BF7C
:1073F00000F0CEBD00F046BE002804BF012070475B
:10740000B0B504460D46FEF74BF82570FEF760F860
:107410000020B0BD10B550B10446FEF741F8207809
:10742000FF2806D0207801302070002402E00120DF
:1074300010BD0124FEF74CF8204610BD40F20410A8
:10744000C2F2000001680131016070472939252925
:1074500088BF7047DFE801F01316181A1D20232695
:10746000292C6B2E303234366B386B3A3C3E40421E
:10747000456B484A4C4F64525456585B5E6100F568
:10748000E6704EE0C8304CE084304AE000F5C2704F
:1074900047E000F5927044E000F5947041E000F59B
:1074A00096703EE000F598703BE000F59A7038E089
:1074B000F43036E0903034E0943032E0AC3030E0FC
:1074C000D8302EE0C4302CE080302AE0E03028E0D4
:1074D000E43026E0E83024E0983022E000F5DC706B
:1074E0001FE000F5DE701CE0EC301AE09C3018E084
:1074F00000F5B47015E000F5CC7012E0B03010E08B
:10750000B4300EE0B8300CE000F5807009E000F512
:10751000D47006E000F5D67003E000F5D87000E006
:10752000DC30016821F0804162F39E710160704798
:1075300010B5A1F1290CBCF1250F88BF10BD0FF2C9
:107540000601DFE81CF026002F00380041004A0049
:1075500053005C0065006E007700AF018000890079
:1075600092009B00A400AF01AD00AF01B600C400C3
:10757000D200E000EE00FC00AF010A011801260174
:107580003401B001420150015E016C018601940199
:10759000A201D0F8CC1121F0804162F39E71C0F8B5
:1075A000CC1110BDD0F8C81021F0804162F39E715B
:1075B000C0F8C81010BDD0F8841021F0804162F3EB
:1075C0009E71C0F8841010BDD0F8841121F0804164
:1075D00062F39E71C0F8841110BDD0F8241121F01F
:1075E000804162F39E71C0F8241110BDD0F82811BB
:1075F00021F0804162F39E71C0F8281110BDD0F8CF
:107600002C1121F0804162F39E71C0F82C1110BD45
:10761000D0F8301121F0804162F39E71C0F8301132
:1076200010BDD0F8341121F0804162F39E71C0F892
:10763000341110BDD0F8F41021F0804162F39E7136
:10764000C0F8F41010BDD0F8901021F0804162F322
:107650009E71C0F8901010BDD0F8941021F08041B8
:1076600062F39E71C0F8941010BDD0F8AC1021F0F8
:10767000804162F39E71C0F8AC1010BDD0F8D810F4
:1076800021F0804162F39E71C0F8D81010BDD0F88F
:10769000C41021F0804162F39E71C0F8C41010BD87
:1076A000D0F8801021F0804162F39E71C0F8801004
:1076B00010BDD0F8E01021F08E4C4FF0E06101EAEF
:1076C000036162F39E716144C0F8E01010BDD0F810
:1076D000E41021F08E4C4FF0E06101EA036162F3A7
:1076E0009E716144C0F8E41010BDD0F8E81021F09C
:1076F0008E4C4FF0E06101EA036162F39E716144D8
:10770000C0F8E81010BDD0F8981021F08E4C4FF062
:10771000E06101EA036162F39E716144C0F8981070
:1077200010BDD0F8B81121F08E4C4FF0E06101EAA5
:10773000036162F39E716144C0F8B81110BDD0F8C6
:10774000BC1121F08E4C4FF0E06101EA036162F35D
:107750009E716144C0F8BC1110BDD0F8EC1021F04E
:107760008E4C4FF0E06101EA036162F39E71614467
:10777000C0F8EC1010BDD0F89C1021F08E4C4FF0EA
:10778000E06101EA036162F39E716144C0F89C10FC
:1077900010BDD0F8681121F08E4C4FF0E06101EA85
:1077A000036162F39E716144C0F8681110BDD0F8A6
:1077B000981121F08E4C4FF0E06101EA036162F311
:1077C0009E716144C0F8981110BDD0F8B01021F03E
:1077D0008E4C4FF0E06101EA036162F39E716144F7
:1077E000C0F8B01010BDD0F8B41021F08E4C4FF09E
:1077F000E06101EA036162F39E716144C0F8B41074
:1078000010BDD0F8B81021F08E4C4FF0E06101EAC5
:10781000036162F39E716144C0F8B81010BDD0F8E6
:1078200000114FF6F074CBF6FF04DDE902CE2140E3
:107830004FF0E06404EA036362F39E730CF0070404
:107840000EF00102234443EAC2021144C0F80011C1
:1078500010BDD0F8A8114FF0E06404EA036321F0F2
:107860008E4162F39E731944C0F8A81110BDD0F880
:10787000AC114FF0E06404EA036321F08E4162F33F
:107880009E731944C0F8AC1110BDD0F8B0114FF080
:10789000E06404EA036321F08E4162F39E731944AD
:1078A000C0F8B01110BDD0F8DC1021F08E4C4FF0B4
:1078B000E06101EA036162F39E716144C0F8DC108B
:1078C00010BD00002939252900F26A80DFE801F0A7
:1078D0001316181A1D202326292C682E3032343610
:1078E0006838683A3C3E40424568484A4C4F5254DA
:1078F00056585A5D606300F5E6704EE0C8304CE0C3
:1079000084304AE000F5C27047E000F5927044E030
:1079100000F5947041E000F596703EE000F5987037
:107920003BE000F59A7038E0F43036E0903034E017
:10793000943032E0AC3030E0D8302EE0C4302CE06F
:1079400080302AE0E03028E0E43026E0E83024E02F
:10795000983022E000F5DC701FE000F5DE701CE0DE
:10796000EC301AE09C3018E000F5B47015E000F53A
:10797000CC7012E0DC3010E0B0300EE0B4300CE03F
:10798000B8300AE000F5807007E000F5D47004E03C
:1079900000F5D67001E000F5D8700068C0F3807281
:1079A00002F0010070470000A1F13C02122A4FF0E2
:1079B000000139D8DFE802F00A0C0E101215381851
:1079C0001A1C1F222426282A2D303300E03028E0FC
:1079D000E43026E0E83024E0983022E000F5DC7066
:1079E0001FE000F5DE701CE0EC301AE09C3018E07F
:1079F00000F5B47015E000F5CC7012E0DC3010E05A
:107A0000B0300EE0B4300CE0B8300AE000F5807021
:107A100007E000F5D47004E000F5D67001E000F551
:107A2000D8700068C0F3026108467047B0B52F20D7
:107A30000021FBF7EDFC4BF20004C4F204042046E5
:107A40000C21012200F0D8F820460D21012200F07F
:107A5000D3F820460C21092200F0DCF820460D2145
:107A6000092200F0D7F84FF28005C4F20F0528462E
:107A70000C21002200F0C2F828460D21002200F05F
:107A8000BDF820460C2100F007F820460D21BDE886
:107A9000B04000F001B8000050F8212022F08072C0
:107AA00040F8212050F8212042F0807240F8212037
:107AB00070470000B0B550F82130082A49D148F28B
:107AC000040CC4F2040C4BF20002DCF800E0C4F237
:107AD0000402904219D04AF20002C4F20402904219
:107AE0001BD110294FF0FF022AD80EF00F04DFE857
:107AF00001F0091927272727272727272727271CAA
:107B00001F22250044F001021AE0012907D00029B4
:107B10000CBF0EF00B02FF2212E0FF2210E00EF06D
:107B200007020DE044F002020AE044F0040207E01C
:107B300044F0080204E00EF00E0201E00EF00D0227
:107B4000FF2A1EBFDCF8005062F30305CCF800509A
:107B5000002262F30A2340F82130B0BD10B5302076
:107B60000021FBF755FC4CF20004C4F2040420464B
:107B70000021012200F040F820460F21012200F0F0
:107B80003BF820461021012200F036F82046002163
:107B9000002200F03FF820460F21002200F03AF8C2
:107BA00020461021002200F035F84FF2C004C4F244
:107BB0000F042046012100F039F820464FF400411F
:107BC00000F034F820464FF4803100F02FF82046C2
:107BD0000021012200F012F820460F21012200F0BE
:107BE0000DF8204610210122BDE8104000F006B833
:107BF0000069704700687047FFF75CBFD0F814C099
:107C000001238B402CEA030302FA01F1194341617D
:107C10007047000050F8213002F00F0223F4702367
:107C200043EA024240F8212070470000416070475B
:107C3000D0F800C001238B402CEA030302FA01F1C3
:107C40001943026801607047016070477047000087
:107C500008B100BFFEE74DF2080140F2000040F21B
:107C60000802C4F20301C2F20000C2F2000200687E
:107C70001268CB685B0707D4002A08BF7047916879
:107C8000F9B1101D00680847D8B142690AB9027EEF
:107C9000C2B151F8082C03681A44013A0A60027E06
:107CA00040F20401C2F2000101230B700AB100216D
:107CB00001E0416901394161016A11B11C3000687C
:107CC0000847704700220A6040F20401C2F2000136
:107CD0000A70F1E770470000FFF7B0BB44F20010F4
:107CE000C4F20600016840F2077241F08061016051
:107CF0004168914301F201114160816841F0340112
:107D000021F00101816000BF01680902FCD4016813
:107D100041F00101016000BF0168C901FCD50021EB
:107D2000C0F80011D0F8041140F20772914301F23B
:107D30000111C0F804110121C0F80811D0F8001198
:107D400041F00101C0F80011D0F80011C901FBD5C4
:107D50000021C0F80012D0F8001240F2077241F082
:107D60008061C0F80012D0F80412914301F20111B1
:107D7000C0F80412D0F8081221F00301C0F808126C
:107D8000D0F8001241F00101C0F80012D0F8001242
:107D9000C901FBD544F20061C4F2060100220A6069
:107DA0000A6840F2077342F080620A604A689A43A8
:107DB00002F202324A608A684FF6FF03CFF6E073A0
:107DC0001A4002F540228A600A6842F001020A6005
:107DD0000A68D201FCD550F8EC2C4FF60071CFF2B6
:107DE000F0010A4042F0407242F0010240F8EC2CEF
:107DF00050F8EC2C02F07062B2F1407FF8D150F8EC
:107E0000E82C03230A40C0F201231A4340F8E82C6F
:107E100050F8E82C02F07062B2F1007FF8D150F80F
:107E2000E42C114041F0C06141F0130140F8E41C22
:107E300050F8E41C01F07061B1F1C06FF8D17047E7
:107E400044F21002C4F206021068116801F0706179
:107E5000B1F1807F41F20021C0F27A0133D0136882
:107E600003F07063B3F1007F06D1D2F8F82102F07D
:107E700001025242114026E0136803F07063B3F12F
:107E8000407F07D1D2F8F81246F600410122C0F235
:107E9000DC2119E0136803F07063B3F1C06F21D1E6
:107EA000D2F8F8C5D2F8F82542F20003C2F3044232
:107EB000C0F2A17302FB0131CCF30222022303EBD7
:107EC0004202B1FBF2F10122002A08BF7047C0F361
:107ED00003400130B1FBF0F040F24451C1F6FF71B4
:107EE0000860704700210022EEE700004EF688503F
:107EF000CEF20000016841F440110160016841F4D4
:107F000040010160D0F8AC1121F08041C0F8AC1103
:107F100042F204004CF22051C4F20500CDF62811C3
:107F20000160016842F6201140F8041C4FF6FF7111
:107F300041607047FEE7000070B54FF20005C4F2E3
:107F40000F05044628460A2100220026FFF770FE8E
:107F5000E0B2C20928460421FFF76AFE032064004C
:107F600000F052FA28460A210122FFF761FE0320A1
:107F700000F04AFA28460A210022FFF759FE0320A2
:107F800000F042FA072E06F10106E1D370BD0000B1
:107F9000B0B54FF20004C4F20F04054620460A2192
:107FA0000122FFF745FE032000F02EFA20460421AF
:107FB0000122FFF73DFE032000F026FA20460421AF
:107FC0000022FFF735FE032000F01EFA20460A21AA
:107FD0000022FFF72DFE032000F016FA7820FFF7AD
:107FE000ABFF20460A210122FFF722FE032000F00A
:107FF0000BFA20460A210022FFF71AFE032000F0A8
:1080000003FA0020FFF798FF20460A210122FFF71C
:108010000FFE032000F0F8F920460A210022FFF7A6
:1080200007FE032000F0F0F92846FFF785FF204601
:108030000A210122FFF7FCFD032000F0E5F92046AC
:108040000A210022FFF7F4FD032000F0DDF92046AD
:108050000A210122FFF7ECFD032000F0D5F92046AC
:1080600004210022FFF7E4FD032000F0CDF92046B3
:1080700004210122FFF7DCFD0320BDE8B04000F041
:10808000C3B90000B0B54FF20004C4F20F040546B6
:1080900020460A210122FFF7CBFD032000F0B4F9AE
:1080A000204604210122FFF7C3FD032000F0ACF9B4
:1080B000204604210022FFF7BBFD032000F0A4F9B5
:1080C00020460A210022FFF7B3FD032000F09CF9AF
:1080D0007820FFF731FF20460A210122FFF7A8FD93
:1080E000032000F091F920460A210022FFF7A0FDAD
:1080F000032000F089F94020FFF71EFF20460A21E7
:108100000122FFF795FD032000F07EF920460A21A9
:108110000022FFF78DFD032000F076F92846FFF7D7
:108120000BFF20460A210122FFF782FD032000F009
:108130006BF920460A210022FFF77AFD032000F0A8
:1081400063F920460A210122FFF772FD032000F0A7
:108150005BF9204604210022FFF76AFD032000F0AE
:1081600053F9204604210122FFF762FD0320BDE8F8
:10817000B04000F049B9000041F28C1041F2901C6F
:10818000C0F20000C0F2000C0268DCF8003093423C
:1081900014D041F29411C0F20001096889080BD093
:1081A000043B043A012998BF012100BF52F8040F93
:1081B000013943F8040FF9D1DCF800204EF60850DD
:1081C000CEF200000260704700EB8100C260704791
:1081D000F0B581B00E462C211C4615460746F9F72E
:1081E0007DF8B878082161F31F10B8702046BE6092
:1081F000B047F9783C7101F03F0141EAC01005F049
:10820000010140EA8110F87001B0F0BD40F2181190
:10821000C2F200010A683AB1824204BF4FF0FF3057
:108220007047926A002AF7D10A68086082620020CB
:1082300070470000F0B581B040F21810C2F20000A3
:108240000468002C00F0DD8000250526012706E0EB
:10825000E0782DE0E070A46A002C00F0D280A168E4
:1082600020798847E1784A0702D0228801322280AB
:10827000B0EBD11F02D101F0C7000EE007EBD10235
:1082800002F0070201F0C70343EAC203032AE370C6
:1082900004D301F0470141EAC010E070E07800F03B
:1082A0000701052904D8DFE801F0061D32550362F5
:1082B00000F0F800CEE7A278C0F38011B1EBD01F38
:1082C00002F00F0064D1E168A07009B12046884730
:1082D000A078E17800F0F00001302580A07001F076
:1082E000F80042E0C0F38011B1EBD01F53D12088D9
:1082F000C928B0D3A078216A66F31F10A07009B115
:1083000020468847E07800F0F8000530A2E7C0F387
:108310008011B1EBD01F47D1A078E16800F00F00C9
:10832000A07009B120468847A07800F00F010F29FE
:1083300006D0411C01F00F0100F0F0000844A070CD
:10834000616909B120468847E078258000F0F8008F
:1083500003307FE7C0F38011B1EBD01F33D1218808
:108360003D29FFF478AF00F0F800013072E7A27801
:10837000C0F38011B1EBD01F02F00F0035D1616A5C
:1083800060300029A0703FF466AF2046884762E75E
:108390008030A0705FE7A078216967F31F10A0709C
:1083A000E9B1204688471AE020883D28FFF453AF02
:1083B000A07800F00F00022820D001287FF448AFF9
:1083C000A169303013E0A078216967F31F10A07015
:1083D00009B12046884720883B283FF639AFE0782E
:1083E000258000F0F800023034E7216910300029C0
:1083F000A0703FF42DAF2046884729E7E16940305F
:10840000F5E701B0F0BD000081B0009040F26800D7
:10841000C2F20000009902684EF21000CEF2000095
:108420005143416000218160016841F00101016018
:10843000016801F001110129FAD0016821F0010160
:1084400001600021816001B0704700004BF214010F
:10845000C4F206010A681202FCD588607047000069
:10846000FFF73CFCFFF7ECFC40F24850C1F6FF7010
:10847000FBF7B2F8FCF79AFFFCF774F841F25E14D0
:1084800041F2ED00C0F20004C0F200002146FDF709
:1084900051F8FFF763FB41F27A00C0F20000214679
:1084A000FDF748F8FFF7C2FA41F2B200C0F200004F
:1084B0002146FDF73FF8FDF743FDFEF75BFC40F674
:1084C000FB70C0F200002146FDF734F841F239009C
:1084D000C0F200002146FDF72DF840F6BF70C0F253
:1084E00000002146FDF726F840F67770C0F2000044
:1084F0002146FDF71FF84FF2C005C4F20F0547F6FD
:10850000FE71CFF6FE712846FFF79EFB2846FFF767
:1085100071FBC0F3C03241F22910C0F200002146C5
:10852000FDF708F82846FFF765FBC0F3004209A0F5
:108530002146FCF7FFFF2846FFF75CFB00F0010235
:1085400011A02146FCF7F6FF00F03AF800F0CAF857
:10855000FEE700BF1B5B303B33336D5B25735D2053
:10856000426C7565206C65642070696E73206F7550
:1085700074707574207374617475733A2025640D7A
:108580000A1B5B306D0D0A001B5B303B33336D5BA8
:1085900025735D20526564206C65642070696E737C
:1085A000206F7574707574207374617475733A20DC
:1085B00025640D0A0D0A1B5B306D0D0A00000000DA
:1085C00070B540F20C0448F29176C2F20004C0F299
:1085D00000062046314600220123FFF7F9FD40F254
:1085E0003805C2F200052846314600220223FFF773
:1085F000EFFD41F65512C0F2000220460021FFF7C0
:10860000E3FD41F6D912C0F2000220460121FFF736
:10861000DBFD41F69512C0F2000220460221FFF771
:10862000D3FD41F61922C0F2000220460321FFF7D4
:10863000CBFD41F68102C0F2000220460421FFF783
:10864000C3FD41F60D12C0F2000220460521FFF7DE
:10865000BBFD41F6C902C0F2000220460621FFF729
:10866000B3FD41F63932C0F2000228460021FFF77F
:10867000ABFD41F6BD32C0F2000228460121FFF7F2
:10868000A3FD41F67932C0F2000228460221FFF72D
:108690009BFD41F6FD32C0F2000228460321FFF7A0
:1086A00093FD41F66522C0F2000228460421FFF73F
:1086B0008BFD41F6F122C0F2000228460521FFF7AA
:1086C00083FD41F6AD22C0F2000228460621FFF7E5
:1086D0007BFD2046FFF79AFD2846BDE87040FFF776
:1086E00095BD000080B51BA200200021FEF75EFEB4
:1086F0001CA200200221FEF759FE9FED1E0A202039
:10870000042103220323FEF797FC1BA2202005214E
:10871000FEF70AFE002006210022FEF7FFFB1020D4
:1087200006210122FEF7FAFB202006210222FEF795
:10873000F5FB302006210322FEF7F0FB4020062146
:108740000422FEF7EBFB0FA250200621BDE880407B
:10875000FEF7EABD47656568792D47333241426FC0
:108760006172640054696D653A323032352E3032B0
:108770002E30380079E9F64242793A436F646572E7
:10878000456E64004932432D6F6C65640000000043
:1087900010B5012803D002280CD10D2400E00C24D0
:1087A0004FF28000C4F20F00FFF722FAE04000F021
:1087B000010010BD002010BD014B024A00F0D6B8E8
:1087C0004D8400000004FF1F02E008C8121F08C10A
:1087D000002AFAD170477047002001E001C1121F42
:1087E000002AFBD1704700002DE9FF5F82B0002115
:1087F000DDE90430020DDDF840B0034318D044F643
:108800001050A2F2FF3242431514119801281FD0D4
:10881000A5EB0B00401C5FEA000A4FF000064E4F2C
:10882000DFF83891B046504615D5CAF1000413E080
:10883000119801244AA3012801D16FEA0B01029883
:10884000119AC0E90031C0E9024206B0BDE8F09FCC
:10885000CBF10000DFE704460021404A491842EB13
:108860000450CDE9001012E0E00707D032463B4645
:1088700040464946F8F7E4FD8046894632463B4685
:1088800010461946F8F7DCFD06460F466410002C2A
:10889000EAD1DDE90401DDE90023BAF1000F06DACF
:1088A000F8F7CEFD42464B46F8F7CAFD05E0F8F76B
:1088B00009FF42464B46F8F705FF04460E460022E4
:1088C000284BF8F787FF03D84FF0FF30014607E049
:1088D0000022254B20463146F8F70BFDF8F761FFE3
:1088E000102409E0002C0ADB0A220023F8F7ACFC74
:1088F000039B30321A55641E50EA0102F2D1641C07
:10890000039AC4F111031444119A012A03D00122DD
:1089100008430DD10AE0084304D000204FF0110BAA
:10892000119072E7A3EB0B056D1E0DE05B4504DDB6
:108930004FF0000205F1010504E003DA4FF00002F8
:10894000A5F10105002AECD002981199C0E9023185
:10895000C0E9004579E70000000014400000F03F46
:10896000300000000000F0430000E03F2DE9FF4F21
:1089700095B09B468946064600250FE2252877D10B
:1089800000242746F84A0121059400E0044316F824
:10899000013F203B01FA03F01042F7D130782A283A
:1089A00011D06FF02F033078A0F13002092A16D8C9
:1089B000059A44F0020402EB820203EB42021044E7
:1089C000761C0590EFE759F8042B0592002A03DA8C
:1089D000504244F40054059044F00204761C307870
:1089E0002E2816D116F8010F44F004042A280DD0C1
:1089F0006FF02F023078A0F13003092B09D807EB74
:108A0000870302EB4303C718761CF3E759F8047B8E
:108A1000761C30786C280FD006DC4C2817D06828DC
:108A20000DD06A2814D104E0742810D07A280FD110
:108A30000DE044F400140AE044F4801401E044F42E
:108A400040147278824202D104F58014761C761CA0
:108A5000307866280BD013DC582877D009DC002842
:108A600075D04528F6D04628F4D047281AD19DE184
:108A700018E0632835D0642879D0652812D195E1B3
:108A8000702873D008DC6728F1D069286FD06E2871
:108A90000DD06F2806D1B5E073282CD0752875D07D
:108AA000782874D05A46179990476D1C75E1C4F325
:108AB0000250022809D003280DD0D9F8001004284C
:108AC0000DD00D6009F1040967E1D9F80010EA172B
:108AD000C1E90052F6E7D9F800100D80F2E70D70F9
:108AE000F0E719F8041B8DF8001000208DF8010044
:108AF000EA46012003E059F804AB4FF0FF3061076C
:108B00004FF0000102D40DE008F101018846B9429E
:108B10000FDA8045F8DB1AF808100029F4D108E0D4
:108B200008F1010188468142FADB1AF80810002991
:108B3000F6D105985B46A0EB080721463846179A00
:108B400000F094FA284400EB080507E04DE029E125
:108B50000DE01AF8010B5A4617999047B8F1010831
:108B6000F7D25B4621463846179A13E142E00A22C3
:108B70000092C4F302524FF0000A022A08D059F8BA
:108B800004CB032A4FEAEC710AD00DE029E02AE079
:108B900009F1070121F00702F2E802C1914609E05C
:108BA0000FFA8CFC4FEAEC71042A03D14FFA8CFCCB
:108BB0004FEAEC71002907DA0A460021DCF1000CCB
:108BC00061EB02012D2202E0220504D52B228DF853
:108BD0000420012203E0E20701D02022F7E79046BB
:108BE00059E00A2102E010220DE010214FF0000AA6
:108BF00000910BE010224FF0000A44F00404082713
:108C0000009203E008224FF0000A0092C4F30252DF
:108C1000022A05D059F804CB0021032A08D009E024
:108C200009F1070121F00702F2E802C1914605E0CF
:108C30001FFA8CFC042A01D10CF0FF0C4FF0000845
:108C4000220728D5702806D0009B83F0100353EA32
:108C50000A0305D00EE040228DF80420012208E02E
:108C60005CEA010206D030228DF804208DF8050060
:108C700002229046009B83F0080353EA0A030AD1BC
:108C80005CEA010201D1620705D530228DF804208B
:108C90004FF001087F1E582804D034A003900EA87E
:108CA00002900DE036A0F9E753466046009AF8F7C7
:108CB000CBFA84460398825C0298401E02900270B0
:108CC0005CEA0100F0D1029806A9081A00F1200A16
:108CD000600702D524F4803400E00127574502DD07
:108CE000A7EB0A0000E0002000EB0A0100900598C5
:108CF0004144401A0590E00306D45B462146179A8A
:108D0000059800F0B3F90544002706E001A85A468B
:108D1000C05D179990476D1C7F1C4745F6DBE0034B
:108D20000CD55B462146179A059800F09FF905443B
:108D300004E030205A46179990476D1C0099481E50
:108D400000900029F5DC08E0029802995A46007864
:108D5000491C0291179990476D1CBAF10001AAF1C4
:108D6000010AF1DC65E100000928010030313233ED
:108D70003435363738396162636465660000000057
:108D80003031323334353637383941424344454641
:108D90000000000000F058F90544761C30780028E7
:108DA0007FF4ECAD19B02846BDE8F08F620700D41F
:108DB000062709F1070222F0070CFCE80223E1462E
:108DC00003F000485FEA080C02D00FF2702C0DE0AF
:108DD0005FEA045C02D50FF2682C07E05FEAC47C0E
:108DE00002D00FF2602C01E0AFF2700C4FF0FF38B0
:108DF00023F00043CDF850C065280CD006DC452890
:108E000009D046281DD047283DD13DE0662818D01E
:108E100067287ED138E00021112F01DB112000E00E
:108E2000781CCDE9000106A90EA8FFF7DDFCDDE9FD
:108E30000F010E9A03910021009207F1010A04919B
:108E40004DE04FF000400097CDE9011006A90EA8B3
:108E5000FFF7CAFCDDE90F0203920E9B1199002275
:108E6000DDF80CA00093049211B9791C00EB010A03
:108E7000B7EB0A0004D4C0F1FF3007F1010A0490F7
:108E8000AAEB0700019044E0012F00DA012700213E
:108E9000112F01DD112000E03846CDE9000106A9BF
:108EA0000EA8FFF7A1FCDDE90F010E9A0391002146
:108EB00004910092BA4621070CD40399514500DA77
:108EC0008A46BAF1010F05DD009AAAF10101515C51
:108ED000302908D0B84202DA10F1040F06DA012175
:108EE000CDE9011015E0AAF10101E9E7002805DC50
:108EF000049901440491AAEB000102E0411C514590
:108F000000DD8A460499401A401C01904FF0004051
:108F10000290200704D40198504501DBCDF804806D
:108F200000208DF84F0002980DF14F07B0F1004F6F
:108F300025D02B200E9002984FF0020800280CDA62
:108F4000404202902D200E9007E00A210298F8F787
:108F500015FB3031029007F8011DB8F10001A8F1AE
:108F60000108F2DC02980028EFD1791E0E980870F3
:108F7000307800F0200040F0450007F8020D12A8FC
:108F8000C01B00F107081498007800B1012000EB25
:108F90000A01019801EBE07105984144401A401E16
:108FA0000590E00306D45B462146179A059800F029
:108FB0005DF805441498007818B15A4617999047FF
:108FC0006D1CE00324D55B462146179A059800F0F6
:108FD0004DF805441CE00498002807DBDDE9030197
:108FE000884203DD0098405C179901E01799302012
:108FF0005A469047049805F10105401C04900198D9
:10900000401E019004D12E205A46179990476D1C9E
:10901000BAF10001AAF1010ADDDC05E017F8010B45
:109020005A46179990476D1CB8F10001A8F1010844
:10903000F4DC5B462146179A0598ABE62D0000004C
:109040002B000000200000002DE9F041044600251F
:109050001E461746880404D405E039462020B04750
:109060006D1C641EF9D52846BDE8F0812DE9F0415C
:10907000044600251E469046C80301D5302700E06F
:109080002027880404D505E041463846B0476D1CCA
:10909000641EF9D52846BDE8F0810000BC900000B0
:1090A0000004FF1FB80200002818000014920000FE
:1090B000000000201C010000D887000041000F12B2
:1090C0001010D0FF90100202FE0202625AC6130472
:1090D0000312FF000B1143308F80432C102C438070
:1090E000080F111060020CC01008F714549414F407
:1090F000044014047C03000B13011D1311559951F6
:109100003F1101000C134244584040FF404050487A
:10911000464A04015AFF0801135B7E92010C149E1B
:1091200080E0400808140C34040444847F40180B89
:109130008060F807101010D0FFD006011219B20895
:109140000C11FF1008040B08FF080B0408213D6CEC
:10915000DC020101192C290429322B127A092A0375
:1091600010290F21120C5B02030B71391D1303032D
:1091700015010203011A063B393C39433928042101
:1091800080841E497839331132226D0806FF1F4151
:109190009B881370692514C002401AD00426E0028F
:1091A0004055651A5D041A65042A291D2A2A052AD4
:1091B0002B052A2C052A2D052A2E052A2F052A30B3
:1091C000052A31052A32052A34052A35052A3605AD
:1091D0002A37052A38052A3A05243C01022A3D058A
:1091E0002A3E052A3F052A40052A41052A43052A29
:1091F00044052A45052A46052A47052A48052A49DD
:10920000052A4A052A4B052A4C052A4D052A4E05F2
:049210002123B987D6
:040000050000117175
:00000001FF
